{
  "_format": "hh-sol-artifact-1",
  "contractName": "AltarOfAscension",
  "sourceName": "contracts/current/core/AltarOfAscension.sol",
  "abi": [
    {
      "inputs": [
        {
          "internalType": "address",
          "name": "_initialOwner",
          "type": "address"
        }
      ],
      "stateMutability": "nonpayable",
      "type": "constructor"
    },
    {
      "inputs": [],
      "name": "EnforcedPause",
      "type": "error"
    },
    {
      "inputs": [],
      "name": "ExpectedPause",
      "type": "error"
    },
    {
      "inputs": [
        {
          "internalType": "address",
          "name": "owner",
          "type": "address"
        }
      ],
      "name": "OwnableInvalidOwner",
      "type": "error"
    },
    {
      "inputs": [
        {
          "internalType": "address",
          "name": "account",
          "type": "address"
        }
      ],
      "name": "OwnableUnauthorizedAccount",
      "type": "error"
    },
    {
      "inputs": [],
      "name": "ReentrancyGuardReentrantCall",
      "type": "error"
    },
    {
      "anonymous": false,
      "inputs": [
        {
          "indexed": true,
          "internalType": "address",
          "name": "player",
          "type": "address"
        },
        {
          "indexed": false,
          "internalType": "uint8",
          "name": "bonusRate",
          "type": "uint8"
        }
      ],
      "name": "AdditionalVIPBonusSet",
      "type": "event"
    },
    {
      "anonymous": false,
      "inputs": [
        {
          "indexed": true,
          "internalType": "address",
          "name": "user",
          "type": "address"
        },
        {
          "indexed": false,
          "internalType": "uint256",
          "name": "requestId",
          "type": "uint256"
        },
        {
          "indexed": false,
          "internalType": "string",
          "name": "reason",
          "type": "string"
        }
      ],
      "name": "EmergencyCleanup",
      "type": "event"
    },
    {
      "anonymous": false,
      "inputs": [
        {
          "indexed": true,
          "internalType": "address",
          "name": "previousOwner",
          "type": "address"
        },
        {
          "indexed": true,
          "internalType": "address",
          "name": "newOwner",
          "type": "address"
        }
      ],
      "name": "OwnershipTransferred",
      "type": "event"
    },
    {
      "anonymous": false,
      "inputs": [
        {
          "indexed": false,
          "internalType": "address",
          "name": "account",
          "type": "address"
        }
      ],
      "name": "Paused",
      "type": "event"
    },
    {
      "anonymous": false,
      "inputs": [
        {
          "indexed": true,
          "internalType": "address",
          "name": "player",
          "type": "address"
        },
        {
          "indexed": false,
          "internalType": "uint256",
          "name": "totalAttempts",
          "type": "uint256"
        },
        {
          "indexed": false,
          "internalType": "uint256",
          "name": "totalBurned",
          "type": "uint256"
        },
        {
          "indexed": false,
          "internalType": "uint256",
          "name": "totalMinted",
          "type": "uint256"
        }
      ],
      "name": "PlayerStatsUpdated",
      "type": "event"
    },
    {
      "anonymous": false,
      "inputs": [
        {
          "indexed": false,
          "internalType": "address",
          "name": "account",
          "type": "address"
        }
      ],
      "name": "Unpaused",
      "type": "event"
    },
    {
      "anonymous": false,
      "inputs": [
        {
          "indexed": true,
          "internalType": "address",
          "name": "player",
          "type": "address"
        },
        {
          "indexed": true,
          "internalType": "address",
          "name": "tokenContract",
          "type": "address"
        },
        {
          "indexed": false,
          "internalType": "uint8",
          "name": "baseRarity",
          "type": "uint8"
        },
        {
          "indexed": false,
          "internalType": "uint8",
          "name": "targetRarity",
          "type": "uint8"
        },
        {
          "indexed": false,
          "internalType": "uint256[]",
          "name": "burnedTokenIds",
          "type": "uint256[]"
        },
        {
          "indexed": false,
          "internalType": "uint256[]",
          "name": "mintedTokenIds",
          "type": "uint256[]"
        },
        {
          "indexed": false,
          "internalType": "uint8",
          "name": "outcome",
          "type": "uint8"
        },
        {
          "indexed": false,
          "internalType": "uint256",
          "name": "fee",
          "type": "uint256"
        },
        {
          "indexed": false,
          "internalType": "uint8",
          "name": "vipLevel",
          "type": "uint8"
        },
        {
          "indexed": false,
          "internalType": "uint8",
          "name": "totalVipBonus",
          "type": "uint8"
        }
      ],
      "name": "UpgradeAttempted",
      "type": "event"
    },
    {
      "anonymous": false,
      "inputs": [
        {
          "indexed": true,
          "internalType": "address",
          "name": "player",
          "type": "address"
        },
        {
          "indexed": false,
          "internalType": "address",
          "name": "tokenContract",
          "type": "address"
        },
        {
          "indexed": false,
          "internalType": "uint8",
          "name": "baseRarity",
          "type": "uint8"
        },
        {
          "indexed": false,
          "internalType": "uint256[]",
          "name": "burnedTokenIds",
          "type": "uint256[]"
        }
      ],
      "name": "UpgradeRequested",
      "type": "event"
    },
    {
      "anonymous": false,
      "inputs": [
        {
          "indexed": true,
          "internalType": "address",
          "name": "player",
          "type": "address"
        },
        {
          "indexed": false,
          "internalType": "uint8",
          "name": "outcome",
          "type": "uint8"
        },
        {
          "indexed": false,
          "internalType": "uint8",
          "name": "targetRarity",
          "type": "uint8"
        }
      ],
      "name": "UpgradeRevealed",
      "type": "event"
    },
    {
      "anonymous": false,
      "inputs": [
        {
          "indexed": true,
          "internalType": "uint8",
          "name": "fromRarity",
          "type": "uint8"
        },
        {
          "components": [
            {
              "internalType": "uint8",
              "name": "materialsRequired",
              "type": "uint8"
            },
            {
              "internalType": "uint256",
              "name": "nativeFee",
              "type": "uint256"
            },
            {
              "internalType": "uint8",
              "name": "greatSuccessChance",
              "type": "uint8"
            },
            {
              "internalType": "uint8",
              "name": "successChance",
              "type": "uint8"
            },
            {
              "internalType": "uint8",
              "name": "partialFailChance",
              "type": "uint8"
            },
            {
              "internalType": "uint256",
              "name": "cooldownTime",
              "type": "uint256"
            },
            {
              "internalType": "bool",
              "name": "isActive",
              "type": "bool"
            }
          ],
          "indexed": false,
          "internalType": "struct AltarOfAscension.UpgradeRule",
          "name": "rule",
          "type": "tuple"
        }
      ],
      "name": "UpgradeRuleSet",
      "type": "event"
    },
    {
      "anonymous": false,
      "inputs": [
        {
          "indexed": true,
          "internalType": "address",
          "name": "vrfManager",
          "type": "address"
        }
      ],
      "name": "VRFManagerSet",
      "type": "event"
    },
    {
      "anonymous": false,
      "inputs": [
        {
          "indexed": true,
          "internalType": "uint256",
          "name": "requestId",
          "type": "uint256"
        },
        {
          "indexed": false,
          "internalType": "uint256",
          "name": "randomWordsCount",
          "type": "uint256"
        }
      ],
      "name": "VRFRequestFulfilled",
      "type": "event"
    },
    {
      "inputs": [],
      "name": "MAX_ADDITIONAL_BONUS",
      "outputs": [
        {
          "internalType": "uint8",
          "name": "",
          "type": "uint8"
        }
      ],
      "stateMutability": "view",
      "type": "function"
    },
    {
      "inputs": [],
      "name": "MAX_VIP_BONUS",
      "outputs": [
        {
          "internalType": "uint8",
          "name": "",
          "type": "uint8"
        }
      ],
      "stateMutability": "view",
      "type": "function"
    },
    {
      "inputs": [
        {
          "internalType": "address",
          "name": "",
          "type": "address"
        }
      ],
      "name": "activeUpgradeRequest",
      "outputs": [
        {
          "internalType": "uint256",
          "name": "",
          "type": "uint256"
        }
      ],
      "stateMutability": "view",
      "type": "function"
    },
    {
      "inputs": [
        {
          "internalType": "address",
          "name": "",
          "type": "address"
        }
      ],
      "name": "additionalVipBonusRate",
      "outputs": [
        {
          "internalType": "uint8",
          "name": "",
          "type": "uint8"
        }
      ],
      "stateMutability": "view",
      "type": "function"
    },
    {
      "inputs": [],
      "name": "dungeonCore",
      "outputs": [
        {
          "internalType": "contract IDungeonCore",
          "name": "",
          "type": "address"
        }
      ],
      "stateMutability": "view",
      "type": "function"
    },
    {
      "inputs": [
        {
          "internalType": "address",
          "name": "user",
          "type": "address"
        }
      ],
      "name": "emergencyCleanupUser",
      "outputs": [],
      "stateMutability": "nonpayable",
      "type": "function"
    },
    {
      "inputs": [
        {
          "internalType": "uint256[]",
          "name": "tokenIds",
          "type": "uint256[]"
        }
      ],
      "name": "emergencyUnlock",
      "outputs": [],
      "stateMutability": "nonpayable",
      "type": "function"
    },
    {
      "inputs": [
        {
          "internalType": "uint8",
          "name": "_baseRarity",
          "type": "uint8"
        }
      ],
      "name": "getUpgradeCost",
      "outputs": [
        {
          "internalType": "uint256",
          "name": "totalCost",
          "type": "uint256"
        }
      ],
      "stateMutability": "view",
      "type": "function"
    },
    {
      "inputs": [
        {
          "internalType": "address",
          "name": "_user",
          "type": "address"
        }
      ],
      "name": "getUserRequest",
      "outputs": [
        {
          "components": [
            {
              "internalType": "address",
              "name": "tokenContract",
              "type": "address"
            },
            {
              "internalType": "uint8",
              "name": "baseRarity",
              "type": "uint8"
            },
            {
              "internalType": "uint256[]",
              "name": "burnedTokenIds",
              "type": "uint256[]"
            },
            {
              "internalType": "bool",
              "name": "fulfilled",
              "type": "bool"
            },
            {
              "internalType": "uint256",
              "name": "payment",
              "type": "uint256"
            }
          ],
          "internalType": "struct AltarOfAscension.UpgradeRequest",
          "name": "",
          "type": "tuple"
        }
      ],
      "stateMutability": "view",
      "type": "function"
    },
    {
      "inputs": [],
      "name": "globalStats",
      "outputs": [
        {
          "internalType": "uint256",
          "name": "totalAttempts",
          "type": "uint256"
        },
        {
          "internalType": "uint256",
          "name": "totalBurned",
          "type": "uint256"
        },
        {
          "internalType": "uint256",
          "name": "totalMinted",
          "type": "uint256"
        },
        {
          "internalType": "uint256",
          "name": "totalFeesCollected",
          "type": "uint256"
        }
      ],
      "stateMutability": "view",
      "type": "function"
    },
    {
      "inputs": [],
      "name": "heroContract",
      "outputs": [
        {
          "internalType": "contract IHero",
          "name": "",
          "type": "address"
        }
      ],
      "stateMutability": "view",
      "type": "function"
    },
    {
      "inputs": [
        {
          "internalType": "address",
          "name": "",
          "type": "address"
        },
        {
          "internalType": "uint8",
          "name": "",
          "type": "uint8"
        }
      ],
      "name": "lastUpgradeTime",
      "outputs": [
        {
          "internalType": "uint256",
          "name": "",
          "type": "uint256"
        }
      ],
      "stateMutability": "view",
      "type": "function"
    },
    {
      "inputs": [
        {
          "internalType": "uint256",
          "name": "",
          "type": "uint256"
        }
      ],
      "name": "lockedTokens",
      "outputs": [
        {
          "internalType": "bool",
          "name": "",
          "type": "bool"
        }
      ],
      "stateMutability": "view",
      "type": "function"
    },
    {
      "inputs": [
        {
          "internalType": "uint256",
          "name": "requestId",
          "type": "uint256"
        },
        {
          "internalType": "uint256[]",
          "name": "randomWords",
          "type": "uint256[]"
        }
      ],
      "name": "onVRFFulfilled",
      "outputs": [],
      "stateMutability": "nonpayable",
      "type": "function"
    },
    {
      "inputs": [],
      "name": "owner",
      "outputs": [
        {
          "internalType": "address",
          "name": "",
          "type": "address"
        }
      ],
      "stateMutability": "view",
      "type": "function"
    },
    {
      "inputs": [],
      "name": "pause",
      "outputs": [],
      "stateMutability": "nonpayable",
      "type": "function"
    },
    {
      "inputs": [],
      "name": "paused",
      "outputs": [
        {
          "internalType": "bool",
          "name": "",
          "type": "bool"
        }
      ],
      "stateMutability": "view",
      "type": "function"
    },
    {
      "inputs": [
        {
          "internalType": "address",
          "name": "",
          "type": "address"
        }
      ],
      "name": "playerStats",
      "outputs": [
        {
          "internalType": "uint256",
          "name": "totalAttempts",
          "type": "uint256"
        },
        {
          "internalType": "uint256",
          "name": "totalBurned",
          "type": "uint256"
        },
        {
          "internalType": "uint256",
          "name": "totalMinted",
          "type": "uint256"
        },
        {
          "internalType": "uint256",
          "name": "totalFeesCollected",
          "type": "uint256"
        }
      ],
      "stateMutability": "view",
      "type": "function"
    },
    {
      "inputs": [],
      "name": "relicContract",
      "outputs": [
        {
          "internalType": "contract IRelic",
          "name": "",
          "type": "address"
        }
      ],
      "stateMutability": "view",
      "type": "function"
    },
    {
      "inputs": [],
      "name": "renounceOwnership",
      "outputs": [],
      "stateMutability": "nonpayable",
      "type": "function"
    },
    {
      "inputs": [
        {
          "internalType": "uint256",
          "name": "",
          "type": "uint256"
        }
      ],
      "name": "requestIdToUser",
      "outputs": [
        {
          "internalType": "address",
          "name": "",
          "type": "address"
        }
      ],
      "stateMutability": "view",
      "type": "function"
    },
    {
      "inputs": [
        {
          "internalType": "address",
          "name": "_player",
          "type": "address"
        },
        {
          "internalType": "uint8",
          "name": "_bonusRate",
          "type": "uint8"
        }
      ],
      "name": "setAdditionalVIPBonus",
      "outputs": [],
      "stateMutability": "nonpayable",
      "type": "function"
    },
    {
      "inputs": [
        {
          "internalType": "address",
          "name": "_address",
          "type": "address"
        }
      ],
      "name": "setDungeonCore",
      "outputs": [],
      "stateMutability": "nonpayable",
      "type": "function"
    },
    {
      "inputs": [
        {
          "internalType": "uint8",
          "name": "_fromRarity",
          "type": "uint8"
        },
        {
          "components": [
            {
              "internalType": "uint8",
              "name": "materialsRequired",
              "type": "uint8"
            },
            {
              "internalType": "uint256",
              "name": "nativeFee",
              "type": "uint256"
            },
            {
              "internalType": "uint8",
              "name": "greatSuccessChance",
              "type": "uint8"
            },
            {
              "internalType": "uint8",
              "name": "successChance",
              "type": "uint8"
            },
            {
              "internalType": "uint8",
              "name": "partialFailChance",
              "type": "uint8"
            },
            {
              "internalType": "uint256",
              "name": "cooldownTime",
              "type": "uint256"
            },
            {
              "internalType": "bool",
              "name": "isActive",
              "type": "bool"
            }
          ],
          "internalType": "struct AltarOfAscension.UpgradeRule",
          "name": "_rule",
          "type": "tuple"
        }
      ],
      "name": "setUpgradeRule",
      "outputs": [],
      "stateMutability": "nonpayable",
      "type": "function"
    },
    {
      "inputs": [
        {
          "internalType": "address",
          "name": "_vrfManager",
          "type": "address"
        }
      ],
      "name": "setVRFManager",
      "outputs": [],
      "stateMutability": "nonpayable",
      "type": "function"
    },
    {
      "inputs": [
        {
          "internalType": "address",
          "name": "newOwner",
          "type": "address"
        }
      ],
      "name": "transferOwnership",
      "outputs": [],
      "stateMutability": "nonpayable",
      "type": "function"
    },
    {
      "inputs": [],
      "name": "unpause",
      "outputs": [],
      "stateMutability": "nonpayable",
      "type": "function"
    },
    {
      "inputs": [
        {
          "internalType": "address",
          "name": "_tokenContract",
          "type": "address"
        },
        {
          "internalType": "uint256[]",
          "name": "_tokenIds",
          "type": "uint256[]"
        }
      ],
      "name": "upgradeNFTs",
      "outputs": [],
      "stateMutability": "payable",
      "type": "function"
    },
    {
      "inputs": [
        {
          "internalType": "uint8",
          "name": "",
          "type": "uint8"
        }
      ],
      "name": "upgradeRules",
      "outputs": [
        {
          "internalType": "uint8",
          "name": "materialsRequired",
          "type": "uint8"
        },
        {
          "internalType": "uint256",
          "name": "nativeFee",
          "type": "uint256"
        },
        {
          "internalType": "uint8",
          "name": "greatSuccessChance",
          "type": "uint8"
        },
        {
          "internalType": "uint8",
          "name": "successChance",
          "type": "uint8"
        },
        {
          "internalType": "uint8",
          "name": "partialFailChance",
          "type": "uint8"
        },
        {
          "internalType": "uint256",
          "name": "cooldownTime",
          "type": "uint256"
        },
        {
          "internalType": "bool",
          "name": "isActive",
          "type": "bool"
        }
      ],
      "stateMutability": "view",
      "type": "function"
    },
    {
      "inputs": [
        {
          "internalType": "address",
          "name": "",
          "type": "address"
        }
      ],
      "name": "userRequests",
      "outputs": [
        {
          "internalType": "address",
          "name": "tokenContract",
          "type": "address"
        },
        {
          "internalType": "uint8",
          "name": "baseRarity",
          "type": "uint8"
        },
        {
          "internalType": "bool",
          "name": "fulfilled",
          "type": "bool"
        },
        {
          "internalType": "uint256",
          "name": "payment",
          "type": "uint256"
        }
      ],
      "stateMutability": "view",
      "type": "function"
    },
    {
      "inputs": [],
      "name": "vrfManager",
      "outputs": [
        {
          "internalType": "address",
          "name": "",
          "type": "address"
        }
      ],
      "stateMutability": "view",
      "type": "function"
    },
    {
      "inputs": [],
      "name": "withdrawBNB",
      "outputs": [],
      "stateMutability": "nonpayable",
      "type": "function"
    },
    {
      "stateMutability": "payable",
      "type": "receive"
    }
  ],
  "bytecode": "0x608034620003ad57601f62002fe338819003918201601f19168301916001600160401b03831184841017620003b257808492602094604052833981010312620003ad57516001600160a01b0380821691829003620003ad57811562000394576000548260018060a01b0319821617600055167f8be0079c531659141344cd1fd0a4f28419497f9722a3daafe3b4186f6b6457e0600080a360018055620000a4620003c8565b600581526611c37937e08000602082015260086040820152604d6060820152600d6080820152600a60a0820152600160c08201526001600052600e60205260c06004604060002060ff84511660ff198254161781556020840151600182015560ff60408501511660028201549061ff00606087015160081b169062ff0000608088015160101b169262ffffff1916171717600282015560a0840151600382015501910151151560ff8019835416911617905562000160620003c8565b60048152662386f26fc100006020820152600660408201526045606082015260146080820152600a60a0820152600160c08201526002600052600e60205260c06004604060002060ff84511660ff19825416178155602084015160018201556002810160ff60408601511681549061ff00606088015160081b169062ff0000608089015160101b169262ffffff1916171717905560a0840151600382015501910151151560ff801983541691161790556200021a620003c8565b6003815266470de4df8200006020820152600460408201526029606082015260286080820152600a60a0820152600160c08201526003600052600e60205260c06004604060002060ff84511660ff19825416178155602084015160018201556002810160ff60408601511681549061ff00606088015160081b169062ff0000608089015160101b169262ffffff1916171717905560a0840151600382015501910151151560ff80198354169116179055620002d4620003c8565b6002815266b1a2bc2ec500006020820152600360408201526016606082015260326080820152600a60a0820152600160c08201526004600052600e60205260c06004604060002060ff84511660ff19825416178155602084015160018201556002810160ff60408601511681549061ff00606088015160081b169062ff0000608089015160101b169262ffffff1916171717905560a0840151600382015501910151151560ff80198354169116179055604051612bfa9081620003e98239f35b604051631e4fbdf760e01b815260006004820152602490fd5b600080fd5b634e487b7160e01b600052604160045260246000fd5b6040519060e082016001600160401b03811183821017620003b25760405256fe60406080815260049081361015610020575b5050361561001e57600080fd5b005b600090813560e01c9283630b5fbf4f14610fc75783630b656b4714610f045783630daf999a14610edd5783631d111d1314610e165783631d2319bf14610ddd57836320d40fec14610cc457836324a342d714610c495783632a32e8d414610c0c5783633f4ba83a14610b8b5783635bb9d7c914610b175783635c975abb14610af457836367cfab5814610aca5783636ab1b29b146109515783636e43886114610908578363715018a6146108af5783637a33eabc1461084b5783638456cb59146107f15783638da5cb5b146107cc578363ac0cc6e414610796578363c1b39a3e1461076f578363cdafbbb614610709578363d45d929214610662578363d5654ae71461063c578363d6042eb814610526578363dc7d73bb146104f7578363dcec3294146104cc578363e24ef97614610192578363e4dc4efc14610487578363e8601c6614610421578363f1a550bd14610239578363f2fde38b146101975750505063fa9cefb814610192573880610011565b611152565b34610235576020366003190112610235576101b0611018565b906101b961116e565b6001600160a01b038092169283156102065750508254826001600160a01b03198216178455167f8be0079c531659141344cd1fd0a4f28419497f9722a3daafe3b4186f6b6457e08380a380f35b908460249251917f1e4fbdf7000000000000000000000000000000000000000000000000000000008352820152fd5b8280fd5b346102355761010036600319011261023557610253610ff3565b60e036602319011261041d5761026761116e565b60ff80911692600184101580610413575b610281906129f1565b6064826102a86102a0610292612b94565b61029a612ba4565b90611ef4565b61029a612bb4565b16116103d157838552600e602052808520926024358381168091036103c55760ff198554161784556044359182600186015560028501846102e7612b94565b1681549061ff006102f6612ba4565b60081b169062ff0000610307612bb4565b60101b169262ffffff1916171717905560c4359485600382015560e435801515938482036103cd5761034592019060ff801983541691151516179055565b80519284610351611008565b1684526020840152606435908482168092036103c9578301526084358381168091036103c557606083015260a4359283168093036103c1577fdd3e24032c64538bc58e54b229496277fe66257702d4ddc3f1eb09f0a03d7b2b9360e093608084015260a083015260c0820152a280f35b8580fd5b8680fd5b8780fd5b8980fd5b5162461bcd60e51b8152602081840152601660248201527f416c7461723a20496e76616c6964206368616e636573000000000000000000006044820152606490fd5b5082841115610278565b8380fd5b50346104835760203660031901126104835790816080926001600160a01b03928361044a611018565b1681526011602052209081549160ff600381600284015416920154938351958116865260a01c1660208501521515908301526060820152f35b5080fd5b5090346104c957806003193601126104c95750600a54600b54600c54600d549351928352602083019190915260408201526060810191909152608090f35b0390f35b80fd5b34610235576020366003190112610235578160209360ff923581526007855220541690519015158152f35b3461023557602036600319011261023557816020936001600160a01b0392358152600885522054169051908152f35b5090346104c957602090816003193601126104c95790610544611018565b9180608085516105538161102e565b828152828582015260608782015282606082015201526001600160a01b038093168152601182528381208451916105898361102e565b815492858416815260ff8582019460a01c16845286516001976105b9826105b2818c8901611d40565b03836110ac565b80830191825260ff6003816002880154169660608601971515885201549660808501978852825199898b5260c08b01955116898b0152511690880152519460a0606088015285518092528060e088019601925b82811061062957845115156080890152855160a089015287870388f35b835187529581019592810192880161060c565b91346104c957806003193601126104c957506001600160a01b0360209254169051908152f35b92508060031936011261048357610677611018565b6024359367ffffffffffffffff9283861161070557366023870112156107055785820135938411610705573660248560051b88010111610705576106b9611ce9565b6002600154146106df57505060246106d893946002600155019061120a565b6001805580f35b517f3ee5aeb5000000000000000000000000000000000000000000000000000000008152fd5b8480fd5b50346104835760203660031901126104835780916001600160a01b0361072d611018565b168152600960205220906104c5825491600184015493600360028201549101549151948594859094939260609260808301968352602083015260408201520152565b50346104835781600319360112610483576020906001600160a01b03600554169051908152f35b503461048357602036600319011261048357806020926001600160a01b036107bc611018565b1681526006845220549051908152f35b50346104835781600319360112610483576001600160a01b0360209254169051908152f35b503461048357816003193601126104835760207f62e78cea01bee320cd4e420270b5ea74000d11b0c9f74754ebdbfc544b05a2589161082e61116e565b610836611ce9565b600160ff19600254161760025551338152a180f35b82346104c95760203660031901126104c9576001600160a01b0361086d611018565b61087561116e565b16806001600160a01b031960055416176005557feda44c694e75c8161562f6179238b37a8daa291b6b2229613ed903ed92ab2d3d8280a280f35b82346104c957806003193601126104c9576108c861116e565b806001600160a01b0381546001600160a01b031981168355167f8be0079c531659141344cd1fd0a4f28419497f9722a3daafe3b4186f6b6457e08280a380f35b503461048357806003193601126104835780602092610925611018565b6001600160a01b03610935611008565b91168252600f855260ff83832091168252845220549051908152f35b9034610235576020908160031936011261041d5761096d611018565b61097561116e565b7fffffffffffffffffffffff0000000000000000000000000000000000000000ff74ffffffffffffffffffffffffffffffffffffffff006002549260081b1691161790816002556001600160a01b03809260081c16928151937f8db7d31200000000000000000000000000000000000000000000000000000000855281858781845afa948515610ac057908692918896610a9f575b508190856001600160a01b031997168760035416176003558451938480927f532c50450000000000000000000000000000000000000000000000000000000082525afa928315610a9657508692610a69575b5050169082541617905580f35b610a889250803d10610a8f575b610a8081836110ac565b810190611e30565b8580610a5c565b503d610a76565b513d88823e3d90fd5b82919650610ab990823d8411610a8f57610a8081836110ac565b9590610a0a565b83513d89823e3d90fd5b50346104835781600319360112610483576020906001600160a01b0360025460081c169051908152f35b503461048357816003193601126104835760209060ff6002541690519015158152f35b9034610235576020918260031936011261041d5780359067ffffffffffffffff821161070557610b4991369101611134565b91610b5261116e565b835b8351811015610b875780610b6b610b829286611d2c565b51865260078352838620805460ff191690556111d5565b610b54565b8480f35b34610235578260031936011261023557610ba361116e565b6002549060ff821615610be5575060ff1916600255513381527f5db9ee0a495bf2e6ff9c91a7834c1ba4fdd244a5e8aa4e537bd38aeae4b073aa90602090a180f35b82517f8dfc202b000000000000000000000000000000000000000000000000000000008152fd5b903461023557366003190112610483576024359067ffffffffffffffff821161023557610c3f610c469236908301611134565b9035611d7d565b80f35b90346102355760203660031901126102355760e0928160ff9182610c6b610ff3565b168152600e6020522090808254169360018301549382600285015492600386015495015416948151968752602087015282821690860152818160081c16606086015260101c16608084015260a0830152151560c0820152f35b903461023557602036600319011261023557610cde611018565b610ce661116e565b6001600160a01b03908181169384865260116020528386209283541615610d9a5750600d7fec85fa88a7470d2823266d8a40214ee4e2ed6362776bff3605e08901500979d893610d626001608095610d5d95898b526006602052848b2054968792610d5687518096819301611d40565b03846110ac565b61275b565b80519283528060208401528201527f41646d696e20636c65616e7570000000000000000000000000000000000000006060820152a280f35b606490602085519162461bcd60e51b8352820152601960248201527f416c7461723a204e6f2070656e64696e672072657175657374000000000000006044820152fd5b50346104835760203660031901126104835760ff816020936001600160a01b03610e05611018565b168152601085522054169051908152f35b9034610235578260031936011261023557610e2f61116e565b828080806001600160a01b0381541647905af13d15610ed8573d67ffffffffffffffff8111610ec557825190610e6f601f8201601f1916602001836110ac565b81528460203d92013e5b15610e82578280f35b906020606492519162461bcd60e51b8352820152601d60248201527f416c7461723a204e6174697665207769746864726177206661696c65640000006044820152fd5b602485604186634e487b7160e01b835252fd5b610e79565b50346104835781600319360112610483576020906001600160a01b03600354169051908152f35b34610235578160031936011261023557610f1c611018565b60ff610f26611008565b610f2e61116e565b169160148311610f8457507fdfd2e01092b866f2fc03a989021ebf3e0aab55f650ff1955d1183b38ca7df09b916001600160a01b036020921693848652601083528086208260ff1982541617905551908152a280f35b606490602085519162461bcd60e51b8352820152601560248201527f416c7461723a20426f6e757320746f6f206869676800000000000000000000006044820152fd5b503461048357602036600319011261048357602090610fec610fe7610ff3565b612b27565b9051908152f35b6004359060ff8216820361100357565b600080fd5b6024359060ff8216820361100357565b600435906001600160a01b038216820361100357565b60a0810190811067ffffffffffffffff82111761104a57604052565b634e487b7160e01b600052604160045260246000fd5b60e0810190811067ffffffffffffffff82111761104a57604052565b67ffffffffffffffff811161104a57604052565b6020810190811067ffffffffffffffff82111761104a57604052565b90601f8019910116810190811067ffffffffffffffff82111761104a57604052565b67ffffffffffffffff811161104a5760051b60200190565b92916110f1826110ce565b916110ff60405193846110ac565b829481845260208094019160051b810192831161100357905b8282106111255750505050565b81358152908301908301611118565b9080601f830112156110035781602061114f933591016110e6565b90565b3461100357600036600319011261100357602060405160148152f35b6001600160a01b0360005416330361118257565b60246040517f118cdaa7000000000000000000000000000000000000000000000000000000008152336004820152fd5b919082018092116111bf57565b634e487b7160e01b600052601160045260246000fd5b60001981146111bf5760010190565b91908110156111f45760051b0190565b634e487b7160e01b600052603260045260246000fd5b9291909233600052601160205260406000206001600160a01b0381541615908115611cda575b5015611c9657336000526006602052604060002054611c52576001600160a01b036003541693846001600160a01b03831614808015611c35575b15611bf1578315611bad578015611b4e57604051631a9b371b60e21b8152823560048201526040816024818a5afa90811561176357600091611b2e575b50955b60ff8716151580611b21575b6112bf906129f1565b60005b8581106118c35750505060ff8516600052600e60205260406000206040516112e981611060565b60ff82541681526001820154602082015260ff60028301548181166040840152818160081c16606084015260101c16608082015260ff600460038401549360a0840194855201541615801560c083015261187f5760ff8151161561183b575160ff1684036117f75761137b9033600052600f602052604060002060ff88166000526020526040600020549051906111b2565b42106117b35761138a85612b27565b340361176f5733600052600f602052604060002060ff8616600052602052426040600020556001600160a01b03600554168061140457606460405162461bcd60e51b815260206004820152602060248201527f416c7461723a2056524620726571756972656420666f722075706772616465736044820152fd5b6040513360601b60208201526bffffffffffffffffffffffff198460601b1660348201527fff000000000000000000000000000000000000000000000000000000000000008760f81b1660488201527f07ffffffffffffffffffffffffffffffffffffffffffffffffffffffffffffff85116110035760009160846020928760051b8660498301376114a66049828a60051b81010360298101845201826110ac565b83815191012060405194859384927f86ac73f6000000000000000000000000000000000000000000000000000000008452336004850152600160248501526001604485015260648401525af190811561176357600091611731575b503360005260066020528060406000205560005260086020526040600020336001600160a01b031982541617905560005b8381106116ff5750604051946115478661102e565b6001600160a01b03831686526020860160ff821681526115683686856110e6565b60408801908152600060608901523460808901523360005260116020526040600020916001600160a01b038951167fffffffffffffffffffffff00000000000000000000000000000000000000000074ff00000000000000000000000000000000000000008554935160a01b16921617178255519687519767ffffffffffffffff891161104a5768010000000000000000891161104a576001830154896001850155808a106116d3575b50602001976001830160005260206000209860005b8281106116bf575050507f2a04b1128e055e7ea0ba756b319cc73f07017e0a0fbad24bff336cfb8c5339269596975090600360808361167e606060ff979601511515600286019060ff801983541691151516179055565b01519101556001600160a01b0360405194168452166020830152606060408301528360608301528360051b906080830137608081339460051b8101030190a2565b60019060208351930192818d015501611627565b6001840160005289602060002091820191015b8181106116f35750611612565b600081556001016116e6565b8061170e61172c9286856111e4565b3560005260076020526040600020600160ff198254161790556111d5565b611532565b90506020813d60201161175b575b8161174c602093836110ac565b81010312611003575138611501565b3d915061173f565b6040513d6000823e3d90fd5b606460405162461bcd60e51b815260206004820152601d60248201527f416c7461723a204578616374207061796d656e742072657175697265640000006044820152fd5b606460405162461bcd60e51b815260206004820152601f60248201527f416c7461723a205374696c6c20696e20636f6f6c646f776e20706572696f64006044820152fd5b606460405162461bcd60e51b815260206004820152601f60248201527f416c7461723a20496e636f7272656374206d6174657269616c20636f756e74006044820152fd5b606460405162461bcd60e51b815260206004820152601360248201527f416c7461723a20496e76616c69642072756c65000000000000000000000000006044820152fd5b606460405162461bcd60e51b815260206004820152601760248201527f416c7461723a20557067726164652064697361626c65640000000000000000006044820152fd5b6118ce8187866111e4565b35604051906331a9108f60e11b825260048201526020816024816001600160a01b038a165afa90811561176357600091611b02575b506001600160a01b0333911603611abe5761191f8187866111e4565b35600052600760205260ff60406000205416611a7a578215611a02576119468187866111e4565b3560405190631a9b371b60e21b82526004820152604081602481865afa908115611763576000916119d2575b505b60ff808a1691160361198e57611989906111d5565b6112c2565b606460405162461bcd60e51b815260206004820152601660248201527f416c7461723a20526172697479206d69736d61746368000000000000000000006044820152fd5b6119f4915060403d6040116119fb575b6119ec81836110ac565b8101906129d4565b5038611972565b503d6119e2565b6001600160a01b03600454166040611a1b8389886111e4565b356024825180948193635fdfe65960e11b835260048301525afa90811561176357600091611a4a575b50611974565b611a6c915060403d604011611a73575b611a6481836110ac565b8101906129b3565b5038611a44565b503d611a5a565b606460405162461bcd60e51b815260206004820152601360248201527f416c7461723a20546f6b656e206c6f636b6564000000000000000000000000006044820152fd5b606460405162461bcd60e51b815260206004820152601060248201527f416c7461723a204e6f74206f776e6572000000000000000000000000000000006044820152fd5b611b1b915060203d602011610a8f57610a8081836110ac565b38611903565b50600560ff8816106112b6565b611b47915060403d6040116119fb576119ec81836110ac565b50386112a7565b602460406001600160a01b0360045416815192838092635fdfe65960e11b8252873560048301525afa90811561176357600091611b8d575b50956112aa565b611ba6915060403d604011611a7357611a6481836110ac565b5038611b86565b606460405162461bcd60e51b815260206004820152601060248201527f416c7461723a204e6f20746f6b656e73000000000000000000000000000000006044820152fd5b606460405162461bcd60e51b815260206004820152601760248201527f416c7461723a20496e76616c696420636f6e74726163740000000000000000006044820152fd5b506001600160a01b03600454166001600160a01b0384161461126a565b606460405162461bcd60e51b815260206004820152601d60248201527f416c7461723a205265717565737420616c7265616479206163746976650000006044820152fd5b606460405162461bcd60e51b815260206004820152601f60248201527f416c7461723a2050726576696f757320757067726164652070656e64696e67006044820152fd5b60ff9150600201541638611230565b60ff60025416611cf557565b60046040517fd93c0665000000000000000000000000000000000000000000000000000000008152fd5b8051156111f45760200190565b80518210156111f45760209160051b010190565b90815480825260208092019260005281600020916000905b828210611d66575050505090565b835485529384019360019384019390910190611d58565b906001600160a01b0380600554163303611e2b57815115611e2b57826000526008602052604060002054168015611e2b5780600052601160205260406000209160ff600284015416611e2557611e1b600185602094610d5d7f039e13e1070272831a469fee81cadd186792456052d1c2b4ab06cdc1d1fb3be697611e0b611e0388611d1f565b518285611f08565b610d566040518096819301611d40565b51604051908152a2565b50505050565b505050565b9081602091031261100357516001600160a01b03811681036110035790565b90815180825260208080930193019160005b828110611e6f575050505090565b835185529381019392810192600101611e61565b90600093611eb060e09460ff611ebe94999899168552866020860152610100806040870152850190611d40565b908382036060850152611e4f565b9483608083015260a08201528260c08201520152565b519060ff8216820361100357565b60ff60019116019060ff82116111bf57565b9060ff8091169116019060ff82116111bf57565b9160005b6001938484019283548310156120e35760009185546001600160a01b0390818116938786526020968088882001546040978851916331a9108f60e11b8352600483015289826024818b5afa9091816120c4575b5061202757505050845191611f7383611090565b6000835260038901549316968793865193849360a01c60ff1692611f979385611e83565b037f4276a3d1ee577aeb60c126af05909a6e0718cacf5bd6b54181d74aa86db75dd191a380805192600084528301528101601a9052606081017f4e4654206f776e65727368697020636865636b206661696c6564000000000000905260807fec85fa88a7470d2823266d8a40214ee4e2ed6362776bff3605e08901500979d891a26002019060ff19825416179055565b919895509650829399959150828a16938491160361205257505050505061204d906111d5565b611f0c565b60ff929498508796507f4276a3d1ee577aeb60c126af05909a6e0718cacf5bd6b54181d74aa86db75dd19395506120b490600298549681519061209482611090565b60008252600036813760038a015492519586958a169960a01c1685611e83565b0390a3019060ff19825416179055565b6120dc9192508a3d8c11610a8f57610a8081836110ac565b9038611f5f565b92509293505082549060ff8260a01c16600052600e60205260406000209160ff60046040519461211286611060565b828154168652600181015460208701528260028201548181166040890152818160081c16606089015260101c166080870152600381015460a0870152015416151560c0840152600092600460206001600160a01b0360025460081c16604051928380927f76ed36710000000000000000000000000000000000000000000000000000000082525afa908115612750576001600160a01b03916020918791612733575b506024604051809481937f32854c13000000000000000000000000000000000000000000000000000000008352818c166004840152165afa8591816126f7575b506126ef575b506001600160a01b038516600052601060205261221f60ff6040600020541685611ef4565b92601460ff8516116126e6575b61224160ff60608401511660ff8616906111b2565b60648111156126de575060645b60009260ff6040820151168060648506106000146125265750505050505060039184549060ff8260a01c16916122bb61228684611ee2565b936122b660016122a78b6122a06040518094819301611d40565b03826110ac565b6001600160a01b038516612a3c565b611ee2565b906040519182606081011067ffffffffffffffff60608501111761104a576001600160a01b036123169260608501604052600285526040366020870137612305838383168c61281d565b61230e86611d1f565b52168861281d565b8151600110156111f4576040820152925b600187015484516003890154916001600160a01b038916600052600960205260406000208054612356906111d5565b90556001600160a01b038916600052600960205260406000206001018181549061237f916111b2565b90556001600160a01b03891660005260096020526040600020600201828154906123a8916111b2565b90556001600160a01b03891660005260096020526040600020600301838154906123d1916111b2565b9055600a546123df906111d5565b600a55600b54906123ef916111b2565b600b55600c54906123ff916111b2565b600c55600d549061240f916111b2565b600d556001600160a01b038616600052600960205260406000208054906001810154906002015490604051928352602083015260408201526001600160a01b0387169060607fa59fa8b79115e096a83695b3285fad27bd9f0565a3e52f114745d15c9c7e748691a286549160038801546040519586958560a01c60ff16875260ff166020870152610100806040880152860160018b01906124af91611d40565b86810360608801526124c091611e4f565b9660ff16608086015260a085015260ff1660c084015260ff1660e08301526001600160a01b0316936001600160a01b031692037f4276a3d1ee577aeb60c126af05909a6e0718cacf5bd6b54181d74aa86db75dd191a360020160ff198154166001179055565b6125328360ff92611ef4565b166064840610156125c857505050505060029184549061258f60ff8360a01c166125886001600160a01b0361256683611ee2565b9516916122b660016125828c6122a06040518094819301611d40565b84612a3c565b908761281d565b604051906040820182811067ffffffffffffffff82111761104a5760405260018252602036818401376125c182611d1f565b5292612327565b6125ed8160ff60806125e36064968360408198015116611ef4565b9201511690611ef4565b169106101561269e57505060019184549060ff8260a01c169160405161261a816122a08160018c01611d40565b61262d816001600160a01b038416612a3c565b5160011c61263a816110ce565b9161264860405193846110ac565b818352601f19612657836110ce565b0136602085013760005b8281106126715750505092612327565b61269990612689876001600160a01b0385168c61281d565b6126938287611d2c565b526111d5565b612661565b926126c960016001600160a01b036000946126c38a610d566040518096819301611d40565b16612a3c565b6040516126d581611090565b82815292612327565b60ff1661224e565b6014935061222c565b9350386121fa565b9091506020813d60201161272b575b81612713602093836110ac565b810103126103c15761272490611ed4565b90386121f4565b3d9150612706565b61274a9150823d8411610a8f57610a8081836110ac565b386121b4565b6040513d87823e3d90fd5b6001600160a01b0316916000908382526020946006865260409383858120558352600886528383206001600160a01b03198154169055825b82518110156127c657806127aa6127c19285611d2c565b51855260078852858520805460ff191690556111d5565b612793565b5094929193905083526011825282209082825560019081830190815491858155826127fd575b505050508082600260039301550155565b85528420908101905b81811061281357806127ec565b8481558201612806565b9060646020926001600160a01b03928380600354169116146000146128cc57600061284786612926565b84600354169060ff60405198899788967e2144f600000000000000000000000000000000000000000000000000000000885216600487015216602485015260448401525af19081156117635760009161289e575090565b906020823d82116128c4575b816128b7602093836110ac565b810103126104c957505190565b3d91506128aa565b6000836004541660ff60405197889687957fc820c7f10000000000000000000000000000000000000000000000000000000087521660048601521680602485015260448401525af19081156117635760009161289e575090565b60ff1660018103612944575060244206600f0180600f116111bf5790565b6002810361295f575060334206603201806032116111bf5790565b6003810361297a575060334206606401806064116111bf5790565b60048103612995575060334206609601806096116111bf5790565b6005036129ae576038420660c8018060c8116111bf5790565b60ff90565b91908260409103126110035761114f60206129cd84611ed4565b9301611ed4565b91908260409103126110035760206129eb83611ed4565b92015190565b156129f857565b606460405162461bcd60e51b815260206004820152601560248201527f416c7461723a20496e76616c69642072617269747900000000000000000000006044820152fd5b91909160005b8351811015612b21576001600160a01b0360038181541682851614600014612ad0575416612a708286611d2c565b51813b156110035760008092602460409384519586938492636aef506960e01b845260048401525af1908115612ac6575090612ab29291612ab7575b506111d5565b612a42565b612ac09061107c565b38612aac565b513d6000823e3d90fd5b5060049081541690612ae28387611d2c565b51823b156110035760009060246040938385519687948593636aef506960e01b85528401525af1908115612ac6575090612ab29291612ab757506111d5565b50509050565b60ff809116600052600e60205260406000209060c060405191612b4983611060565b80845416835260046001850154948560208601528260028201548181166040880152818160081c16606088015260101c166080860152600381015460a0860152015416151591015290565b60643560ff811681036110035790565b60843560ff811681036110035790565b60a43560ff81168103611003579056fea2646970667358221220e873546da2d790bbaded21badf3568fd36f963d063928f631131dfbea49083ea64736f6c63430008140033",
  "linkReferences": {},
  "deployedLinkReferences": {}
}