{
  "_format": "hh-sol-artifact-1",
  "contractName": "DungeonMaster",
  "sourceName": "contracts/current/core/DungeonMaster.sol",
  "abi": [
    {
      "inputs": [
        {
          "internalType": "address",
          "name": "_initialOwner",
          "type": "address"
        }
      ],
      "stateMutability": "nonpayable",
      "type": "constructor"
    },
    {
      "inputs": [],
      "name": "EnforcedPause",
      "type": "error"
    },
    {
      "inputs": [],
      "name": "ExpectedPause",
      "type": "error"
    },
    {
      "inputs": [
        {
          "internalType": "address",
          "name": "owner",
          "type": "address"
        }
      ],
      "name": "OwnableInvalidOwner",
      "type": "error"
    },
    {
      "inputs": [
        {
          "internalType": "address",
          "name": "account",
          "type": "address"
        }
      ],
      "name": "OwnableUnauthorizedAccount",
      "type": "error"
    },
    {
      "inputs": [],
      "name": "ReentrancyGuardReentrantCall",
      "type": "error"
    },
    {
      "inputs": [
        {
          "internalType": "address",
          "name": "token",
          "type": "address"
        }
      ],
      "name": "SafeERC20FailedOperation",
      "type": "error"
    },
    {
      "anonymous": false,
      "inputs": [
        {
          "indexed": true,
          "internalType": "address",
          "name": "newAddress",
          "type": "address"
        }
      ],
      "name": "DungeonCoreSet",
      "type": "event"
    },
    {
      "anonymous": false,
      "inputs": [
        {
          "indexed": true,
          "internalType": "uint256",
          "name": "dungeonId",
          "type": "uint256"
        },
        {
          "indexed": false,
          "internalType": "uint256",
          "name": "requiredPower",
          "type": "uint256"
        },
        {
          "indexed": false,
          "internalType": "uint256",
          "name": "rewardAmountUSD",
          "type": "uint256"
        },
        {
          "indexed": false,
          "internalType": "uint8",
          "name": "baseSuccessRate",
          "type": "uint8"
        }
      ],
      "name": "DungeonSet",
      "type": "event"
    },
    {
      "anonymous": false,
      "inputs": [
        {
          "indexed": true,
          "internalType": "address",
          "name": "newAddress",
          "type": "address"
        }
      ],
      "name": "DungeonStorageSet",
      "type": "event"
    },
    {
      "anonymous": false,
      "inputs": [
        {
          "indexed": true,
          "internalType": "address",
          "name": "player",
          "type": "address"
        },
        {
          "indexed": true,
          "internalType": "uint256",
          "name": "partyId",
          "type": "uint256"
        },
        {
          "indexed": false,
          "internalType": "bool",
          "name": "success",
          "type": "bool"
        },
        {
          "indexed": false,
          "internalType": "uint256",
          "name": "reward",
          "type": "uint256"
        },
        {
          "indexed": false,
          "internalType": "uint256",
          "name": "expGained",
          "type": "uint256"
        }
      ],
      "name": "ExpeditionFulfilled",
      "type": "event"
    },
    {
      "anonymous": false,
      "inputs": [
        {
          "indexed": true,
          "internalType": "address",
          "name": "user",
          "type": "address"
        },
        {
          "indexed": false,
          "internalType": "uint256",
          "name": "requestId",
          "type": "uint256"
        },
        {
          "indexed": false,
          "internalType": "string",
          "name": "reason",
          "type": "string"
        }
      ],
      "name": "ExpeditionProcessingError",
      "type": "event"
    },
    {
      "anonymous": false,
      "inputs": [
        {
          "indexed": true,
          "internalType": "address",
          "name": "player",
          "type": "address"
        },
        {
          "indexed": false,
          "internalType": "uint256",
          "name": "partyId",
          "type": "uint256"
        },
        {
          "indexed": false,
          "internalType": "uint256",
          "name": "dungeonId",
          "type": "uint256"
        }
      ],
      "name": "ExpeditionRequested",
      "type": "event"
    },
    {
      "anonymous": false,
      "inputs": [
        {
          "indexed": true,
          "internalType": "address",
          "name": "player",
          "type": "address"
        },
        {
          "indexed": false,
          "internalType": "uint256",
          "name": "partyId",
          "type": "uint256"
        },
        {
          "indexed": false,
          "internalType": "bool",
          "name": "success",
          "type": "bool"
        }
      ],
      "name": "ExpeditionRevealed",
      "type": "event"
    },
    {
      "anonymous": false,
      "inputs": [
        {
          "indexed": true,
          "internalType": "address",
          "name": "previousOwner",
          "type": "address"
        },
        {
          "indexed": true,
          "internalType": "address",
          "name": "newOwner",
          "type": "address"
        }
      ],
      "name": "OwnershipTransferred",
      "type": "event"
    },
    {
      "anonymous": false,
      "inputs": [
        {
          "indexed": false,
          "internalType": "address",
          "name": "account",
          "type": "address"
        }
      ],
      "name": "Paused",
      "type": "event"
    },
    {
      "anonymous": false,
      "inputs": [
        {
          "indexed": true,
          "internalType": "address",
          "name": "user",
          "type": "address"
        },
        {
          "indexed": true,
          "internalType": "address",
          "name": "proxy",
          "type": "address"
        }
      ],
      "name": "RevealedByProxy",
      "type": "event"
    },
    {
      "anonymous": false,
      "inputs": [
        {
          "indexed": true,
          "internalType": "address",
          "name": "newAddress",
          "type": "address"
        }
      ],
      "name": "SoulShardTokenSet",
      "type": "event"
    },
    {
      "anonymous": false,
      "inputs": [
        {
          "indexed": false,
          "internalType": "address",
          "name": "account",
          "type": "address"
        }
      ],
      "name": "Unpaused",
      "type": "event"
    },
    {
      "anonymous": false,
      "inputs": [
        {
          "indexed": true,
          "internalType": "address",
          "name": "vrfManager",
          "type": "address"
        }
      ],
      "name": "VRFManagerSet",
      "type": "event"
    },
    {
      "anonymous": false,
      "inputs": [
        {
          "indexed": true,
          "internalType": "uint256",
          "name": "requestId",
          "type": "uint256"
        },
        {
          "indexed": false,
          "internalType": "uint256",
          "name": "randomWordsCount",
          "type": "uint256"
        }
      ],
      "name": "VRFRequestFulfilled",
      "type": "event"
    },
    {
      "inputs": [],
      "name": "COOLDOWN_PERIOD",
      "outputs": [
        {
          "internalType": "uint256",
          "name": "",
          "type": "uint256"
        }
      ],
      "stateMutability": "view",
      "type": "function"
    },
    {
      "inputs": [],
      "name": "dungeonCore",
      "outputs": [
        {
          "internalType": "contract IDungeonCore",
          "name": "",
          "type": "address"
        }
      ],
      "stateMutability": "view",
      "type": "function"
    },
    {
      "inputs": [],
      "name": "dungeonStorage",
      "outputs": [
        {
          "internalType": "contract IDungeonStorage",
          "name": "",
          "type": "address"
        }
      ],
      "stateMutability": "view",
      "type": "function"
    },
    {
      "inputs": [
        {
          "internalType": "address",
          "name": "user",
          "type": "address"
        }
      ],
      "name": "emergencyCleanupUser",
      "outputs": [],
      "stateMutability": "nonpayable",
      "type": "function"
    },
    {
      "inputs": [],
      "name": "explorationFee",
      "outputs": [
        {
          "internalType": "uint256",
          "name": "",
          "type": "uint256"
        }
      ],
      "stateMutability": "view",
      "type": "function"
    },
    {
      "inputs": [
        {
          "internalType": "uint256",
          "name": "_dungeonId",
          "type": "uint256"
        }
      ],
      "name": "getDungeon",
      "outputs": [
        {
          "internalType": "uint256",
          "name": "requiredPower",
          "type": "uint256"
        },
        {
          "internalType": "uint256",
          "name": "rewardAmountUSD",
          "type": "uint256"
        },
        {
          "internalType": "uint8",
          "name": "baseSuccessRate",
          "type": "uint8"
        },
        {
          "internalType": "bool",
          "name": "isInitialized",
          "type": "bool"
        }
      ],
      "stateMutability": "view",
      "type": "function"
    },
    {
      "inputs": [],
      "name": "getExpeditionCost",
      "outputs": [
        {
          "internalType": "uint256",
          "name": "totalCost",
          "type": "uint256"
        },
        {
          "internalType": "uint256",
          "name": "explorationFeeAmount",
          "type": "uint256"
        },
        {
          "internalType": "uint256",
          "name": "vrfFeeAmount",
          "type": "uint256"
        }
      ],
      "stateMutability": "view",
      "type": "function"
    },
    {
      "inputs": [
        {
          "internalType": "uint256",
          "name": "_partyId",
          "type": "uint256"
        }
      ],
      "name": "getPartyStatus",
      "outputs": [
        {
          "internalType": "uint256",
          "name": "cooldownEndsAt",
          "type": "uint256"
        },
        {
          "internalType": "uint256",
          "name": "unclaimedRewards",
          "type": "uint256"
        }
      ],
      "stateMutability": "view",
      "type": "function"
    },
    {
      "inputs": [
        {
          "internalType": "address",
          "name": "_user",
          "type": "address"
        }
      ],
      "name": "getUserRequest",
      "outputs": [
        {
          "components": [
            {
              "internalType": "uint256",
              "name": "partyId",
              "type": "uint256"
            },
            {
              "internalType": "uint256",
              "name": "dungeonId",
              "type": "uint256"
            },
            {
              "internalType": "address",
              "name": "player",
              "type": "address"
            },
            {
              "internalType": "bool",
              "name": "fulfilled",
              "type": "bool"
            },
            {
              "internalType": "uint256",
              "name": "payment",
              "type": "uint256"
            }
          ],
          "internalType": "struct DungeonMaster.ExpeditionRequest",
          "name": "",
          "type": "tuple"
        }
      ],
      "stateMutability": "view",
      "type": "function"
    },
    {
      "inputs": [],
      "name": "globalRewardMultiplier",
      "outputs": [
        {
          "internalType": "uint256",
          "name": "",
          "type": "uint256"
        }
      ],
      "stateMutability": "view",
      "type": "function"
    },
    {
      "inputs": [
        {
          "internalType": "uint256",
          "name": "requestId",
          "type": "uint256"
        },
        {
          "internalType": "uint256[]",
          "name": "randomWords",
          "type": "uint256[]"
        }
      ],
      "name": "onVRFFulfilled",
      "outputs": [],
      "stateMutability": "nonpayable",
      "type": "function"
    },
    {
      "inputs": [],
      "name": "owner",
      "outputs": [
        {
          "internalType": "address",
          "name": "",
          "type": "address"
        }
      ],
      "stateMutability": "view",
      "type": "function"
    },
    {
      "inputs": [],
      "name": "pause",
      "outputs": [],
      "stateMutability": "nonpayable",
      "type": "function"
    },
    {
      "inputs": [],
      "name": "paused",
      "outputs": [
        {
          "internalType": "bool",
          "name": "",
          "type": "bool"
        }
      ],
      "stateMutability": "view",
      "type": "function"
    },
    {
      "inputs": [],
      "name": "renounceOwnership",
      "outputs": [],
      "stateMutability": "nonpayable",
      "type": "function"
    },
    {
      "inputs": [
        {
          "internalType": "uint256",
          "name": "_partyId",
          "type": "uint256"
        },
        {
          "internalType": "uint256",
          "name": "_dungeonId",
          "type": "uint256"
        }
      ],
      "name": "requestExpedition",
      "outputs": [],
      "stateMutability": "payable",
      "type": "function"
    },
    {
      "inputs": [
        {
          "internalType": "uint256",
          "name": "",
          "type": "uint256"
        }
      ],
      "name": "requestIdToUser",
      "outputs": [
        {
          "internalType": "address",
          "name": "",
          "type": "address"
        }
      ],
      "stateMutability": "view",
      "type": "function"
    },
    {
      "inputs": [
        {
          "internalType": "uint256",
          "name": "_dungeonId",
          "type": "uint256"
        },
        {
          "internalType": "uint256",
          "name": "_requiredPower",
          "type": "uint256"
        },
        {
          "internalType": "uint256",
          "name": "_rewardAmountUSD",
          "type": "uint256"
        },
        {
          "internalType": "uint8",
          "name": "_baseSuccessRate",
          "type": "uint8"
        }
      ],
      "name": "setDungeon",
      "outputs": [],
      "stateMutability": "nonpayable",
      "type": "function"
    },
    {
      "inputs": [
        {
          "internalType": "address",
          "name": "_newAddress",
          "type": "address"
        }
      ],
      "name": "setDungeonCore",
      "outputs": [],
      "stateMutability": "nonpayable",
      "type": "function"
    },
    {
      "inputs": [
        {
          "internalType": "address",
          "name": "_newAddress",
          "type": "address"
        }
      ],
      "name": "setDungeonStorage",
      "outputs": [],
      "stateMutability": "nonpayable",
      "type": "function"
    },
    {
      "inputs": [
        {
          "internalType": "uint256",
          "name": "_newFee",
          "type": "uint256"
        }
      ],
      "name": "setExplorationFee",
      "outputs": [],
      "stateMutability": "nonpayable",
      "type": "function"
    },
    {
      "inputs": [
        {
          "internalType": "uint256",
          "name": "_newMultiplier",
          "type": "uint256"
        }
      ],
      "name": "setGlobalRewardMultiplier",
      "outputs": [],
      "stateMutability": "nonpayable",
      "type": "function"
    },
    {
      "inputs": [
        {
          "internalType": "address",
          "name": "_newAddress",
          "type": "address"
        }
      ],
      "name": "setSoulShardToken",
      "outputs": [],
      "stateMutability": "nonpayable",
      "type": "function"
    },
    {
      "inputs": [
        {
          "internalType": "address",
          "name": "_vrfManager",
          "type": "address"
        }
      ],
      "name": "setVRFManager",
      "outputs": [],
      "stateMutability": "nonpayable",
      "type": "function"
    },
    {
      "inputs": [],
      "name": "soulShardToken",
      "outputs": [
        {
          "internalType": "contract IERC20",
          "name": "",
          "type": "address"
        }
      ],
      "stateMutability": "view",
      "type": "function"
    },
    {
      "inputs": [
        {
          "internalType": "address",
          "name": "newOwner",
          "type": "address"
        }
      ],
      "name": "transferOwnership",
      "outputs": [],
      "stateMutability": "nonpayable",
      "type": "function"
    },
    {
      "inputs": [],
      "name": "unpause",
      "outputs": [],
      "stateMutability": "nonpayable",
      "type": "function"
    },
    {
      "inputs": [
        {
          "internalType": "address",
          "name": "",
          "type": "address"
        }
      ],
      "name": "userRequests",
      "outputs": [
        {
          "internalType": "uint256",
          "name": "partyId",
          "type": "uint256"
        },
        {
          "internalType": "uint256",
          "name": "dungeonId",
          "type": "uint256"
        },
        {
          "internalType": "address",
          "name": "player",
          "type": "address"
        },
        {
          "internalType": "bool",
          "name": "fulfilled",
          "type": "bool"
        },
        {
          "internalType": "uint256",
          "name": "payment",
          "type": "uint256"
        }
      ],
      "stateMutability": "view",
      "type": "function"
    },
    {
      "inputs": [],
      "name": "vrfManager",
      "outputs": [
        {
          "internalType": "address",
          "name": "",
          "type": "address"
        }
      ],
      "stateMutability": "view",
      "type": "function"
    },
    {
      "inputs": [],
      "name": "withdrawNativeFunding",
      "outputs": [],
      "stateMutability": "nonpayable",
      "type": "function"
    },
    {
      "inputs": [],
      "name": "withdrawSoulShard",
      "outputs": [],
      "stateMutability": "nonpayable",
      "type": "function"
    }
  ],
  "bytecode": "0x6080346100d057601f61248838819003918201601f19168301916001600160401b038311848410176100d5578084926020946040528339810103126100d057516001600160a01b0390818116908190036100d05780156100b757600080546001600160a01b03198116831782556040519316907f8be0079c531659141344cd1fd0a4f28419497f9722a3daafe3b4186f6b6457e09080a3600180556103e86007556605543df729c00060085561239c90816100ec8239f35b604051631e4fbdf760e01b815260006004820152602490fd5b600080fd5b634e487b7160e01b600052604160045260246000fdfe6040608081526004908136101561001557600080fd5b600091823560e01c9081631dafec0014610dab57816320d40fec14610c775781632a32e8d414610bd55781633f4ba83a14610b525781633f9e8acd14610b305781634403940214610b095781635896cccc14610abc5781635c975abb14610a9857816367cfab5814610a6d5781636ab1b29b146109d35781636e99d52f146109b55781636eb5d3611461094f578163715018a6146108f657816376994b64146108cd5781637a33eabc146108675781637fa23093146108325781638456cb59146107d75781638da5cb5b146107b1578163a911982714610789578163ad0d43c21461076a578163bdb77176146105a7578163c143c4a814610546578163c1b39a3e1461051e578163c47d43571461042f578163d6042eb81461036e578163db4b826814610308578163dc7d73bb146102d7578163e625d1f4146102b5578163e8601c6614610246578163f2fde38b14610199575063f7cb333e1461017857600080fd5b346101955781600319360112610195576020906008549051908152f35b5080fd5b91905034610242576020366003190112610242578135916001600160a01b039182841680940361023e576101cb611031565b831561020f575050600054826001600160a01b0319821617600055167f8be0079c531659141344cd1fd0a4f28419497f9722a3daafe3b4186f6b6457e0600080a380f35b908460249251917f1e4fbdf7000000000000000000000000000000000000000000000000000000008352820152fd5b8480fd5b8280fd5b90503461024257602036600319011261024257356001600160a01b03908181168091036102b157828460ff9260a09652600960205220805493600182015493600360028401549301549482519687526020870152821690850152841c16151560608301526080820152f35b8380fd5b839034610195576020366003190112610195576102d0611031565b3560085580f35b90503461024257602036600319011261024257816020936001600160a01b0392358152600685522054169051908152f35b839034610195576020366003190112610195578035906001600160a01b03821680920361024257610337611031565b816001600160a01b03198254161790557f5b041fdbb07c066df55211c4936ce14e84504e79020b987168fa2022f1b13e798280a280f35b9050346102425760203660031901126102425735906001600160a01b03918281168091036102b15783829160a095608084516103a981610fd7565b8281528260208201528286820152826060820152015281526009602052208151916103d383610fd7565b815493848452600183015492602085019384526002810154936080600385880193858816855260ff60608a01988c1c16151588520154960195865283519687525160208701525116908401525115156060830152516080820152f35b9190503461024257826003193601126102425761044a611031565b828080806001600160a01b0381541647905af13d15610519573d67ffffffffffffffff81116105065782519061048a601f8201601f19166020018361100f565b81528460203d92013e5b1561049d578280f35b906020608492519162461bcd60e51b8352820152602d60248201527f44756e67656f6e4d61737465723a204e617469766520746f6b656e207769746860448201527f64726177616c206661696c6564000000000000000000000000000000000000006064820152fd5b602485604186634e487b7160e01b835252fd5b610494565b5050346101955781600319360112610195576020906001600160a01b03600554169051908152f35b9180915060031936011261024257600260015414610581575061057a90600260015561057061188e565b6024359035611099565b6001805580f35b517f3ee5aeb5000000000000000000000000000000000000000000000000000000008152fd5b9190503461024257608036600319011261024257813591602435916044356064359260ff8416809403610766576105dc611031565b606484116106fd57868351916105f183610f91565b86835260208301848152858401918783526060850192600184526001600160a01b0360035416803b156106f9578b9460ff879360a4968c519a8b998a987f1ba77917000000000000000000000000000000000000000000000000000000008a528901525160248801525160448701525116606485015251151560848401525af180156106ef576106b3575b50815193845260208401528201527ffaa9851dea424ac560635cbbb6a715dbd9be8d55803dfebaadc3730a6a83f1e290606090a280f35b9160609391966106e47ffaa9851dea424ac560635cbbb6a715dbd9be8d55803dfebaadc3730a6a83f1e29694610fc3565b96919350919361067c565b83513d89823e3d90fd5b8580fd5b608490602084519162461bcd60e51b8352820152602e60248201527f44756e67656f6e4d61737465723a205375636365737320726174652063616e6e60448201527f6f742065786365656420313030250000000000000000000000000000000000006064820152fd5b8680fd5b5050346101955781600319360112610195576020906007549051908152f35b5050346101955781600319360112610195576020906001600160a01b03600354169051908152f35b5050346101955781600319360112610195576001600160a01b0360209254169051908152f35b50503461019557816003193601126101955760207f62e78cea01bee320cd4e420270b5ea74000d11b0c9f74754ebdbfc544b05a25891610815611031565b61081d61188e565b600160ff19600254161760025551338152a180f35b90508234610864576020366003190112610864575061085190356121c8565b6020815191015182519182526020820152f35b80fd5b83903461019557602036600319011261019557356001600160a01b03811680910361019557610894611031565b806001600160a01b031960055416176005557feda44c694e75c8161562f6179238b37a8daa291b6b2229613ed903ed92ab2d3d8280a280f35b505034610195578160031936011261019557606091600854918051928084526020840152820152f35b833461086457806003193601126108645761090f611031565b806001600160a01b0381546001600160a01b031981168355167f8be0079c531659141344cd1fd0a4f28419497f9722a3daafe3b4186f6b6457e08280a380f35b83903461019557602036600319011261019557356001600160a01b0381168091036101955761097c611031565b806001600160a01b031960035416176003557fb62a30fb8f7c73a0e4bc061efea54bc34145e5553d3eefa0695e6c29357de4348280a280f35b50503461019557816003193601126101955760209051620151808152f35b83903461019557602036600319011261019557356001600160a01b0381169081810361024257610a01611031565b7fffffffffffffffffffffff0000000000000000000000000000000000000000ff74ffffffffffffffffffffffffffffffffffffffff006002549260081b169116176002557f45e919947eac4ba070dccb2545cf1e7e330fd110330232d74a6996e9e2308f248280a280f35b5050346101955781600319360112610195576020906001600160a01b0360025460081c169051908152f35b50503461019557816003193601126101955760209060ff6002541690519015158152f35b8284346108645760203660031901126108645750610adc6080923561225e565b90815191602081015191606060ff8284015116920151151592815194855260208501528301526060820152f35b828434610864578060031936011261086457506001600160a01b0360209254169051908152f35b83903461019557602036600319011261019557610b4b611031565b3560075580f35b905034610242578260031936011261024257610b6c611031565b6002549060ff821615610bae575060ff1916600255513381527f5db9ee0a495bf2e6ff9c91a7834c1ba4fdd244a5e8aa4e537bd38aeae4b073aa90602090a180f35b82517f8dfc202b000000000000000000000000000000000000000000000000000000008152fd5b83833461019557806003193601126101955767ffffffffffffffff926024358481116102b157366023820112156102b15780820135948511610c64578460051b925192602095610c278783018661100f565b8452602486850191830101913683116106f957602401905b828210610c555785610c528686356118c4565b80f35b81358152908601908601610c3f565b602484604184634e487b7160e01b835252fd5b91905034610242576020366003190112610242578135916001600160a01b0380841680940361023e57610ca8611031565b8385526009602052600283862001541615610d43575060807f37ee5ab963766a8fa7404e9b6a8d00099128baa9cd554bbfd9f2bef78d4297bb918385526009602052610d0881862060036000918281558260018201558260028201550155565b601a8151918683528060208401528201527f456d657267656e637920636c65616e75702062792061646d696e0000000000006060820152a280f35b6020608492519162461bcd60e51b8352820152602160248201527f44756e67656f6e4d61737465723a204e6f2070656e64696e672072657175657360448201527f74000000000000000000000000000000000000000000000000000000000000006064820152fd5b91905034610242578260031936011261024257610dc6611031565b6001600160a01b039081835416918215610f28578482517f70a0823100000000000000000000000000000000000000000000000000000000815230868201526020928382602481895afa918215610f1e578392610eef575b5081610e28578280f35b610e8c610e7e91845416928651928391878301957fa9059cbb00000000000000000000000000000000000000000000000000000000875260248401602090939291936001600160a01b0360408201951681520152565b03601f19810183528261100f565b519082865af115610ee65783513d610edd5750813b155b610eaf57808481808280f35b6024935051917f5274afe7000000000000000000000000000000000000000000000000000000008352820152fd5b60011415610ea3565b513d84823e3d90fd5b9091508381813d8311610f17575b610f07818361100f565b8101031261024257519038610e1e565b503d610efd565b85513d85823e3d90fd5b608484602084519162461bcd60e51b8352820152603660248201527f44756e67656f6e4d61737465723a20536f756c536861726420746f6b656e206360448201527f6f6e7472616374206e6f7420636f6e66696775726564000000000000000000006064820152fd5b6080810190811067ffffffffffffffff821117610fad57604052565b634e487b7160e01b600052604160045260246000fd5b67ffffffffffffffff8111610fad57604052565b60a0810190811067ffffffffffffffff821117610fad57604052565b6040810190811067ffffffffffffffff821117610fad57604052565b90601f8019910116810190811067ffffffffffffffff821117610fad57604052565b6001600160a01b0360005416330361104557565b60246040517f118cdaa7000000000000000000000000000000000000000000000000000000008152336004820152fd5b9081602091031261109457516001600160a01b03811681036110945790565b600080fd5b906000913383526020936009855260409160028386200154946001600160a01b039586811615908115611880575b5015611817578560025460081c16948451966303aae71960e61b885260049789818a818b5afa9081156114c65790829185916117fa575b50168651976331a9108f60e11b8952858a8a01526024988b818b81865afa90811561150b5786916117cd575b50833391160361176657151580611759575b156116f25761114a8361225e565b90611154866121c8565b9160608101511561168b57825142106116245788878b8d835195869384927f216688e90000000000000000000000000000000000000000000000000000000084528301525afa91821561150b5786926115f5575b50511161158e576008543403611527576201518042018042116115155781528160035416875191639a7db97f60e01b8352868b8401526080838b81855afa90811561150b57869387926114d4575b508c8151910151908a519461120a86610f91565b85528d85019081528a850191825260ff6060860193168352833b156114d0578a517fb02080ae000000000000000000000000000000000000000000000000000000008152808e018a90529451858d01525160448501525160648401525160ff1660848301528490829060a490829084905af180156114c6576114b3575b508060055416806112f957608489602b8a8d8b519362461bcd60e51b85528401528201527f44756e67656f6e4d61737465723a2056524620726571756972656420666f722060448201527f65787065646974696f6e730000000000000000000000000000000000000000006064820152fd5b9660848599858c979a600196999d95979b8b51878101913360601b835260348201528b60548201526054815261132e81610f91565b5190208b5197889687957f86ac73f600000000000000000000000000000000000000000000000000000000875233908701528501526001604485015260648401525af19081156114a957869161145c575b50856003917f5efd282bbc5aae1d6abe95f156091cdc51d6b2f4377898c1f529f22ac0a21647975260068452858120336001600160a01b03198254161790558551926113ca84610fd7565b88845284840186815287850191338352606086019184835289608088019534875233815260098a522096518755516001870155600286019251167fffffffffffffffffffffff00000000000000000000000000000000000000000074ff000000000000000000000000000000000000000084549351151560a01b169216171790555191015582519485528401523392a2565b90508281813d83116114a2575b611473818361100f565b8101031261109457517f5efd282bbc5aae1d6abe95f156091cdc51d6b2f4377898c1f529f22ac0a2164761137f565b503d611469565b85513d88823e3d90fd5b6114bf90939193610fc3565b9138611287565b87513d86823e3d90fd5b8780fd5b9093506114f8915060803d8111611504575b6114f0818361100f565b81019061219f565b929491503890506111f6565b503d6114e6565b89513d88823e3d90fd5b888560118c634e487b7160e01b835252fd5b60848960358a8d8b519362461bcd60e51b85528401528201527f44756e67656f6e4d61737465723a204578616374206578706c6f726174696f6e60448201527f20666565207061796d656e7420726571756972656400000000000000000000006064820152fd5b60848960388a8d8b519362461bcd60e51b85528401528201527f44756e67656f6e4d61737465723a20506172747920706f77657220696e73756660448201527f66696369656e7420666f7220746869732064756e67656f6e00000000000000006064820152fd5b9091508881813d831161161d575b61160d818361100f565b810103126106f9575190386111a8565b503d611603565b60848b60308c8f8d519362461bcd60e51b85528401528201527f44756e67656f6e4d61737465723a205061727479206973207374696c6c206f6e60448201527f20636f6f6c646f776e20706572696f64000000000000000000000000000000006064820152fd5b60848b60388c8f8d519362461bcd60e51b85528401528201527f44756e67656f6e4d61737465723a2044756e67656f6e20646f6573206e6f742060448201527f6578697374206f72206e6f7420696e697469616c697a656400000000000000006064820152fd5b60848960358a8d8b519362461bcd60e51b85528401528201527f44756e67656f6e4d61737465723a20436f726520636f6e747261637473206e6f60448201527f742070726f7065726c7920636f6e6669677572656400000000000000000000006064820152fd5b508160035416151561113c565b60848a602c8b8e8c519362461bcd60e51b85528401528201527f44756e67656f6e4d61737465723a2043616c6c6572206973206e6f742074686560448201527f207061727479206f776e657200000000000000000000000000000000000000006064820152fd5b6117ed91508c8d3d106117f3575b6117e5818361100f565b810190611075565b3861112a565b503d6117db565b61181191508b3d8d116117f3576117e5818361100f565b386110fe565b60848785519062461bcd60e51b82526004820152603860248201527f44756e67656f6e4d61737465723a2050726576696f757320657870656469746960448201527f6f6e2072657175657374207374696c6c2070656e64696e6700000000000000006064820152fd5b60ff915060a01c16386110c7565b60ff6002541661189a57565b60046040517fd93c0665000000000000000000000000000000000000000000000000000000008152fd5b9190916001600160a01b03806005541633036119ba578351156119ba576000938285526020916006835260408620541680156119b257808652600983526040862060ff600282015460a01c166119a957825115611995577f039e13e1070272831a469fee81cadd186792456052d1c2b4ab06cdc1d1fb3be694959661198b926119546040938787015190836119ce565b878252600686528282206001600160a01b031981541690558152600985522060036000918281558260018201558260028201550155565b51604051908152a2565b602487634e487b7160e01b81526032600452fd5b50505050509050565b505050509050565b50509050565b519060ff8216820361109457565b6000906002549060408051946303aae71960e61b86526020966004888882816001600160a01b03809a60081c165afa978815612195578798612176575b50858984549960248b885194859384926331a9108f60e11b845288840152165afa889181612157575b50611aea575050506002829101968754968251878152878382015287848201528689169060607f036fa7ebe32c81d713bab4f5c2a50eb37d9633d474f2561a7c28ea52c9a2635691a381519586528501528301601a9052606083017f506172747920636f6e74726163742063616c6c206661696c65640000000000009052169060807f37ee5ab963766a8fa7404e9b6a8d00099128baa9cd554bbfd9f2bef78d4297bb91a260ff60a01b1916600160a01b179055565b91945091979295949650966002810197878954918183169182911603612108575050600181015494611b1b8661225e565b94818960025460081c169689517f76ed3671000000000000000000000000000000000000000000000000000000008152878188818c5afa9081156120fe57918b91898f8f90899897968c9a946120da575b50816024915416998a92875195869485937f32854c13000000000000000000000000000000000000000000000000000000008552840152165afa86918161209d575b50612094575b5060ff91829101511691160160ff81116120815760ff169060648211612078575b60649006109588611be6839961225e565b91881561206b57878301518251907f7b2e0fcf000000000000000000000000000000000000000000000000000000008252888201528881602481855afa859181612037575b506120035750847f37ee5ab963766a8fa7404e9b6a8d00099128baa9cd554bbfd9f2bef78d4297bb60a08a602a8896808051938b85528401528201527f4f7261636c6520707269636520756e617661696c61626c65202d206e6f20726560608201527f7761726420676976656e000000000000000000000000000000000000000000006080820152a25b81611e93575b5050600a905104935b80868b60025460081c168b51928380927f7aa6b20b0000000000000000000000000000000000000000000000000000000082525afa908115611e8957908b918491611e6c575b501690813b156102425789517ff3007bc40000000000000000000000000000000000000000000000000000000081526001600160a01b0385169181019182526020820187905291839183919082908490829060400103925af19081611e58575b5093600160a01b999793606097937f8d729483ceacc818e2eba5a141ff5a1152155f5325e43fee2d5aa0075ae12828979360ff60a01b199b9715600014611e515760807f37ee5ab963766a8fa7404e9b6a8d00099128baa9cd554bbfd9f2bef78d4297bb918951908152898782015260168a8201527f457870657269656e6365206761696e206661696c6564000000000000000000008c820152a25b7f036fa7ebe32c81d713bab4f5c2a50eb37d9633d474f2561a7c28ea52c9a263568c54998a16988992549687948951918883528783015289820152a38351928352820152a216179055565b5050611e06565b611e628391610fc3565b6101955738611d6a565b611e839150883d8a116117f3576117e5818361100f565b38611d0a565b8a513d85823e3d90fd5b869192995087908b51928380927f29bdca370000000000000000000000000000000000000000000000000000000082525afa908115611e8957908b918491611fe6575b5016803b156102425789517f47e7ef240000000000000000000000000000000000000000000000000000000081526001600160a01b038516818801908152602081018490529091849183919082908490829060400103925af19081611fd3575b50611fca5750600a8197837f37ee5ab963766a8fa7404e9b6a8d00099128baa9cd554bbfd9f2bef78d4297bb60a08c6022815191888352808d8401528201527f5661756c74206465706f736974206661696c6564202d20726577617264206c6f60608201527f73740000000000000000000000000000000000000000000000000000000000006080820152a25b9038611cbb565b600a9097611fc3565b611fdf90939193610fc3565b9138611f36565b611ffd9150883d8a116117f3576117e5818361100f565b38611ed6565b600754919250818102918115918304141715612024576103e8900490611cb5565b602484601189634e487b7160e01b835252fd5b8a80929495508193503d8311612064575b612052818361100f565b8101031261023e57518b929138611c2b565b503d612048565b5050601490510493611cc4565b60649150611bd5565b602483601188634e487b7160e01b835252fd5b925060ff611bb4565b8b80929495508193503d83116120d3575b6120b8818361100f565b810103126106f957906120cc8d93926119c0565b9038611bae565b503d6120ae565b60249194506120f68391853d87116117f3576117e5818361100f565b949150611b6c565b8b513d87823e3d90fd5b939095600160a01b985060ff60a01b199795507f036fa7ebe32c81d713bab4f5c2a50eb37d9633d474f2561a7c28ea52c9a263569350606092549581815193818552840152820152a316179055565b61216f9192508b3d8d116117f3576117e5818361100f565b9038611a34565b61218e919850893d8b116117f3576117e5818361100f565b9638611a0b565b84513d89823e3d90fd5b9190826080910312611094578151916020810151916121c56060604084015193016119c0565b90565b600060206040516121d881610ff3565b828152015260806001600160a01b036003541691602460405180948193639a7db97f60e01b835260048301525afa801561225257600091829161222e575b506040519161222483610ff3565b8252602082015290565b9050612248915060803d8111611504576114f0818361100f565b5091509038612216565b6040513d6000823e3d90fd5b6060906040805161226e81610f91565b60009381858093528260208201528284820152015260806001600160a01b03600354169260248351809581937f956e958a00000000000000000000000000000000000000000000000000000000835260048301525afa91821561235c578380809281956122fe575b50509060ff918351956122e887610f91565b8652602086015216908301521515606082015290565b9450945050506080823d8211612354575b8161231c6080938361100f565b8101031261024257815192602083015193606061233a8486016119c0565b94015191821515830361086457509390929060ff386122d6565b3d915061230f565b81513d85823e3d90fdfea2646970667358221220aa7325230adb623b905578b9cb000f9305a50aeb1e3ceb0e1f69fd18a99d279864736f6c63430008140033",
  "linkReferences": {},
  "deployedLinkReferences": {}
}