{
  "_format": "hh-sol-artifact-1",
  "contractName": "DungeonStorage",
  "sourceName": "contracts/current/core/DungeonStorage.sol",
  "abi": [
    {
      "inputs": [
        {
          "internalType": "address",
          "name": "initialOwner",
          "type": "address"
        }
      ],
      "stateMutability": "nonpayable",
      "type": "constructor"
    },
    {
      "inputs": [],
      "name": "EnforcedPause",
      "type": "error"
    },
    {
      "inputs": [],
      "name": "ExpectedPause",
      "type": "error"
    },
    {
      "inputs": [
        {
          "internalType": "address",
          "name": "owner",
          "type": "address"
        }
      ],
      "name": "OwnableInvalidOwner",
      "type": "error"
    },
    {
      "inputs": [
        {
          "internalType": "address",
          "name": "account",
          "type": "address"
        }
      ],
      "name": "OwnableUnauthorizedAccount",
      "type": "error"
    },
    {
      "anonymous": false,
      "inputs": [
        {
          "indexed": true,
          "internalType": "address",
          "name": "newAddress",
          "type": "address"
        }
      ],
      "name": "LogicContractSet",
      "type": "event"
    },
    {
      "anonymous": false,
      "inputs": [
        {
          "indexed": true,
          "internalType": "address",
          "name": "previousOwner",
          "type": "address"
        },
        {
          "indexed": true,
          "internalType": "address",
          "name": "newOwner",
          "type": "address"
        }
      ],
      "name": "OwnershipTransferred",
      "type": "event"
    },
    {
      "anonymous": false,
      "inputs": [
        {
          "indexed": false,
          "internalType": "address",
          "name": "account",
          "type": "address"
        }
      ],
      "name": "Paused",
      "type": "event"
    },
    {
      "anonymous": false,
      "inputs": [
        {
          "indexed": false,
          "internalType": "address",
          "name": "account",
          "type": "address"
        }
      ],
      "name": "Unpaused",
      "type": "event"
    },
    {
      "inputs": [],
      "name": "NUM_DUNGEONS",
      "outputs": [
        {
          "internalType": "uint256",
          "name": "",
          "type": "uint256"
        }
      ],
      "stateMutability": "view",
      "type": "function"
    },
    {
      "inputs": [
        {
          "internalType": "uint256",
          "name": "id",
          "type": "uint256"
        }
      ],
      "name": "deleteExpeditionRequest",
      "outputs": [],
      "stateMutability": "nonpayable",
      "type": "function"
    },
    {
      "inputs": [
        {
          "internalType": "uint256",
          "name": "",
          "type": "uint256"
        }
      ],
      "name": "dungeons",
      "outputs": [
        {
          "internalType": "uint256",
          "name": "requiredPower",
          "type": "uint256"
        },
        {
          "internalType": "uint256",
          "name": "rewardAmountUSD",
          "type": "uint256"
        },
        {
          "internalType": "uint8",
          "name": "baseSuccessRate",
          "type": "uint8"
        },
        {
          "internalType": "bool",
          "name": "isInitialized",
          "type": "bool"
        }
      ],
      "stateMutability": "view",
      "type": "function"
    },
    {
      "inputs": [
        {
          "internalType": "uint256",
          "name": "_dungeonId",
          "type": "uint256"
        }
      ],
      "name": "getDungeon",
      "outputs": [
        {
          "components": [
            {
              "internalType": "uint256",
              "name": "requiredPower",
              "type": "uint256"
            },
            {
              "internalType": "uint256",
              "name": "rewardAmountUSD",
              "type": "uint256"
            },
            {
              "internalType": "uint8",
              "name": "baseSuccessRate",
              "type": "uint8"
            },
            {
              "internalType": "bool",
              "name": "isInitialized",
              "type": "bool"
            }
          ],
          "internalType": "struct DungeonStorage.Dungeon",
          "name": "",
          "type": "tuple"
        }
      ],
      "stateMutability": "view",
      "type": "function"
    },
    {
      "inputs": [
        {
          "internalType": "uint256",
          "name": "_requestId",
          "type": "uint256"
        }
      ],
      "name": "getExpeditionRequest",
      "outputs": [
        {
          "components": [
            {
              "internalType": "address",
              "name": "requester",
              "type": "address"
            },
            {
              "internalType": "uint256",
              "name": "partyId",
              "type": "uint256"
            },
            {
              "internalType": "uint256",
              "name": "dungeonId",
              "type": "uint256"
            }
          ],
          "internalType": "struct DungeonStorage.ExpeditionRequest",
          "name": "",
          "type": "tuple"
        }
      ],
      "stateMutability": "view",
      "type": "function"
    },
    {
      "inputs": [
        {
          "internalType": "uint256",
          "name": "_partyId",
          "type": "uint256"
        }
      ],
      "name": "getPartyStatus",
      "outputs": [
        {
          "components": [
            {
              "internalType": "uint256",
              "name": "provisionsRemaining",
              "type": "uint256"
            },
            {
              "internalType": "uint256",
              "name": "cooldownEndsAt",
              "type": "uint256"
            },
            {
              "internalType": "uint256",
              "name": "unclaimedRewards",
              "type": "uint256"
            },
            {
              "internalType": "uint8",
              "name": "fatigueLevel",
              "type": "uint8"
            }
          ],
          "internalType": "struct DungeonStorage.PartyStatus",
          "name": "",
          "type": "tuple"
        }
      ],
      "stateMutability": "view",
      "type": "function"
    },
    {
      "inputs": [],
      "name": "logicContract",
      "outputs": [
        {
          "internalType": "address",
          "name": "",
          "type": "address"
        }
      ],
      "stateMutability": "view",
      "type": "function"
    },
    {
      "inputs": [],
      "name": "owner",
      "outputs": [
        {
          "internalType": "address",
          "name": "",
          "type": "address"
        }
      ],
      "stateMutability": "view",
      "type": "function"
    },
    {
      "inputs": [
        {
          "internalType": "uint256",
          "name": "",
          "type": "uint256"
        }
      ],
      "name": "partyStatuses",
      "outputs": [
        {
          "internalType": "uint256",
          "name": "provisionsRemaining",
          "type": "uint256"
        },
        {
          "internalType": "uint256",
          "name": "cooldownEndsAt",
          "type": "uint256"
        },
        {
          "internalType": "uint256",
          "name": "unclaimedRewards",
          "type": "uint256"
        },
        {
          "internalType": "uint8",
          "name": "fatigueLevel",
          "type": "uint8"
        }
      ],
      "stateMutability": "view",
      "type": "function"
    },
    {
      "inputs": [],
      "name": "pause",
      "outputs": [],
      "stateMutability": "nonpayable",
      "type": "function"
    },
    {
      "inputs": [],
      "name": "paused",
      "outputs": [
        {
          "internalType": "bool",
          "name": "",
          "type": "bool"
        }
      ],
      "stateMutability": "view",
      "type": "function"
    },
    {
      "inputs": [],
      "name": "renounceOwnership",
      "outputs": [],
      "stateMutability": "nonpayable",
      "type": "function"
    },
    {
      "inputs": [
        {
          "internalType": "uint256",
          "name": "",
          "type": "uint256"
        }
      ],
      "name": "s_requests",
      "outputs": [
        {
          "internalType": "address",
          "name": "requester",
          "type": "address"
        },
        {
          "internalType": "uint256",
          "name": "partyId",
          "type": "uint256"
        },
        {
          "internalType": "uint256",
          "name": "dungeonId",
          "type": "uint256"
        }
      ],
      "stateMutability": "view",
      "type": "function"
    },
    {
      "inputs": [
        {
          "internalType": "uint256",
          "name": "id",
          "type": "uint256"
        },
        {
          "components": [
            {
              "internalType": "uint256",
              "name": "requiredPower",
              "type": "uint256"
            },
            {
              "internalType": "uint256",
              "name": "rewardAmountUSD",
              "type": "uint256"
            },
            {
              "internalType": "uint8",
              "name": "baseSuccessRate",
              "type": "uint8"
            },
            {
              "internalType": "bool",
              "name": "isInitialized",
              "type": "bool"
            }
          ],
          "internalType": "struct DungeonStorage.Dungeon",
          "name": "data",
          "type": "tuple"
        }
      ],
      "name": "setDungeon",
      "outputs": [],
      "stateMutability": "nonpayable",
      "type": "function"
    },
    {
      "inputs": [
        {
          "internalType": "uint256",
          "name": "id",
          "type": "uint256"
        },
        {
          "components": [
            {
              "internalType": "address",
              "name": "requester",
              "type": "address"
            },
            {
              "internalType": "uint256",
              "name": "partyId",
              "type": "uint256"
            },
            {
              "internalType": "uint256",
              "name": "dungeonId",
              "type": "uint256"
            }
          ],
          "internalType": "struct DungeonStorage.ExpeditionRequest",
          "name": "data",
          "type": "tuple"
        }
      ],
      "name": "setExpeditionRequest",
      "outputs": [],
      "stateMutability": "nonpayable",
      "type": "function"
    },
    {
      "inputs": [
        {
          "internalType": "address",
          "name": "_logicContract",
          "type": "address"
        }
      ],
      "name": "setLogicContract",
      "outputs": [],
      "stateMutability": "nonpayable",
      "type": "function"
    },
    {
      "inputs": [
        {
          "internalType": "uint256",
          "name": "id",
          "type": "uint256"
        },
        {
          "components": [
            {
              "internalType": "uint256",
              "name": "provisionsRemaining",
              "type": "uint256"
            },
            {
              "internalType": "uint256",
              "name": "cooldownEndsAt",
              "type": "uint256"
            },
            {
              "internalType": "uint256",
              "name": "unclaimedRewards",
              "type": "uint256"
            },
            {
              "internalType": "uint8",
              "name": "fatigueLevel",
              "type": "uint8"
            }
          ],
          "internalType": "struct DungeonStorage.PartyStatus",
          "name": "data",
          "type": "tuple"
        }
      ],
      "name": "setPartyStatus",
      "outputs": [],
      "stateMutability": "nonpayable",
      "type": "function"
    },
    {
      "inputs": [
        {
          "internalType": "address",
          "name": "newOwner",
          "type": "address"
        }
      ],
      "name": "transferOwnership",
      "outputs": [],
      "stateMutability": "nonpayable",
      "type": "function"
    },
    {
      "inputs": [],
      "name": "unpause",
      "outputs": [],
      "stateMutability": "nonpayable",
      "type": "function"
    }
  ],
  "bytecode": "0x6080346100bb57601f610af938819003918201601f19168301916001600160401b038311848410176100c0578084926020946040528339810103126100bb57516001600160a01b0390818116908190036100bb5780156100a257600080546001600160a01b03198116831782556040519316907f8be0079c531659141344cd1fd0a4f28419497f9722a3daafe3b4186f6b6457e09080a3610a2290816100d78239f35b604051631e4fbdf760e01b815260006004820152602490fd5b600080fd5b634e487b7160e01b600052604160045260246000fdfe60406080815260048036101561001457600080fd5b600091823560e01c80631ba779171461079f5780631ca6589b146107835780633f4ba83a146106fc57806357764d01146106785780635896cccc146105fa5780635aa4470f146105875780635c975abb14610562578063715018a6146104f957806379a2cc72146104835780637fa23093146104095780638456cb59146103995780638da5cb5b14610373578063956e958a146103245780639a7db97f146102d7578063a168fa8914610291578063b02080ae14610223578063cc0e97c9146101f757838163d866be04146101a7575063f2fde38b146100f357600080fd5b346101a35760203660031901126101a3578135916001600160a01b039182841680940361019f57610122610843565b831561017057505082548273ffffffffffffffffffffffffffffffffffffffff198216178455167f8be0079c531659141344cd1fd0a4f28419497f9722a3daafe3b4186f6b6457e08380a380f35b908460249251917f1e4fbdf7000000000000000000000000000000000000000000000000000000008352820152fd5b8480fd5b8280fd5b808484346101f35760203660031901126101f3576002916101d46001600160a01b0360015416331461091a565b6101dc6109b3565b803584526020528220828155826001820155015580f35b5050fd5b83823461021f578160031936011261021f576020906001600160a01b03600154169051908152f35b5080fd5b83823461021f5760ff6102846060600361023c3661081d565b95906102546001600160a01b0360015416331461091a565b61025c6109b3565b87528160205280872090863582556020870135600183015586013560028201550193016109a5565b1660ff1982541617905580f35b5090346101a35760203660031901126101a357606092818392358252602052206001600160a01b0381541691600260018301549201549181519384526020840152820152f35b5090346101a35760203660031901126101a35760809282913581526003602052209081549160018101549160ff600360028401549301541692815194855260208501528301526060820152f35b5090346101a35760203660031901126101a3578160809360ff923581526002602052208054926002600183015492015491815194855260208501528282169084015260081c1615156060820152f35b83823461021f578160031936011261021f576001600160a01b0360209254169051908152f35b83823461021f578160031936011261021f5760207f62e78cea01bee320cd4e420270b5ea74000d11b0c9f74754ebdbfc544b05a258916103d7610843565b6103df6109b3565b7401000000000000000000000000000000000000000060ff60a01b1985541617845551338152a180f35b5090346101a35760203660031901126101a3578160809360ff9261042b6108f6565b503581526003602052209161043e610887565b90835493848352600181015460208401908152606085600360028501549486880195865201541694019384528251958652516020860152519084015251166060820152f35b5090346101a35760203660031901126101a357828291606094836104a56108d6565b82815282602082015201528035825260205220906104c16108d6565b6001600160a01b0383541692838252826002600183015492602085019384520154920191825282519384525160208401525190820152f35b833461055f578060031936011261055f57610512610843565b806001600160a01b03815473ffffffffffffffffffffffffffffffffffffffff1981168355167f8be0079c531659141344cd1fd0a4f28419497f9722a3daafe3b4186f6b6457e08280a380f35b80fd5b83823461021f578160031936011261021f5760ff6020925460a01c1690519015158152f35b50503461021f57602036600319011261021f57356001600160a01b03811680910361021f576105b4610843565b8073ffffffffffffffffffffffffffffffffffffffff1960015416176001557f2b77ccf2e5f7da4f5512141431a43bb1733c8f190737ba450f895887eb7037728280a280f35b5090346101a35760203660031901126101a357608092829161061a6108f6565b5035815260026020522061062c610887565b9160ff825493848152600260018501549460208301958652015493826060858401938288168552019560081c161515855283519586525160208601525116908301525115156060820152f35b50346101a35760803660031901126101a35760603660231901126101a3576001600160a01b03916106ae8360015416331461091a565b6106b66109b3565b803584526020528220906024359081168091036101a35773ffffffffffffffffffffffffffffffffffffffff198254161781556044356001820155600260643591015580f35b5090346101a357826003193601126101a357610716610843565b82549060ff8260a01c161561075c57507f5db9ee0a495bf2e6ff9c91a7834c1ba4fdd244a5e8aa4e537bd38aeae4b073aa9160ff60a01b1960209216845551338152a180f35b82517f8dfc202b000000000000000000000000000000000000000000000000000000008152fd5b83823461021f578160031936011261021f5760209051600c8152f35b83823461021f576107af3661081d565b906107c66001600160a01b0360015416331461091a565b6107ce6109b3565b8352600260205260ff6107f660028486208435815560208501356001820155019383016109a5565b166060835492013580151580910361019f5761ff009060081b169161ffff19161717905580f35b9060a060031983011261083e57608060043592602319011261083e57602490565b600080fd5b6001600160a01b0360005416330361085757565b60246040517f118cdaa7000000000000000000000000000000000000000000000000000000008152336004820152fd5b604051906080820182811067ffffffffffffffff8211176108a757604052565b7f4e487b7100000000000000000000000000000000000000000000000000000000600052604160045260246000fd5b604051906060820182811067ffffffffffffffff8211176108a757604052565b6108fe610887565b9060008252600060208301526000604083015260006060830152565b1561092157565b60846040517f08c379a000000000000000000000000000000000000000000000000000000000815260206004820152603460248201527f53746f726167653a2043616c6c6572206973206e6f742074686520617574686f60448201527f72697a6564206c6f67696320636f6e74726163740000000000000000000000006064820152fd5b3560ff8116810361083e5790565b60ff60005460a01c166109c257565b60046040517fd93c0665000000000000000000000000000000000000000000000000000000008152fdfea2646970667358221220c6aedf352f2e85e890ab11a2f4d29f7d9174c692bdbcf0c236407931317238ac64736f6c63430008140033",
  "linkReferences": {},
  "deployedLinkReferences": {}
}