{
  "_format": "hh-sol-artifact-1",
  "contractName": "DungeonCore",
  "sourceName": "contracts/current/core/DungeonCore.sol",
  "abi": [
    {
      "inputs": [
        {
          "internalType": "address",
          "name": "_initialOwner",
          "type": "address"
        },
        {
          "internalType": "address",
          "name": "_usdToken",
          "type": "address"
        },
        {
          "internalType": "address",
          "name": "_soulShardToken",
          "type": "address"
        }
      ],
      "stateMutability": "nonpayable",
      "type": "constructor"
    },
    {
      "inputs": [],
      "name": "EnforcedPause",
      "type": "error"
    },
    {
      "inputs": [],
      "name": "ExpectedPause",
      "type": "error"
    },
    {
      "inputs": [
        {
          "internalType": "address",
          "name": "owner",
          "type": "address"
        }
      ],
      "name": "OwnableInvalidOwner",
      "type": "error"
    },
    {
      "inputs": [
        {
          "internalType": "address",
          "name": "account",
          "type": "address"
        }
      ],
      "name": "OwnableUnauthorizedAccount",
      "type": "error"
    },
    {
      "inputs": [],
      "name": "ReentrancyGuardReentrantCall",
      "type": "error"
    },
    {
      "anonymous": false,
      "inputs": [
        {
          "indexed": true,
          "internalType": "address",
          "name": "newAddress",
          "type": "address"
        }
      ],
      "name": "AltarOfAscensionSet",
      "type": "event"
    },
    {
      "anonymous": false,
      "inputs": [
        {
          "indexed": true,
          "internalType": "address",
          "name": "newAddress",
          "type": "address"
        }
      ],
      "name": "DungeonMasterSet",
      "type": "event"
    },
    {
      "anonymous": false,
      "inputs": [
        {
          "indexed": true,
          "internalType": "address",
          "name": "vrfManager",
          "type": "address"
        },
        {
          "indexed": false,
          "internalType": "uint256",
          "name": "contractsUpdated",
          "type": "uint256"
        }
      ],
      "name": "GlobalVRFManagerUpdated",
      "type": "event"
    },
    {
      "anonymous": false,
      "inputs": [
        {
          "indexed": true,
          "internalType": "address",
          "name": "newAddress",
          "type": "address"
        }
      ],
      "name": "HeroContractSet",
      "type": "event"
    },
    {
      "anonymous": false,
      "inputs": [
        {
          "indexed": true,
          "internalType": "address",
          "name": "newAddress",
          "type": "address"
        }
      ],
      "name": "OracleSet",
      "type": "event"
    },
    {
      "anonymous": false,
      "inputs": [
        {
          "indexed": true,
          "internalType": "address",
          "name": "previousOwner",
          "type": "address"
        },
        {
          "indexed": true,
          "internalType": "address",
          "name": "newOwner",
          "type": "address"
        }
      ],
      "name": "OwnershipTransferred",
      "type": "event"
    },
    {
      "anonymous": false,
      "inputs": [
        {
          "indexed": true,
          "internalType": "address",
          "name": "newAddress",
          "type": "address"
        }
      ],
      "name": "PartyContractSet",
      "type": "event"
    },
    {
      "anonymous": false,
      "inputs": [
        {
          "indexed": false,
          "internalType": "address",
          "name": "account",
          "type": "address"
        }
      ],
      "name": "Paused",
      "type": "event"
    },
    {
      "anonymous": false,
      "inputs": [
        {
          "indexed": true,
          "internalType": "address",
          "name": "newAddress",
          "type": "address"
        }
      ],
      "name": "PlayerProfileSet",
      "type": "event"
    },
    {
      "anonymous": false,
      "inputs": [
        {
          "indexed": true,
          "internalType": "address",
          "name": "newAddress",
          "type": "address"
        }
      ],
      "name": "PlayerVaultSet",
      "type": "event"
    },
    {
      "anonymous": false,
      "inputs": [
        {
          "indexed": true,
          "internalType": "address",
          "name": "newAddress",
          "type": "address"
        }
      ],
      "name": "RelicContractSet",
      "type": "event"
    },
    {
      "anonymous": false,
      "inputs": [
        {
          "indexed": false,
          "internalType": "address",
          "name": "account",
          "type": "address"
        }
      ],
      "name": "Unpaused",
      "type": "event"
    },
    {
      "anonymous": false,
      "inputs": [
        {
          "indexed": true,
          "internalType": "address",
          "name": "newAddress",
          "type": "address"
        }
      ],
      "name": "VRFManagerSet",
      "type": "event"
    },
    {
      "anonymous": false,
      "inputs": [
        {
          "indexed": true,
          "internalType": "address",
          "name": "newAddress",
          "type": "address"
        }
      ],
      "name": "VipStakingSet",
      "type": "event"
    },
    {
      "inputs": [],
      "name": "altarOfAscensionAddress",
      "outputs": [
        {
          "internalType": "address",
          "name": "",
          "type": "address"
        }
      ],
      "stateMutability": "view",
      "type": "function"
    },
    {
      "inputs": [],
      "name": "dungeonMasterAddress",
      "outputs": [
        {
          "internalType": "address",
          "name": "",
          "type": "address"
        }
      ],
      "stateMutability": "view",
      "type": "function"
    },
    {
      "inputs": [
        {
          "internalType": "uint256",
          "name": "_amountUSD",
          "type": "uint256"
        }
      ],
      "name": "getSoulShardAmountForUSD",
      "outputs": [
        {
          "internalType": "uint256",
          "name": "",
          "type": "uint256"
        }
      ],
      "stateMutability": "view",
      "type": "function"
    },
    {
      "inputs": [
        {
          "internalType": "uint256",
          "name": "_soulShardAmount",
          "type": "uint256"
        }
      ],
      "name": "getUSDValueForSoulShard",
      "outputs": [
        {
          "internalType": "uint256",
          "name": "",
          "type": "uint256"
        }
      ],
      "stateMutability": "view",
      "type": "function"
    },
    {
      "inputs": [],
      "name": "getVRFManager",
      "outputs": [
        {
          "internalType": "address",
          "name": "",
          "type": "address"
        }
      ],
      "stateMutability": "view",
      "type": "function"
    },
    {
      "inputs": [],
      "name": "heroContractAddress",
      "outputs": [
        {
          "internalType": "address",
          "name": "",
          "type": "address"
        }
      ],
      "stateMutability": "view",
      "type": "function"
    },
    {
      "inputs": [
        {
          "internalType": "uint256",
          "name": "partyId",
          "type": "uint256"
        }
      ],
      "name": "isPartyLocked",
      "outputs": [
        {
          "internalType": "bool",
          "name": "",
          "type": "bool"
        }
      ],
      "stateMutability": "view",
      "type": "function"
    },
    {
      "inputs": [],
      "name": "oracleAddress",
      "outputs": [
        {
          "internalType": "address",
          "name": "",
          "type": "address"
        }
      ],
      "stateMutability": "view",
      "type": "function"
    },
    {
      "inputs": [],
      "name": "owner",
      "outputs": [
        {
          "internalType": "address",
          "name": "",
          "type": "address"
        }
      ],
      "stateMutability": "view",
      "type": "function"
    },
    {
      "inputs": [],
      "name": "partyContractAddress",
      "outputs": [
        {
          "internalType": "address",
          "name": "",
          "type": "address"
        }
      ],
      "stateMutability": "view",
      "type": "function"
    },
    {
      "inputs": [],
      "name": "pause",
      "outputs": [],
      "stateMutability": "nonpayable",
      "type": "function"
    },
    {
      "inputs": [],
      "name": "paused",
      "outputs": [
        {
          "internalType": "bool",
          "name": "",
          "type": "bool"
        }
      ],
      "stateMutability": "view",
      "type": "function"
    },
    {
      "inputs": [],
      "name": "playerProfileAddress",
      "outputs": [
        {
          "internalType": "address",
          "name": "",
          "type": "address"
        }
      ],
      "stateMutability": "view",
      "type": "function"
    },
    {
      "inputs": [],
      "name": "playerVaultAddress",
      "outputs": [
        {
          "internalType": "address",
          "name": "",
          "type": "address"
        }
      ],
      "stateMutability": "view",
      "type": "function"
    },
    {
      "inputs": [],
      "name": "relicContractAddress",
      "outputs": [
        {
          "internalType": "address",
          "name": "",
          "type": "address"
        }
      ],
      "stateMutability": "view",
      "type": "function"
    },
    {
      "inputs": [],
      "name": "renounceOwnership",
      "outputs": [],
      "stateMutability": "nonpayable",
      "type": "function"
    },
    {
      "inputs": [
        {
          "internalType": "address",
          "name": "_newAddress",
          "type": "address"
        }
      ],
      "name": "setAltarOfAscension",
      "outputs": [],
      "stateMutability": "nonpayable",
      "type": "function"
    },
    {
      "inputs": [
        {
          "internalType": "address",
          "name": "_newAddress",
          "type": "address"
        }
      ],
      "name": "setDungeonMaster",
      "outputs": [],
      "stateMutability": "nonpayable",
      "type": "function"
    },
    {
      "inputs": [
        {
          "internalType": "address",
          "name": "_vrfManager",
          "type": "address"
        }
      ],
      "name": "setGlobalVRFManager",
      "outputs": [],
      "stateMutability": "nonpayable",
      "type": "function"
    },
    {
      "inputs": [
        {
          "internalType": "address",
          "name": "_newAddress",
          "type": "address"
        }
      ],
      "name": "setHeroContract",
      "outputs": [],
      "stateMutability": "nonpayable",
      "type": "function"
    },
    {
      "inputs": [
        {
          "internalType": "address",
          "name": "_newAddress",
          "type": "address"
        }
      ],
      "name": "setOracle",
      "outputs": [],
      "stateMutability": "nonpayable",
      "type": "function"
    },
    {
      "inputs": [
        {
          "internalType": "address",
          "name": "_newAddress",
          "type": "address"
        }
      ],
      "name": "setPartyContract",
      "outputs": [],
      "stateMutability": "nonpayable",
      "type": "function"
    },
    {
      "inputs": [
        {
          "internalType": "address",
          "name": "_newAddress",
          "type": "address"
        }
      ],
      "name": "setPlayerProfile",
      "outputs": [],
      "stateMutability": "nonpayable",
      "type": "function"
    },
    {
      "inputs": [
        {
          "internalType": "address",
          "name": "_newAddress",
          "type": "address"
        }
      ],
      "name": "setPlayerVault",
      "outputs": [],
      "stateMutability": "nonpayable",
      "type": "function"
    },
    {
      "inputs": [
        {
          "internalType": "address",
          "name": "_newAddress",
          "type": "address"
        }
      ],
      "name": "setRelicContract",
      "outputs": [],
      "stateMutability": "nonpayable",
      "type": "function"
    },
    {
      "inputs": [
        {
          "internalType": "address",
          "name": "_newAddress",
          "type": "address"
        }
      ],
      "name": "setVipStaking",
      "outputs": [],
      "stateMutability": "nonpayable",
      "type": "function"
    },
    {
      "inputs": [],
      "name": "soulShardTokenAddress",
      "outputs": [
        {
          "internalType": "address",
          "name": "",
          "type": "address"
        }
      ],
      "stateMutability": "view",
      "type": "function"
    },
    {
      "inputs": [
        {
          "internalType": "address",
          "name": "player",
          "type": "address"
        },
        {
          "internalType": "uint256",
          "name": "amount",
          "type": "uint256"
        }
      ],
      "name": "spendFromVault",
      "outputs": [],
      "stateMutability": "nonpayable",
      "type": "function"
    },
    {
      "inputs": [
        {
          "internalType": "address",
          "name": "newOwner",
          "type": "address"
        }
      ],
      "name": "transferOwnership",
      "outputs": [],
      "stateMutability": "nonpayable",
      "type": "function"
    },
    {
      "inputs": [],
      "name": "unpause",
      "outputs": [],
      "stateMutability": "nonpayable",
      "type": "function"
    },
    {
      "inputs": [],
      "name": "usdDecimals",
      "outputs": [
        {
          "internalType": "uint8",
          "name": "",
          "type": "uint8"
        }
      ],
      "stateMutability": "view",
      "type": "function"
    },
    {
      "inputs": [],
      "name": "usdTokenAddress",
      "outputs": [
        {
          "internalType": "address",
          "name": "",
          "type": "address"
        }
      ],
      "stateMutability": "view",
      "type": "function"
    },
    {
      "inputs": [],
      "name": "vipStakingAddress",
      "outputs": [
        {
          "internalType": "address",
          "name": "",
          "type": "address"
        }
      ],
      "stateMutability": "view",
      "type": "function"
    },
    {
      "inputs": [],
      "name": "vrfManager",
      "outputs": [
        {
          "internalType": "address",
          "name": "",
          "type": "address"
        }
      ],
      "stateMutability": "view",
      "type": "function"
    }
  ],
  "bytecode": "0x60806040908082523462000207576060816200145780380380916200002582856200020c565b83398101031262000207576200003b8162000246565b60209162000058846200005085840162000246565b920162000246565b916001600160a01b03908116908115620001ef57600080546001600160a01b0319808216851783558851929692959094909184167f8be0079c531659141344cd1fd0a4f28419497f9722a3daafe3b4186f6b6457e08880a3600180558281169485151580620001e3575b15620001a1575060028054610100600160a81b03191660089290921b610100600160a81b0316919091179055600380549093169116179055835163313ce56760e01b8152908390829060049082905afa928315620001975782936200014d575b505050600d549060ff60a01b9060a01b169060ff60a01b191617600d55516111fb90816200025c8239f35b9080929350813d83116200018f575b6200016881836200020c565b810103126200018b57519060ff8216820362000188575038808062000122565b80fd5b5080fd5b503d6200015c565b84513d84823e3d90fd5b62461bcd60e51b815260048101889052601e60248201527f546f6b656e206164647265737365732063616e6e6f74206265207a65726f00006044820152606490fd5b508383161515620000c2565b8551631e4fbdf760e01b815260006004820152602490fd5b600080fd5b601f909101601f19168101906001600160401b038211908210176200023057604052565b634e487b7160e01b600052604160045260246000fd5b51906001600160a01b0382168203620002075756fe6080604081815260048036101561001557600080fd5b600092833560e01c908163040db68e14610faf575080630d803ebc14610f4b578063267071ad14610f2357806329bdca3714610efb57806333b16c2814610e975780633c092874146103355780633eac8dac14610e6c5780633f4ba83a14610dea5780634ace2de514610b1b578063532c504514610af35780635606444414610a8f5780635c975abb14610a6b57806360637b0414610a0757806366a4b6c0146109e2578063715018a61461098857806376ed3671146109605780637a70d191146109375780637aa6b20b1461090f5780637adbf973146108ab5780637b2e0fcf146107c8578063815b64b2146105dd5780638456cb59146105825780638da5cb5b1461055c5780638db7d312146105345780639956971e146104d0578063a89ae4ba146104a9578063b2a4750014610445578063b6395e3114610385578063c0d0d1701461035d578063c1b39a3e14610335578063c77ebc95146102d1578063d2ac0f591461026a578063eab9c6401461023e5763f2fde38b1461019957600080fd5b3461023a57602036600319011261023a576101b2610fd4565b906101bb610fea565b6001600160a01b0380921692831561020b575050600054826001600160a01b0319821617600055167f8be0079c531659141344cd1fd0a4f28419497f9722a3daafe3b4186f6b6457e0600080a380f35b908460249251917f1e4fbdf7000000000000000000000000000000000000000000000000000000008352820152fd5b8280fd5b5050346102665781600319360112610266576020906001600160a01b03600754169051908152f35b5080fd5b83346102ce5760203660031901126102ce576001600160a01b0361028c610fd4565b610294610fea565b16806001600160a01b031960055416176005557f66bc4bfd56f2104006bad233fc730445bafcda57858bcb241c43fe70a19ac73c8280a280f35b80fd5b83346102ce5760203660031901126102ce576001600160a01b036102f3610fd4565b6102fb610fea565b16806001600160a01b031960095416176009557f589625f9cfc2d3cd7ebf57456c459307a31379d06884aecee9bf1bc87a36984a8280a280f35b5050346102665781600319360112610266576020906001600160a01b03600d54169051908152f35b5050346102665781600319360112610266576020906001600160a01b03600954169051908152f35b50919034610266576020928360031936011261023a57836103ee916001600160a01b0380825416906103b882151561102e565b60035416855180958194829363ca706bcf60e01b84528135918401602090939291936001600160a01b0360408201951681520152565b03915afa92831561043a5792610406575b5051908152f35b9091508281813d8311610433575b61041e81836110a3565b8101031261042e575190386103ff565b600080fd5b503d610414565b8251903d90823e3d90fd5b83346102ce5760203660031901126102ce576001600160a01b03610467610fd4565b61046f610fea565b16806001600160a01b031960065416176006557f8920e7fbf160226a5498b7a18e7982c9136f38ff4bd292188b6b680b82734a118280a280f35b5091346102ce57806003193601126102ce57506001600160a01b0360209254169051908152f35b83346102ce5760203660031901126102ce576001600160a01b036104f2610fd4565b6104fa610fea565b16806001600160a01b031960085416176008557f4ea975357911696be8cdf2f5429d007c7b01d8e182ba9701ccf9e92a958451628280a280f35b5050346102665781600319360112610266576020906001600160a01b03600554169051908152f35b5050346102665781600319360112610266576001600160a01b0360209254169051908152f35b50503461026657816003193601126102665760207f62e78cea01bee320cd4e420270b5ea74000d11b0c9f74754ebdbfc544b05a258916105c0610fea565b6105c86110c5565b600160ff19600254161760025551338152a180f35b509190346102665780600319360112610266576105f8610fd4565b906002600154146107a05760026001556106106110c5565b6001600160a01b0391826008541692831561075d578060055416331490811561074e575b8115610740575b50156106d7578394833b156106d35761069d9385928385518097819582947fd064ff19000000000000000000000000000000000000000000000000000000008452602435918401602090939291936001600160a01b0360408201951681520152565b03925af19081156106ca57506106b6575b506001805580f35b6106bf90611079565b6102ce5780386106ae565b513d84823e3d90fd5b8480fd5b608485602084519162461bcd60e51b8352820152602b60248201527f44756e67656f6e436f72653a2043616c6c6572206e6f7420617574686f72697a60448201527f656420746f207370656e640000000000000000000000000000000000000000006064820152fd5b9050600a541633143861063b565b80915060065416331490610634565b606486602085519162461bcd60e51b8352820152601360248201527f506c617965725661756c74206e6f7420736574000000000000000000000000006044820152fd5b8390517f3ee5aeb5000000000000000000000000000000000000000000000000000000008152fd5b50919034610266576020928360031936011261023a57838135916001600160a01b039081815416906107fb82151561102e565b600d5460a01c60ff16946012860361084c576103ee9550925b60025460081c169086519586948593849363ca706bcf60e01b85528401602090939291936001600160a01b0360408201951681520152565b9193509193604d811161089857600a0a9081810291818304149015171561088557916103ee9391670de0b6b3a764000088940492610814565b602486601184634e487b7160e01b835252fd5b602487601185634e487b7160e01b835252fd5b838234610266576020366003190112610266576001600160a01b036108ce610fd4565b6108d6610fea565b1690816001600160a01b03198254161790557f3f32684a32a11dabdbb8c0177de80aa3ae36a004d75210335b49e544e48cd0aa8280a280f35b5050346102665781600319360112610266576020906001600160a01b03600b54169051908152f35b5091346102ce5760203660031901126102ce5750610957602092356110fb565b90519015158152f35b5050346102665781600319360112610266576020906001600160a01b03600c54169051908152f35b83346102ce57806003193601126102ce576109a1610fea565b60006001600160a01b0381546001600160a01b031981168355167f8be0079c531659141344cd1fd0a4f28419497f9722a3daafe3b4186f6b6457e08280a380f35b50503461026657816003193601126102665760209060ff600d5460a01c169051908152f35b83346102ce5760203660031901126102ce576001600160a01b03610a29610fd4565b610a31610fea565b16806001600160a01b0319600a541617600a557f611c62009a5cc6657049d1a514e39e102d23e7fb7b4ad8d5910a6970a0da95158280a280f35b50503461026657816003193601126102665760209060ff6002541690519015158152f35b83346102ce5760203660031901126102ce576001600160a01b03610ab1610fd4565b610ab9610fea565b16806001600160a01b0319600c541617600c557f7d3ca866b4d9fb3ab4fd9e0e2f2446e5371ea1d2295ff7503d35bcfb619021f58280a280f35b5050346102665781600319360112610266576020906001600160a01b03600654169051908152f35b50903461023a57602036600319011261023a57610b36610fd4565b610b3e610fea565b6001600160a01b03809116928315610d8157836001600160a01b0319600d541617600d55849185816005541680610d2a575b5090806006541680610cce575b50806009541680610c72575b50600a54169182610be9575b50847fd852b826c232ed9d6a75ea7caf01d97879e448c537cf18c63ccf8d4b64afdd42602085875190847feda44c694e75c8161562f6179238b37a8daa291b6b2229613ed903ed92ab2d3d8780a28152a280f35b823b156102665785602483928388519687948593631e8cfaaf60e21b85528401525af19182610c5a575b5050907fd852b826c232ed9d6a75ea7caf01d97879e448c537cf18c63ccf8d4b64afdd4292602092610c4a575b9250908438610b95565b90610c54906111a0565b90610c40565b610c6690939293611079565b6106d357908438610c13565b803b1561023a57828080926024895180958193631e8cfaaf60e21b83528d8b8401525af19182610cba575b5050610caa575b38610b89565b92610cb4906111a0565b92610ca4565b610cc390611079565b61023a578238610c9d565b803b1561023a57828080926024895180958193631e8cfaaf60e21b83528d8b8401525af19182610d16575b5050610d06575b38610b7d565b92610d10906111a0565b92610d00565b610d1f90611079565b61023a578238610cf9565b803b156102665781906024875180948193631e8cfaaf60e21b83528b898401525af19081610d6c575b50908691610d63575b9038610b70565b60019350610d5c565b610d799097919297611079565b959038610d53565b608490602084519162461bcd60e51b8352820152602f60248201527f44756e67656f6e436f72653a20565246204d616e616765722063616e6e6f742060448201527f6265207a65726f206164647265737300000000000000000000000000000000006064820152fd5b503461023a578260031936011261023a57610e03610fea565b6002549060ff821615610e45575060ff1916600255513381527f5db9ee0a495bf2e6ff9c91a7834c1ba4fdd244a5e8aa4e537bd38aeae4b073aa90602090a180f35b82517f8dfc202b000000000000000000000000000000000000000000000000000000008152fd5b5050346102665781600319360112610266576020906001600160a01b0360025460081c169051908152f35b83346102ce5760203660031901126102ce576001600160a01b03610eb9610fd4565b610ec1610fea565b16806001600160a01b031960075416176007557fb6433310f912a3c933878d5d91069804c98c436f9f30d5fb772a48a7c24f94c28280a280f35b5050346102665781600319360112610266576020906001600160a01b03600854169051908152f35b5050346102665781600319360112610266576020906001600160a01b03600354169051908152f35b83346102ce5760203660031901126102ce576001600160a01b03610f6d610fd4565b610f75610fea565b16806001600160a01b0319600b541617600b557f37501759d2e15c019cdf73bd0f9ffb4ec814c3f482de7072e474207017f85d348280a280f35b8490346102665781600319360112610266576020906001600160a01b03600a54168152f35b600435906001600160a01b038216820361042e57565b6001600160a01b03600054163303610ffe57565b60246040517f118cdaa7000000000000000000000000000000000000000000000000000000008152336004820152fd5b1561103557565b606460405162461bcd60e51b815260206004820152600e60248201527f4f7261636c65206e6f74207365740000000000000000000000000000000000006044820152fd5b67ffffffffffffffff811161108d57604052565b634e487b7160e01b600052604160045260246000fd5b90601f8019910116810190811067ffffffffffffffff82111761108d57604052565b60ff600254166110d157565b60046040517fd93c0665000000000000000000000000000000000000000000000000000000008152fd5b6001600160a01b0360095416908115611199576020906024604051809481937f7a70d19100000000000000000000000000000000000000000000000000000000835260048301525afa90811561118d57600091611156575090565b6020813d8211611185575b8161116e602093836110a3565b8101031261026657519081151582036102ce575090565b3d9150611161565b6040513d6000823e3d90fd5b5050600090565b60001981146111af5760010190565b634e487b7160e01b600052601160045260246000fdfea264697066735822122054720e03948f5d648a17b10951195f5d65cca368ecefeae084a9fb8ff661bd3664736f6c63430008140033",
  "linkReferences": {},
  "deployedLinkReferences": {}
}