{
  "_format": "hh-sol-artifact-1",
  "contractName": "Hero",
  "sourceName": "contracts/current/nft/Hero.sol",
  "abi": [
    {
      "inputs": [
        {
          "internalType": "address",
          "name": "initialOwner",
          "type": "address"
        }
      ],
      "stateMutability": "nonpayable",
      "type": "constructor"
    },
    {
      "inputs": [
        {
          "internalType": "address",
          "name": "sender",
          "type": "address"
        },
        {
          "internalType": "uint256",
          "name": "tokenId",
          "type": "uint256"
        },
        {
          "internalType": "address",
          "name": "owner",
          "type": "address"
        }
      ],
      "name": "ERC721IncorrectOwner",
      "type": "error"
    },
    {
      "inputs": [
        {
          "internalType": "address",
          "name": "operator",
          "type": "address"
        },
        {
          "internalType": "uint256",
          "name": "tokenId",
          "type": "uint256"
        }
      ],
      "name": "ERC721InsufficientApproval",
      "type": "error"
    },
    {
      "inputs": [
        {
          "internalType": "address",
          "name": "approver",
          "type": "address"
        }
      ],
      "name": "ERC721InvalidApprover",
      "type": "error"
    },
    {
      "inputs": [
        {
          "internalType": "address",
          "name": "operator",
          "type": "address"
        }
      ],
      "name": "ERC721InvalidOperator",
      "type": "error"
    },
    {
      "inputs": [
        {
          "internalType": "address",
          "name": "owner",
          "type": "address"
        }
      ],
      "name": "ERC721InvalidOwner",
      "type": "error"
    },
    {
      "inputs": [
        {
          "internalType": "address",
          "name": "receiver",
          "type": "address"
        }
      ],
      "name": "ERC721InvalidReceiver",
      "type": "error"
    },
    {
      "inputs": [
        {
          "internalType": "address",
          "name": "sender",
          "type": "address"
        }
      ],
      "name": "ERC721InvalidSender",
      "type": "error"
    },
    {
      "inputs": [
        {
          "internalType": "uint256",
          "name": "tokenId",
          "type": "uint256"
        }
      ],
      "name": "ERC721NonexistentToken",
      "type": "error"
    },
    {
      "inputs": [],
      "name": "EnforcedPause",
      "type": "error"
    },
    {
      "inputs": [],
      "name": "ExpectedPause",
      "type": "error"
    },
    {
      "inputs": [
        {
          "internalType": "address",
          "name": "owner",
          "type": "address"
        }
      ],
      "name": "OwnableInvalidOwner",
      "type": "error"
    },
    {
      "inputs": [
        {
          "internalType": "address",
          "name": "account",
          "type": "address"
        }
      ],
      "name": "OwnableUnauthorizedAccount",
      "type": "error"
    },
    {
      "inputs": [],
      "name": "ReentrancyGuardReentrantCall",
      "type": "error"
    },
    {
      "inputs": [
        {
          "internalType": "address",
          "name": "token",
          "type": "address"
        }
      ],
      "name": "SafeERC20FailedOperation",
      "type": "error"
    },
    {
      "anonymous": false,
      "inputs": [
        {
          "indexed": true,
          "internalType": "address",
          "name": "owner",
          "type": "address"
        },
        {
          "indexed": true,
          "internalType": "address",
          "name": "approved",
          "type": "address"
        },
        {
          "indexed": true,
          "internalType": "uint256",
          "name": "tokenId",
          "type": "uint256"
        }
      ],
      "name": "Approval",
      "type": "event"
    },
    {
      "anonymous": false,
      "inputs": [
        {
          "indexed": true,
          "internalType": "address",
          "name": "owner",
          "type": "address"
        },
        {
          "indexed": true,
          "internalType": "address",
          "name": "operator",
          "type": "address"
        },
        {
          "indexed": false,
          "internalType": "bool",
          "name": "approved",
          "type": "bool"
        }
      ],
      "name": "ApprovalForAll",
      "type": "event"
    },
    {
      "anonymous": false,
      "inputs": [
        {
          "indexed": true,
          "internalType": "address",
          "name": "newAddress",
          "type": "address"
        }
      ],
      "name": "AscensionAltarSet",
      "type": "event"
    },
    {
      "anonymous": false,
      "inputs": [
        {
          "indexed": false,
          "internalType": "string",
          "name": "newBaseURI",
          "type": "string"
        }
      ],
      "name": "BaseURISet",
      "type": "event"
    },
    {
      "anonymous": false,
      "inputs": [
        {
          "indexed": true,
          "internalType": "address",
          "name": "player",
          "type": "address"
        },
        {
          "indexed": false,
          "internalType": "uint256",
          "name": "quantity",
          "type": "uint256"
        },
        {
          "indexed": false,
          "internalType": "uint8",
          "name": "maxRarity",
          "type": "uint8"
        },
        {
          "indexed": false,
          "internalType": "uint256[]",
          "name": "tokenIds",
          "type": "uint256[]"
        }
      ],
      "name": "BatchMintCompleted",
      "type": "event"
    },
    {
      "anonymous": false,
      "inputs": [
        {
          "indexed": false,
          "internalType": "string",
          "name": "newContractURI",
          "type": "string"
        }
      ],
      "name": "ContractURIUpdated",
      "type": "event"
    },
    {
      "anonymous": false,
      "inputs": [
        {
          "indexed": true,
          "internalType": "address",
          "name": "core",
          "type": "address"
        },
        {
          "indexed": true,
          "internalType": "address",
          "name": "token",
          "type": "address"
        }
      ],
      "name": "ContractsSet",
      "type": "event"
    },
    {
      "anonymous": false,
      "inputs": [
        {
          "indexed": true,
          "internalType": "uint256",
          "name": "tokenId",
          "type": "uint256"
        },
        {
          "indexed": true,
          "internalType": "address",
          "name": "owner",
          "type": "address"
        },
        {
          "indexed": false,
          "internalType": "uint8",
          "name": "rarity",
          "type": "uint8"
        },
        {
          "indexed": false,
          "internalType": "uint256",
          "name": "power",
          "type": "uint256"
        }
      ],
      "name": "HeroBurned",
      "type": "event"
    },
    {
      "anonymous": false,
      "inputs": [
        {
          "indexed": true,
          "internalType": "uint256",
          "name": "tokenId",
          "type": "uint256"
        },
        {
          "indexed": true,
          "internalType": "address",
          "name": "owner",
          "type": "address"
        },
        {
          "indexed": false,
          "internalType": "uint8",
          "name": "rarity",
          "type": "uint8"
        },
        {
          "indexed": false,
          "internalType": "uint256",
          "name": "power",
          "type": "uint256"
        }
      ],
      "name": "HeroMinted",
      "type": "event"
    },
    {
      "anonymous": false,
      "inputs": [
        {
          "indexed": true,
          "internalType": "address",
          "name": "player",
          "type": "address"
        },
        {
          "indexed": false,
          "internalType": "uint256",
          "name": "quantity",
          "type": "uint256"
        },
        {
          "indexed": false,
          "internalType": "bool",
          "name": "fromVault",
          "type": "bool"
        }
      ],
      "name": "MintRequested",
      "type": "event"
    },
    {
      "anonymous": false,
      "inputs": [
        {
          "indexed": true,
          "internalType": "address",
          "name": "previousOwner",
          "type": "address"
        },
        {
          "indexed": true,
          "internalType": "address",
          "name": "newOwner",
          "type": "address"
        }
      ],
      "name": "OwnershipTransferred",
      "type": "event"
    },
    {
      "anonymous": false,
      "inputs": [
        {
          "indexed": false,
          "internalType": "address",
          "name": "account",
          "type": "address"
        }
      ],
      "name": "Paused",
      "type": "event"
    },
    {
      "anonymous": false,
      "inputs": [
        {
          "indexed": true,
          "internalType": "address",
          "name": "from",
          "type": "address"
        },
        {
          "indexed": true,
          "internalType": "address",
          "name": "to",
          "type": "address"
        },
        {
          "indexed": true,
          "internalType": "uint256",
          "name": "tokenId",
          "type": "uint256"
        }
      ],
      "name": "Transfer",
      "type": "event"
    },
    {
      "anonymous": false,
      "inputs": [
        {
          "indexed": false,
          "internalType": "address",
          "name": "account",
          "type": "address"
        }
      ],
      "name": "Unpaused",
      "type": "event"
    },
    {
      "anonymous": false,
      "inputs": [
        {
          "indexed": true,
          "internalType": "address",
          "name": "vrfManager",
          "type": "address"
        }
      ],
      "name": "VRFManagerSet",
      "type": "event"
    },
    {
      "inputs": [
        {
          "internalType": "address",
          "name": "to",
          "type": "address"
        },
        {
          "internalType": "uint256",
          "name": "tokenId",
          "type": "uint256"
        }
      ],
      "name": "approve",
      "outputs": [],
      "stateMutability": "nonpayable",
      "type": "function"
    },
    {
      "inputs": [],
      "name": "ascensionAltarAddress",
      "outputs": [
        {
          "internalType": "address",
          "name": "",
          "type": "address"
        }
      ],
      "stateMutability": "view",
      "type": "function"
    },
    {
      "inputs": [
        {
          "internalType": "address",
          "name": "owner",
          "type": "address"
        }
      ],
      "name": "balanceOf",
      "outputs": [
        {
          "internalType": "uint256",
          "name": "",
          "type": "uint256"
        }
      ],
      "stateMutability": "view",
      "type": "function"
    },
    {
      "inputs": [],
      "name": "baseURI",
      "outputs": [
        {
          "internalType": "string",
          "name": "",
          "type": "string"
        }
      ],
      "stateMutability": "view",
      "type": "function"
    },
    {
      "inputs": [
        {
          "internalType": "uint256",
          "name": "_tokenId",
          "type": "uint256"
        }
      ],
      "name": "burnFromAltar",
      "outputs": [],
      "stateMutability": "nonpayable",
      "type": "function"
    },
    {
      "inputs": [],
      "name": "contractURI",
      "outputs": [
        {
          "internalType": "string",
          "name": "",
          "type": "string"
        }
      ],
      "stateMutability": "view",
      "type": "function"
    },
    {
      "inputs": [],
      "name": "dungeonCore",
      "outputs": [
        {
          "internalType": "contract IDungeonCore",
          "name": "",
          "type": "address"
        }
      ],
      "stateMutability": "view",
      "type": "function"
    },
    {
      "inputs": [
        {
          "internalType": "uint256",
          "name": "tokenId",
          "type": "uint256"
        }
      ],
      "name": "getApproved",
      "outputs": [
        {
          "internalType": "address",
          "name": "",
          "type": "address"
        }
      ],
      "stateMutability": "view",
      "type": "function"
    },
    {
      "inputs": [
        {
          "internalType": "uint256",
          "name": "tokenId",
          "type": "uint256"
        }
      ],
      "name": "getHeroProperties",
      "outputs": [
        {
          "internalType": "uint8",
          "name": "rarity",
          "type": "uint8"
        },
        {
          "internalType": "uint256",
          "name": "power",
          "type": "uint256"
        }
      ],
      "stateMutability": "view",
      "type": "function"
    },
    {
      "inputs": [
        {
          "internalType": "uint256",
          "name": "_quantity",
          "type": "uint256"
        }
      ],
      "name": "getRequiredSoulShardAmount",
      "outputs": [
        {
          "internalType": "uint256",
          "name": "",
          "type": "uint256"
        }
      ],
      "stateMutability": "view",
      "type": "function"
    },
    {
      "inputs": [
        {
          "internalType": "address",
          "name": "_user",
          "type": "address"
        }
      ],
      "name": "getUserRequest",
      "outputs": [
        {
          "components": [
            {
              "internalType": "uint256",
              "name": "quantity",
              "type": "uint256"
            },
            {
              "internalType": "uint256",
              "name": "payment",
              "type": "uint256"
            },
            {
              "internalType": "bool",
              "name": "fulfilled",
              "type": "bool"
            },
            {
              "internalType": "uint8",
              "name": "maxRarity",
              "type": "uint8"
            },
            {
              "internalType": "bool",
              "name": "fromVault",
              "type": "bool"
            },
            {
              "internalType": "uint256[]",
              "name": "pendingTokenIds",
              "type": "uint256[]"
            }
          ],
          "internalType": "struct Hero.MintRequest",
          "name": "",
          "type": "tuple"
        }
      ],
      "stateMutability": "view",
      "type": "function"
    },
    {
      "inputs": [
        {
          "internalType": "uint256",
          "name": "",
          "type": "uint256"
        }
      ],
      "name": "heroData",
      "outputs": [
        {
          "internalType": "uint8",
          "name": "rarity",
          "type": "uint8"
        },
        {
          "internalType": "uint256",
          "name": "power",
          "type": "uint256"
        },
        {
          "internalType": "bool",
          "name": "isRevealed",
          "type": "bool"
        }
      ],
      "stateMutability": "view",
      "type": "function"
    },
    {
      "inputs": [
        {
          "internalType": "address",
          "name": "owner",
          "type": "address"
        },
        {
          "internalType": "address",
          "name": "operator",
          "type": "address"
        }
      ],
      "name": "isApprovedForAll",
      "outputs": [
        {
          "internalType": "bool",
          "name": "",
          "type": "bool"
        }
      ],
      "stateMutability": "view",
      "type": "function"
    },
    {
      "inputs": [
        {
          "internalType": "address",
          "name": "_to",
          "type": "address"
        },
        {
          "internalType": "uint8",
          "name": "_rarity",
          "type": "uint8"
        },
        {
          "internalType": "uint256",
          "name": "_power",
          "type": "uint256"
        }
      ],
      "name": "mintFromAltar",
      "outputs": [
        {
          "internalType": "uint256",
          "name": "",
          "type": "uint256"
        }
      ],
      "stateMutability": "nonpayable",
      "type": "function"
    },
    {
      "inputs": [
        {
          "internalType": "uint256",
          "name": "_quantity",
          "type": "uint256"
        }
      ],
      "name": "mintFromVault",
      "outputs": [],
      "stateMutability": "payable",
      "type": "function"
    },
    {
      "inputs": [
        {
          "internalType": "uint256",
          "name": "_quantity",
          "type": "uint256"
        }
      ],
      "name": "mintFromWallet",
      "outputs": [],
      "stateMutability": "payable",
      "type": "function"
    },
    {
      "inputs": [],
      "name": "mintPriceUSD",
      "outputs": [
        {
          "internalType": "uint256",
          "name": "",
          "type": "uint256"
        }
      ],
      "stateMutability": "view",
      "type": "function"
    },
    {
      "inputs": [],
      "name": "name",
      "outputs": [
        {
          "internalType": "string",
          "name": "",
          "type": "string"
        }
      ],
      "stateMutability": "view",
      "type": "function"
    },
    {
      "inputs": [
        {
          "internalType": "uint256",
          "name": "requestId",
          "type": "uint256"
        },
        {
          "internalType": "uint256[]",
          "name": "randomWords",
          "type": "uint256[]"
        }
      ],
      "name": "onVRFFulfilled",
      "outputs": [],
      "stateMutability": "nonpayable",
      "type": "function"
    },
    {
      "inputs": [],
      "name": "owner",
      "outputs": [
        {
          "internalType": "address",
          "name": "",
          "type": "address"
        }
      ],
      "stateMutability": "view",
      "type": "function"
    },
    {
      "inputs": [
        {
          "internalType": "uint256",
          "name": "tokenId",
          "type": "uint256"
        }
      ],
      "name": "ownerOf",
      "outputs": [
        {
          "internalType": "address",
          "name": "",
          "type": "address"
        }
      ],
      "stateMutability": "view",
      "type": "function"
    },
    {
      "inputs": [],
      "name": "pause",
      "outputs": [],
      "stateMutability": "nonpayable",
      "type": "function"
    },
    {
      "inputs": [],
      "name": "paused",
      "outputs": [
        {
          "internalType": "bool",
          "name": "",
          "type": "bool"
        }
      ],
      "stateMutability": "view",
      "type": "function"
    },
    {
      "inputs": [],
      "name": "platformFee",
      "outputs": [
        {
          "internalType": "uint256",
          "name": "",
          "type": "uint256"
        }
      ],
      "stateMutability": "view",
      "type": "function"
    },
    {
      "inputs": [],
      "name": "renounceOwnership",
      "outputs": [],
      "stateMutability": "nonpayable",
      "type": "function"
    },
    {
      "inputs": [
        {
          "internalType": "uint256",
          "name": "",
          "type": "uint256"
        }
      ],
      "name": "requestIdToUser",
      "outputs": [
        {
          "internalType": "address",
          "name": "",
          "type": "address"
        }
      ],
      "stateMutability": "view",
      "type": "function"
    },
    {
      "inputs": [
        {
          "internalType": "address",
          "name": "from",
          "type": "address"
        },
        {
          "internalType": "address",
          "name": "to",
          "type": "address"
        },
        {
          "internalType": "uint256",
          "name": "tokenId",
          "type": "uint256"
        }
      ],
      "name": "safeTransferFrom",
      "outputs": [],
      "stateMutability": "nonpayable",
      "type": "function"
    },
    {
      "inputs": [
        {
          "internalType": "address",
          "name": "from",
          "type": "address"
        },
        {
          "internalType": "address",
          "name": "to",
          "type": "address"
        },
        {
          "internalType": "uint256",
          "name": "tokenId",
          "type": "uint256"
        },
        {
          "internalType": "bytes",
          "name": "data",
          "type": "bytes"
        }
      ],
      "name": "safeTransferFrom",
      "outputs": [],
      "stateMutability": "nonpayable",
      "type": "function"
    },
    {
      "inputs": [
        {
          "internalType": "address",
          "name": "operator",
          "type": "address"
        },
        {
          "internalType": "bool",
          "name": "approved",
          "type": "bool"
        }
      ],
      "name": "setApprovalForAll",
      "outputs": [],
      "stateMutability": "nonpayable",
      "type": "function"
    },
    {
      "inputs": [
        {
          "internalType": "address",
          "name": "_address",
          "type": "address"
        }
      ],
      "name": "setAscensionAltarAddress",
      "outputs": [],
      "stateMutability": "nonpayable",
      "type": "function"
    },
    {
      "inputs": [
        {
          "internalType": "string",
          "name": "_newBaseURI",
          "type": "string"
        }
      ],
      "name": "setBaseURI",
      "outputs": [],
      "stateMutability": "nonpayable",
      "type": "function"
    },
    {
      "inputs": [
        {
          "internalType": "string",
          "name": "newContractURI",
          "type": "string"
        }
      ],
      "name": "setContractURI",
      "outputs": [],
      "stateMutability": "nonpayable",
      "type": "function"
    },
    {
      "inputs": [
        {
          "internalType": "address",
          "name": "_address",
          "type": "address"
        }
      ],
      "name": "setDungeonCore",
      "outputs": [],
      "stateMutability": "nonpayable",
      "type": "function"
    },
    {
      "inputs": [
        {
          "internalType": "uint256",
          "name": "_newPrice",
          "type": "uint256"
        }
      ],
      "name": "setMintPriceUSD",
      "outputs": [],
      "stateMutability": "nonpayable",
      "type": "function"
    },
    {
      "inputs": [
        {
          "internalType": "uint256",
          "name": "_newFee",
          "type": "uint256"
        }
      ],
      "name": "setPlatformFee",
      "outputs": [],
      "stateMutability": "nonpayable",
      "type": "function"
    },
    {
      "inputs": [
        {
          "internalType": "address",
          "name": "_address",
          "type": "address"
        }
      ],
      "name": "setSoulShardToken",
      "outputs": [],
      "stateMutability": "nonpayable",
      "type": "function"
    },
    {
      "inputs": [
        {
          "internalType": "address",
          "name": "_vrfManager",
          "type": "address"
        }
      ],
      "name": "setVRFManager",
      "outputs": [],
      "stateMutability": "nonpayable",
      "type": "function"
    },
    {
      "inputs": [],
      "name": "soulShardToken",
      "outputs": [
        {
          "internalType": "contract IERC20",
          "name": "",
          "type": "address"
        }
      ],
      "stateMutability": "view",
      "type": "function"
    },
    {
      "inputs": [
        {
          "internalType": "bytes4",
          "name": "interfaceId",
          "type": "bytes4"
        }
      ],
      "name": "supportsInterface",
      "outputs": [
        {
          "internalType": "bool",
          "name": "",
          "type": "bool"
        }
      ],
      "stateMutability": "view",
      "type": "function"
    },
    {
      "inputs": [],
      "name": "symbol",
      "outputs": [
        {
          "internalType": "string",
          "name": "",
          "type": "string"
        }
      ],
      "stateMutability": "view",
      "type": "function"
    },
    {
      "inputs": [
        {
          "internalType": "uint256",
          "name": "tokenId",
          "type": "uint256"
        }
      ],
      "name": "tokenURI",
      "outputs": [
        {
          "internalType": "string",
          "name": "",
          "type": "string"
        }
      ],
      "stateMutability": "view",
      "type": "function"
    },
    {
      "inputs": [
        {
          "internalType": "address",
          "name": "from",
          "type": "address"
        },
        {
          "internalType": "address",
          "name": "to",
          "type": "address"
        },
        {
          "internalType": "uint256",
          "name": "tokenId",
          "type": "uint256"
        }
      ],
      "name": "transferFrom",
      "outputs": [],
      "stateMutability": "nonpayable",
      "type": "function"
    },
    {
      "inputs": [
        {
          "internalType": "address",
          "name": "newOwner",
          "type": "address"
        }
      ],
      "name": "transferOwnership",
      "outputs": [],
      "stateMutability": "nonpayable",
      "type": "function"
    },
    {
      "inputs": [],
      "name": "unpause",
      "outputs": [],
      "stateMutability": "nonpayable",
      "type": "function"
    },
    {
      "inputs": [
        {
          "internalType": "address",
          "name": "",
          "type": "address"
        }
      ],
      "name": "userRequests",
      "outputs": [
        {
          "internalType": "uint256",
          "name": "quantity",
          "type": "uint256"
        },
        {
          "internalType": "uint256",
          "name": "payment",
          "type": "uint256"
        },
        {
          "internalType": "bool",
          "name": "fulfilled",
          "type": "bool"
        },
        {
          "internalType": "uint8",
          "name": "maxRarity",
          "type": "uint8"
        },
        {
          "internalType": "bool",
          "name": "fromVault",
          "type": "bool"
        }
      ],
      "stateMutability": "view",
      "type": "function"
    },
    {
      "inputs": [],
      "name": "vrfManager",
      "outputs": [
        {
          "internalType": "address",
          "name": "",
          "type": "address"
        }
      ],
      "stateMutability": "view",
      "type": "function"
    },
    {
      "inputs": [],
      "name": "withdrawNativeFunding",
      "outputs": [],
      "stateMutability": "nonpayable",
      "type": "function"
    },
    {
      "inputs": [],
      "name": "withdrawSoulShard",
      "outputs": [],
      "stateMutability": "nonpayable",
      "type": "function"
    },
    {
      "stateMutability": "payable",
      "type": "receive"
    }
  ],
  "bytecode": "0x608034620003e457601f906001600160401b03601f1962003ad7388190038581018316850184811186821017620003ce57859282916040528339602094859181010312620003e457516001600160a01b03948582169391849003620003e45762000068620003e9565b94601486527f44756e67656f6e2044656c76657273204865726f000000000000000000000000818701526200009c620003e9565b90600382526208888960eb1b81830152865194848611620003ce576000958654986001998a81811c91168015620003c3575b85821014620003af579081878493116200035c575b508490878311600114620002fb578992620002ef575b5050600019600383901b1c191690891b1786555b8251948511620002db5787548881811c91168015620002d0575b83821014620002bc5790818587969594931162000263575b5081938511600114620001fe5750508492620001f2575b5050600019600383901b1c191690841b1783555b8115620001da57600680546001600160a01b0319811684179091556040519416907f8be0079c531659141344cd1fd0a4f28419497f9722a3daafe3b4186f6b6457e09080a380600755671bc16d674ec80000601255660110d9316ec0006013556011556136cd90816200040a8239f35b60249060405190631e4fbdf760e01b82526004820152fd5b01519050388062000156565b889593929193168587528387209387905b8282106200024957505084116200022f575b505050811b0183556200016a565b015160001960f88460031b161c1916905538808062000221565b8484015186558a979095019493840193908101906200020f565b9091929394508887528287208580880160051c820192858910620002b2575b9188978c9297969594930160051c01915b828110620002a35750506200013f565b8981558897508b910162000293565b9250819262000282565b634e487b7160e01b87526022600452602487fd5b90607f169062000127565b634e487b7160e01b86526041600452602486fd5b015190503880620000f9565b90848c9416918a8052868b20928b5b888282106200034557505084116200032b575b505050811b0186556200010d565b015160001960f88460031b161c191690553880806200031d565b8385015186558f979095019493840193016200030a565b9091508880528489208780850160051c820192878610620003a5575b918d91869594930160051c01915b82811062000396575050620000e3565b8b81558594508d910162000386565b9250819262000378565b634e487b7160e01b89526022600452602489fd5b90607f1690620000ce565b634e487b7160e01b600052604160045260246000fd5b600080fd5b60408051919082016001600160401b03811183821017620003ce5760405256fe60406080815260049081361015610020575b5050361561001e57600080fd5b005b600091823560e01c80622144f6146123a957806268f22e1461234557806301ffc9a71461228c57806306fdde03146121e4578063081812fc146121ab578063095ea7b3146120b857806312e8e2c3146120965780631cbb4131146120445780631dafec0014611f1c57806323b872dd14611f0457806326232a2e14611ee55780632a32e8d414611e595780633f4ba83a14611dd757806342842e0e14611da85780634350772c14611d805780634403940214611d5857806355f804b314611bb25780635c975abb14611b8e5780636352211e14611b5e57806367cfab5814611b365780636a6cdc6c14611ac25780636ab1b29b14611a565780636aef5069146118fd5780636c0360eb1461185357806370a08231146117e5578063715018a61461178a57806373b31190146117435780637a33eabc146116df5780638456cb59146116845780638da5cb5b1461165c578063938e3d7b1461149257806395d89b41146113c15780639b41886c146113a2578063a22cb465146112e3578063b1d78c9a146112bc578063b88d4fde14611249578063c1b39a3e14611221578063c47d43571461119e578063c87b56dd14610ed7578063c886015d14610ade578063d0fdcc091461061a578063d6042eb814610528578063db4b8268146104bd578063dc7d73bb1461048d578063e8601c6614610422578063e8a3d48514610335578063e985e9c5146102e05763f2fde38b1461023b5750610011565b346102dc5760203660031901126102dc576102546124b2565b9061025d6126ff565b6001600160a01b038092169283156102ad575050600654826001600160a01b0319821617600655167f8be0079c531659141344cd1fd0a4f28419497f9722a3daafe3b4186f6b6457e0600080a380f35b908460249251917f1e4fbdf7000000000000000000000000000000000000000000000000000000008352820152fd5b8280fd5b5050346103315780600319360112610331576020916102fd6124b2565b826103066124c8565b926001600160a01b03809316815260058652209116600052825260ff81600020541690519015158152f35b5080fd5b82843461041f578060031936011261041f57508051600091600a5461035981612691565b808452906001908181169081156103f7575060011461039a575b5050610384826103969403836125c5565b51918291602083526020830190612501565b0390f35b600a600090815294507fc65a7bb8d6351c1cf70c95a316cc6a92839c986682d98bc35f958f4883f9d2a85b8286106103df575050509181016020019161038482610373565b805460208787018101919091529095019481016103c5565b610396965085925060209150926103849360ff191682840152151560051b8201019450610373565b80fd5b5050346103315760203660031901126103315760ff8160a0936001600160a01b0361044b6124b2565b168152601460205220805492600260018301549201549181519485526020850152828216151590840152818160081c16606084015260101c1615156080820152f35b50346102dc5760203660031901126102dc57816020936001600160a01b0392358152601085522054169051908152f35b833461041f57602036600319011261041f576104d76124b2565b6104df6126ff565b6001600160a01b0380911690816001600160a01b0319600d541617600d55600c54167f14662a0fccd762a05d5e1fa6afdd204554c4cf90fe58b5c5947f664fb71925f58380a380f35b505034610331576020918260031936011261041f5781610396916001600160a01b036105526124b2565b606060a085516105618161258d565b858152858a820152858782015285838201528560808201520152168152601485522082519261058f8461258d565b8154845260ff60018301549286860193845260028101549280870190838516151582526105d8600360608a0194868860081c1686528660808c019860101c1615158852016134c7565b9560a089019687528151998a99818b5251908a0152519088015251151560608701525116608085015251151560a08401525160c08084015260e08301906126cb565b509060209081600319360112610ada57823591610635612f8a565b61063d612f54565b82151580610acf575b61064f90612aa2565b3385526014815261066d828620805415908115610ac0575b50612b13565b61067683613587565b9361068384601354612b84565b3410610a5957856001600160a01b0395828488600c54168751928380927f29bdca370000000000000000000000000000000000000000000000000000000082525afa908115610a4f579088918491610a22575b501690813b156102dc5785517fd064ff190000000000000000000000000000000000000000000000000000000081523385820190815260208101929092529291839182908490829060400103925af18015610959576109f4575b50858261073c86612bad565b96825b878110610963575085513360601b6bffffffffffffffffffffffff1916838201908152601481018990526107d8929161078581603484015b03601f1981018352826125c5565b51902090600f541690610799821515612c18565b875194858094819363435639fb60e11b8352338a8401606090939291936001600160a01b03608082019516815260016020820152600560408201520152565b03925af1908115610959578791610927575b50865260108252828620336001600160a01b03198254161790558251946108108661258d565b8486526003838701963488528581018981526060820160058152608083019060019a8b835260a08501968752338d5260148952898d2094518555518b85015561086c6002850193511515849060ff801983541691151516179055565b519061ff0062ff000084549251151560101b169260081b169062ffff0019161717905501905180519267ffffffffffffffff84116109145750918387936108b68385989795612c7a565b019488528188209488955b8287106108ff575050507f61e364e3eabc785119e074fc551f39d64063d113dd457cccf0f14a6fcb3ede4f935082519485528401523392a260075580f35b815187820155959093019487938301906108c1565b886041602492634e487b7160e01b835252fd5b90508281813d8311610952575b61093e81836125c5565b8101031261094d5751386107ea565b600080fd5b503d610934565b84513d89823e3d90fd5b9092506109eb91506109e6601180549061097c82612bdf565b905580610989848c612bee565b526109948133612d35565b60028851916109a28361255b565b8c83528c60ff8b8b860192808452818701948186528152600b8d522094511660ff1985541617845551600184015551151591019060ff801983541691151516179055565b612bdf565b8791849161073f565b67ffffffffffffffff8197929711610a0f5783529438610730565b602482604189634e487b7160e01b835252fd5b610a429150863d8811610a48575b610a3a81836125c5565b810190612fc5565b386106d6565b503d610a30565b86513d85823e3d90fd5b90608492519162461bcd60e51b8352820152602760248201527f4865726f3a20496e73756666696369656e742076616c756520666f722076617560448201527f6c74206d696e74000000000000000000000000000000000000000000000000006064820152fd5b60ff9150600201541638610667565b506032831115610646565b8380fd5b509060209081600319360112610ada57823591610af9612f8a565b610b01612f54565b82151580610ecc575b610b1390612aa2565b33855260148152610b30828620805415908115610ac05750612b13565b610b3983613587565b610b4584601354612b84565b3410610e64576001600160a01b0380600d5416918451907f23b872dd000000000000000000000000000000000000000000000000000000008583015233602483015230604483015260648201526064815260a081019267ffffffffffffffff9382811085821117610e51578652610bbc9190612cb5565b610bc585612bad565b9083885b878110610dca575085513360601b6bffffffffffffffffffffffff191682820190815260148101899052610c599391610c058160348401610777565b51902090600f5416610c18811515612c18565b898b895180968195829463435639fb60e11b845233908401606090939291936001600160a01b03608082019516815260016020820152600560408201520152565b03925af1908115610dc0578891610d8f575b50875260108352838720336001600160a01b0319825416179055835195610c918761258d565b8587526003848801973489528681018a8152606082019960058b5260808301908c825260a08401968752338d5260148952898d2093518455519a60019b8c850155610cef6002850193511515849060ff801983541691151516179055565b519061ff0062ff000084549251151560101b169260081b169062ffff001916171790550191519081519384116109145750908383959492610d318a9584612c7a565b0190835281832087845b878110610d7a57505050507f61e364e3eabc785119e074fc551f39d64063d113dd457cccf0f14a6fcb3ede4f935082519485528401523392a260075580f35b8351838201558a955092840192899101610d3b565b90508381813d8311610db9575b610da681836125c5565b81010312610db5575138610c6b565b8780fd5b503d610d9c565b85513d8a823e3d90fd5b610e4a91506109e68a60026011805490610de382612bdf565b905580610df0868a612bee565b52610dfb8133612d35565b8960ff8c805195610e0b8761255b565b808752600b84880194828652838901968388528352522094511660ff1985541617845551600184015551151591019060ff801983541691151516179055565b8490610bc9565b60248a60418b634e487b7160e01b835252fd5b6084858385519162461bcd60e51b8352820152602360248201527f4865726f3a20496e73756666696369656e74207061796d656e742070726f766960448201527f64656400000000000000000000000000000000000000000000000000000000006064820152fd5b506032831115610b0a565b50919034610331576020918260031936011261041f57833590610ef98261291b565b5060095494610f0786612691565b1561115c57829082907a184f03e93ff9f4daa797ed6e38ed64bf6a1f010000000000000000838181101561114f575b5050866d04ee2d6d415b85acef810000000080851015611140575b5050662386f26fc1000080841015611131575b506305f5e10080841015611122575b5061271080841015611116575b50506064821015611108575b600a80921015611100575b60019182820190610fbf610faa836125ff565b92610fb7895194856125c5565b8084526125ff565b958460218a850195601f19809a01368837850101905b6110c4575b50505085519784899594610fed83612691565b928a828216918260001461109d57505060011461103d575b505050918061102161102e9593610396989795519384916124de565b01039081018652856125c5565b51928284938452830190612501565b8993949550600982527f6e1540171b6c0c960b71a7020d9f60077f6af931a8bbf590da0223dacf75c7af5b83831061108357505050840101919080611021610396611005565b80549783018501979097528a968a94909201918101611068565b60ff1916898201528415159094028801909301955083925061102191506103969050611005565b600019019082907f30313233343536373839616263646566000000000000000000000000000000008282061a835304908582610fd55750610fda565b600101610f97565b906064600291049101610f8c565b90920491013880610f80565b60089192930492019038610f73565b60109192930492019038610f64565b90919293049201908638610f51565b0492508591503880610f36565b6064908585519162461bcd60e51b8352820152601d60248201527f4865726f3a204261736520555249206e6f7420636f6e666967757265640000006044820152fd5b5090346102dc57826003193601126102dc576111b86126ff565b828080806001600160a01b036006541647905af16111d4612956565b50156111de578280f35b906020606492519162461bcd60e51b8352820152601960248201527f4865726f3a20455448207472616e73666572206661696c6564000000000000006044820152fd5b5050346103315781600319360112610331576020906001600160a01b03600f54169051908152f35b838234610331576080366003190112610331576112646124b2565b61126c6124c8565b6044359060643567ffffffffffffffff81116112b857366023820112156112b8576112b5948160246112a39336930135910161261b565b926112af838383612743565b33612986565b80f35b8580fd5b50913461041f57602036600319011261041f57506112dc60209235613587565b9051908152f35b5090346102dc57806003193601126102dc576112fd6124b2565b90602435801515928382036112b8576001600160a01b031693841561137357506113469033865260056020528286208587526020528286209060ff801983541691151516179055565b519081527f17307eab39ab6107e8899845ad3d59bd9653f200f220920489ca2b5937696c3160203392a380f35b602490858451917f5b08ba18000000000000000000000000000000000000000000000000000000008352820152fd5b5050346103315781600319360112610331576020906012549051908152f35b5050346103315781600319360112610331578051908260018054916113e583612691565b8086529282811690811561146a575060011461140e575b505050610384826103969403836125c5565b94508085527fb10e2d527612073b26eecdfd717e6a320cf44b4afac2b0732d9fcbe2b7fa0cf65b8286106114525750505061038482602061039695820101946113fc565b80546020878701810191909152909501948101611435565b61039697508693506020925061038494915060ff191682840152151560051b820101946113fc565b50919034610331576114a336612652565b906114ac6126ff565b81519367ffffffffffffffff851161164957506114ca600a54612691565b601f81116115f0575b50602093601f811160011461154a579081611539939285967f905d981207a7d0b6c62cc46ab0be2a076d0298e4a86d0ab79882dbd01ac37378969161153f575b508160011b916000199060031b1c191617600a5551918291602083526020830190612501565b0390a180f35b905083015138611513565b600a84527fc65a7bb8d6351c1cf70c95a316cc6a92839c986682d98bc35f958f4883f9d2a8601f198216855b8181106115d85750916001917f905d981207a7d0b6c62cc46ab0be2a076d0298e4a86d0ab79882dbd01ac37378969782611539979695106115bf575b5050811b01600a55610384565b85015160001960f88460031b161c1916905538806115b2565b85880151835560209788019760019093019201611576565b61163990600a85527fc65a7bb8d6351c1cf70c95a316cc6a92839c986682d98bc35f958f4883f9d2a8601f870160051c8101916020881061163f575b601f0160051c0190612c63565b386114d3565b909150819061162c565b836041602492634e487b7160e01b835252fd5b5050346103315781600319360112610331576020906001600160a01b03600654169051908152f35b50503461033157816003193601126103315760207f62e78cea01bee320cd4e420270b5ea74000d11b0c9f74754ebdbfc544b05a258916116c26126ff565b6116ca612f54565b600160ff19600854161760085551338152a180f35b833461041f57602036600319011261041f576001600160a01b036117016124b2565b6117096126ff565b16806001600160a01b0319600f541617600f557feda44c694e75c8161562f6179238b37a8daa291b6b2229613ed903ed92ab2d3d8280a280f35b50346102dc5760203660031901126102dc576060928291358152600b602052209060ff8254169160ff60026001830154920154169082519384526020840152151590820152f35b833461041f578060031936011261041f576117a36126ff565b806001600160a01b036006546001600160a01b03198116600655167f8be0079c531659141344cd1fd0a4f28419497f9722a3daafe3b4186f6b6457e08280a380f35b50913461041f57602036600319011261041f576001600160a01b036118086124b2565b169283156118255750806020938392526003845220549051908152f35b9060249251917f89c62b64000000000000000000000000000000000000000000000000000000008352820152fd5b5050346103315781600319360112610331578051908260095461187581612691565b8085529160019180831690811561146a57506001146118a057505050610384826103969403836125c5565b9450600985527f6e1540171b6c0c960b71a7020d9f60077f6af931a8bbf590da0223dacf75c7af5b8286106118e55750505061038482602061039695820101946113fc565b805460208787018101919091529095019481016118c8565b5090346102dc5760209081600319360112610ada5782359182856001600160a01b0361192e81600e54163314613516565b6119378361291b565b838352600b8552837f4ea24cce0fda81cee15bace7541c9ae5cc434fe4b80d5065b70dbae17db1a05183888620936119ad898b516119748161255b565b875460ff90811680835260018a0154938301849052600290990154161515908d01528b5196875260208701529116939081906040820190565b0390a382825260028452848220541660028115948515611a1e575b848452528482206001600160a01b031981541690557fddf252ad1be2c89b69c2b068fc378daa952ba7f163c4a11628f55a4df523b3ef8280a4611a09578380f35b602493505191637e27328960e01b8352820152fd5b611a3f85600052600460205260406000206001600160a01b03198154169055565b8284526003815286842080546000190190556119c8565b833461041f57602036600319011261041f57611a706124b2565b611a786126ff565b6001600160a01b0380911690816001600160a01b0319600c541617600c55600d5416907f14662a0fccd762a05d5e1fa6afdd204554c4cf90fe58b5c5947f664fb71925f58380a380f35b50346102dc5760203660031901126102dc5791819235611ae18161291b565b508152600b6020522090610396815191611afa8361255b565b60ff845416928381528160ff6002600188015497886020860152015416151591015251928392836020909392919360ff60408201951681520152565b5050346103315781600319360112610331576020906001600160a01b03600c54169051908152f35b50913461041f57602036600319011261041f57506001600160a01b03611b866020933561291b565b915191168152f35b50503461033157816003193601126103315760209060ff6008541690519015158152f35b5091903461033157611bc336612652565b90611bcc6126ff565b81519367ffffffffffffffff85116116495750611bea600954612691565b601f8111611d0a575b50602093601f8111600114611c64579081611539939285967ff9c7803e94e0d3c02900d8a90893a6d5e90dd04d32a4cfe825520f82bf9f32f69691611c59575b508160011b916000199060031b1c19161760095551918291602083526020830190612501565b905083015138611c33565b600984527f6e1540171b6c0c960b71a7020d9f60077f6af931a8bbf590da0223dacf75c7af601f198216855b818110611cf25750916001917ff9c7803e94e0d3c02900d8a90893a6d5e90dd04d32a4cfe825520f82bf9f32f696978261153997969510611cd9575b5050811b01600955610384565b85015160001960f88460031b161c191690553880611ccc565b85880151835560209788019760019093019201611c90565b611d5290600985527f6e1540171b6c0c960b71a7020d9f60077f6af931a8bbf590da0223dacf75c7af601f870160051c8101916020881061163f57601f0160051c0190612c63565b38611bf3565b5050346103315781600319360112610331576020906001600160a01b03600d54169051908152f35b5050346103315781600319360112610331576020906001600160a01b03600e54169051908152f35b505034610331576112b590611dbc36612526565b91925192611dc9846125a9565b8584526112af838383612743565b50346102dc57826003193601126102dc57611df06126ff565b6008549060ff821615611e32575060ff1916600855513381527f5db9ee0a495bf2e6ff9c91a7834c1ba4fdd244a5e8aa4e537bd38aeae4b073aa90602090a180f35b82517f8dfc202b000000000000000000000000000000000000000000000000000000008152fd5b509190346103315780600319360112610331576024359267ffffffffffffffff84116102dc57366023850112156102dc578381013593611ea4611e9b866125e7565b935193846125c5565b84835260209460248685019160051b830101913683116112b857602401905b828210611ed657856112b5868635612fe4565b81358152908601908601611ec3565b5050346103315781600319360112610331576020906013549051908152f35b833461041f576112b5611f1636612526565b91612743565b50346102dc57826003193601126102dc57611f356126ff565b6001600160a01b0380600d5416908351927f70a082310000000000000000000000000000000000000000000000000000000084523090840152602083602481855afa92831561203a578593612003575b5082611f8f578480f35b611ffb93611fe8611ff6926006541691519485927fa9059cbb00000000000000000000000000000000000000000000000000000000602085015260248401602090939291936001600160a01b0360408201951681520152565b03601f1981018452836125c5565b612cb5565b388080808480f35b9092506020813d8211612032575b8161201e602093836125c5565b8101031261202e57519138611f85565b8480fd5b3d9150612011565b84513d87823e3d90fd5b838234610331576020366003190112610331578035906120626126ff565b670de0b6b3a764000091828102928184041490151715612083575060125580f35b826011602492634e487b7160e01b835252fd5b838234610331576020366003190112610331576120b16126ff565b3560135580f35b5090346102dc57806003193601126102dc576120d26124b2565b916024356120df8161291b565b33151580612198575b80612170575b6121415781906001600160a01b03809616958691167f8c5be1e5ebec7d5bd14f71427d1e84f3dd0314c0f7b2291e5b200ac8c7c3b9258880a484526020528220906001600160a01b031982541617905580f35b83517fa9fbf51f0000000000000000000000000000000000000000000000000000000081523381850152602490fd5b506001600160a01b0381168652600560205283862033875260205260ff8487205416156120ee565b50336001600160a01b03821614156120e8565b50346102dc5760203660031901126102dc5781602093826001600160a01b0393356121d58161291b565b50825285522054169051908152f35b50503461033157816003193601126103315780519082805461220581612691565b8085529160019180831690811561146a575060011461223057505050610384826103969403836125c5565b80809650527f290decd9548b62a8d60345a988386fc84ba6bc95484008f6362f93160ef3e5635b8286106122745750505061038482602061039695820101946113fc565b80546020878701810191909152909501948101612257565b50346102dc5760203660031901126102dc5735906001600160e01b031982168092036102dc57602092507f80ac58cd00000000000000000000000000000000000000000000000000000000821491821561231b575b82156122f1575b50519015158152f35b7f01ffc9a700000000000000000000000000000000000000000000000000000000149150386122e8565b7f5b5e139f00000000000000000000000000000000000000000000000000000000811492506122e1565b833461041f57602036600319011261041f576001600160a01b036123676124b2565b61236f6126ff565b16806001600160a01b0319600e541617600e557f088c5ec3908e3424c43d8102e8e1cc8eb8820a25e326b9c31cc58963046b92e98280a280f35b505034610331576060366003190112610331576123c46124b2565b6024359060ff82169081830361202e57937f57c4a553ea4024e9d030303a99f6e58dad3e8267764f90605b4a2c968e3b237e60029493926020966124a96044356124766001600160a01b039461241f86600e54163314613516565b6011549a8b988b51926124318461255b565b83528d830185815260ff8d80860193600185528d81526020600b90522094511660ff1985541617845551600184015551151591019060ff801983541691151516179055565b6124808684612d35565b61248b601154612bdf565b601155875160ff909716875260208701529116939081906040820190565b0390a351908152f35b600435906001600160a01b038216820361094d57565b602435906001600160a01b038216820361094d57565b60005b8381106124f15750506000910152565b81810151838201526020016124e1565b9060209161251a815180928185528580860191016124de565b601f01601f1916010190565b606090600319011261094d576001600160a01b0390600435828116810361094d5791602435908116810361094d579060443590565b6060810190811067ffffffffffffffff82111761257757604052565b634e487b7160e01b600052604160045260246000fd5b60c0810190811067ffffffffffffffff82111761257757604052565b6020810190811067ffffffffffffffff82111761257757604052565b90601f8019910116810190811067ffffffffffffffff82111761257757604052565b67ffffffffffffffff81116125775760051b60200190565b67ffffffffffffffff811161257757601f01601f191660200190565b929192612627826125ff565b9161263560405193846125c5565b82948184528183011161094d578281602093846000960137010152565b602060031982011261094d576004359067ffffffffffffffff821161094d578060238301121561094d5781602461268e9360040135910161261b565b90565b90600182811c921680156126c1575b60208310146126ab57565b634e487b7160e01b600052602260045260246000fd5b91607f16916126a0565b90815180825260208080930193019160005b8281106126eb575050505090565b8351855293810193928101926001016126dd565b6001600160a01b0360065416330361271357565b60246040517f118cdaa7000000000000000000000000000000000000000000000000000000008152336004820152fd5b90916001600160a01b0380931692831561290357600092828452826020956002875260409684888820541696879133151580612851575b509060027fddf252ad1be2c89b69c2b068fc378daa952ba7f163c4a11628f55a4df523b3ef9284612819575b858352600381528b83206001815401905586835252898120846001600160a01b031982541617905580a416928383036127df5750505050565b6064945051927f64283d7b000000000000000000000000000000000000000000000000000000008452600484015260248301526044820152fd5b61283a87600052600460205260406000206001600160a01b03198154169055565b848352600381528b832080546000190190556127a6565b919394509150806128c2575b1561286d5785929187913861277a565b87868861288a576024915190637e27328960e01b82526004820152fd5b90517f177e802f0000000000000000000000000000000000000000000000000000000081523360048201526024810191909152604490fd5b5033871480156128e7575b8061285d575085825260048152338589842054161461285d565b5086825260058152878220338352815260ff88832054166128cd565b6024604051633250574960e11b815260006004820152fd5b8060005260026020526001600160a01b036040600020541690811561293e575090565b60249060405190637e27328960e01b82526004820152fd5b3d15612981573d90612967826125ff565b9161297560405193846125c5565b82523d6000602084013e565b606090565b9293823b612996575b5050505050565b6129db906001600160a01b038094169560405194859481630a85bd0160e11b988988521660048701521660248501526044840152608060648401526084830190612501565b03906020816000938185885af190829082612a5a575b5050612a285782612a00612956565b8051919082612a215760248260405190633250574960e11b82526004820152fd5b6020915001fd5b6001600160e01b03191603612a425750388080808061298f565b60249060405190633250574960e11b82526004820152fd5b909192506020813d8211612a9a575b81612a76602093836125c5565b810103126103315751906001600160e01b03198216820361041f57509038806129f1565b3d9150612a69565b15612aa957565b608460405162461bcd60e51b815260206004820152603160248201527f4865726f3a20496e76616c6964207175616e74697479202d206d75737420626560448201527f206265747765656e203120616e642035300000000000000000000000000000006064820152fd5b15612b1a57565b608460405162461bcd60e51b815260206004820152602960248201527f4865726f3a2050726576696f7573206d696e742072657175657374207374696c60448201527f6c2070656e64696e6700000000000000000000000000000000000000000000006064820152fd5b81810292918115918404141715612b9757565b634e487b7160e01b600052601160045260246000fd5b90612bb7826125e7565b612bc460405191826125c5565b8281528092612bd5601f19916125e7565b0190602036910137565b6000198114612b975760010190565b8051821015612c025760209160051b010190565b634e487b7160e01b600052603260045260246000fd5b15612c1f57565b606460405162461bcd60e51b815260206004820152601260248201527f565246206e6f7420636f6e6669677572656400000000000000000000000000006044820152fd5b818110612c6e575050565b60008155600101612c63565b9068010000000000000000811161257757815490808355818110612c9d57505050565b612cb39260005260206000209182019101612c63565b565b906000602091828151910182855af115612d29576000513d612d2057506001600160a01b0381163b155b612ce65750565b6024906001600160a01b03604051917f5274afe7000000000000000000000000000000000000000000000000000000008352166004820152fd5b60011415612cdf565b6040513d6000823e3d90fd5b6040805192612d43846125a9565b60008085526001600160a01b0394858516948515612f3d5783835260209660028852858420541684878215159283612f05575b81875260038b528887206001815401905582875260028b52888720826001600160a01b03198254161790557fddf252ad1be2c89b69c2b068fc378daa952ba7f163c4a11628f55a4df523b3ef8780a4612ed5573b612dd7575b505050505050565b85612e149185969798955180938192630a85bd0160e11b978884523360048501528760248501526044840152608060648401526084830190612501565b0381858a5af190829082612e91575b5050612e5a57505050612e34612956565b8051939084612e5457602484845190633250574960e11b82526004820152fd5b84925001fd5b6001600160e01b0319919295501603612e7a575050388080808080612dcf565b602492505190633250574960e11b82526004820152fd5b909192508781813d8311612ece575b612eaa81836125c5565b810103126103315751906001600160e01b03198216820361041f5750903880612e23565b503d612ea0565b6024838651907f73c6ac6e0000000000000000000000000000000000000000000000000000000082526004820152fd5b612f2683600052600460205260406000206001600160a01b03198154169055565b80875260038b528887208054600019019055612d76565b602483865190633250574960e11b82526004820152fd5b60ff60085416612f6057565b60046040517fd93c0665000000000000000000000000000000000000000000000000000000008152fd5b600260075414612f9b576002600755565b60046040517f3ee5aeb5000000000000000000000000000000000000000000000000000000008152fd5b9081602091031261094d57516001600160a01b038116810361094d5790565b6001600160a01b03600f541633036134c3578151156134c3578060005260106020526001600160a01b03604060002054169081156134be5781600052601460205260406000209260ff6002850154166134b857805115612c0257602001519361304f600385016134c7565b916001946000955b81548710156133db5761306a8786612bee565b516040517f6352211e000000000000000000000000000000000000000000000000000000008152816004820152602081602481305afa600091816133ba575b506130c2575050506130bc600096612bdf565b95613057565b6001600160a01b0388919992939916036133ac5760405189602082015282604082015260608281830152815280608081011067ffffffffffffffff608083011117612577576080810160405280516020820120926064808506602c81101561337057506001925b60ff84166001036131ec57505060248406600f01600f11612b97577f57c4a553ea4024e9d030303a99f6e58dad3e8267764f90605b4a2c968e3b237e899260246130bc9606600f01905b6131d26040516131828161255b565b60ff8316815260026020820185815260408301906001825288600052600b60205260ff604060002094511660ff1985541617845551600184015551151591019060ff801983541691151516179055565b6040805160ff9290921682526020820192909252a3612bdf565b600260ff859795161460001461323f5750506032916033810683018311612b97576130bc948a9360337f57c4a553ea4024e9d030303a99f6e58dad3e8267764f90605b4a2c968e3b237e93060190613173565b90929060ff861660030361328c57506033810683018311612b97576130bc948a9360337f57c4a553ea4024e9d030303a99f6e58dad3e8267764f90605b4a2c968e3b237e93060190613173565b90929060ff86166004036132dd5750506096916033810683018311612b97576130bc948a9360337f57c4a553ea4024e9d030303a99f6e58dad3e8267764f90605b4a2c968e3b237e93060190613173565b60ff861660050361332b57505060c8916038810683018311612b97576130bc948a9360387f57c4a553ea4024e9d030303a99f6e58dad3e8267764f90605b4a2c968e3b237e93060190613173565b8062461bcd60e51b60808093015260206084820152601a60a48201527f4865726f3a20496e76616c6964207261726974792076616c756500000000000060c482015201fd5b604f8110156133825750600292613129565b605e8110156133945750600392613129565b606311156133a457600492613129565b600592613129565b9650506130bc600096612bdf565b6133d491925060203d602011610a4857610a3a81836125c5565b90386130a9565b919495509195508492600160ff196002850154161791826002850155613461575b50505050600052601060205260406000206001600160a01b03198154169055600052601460205260036040600020600081556000600182015560006002820155018054600082558061344c575050565b612cb391600052602060002090810190612c63565b6134ac7f0908417bb2d0393a45bf6efe35cecf8dbedbab1767b8d95f650094c6ccd1d0ac93549160ff604051948594855260081c1660208401526060604084015260608301906126cb565b0390a2813880806133fc565b50505050565b505050565b5050565b9060405191828154918282526020928383019160005283600020936000905b8282106134fc57505050612cb3925003836125c5565b8554845260019586019588955093810193909101906134e6565b1561351d57565b608460405162461bcd60e51b815260206004820152603760248201527f4865726f3a204e6f7420617574686f72697a6564202d206f6e6c7920416c746160448201527f72206f6620417363656e73696f6e2063616e2063616c6c0000000000000000006064820152fd5b906001600160a01b03600c541691821561362d5780156136265760206012546024604051809681937f7b2e0fcf00000000000000000000000000000000000000000000000000000000835260048301525afa928315612d29576000936135f3575b5061268e9192612b84565b6020813d821161361e575b8161360b602093836125c5565b81010312610ada5751925061268e6135e8565b3d91506135fe565b5060009150565b608460405162461bcd60e51b815260206004820152602260248201527f4865726f3a2044756e67656f6e436f726520636f6e7472616374206e6f74207360448201527f65740000000000000000000000000000000000000000000000000000000000006064820152fdfea2646970667358221220a033ef60ab692772ecd6882973ba9ac15ef4c9b3418d28b490af52933f4b3e4564736f6c63430008140033",
  "linkReferences": {},
  "deployedLinkReferences": {}
}