{
  "_format": "hh-sol-artifact-1",
  "contractName": "Oracle",
  "sourceName": "contracts/current/defi/Oracle.sol",
  "abi": [
    {
      "inputs": [
        {
          "internalType": "address",
          "name": "_poolAddress",
          "type": "address"
        },
        {
          "internalType": "address",
          "name": "_soulShardTokenAddress",
          "type": "address"
        },
        {
          "internalType": "address",
          "name": "_usdTokenAddress",
          "type": "address"
        }
      ],
      "stateMutability": "nonpayable",
      "type": "constructor"
    },
    {
      "inputs": [],
      "name": "EnforcedPause",
      "type": "error"
    },
    {
      "inputs": [],
      "name": "ExpectedPause",
      "type": "error"
    },
    {
      "inputs": [
        {
          "internalType": "address",
          "name": "owner",
          "type": "address"
        }
      ],
      "name": "OwnableInvalidOwner",
      "type": "error"
    },
    {
      "inputs": [
        {
          "internalType": "address",
          "name": "account",
          "type": "address"
        }
      ],
      "name": "OwnableUnauthorizedAccount",
      "type": "error"
    },
    {
      "anonymous": false,
      "inputs": [
        {
          "indexed": false,
          "internalType": "uint32[]",
          "name": "periods",
          "type": "uint32[]"
        }
      ],
      "name": "AdaptivePeriodsUpdated",
      "type": "event"
    },
    {
      "anonymous": false,
      "inputs": [
        {
          "indexed": true,
          "internalType": "address",
          "name": "previousOwner",
          "type": "address"
        },
        {
          "indexed": true,
          "internalType": "address",
          "name": "newOwner",
          "type": "address"
        }
      ],
      "name": "OwnershipTransferred",
      "type": "event"
    },
    {
      "anonymous": false,
      "inputs": [
        {
          "indexed": false,
          "internalType": "address",
          "name": "account",
          "type": "address"
        }
      ],
      "name": "Paused",
      "type": "event"
    },
    {
      "anonymous": false,
      "inputs": [
        {
          "indexed": false,
          "internalType": "uint32",
          "name": "usedPeriod",
          "type": "uint32"
        },
        {
          "indexed": false,
          "internalType": "uint256",
          "name": "price",
          "type": "uint256"
        }
      ],
      "name": "PriceQueried",
      "type": "event"
    },
    {
      "anonymous": false,
      "inputs": [
        {
          "indexed": false,
          "internalType": "uint32",
          "name": "newTwapPeriod",
          "type": "uint32"
        }
      ],
      "name": "TwapPeriodUpdated",
      "type": "event"
    },
    {
      "anonymous": false,
      "inputs": [
        {
          "indexed": false,
          "internalType": "address",
          "name": "account",
          "type": "address"
        }
      ],
      "name": "Unpaused",
      "type": "event"
    },
    {
      "inputs": [
        {
          "internalType": "uint256",
          "name": "",
          "type": "uint256"
        }
      ],
      "name": "adaptivePeriods",
      "outputs": [
        {
          "internalType": "uint32",
          "name": "",
          "type": "uint32"
        }
      ],
      "stateMutability": "view",
      "type": "function"
    },
    {
      "inputs": [],
      "name": "getAdaptivePeriods",
      "outputs": [
        {
          "internalType": "uint32[]",
          "name": "",
          "type": "uint32[]"
        }
      ],
      "stateMutability": "view",
      "type": "function"
    },
    {
      "inputs": [
        {
          "internalType": "address",
          "name": "tokenIn",
          "type": "address"
        },
        {
          "internalType": "uint256",
          "name": "amountIn",
          "type": "uint256"
        }
      ],
      "name": "getAmountOut",
      "outputs": [
        {
          "internalType": "uint256",
          "name": "amountOut",
          "type": "uint256"
        }
      ],
      "stateMutability": "view",
      "type": "function"
    },
    {
      "inputs": [],
      "name": "getLatestPrice",
      "outputs": [
        {
          "internalType": "uint256",
          "name": "",
          "type": "uint256"
        }
      ],
      "stateMutability": "view",
      "type": "function"
    },
    {
      "inputs": [],
      "name": "getPriceAdaptive",
      "outputs": [
        {
          "internalType": "uint256",
          "name": "price",
          "type": "uint256"
        },
        {
          "internalType": "uint32",
          "name": "usedPeriod",
          "type": "uint32"
        }
      ],
      "stateMutability": "view",
      "type": "function"
    },
    {
      "inputs": [
        {
          "internalType": "uint256",
          "name": "usdAmount",
          "type": "uint256"
        }
      ],
      "name": "getRequiredSoulShardAmount",
      "outputs": [
        {
          "internalType": "uint256",
          "name": "soulAmount",
          "type": "uint256"
        }
      ],
      "stateMutability": "view",
      "type": "function"
    },
    {
      "inputs": [],
      "name": "getSoulShardPriceInUSD",
      "outputs": [
        {
          "internalType": "uint256",
          "name": "price",
          "type": "uint256"
        }
      ],
      "stateMutability": "view",
      "type": "function"
    },
    {
      "inputs": [],
      "name": "owner",
      "outputs": [
        {
          "internalType": "address",
          "name": "",
          "type": "address"
        }
      ],
      "stateMutability": "view",
      "type": "function"
    },
    {
      "inputs": [],
      "name": "pause",
      "outputs": [],
      "stateMutability": "nonpayable",
      "type": "function"
    },
    {
      "inputs": [],
      "name": "paused",
      "outputs": [
        {
          "internalType": "bool",
          "name": "",
          "type": "bool"
        }
      ],
      "stateMutability": "view",
      "type": "function"
    },
    {
      "inputs": [],
      "name": "pool",
      "outputs": [
        {
          "internalType": "contract IUniswapV3Pool",
          "name": "",
          "type": "address"
        }
      ],
      "stateMutability": "view",
      "type": "function"
    },
    {
      "inputs": [],
      "name": "poolAddress",
      "outputs": [
        {
          "internalType": "address",
          "name": "",
          "type": "address"
        }
      ],
      "stateMutability": "view",
      "type": "function"
    },
    {
      "inputs": [],
      "name": "renounceOwnership",
      "outputs": [],
      "stateMutability": "nonpayable",
      "type": "function"
    },
    {
      "inputs": [
        {
          "internalType": "uint32[]",
          "name": "_periods",
          "type": "uint32[]"
        }
      ],
      "name": "setAdaptivePeriods",
      "outputs": [],
      "stateMutability": "nonpayable",
      "type": "function"
    },
    {
      "inputs": [
        {
          "internalType": "uint32",
          "name": "_newTwapPeriod",
          "type": "uint32"
        }
      ],
      "name": "setTwapPeriod",
      "outputs": [],
      "stateMutability": "nonpayable",
      "type": "function"
    },
    {
      "inputs": [],
      "name": "soulShardToken",
      "outputs": [
        {
          "internalType": "address",
          "name": "",
          "type": "address"
        }
      ],
      "stateMutability": "view",
      "type": "function"
    },
    {
      "inputs": [],
      "name": "soulToken",
      "outputs": [
        {
          "internalType": "address",
          "name": "",
          "type": "address"
        }
      ],
      "stateMutability": "view",
      "type": "function"
    },
    {
      "inputs": [],
      "name": "testAllPeriods",
      "outputs": [
        {
          "internalType": "bool[]",
          "name": "available",
          "type": "bool[]"
        },
        {
          "internalType": "uint256[]",
          "name": "prices",
          "type": "uint256[]"
        }
      ],
      "stateMutability": "view",
      "type": "function"
    },
    {
      "inputs": [],
      "name": "token0",
      "outputs": [
        {
          "internalType": "address",
          "name": "",
          "type": "address"
        }
      ],
      "stateMutability": "view",
      "type": "function"
    },
    {
      "inputs": [],
      "name": "token1",
      "outputs": [
        {
          "internalType": "address",
          "name": "",
          "type": "address"
        }
      ],
      "stateMutability": "view",
      "type": "function"
    },
    {
      "inputs": [
        {
          "internalType": "address",
          "name": "newOwner",
          "type": "address"
        }
      ],
      "name": "transferOwnership",
      "outputs": [],
      "stateMutability": "nonpayable",
      "type": "function"
    },
    {
      "inputs": [],
      "name": "twapPeriod",
      "outputs": [
        {
          "internalType": "uint32",
          "name": "",
          "type": "uint32"
        }
      ],
      "stateMutability": "view",
      "type": "function"
    },
    {
      "inputs": [],
      "name": "unpause",
      "outputs": [],
      "stateMutability": "nonpayable",
      "type": "function"
    },
    {
      "inputs": [],
      "name": "usdToken",
      "outputs": [
        {
          "internalType": "address",
          "name": "",
          "type": "address"
        }
      ],
      "stateMutability": "view",
      "type": "function"
    }
  ],
  "bytecode": "0x610160604081815234620005bd57606082620023d48038038091620000258285620005c2565b833981010312620005bd576200003b82620005fc565b91602091620000598162000051858501620005fc565b9301620005fc565b913315620005a55760008054336001600160a01b031982168117835584516001600160a01b03989296939490939290918988167f8be0079c531659141344cd1fd0a4f28419497f9722a3daafe3b4186f6b6457e08780a3888116938415158062000599575b806200058d575b156200054b5750608084905260a05260c05260e0528251630dfe168160e01b8152600495929183908290889082905afa90811562000541579086918391620004fd575b5083886080511686519889809263d21220a760e01b82525afa968715620004f3578397620004b0575b506101009781895261012097808952818060c0511693169282818514928315620004a1575b836200047a575b50505015620004375760c0511614610140908152600164ffffffff0160a01b03199095163363ffffffff60a81b19161760e160ab1b1782558351906001600160401b0360a08301818111848210176200042457865281835284830192608036853751908111620004115768010000000000000000811162000411576001928354828555808310620003b1575b50908385528585208160031c91865b8381106200036e5750600719811690038062000316575b505050508154156200030357818352838320805463ffffffff191661070817905581548210156200030357818352838320805463ffffffff60201b1916650384000000001790558154600210156200030357818352838320805463ffffffff60401b19166902580000000000000000179055815460031015620003035750815220805463ffffffff60601b1916604b60621b17905551611dc29390929084620006128539608051848181610ed601526112f1015260a05184610e92015260c0518481816103a80152610fb6015260e05184818161023b01526104af01525183610f1a01525182610356015251816114ca0152f35b634e487b7160e01b835260329052602482fd5b928693875b878a838310620003365750505050500155388080806200020f565b9091929396620003639063ffffffff895116908560021b60031b9163ffffffff809116831b921b19161790565b96019291016200031b565b869088895b8b600882106200038a5750508185015501620001f8565b88519801978a9463ffffffff918216600584901b90811b92901b1990931617910162000373565b848652868620600780850160031c8201920160031c0190601c8460021b1680620003f6575b5085905b828110620003ea575050620001e9565b878155018590620003da565b60001990818301918254918b0360031b1c16905538620003d6565b634e487b7160e01b845260418252602484fd5b634e487b7160e01b855260418352602485fd5b855162461bcd60e51b8152808401869052601c60248201527f4f7261636c653a20506f6f6c20746f6b656e73206d69736d61746368000000006044820152606490fd5b169081149150811562000492575b503882816200015d565b90508160e05116143862000488565b60e05182168614935062000156565b9096508381813d8311620004eb575b620004cb8183620005c2565b81010312620004e757620004df90620005fc565b953862000131565b8280fd5b503d620004bf565b85513d85823e3d90fd5b809250848092503d831162000539575b620005198183620005c2565b8101031262000535576200052e8691620005fc565b3862000108565b5080fd5b503d6200050d565b84513d84823e3d90fd5b62461bcd60e51b815260048101899052601460248201527f4f7261636c653a205a65726f20616464726573730000000000000000000000006044820152606490fd5b508984161515620000c5565b508983161515620000be565b8151631e4fbdf760e01b815260006004820152602490fd5b600080fd5b601f909101601f19168101906001600160401b03821190821017620005e657604052565b634e487b7160e01b600052604160045260246000fd5b51906001600160a01b0382168203620005bd5756fe60406080815260048036101561001457600080fd5b60009160e08335811c908162d0dd4414610f3e5781630dfe168114610efa57816316f0115b14610eb65781631755ff2114610e725781632abd75f41461086c5781632d5f4a1e14610de55781633f4ba83a14610dea5781634403940214610de55781634ca53db3146109c05781635c975abb1461099b578163715018a6146109355781638456cb59146108975781638da5cb5b146108715781638e15f4731461086c57816393e6913f1461069557508063b1d78c9a14610660578063c77c065614610621578063c9d66854146104dc578063ca706bcf1461037a578063d21220a714610336578063f2fde38b14610289578063f620732614610263578063f897a22b1461021b5763f9c95d461461012a57600080fd5b3461021757602036600319011261021757813563ffffffff81169283820361021357610154611087565b83156101d05750916020917f5e7b639554853a5469618e25446e417073139cc5222d99e417bac27eac681526937fffffffffffffff00000000ffffffffffffffffffffffffffffffffffffffffff78ffffffff00000000000000000000000000000000000000000087549260a81b16911617855551908152a180f35b606490602084519162461bcd60e51b8352820152601f60248201527f4f7261636c653a205457415020706572696f64206d757374206265203e2030006044820152fd5b8480fd5b8280fd5b83823461025f578160031936011261025f57602090516001600160a01b037f0000000000000000000000000000000000000000000000000000000000000000168152f35b5080fd5b83823461025f578160031936011261025f5763ffffffff6020925460a81c169051908152f35b509034610217576020366003190112610217576102a4611071565b906102ad611087565b6001600160a01b0380921692831561030757505082548273ffffffffffffffffffffffffffffffffffffffff198216178455167f8be0079c531659141344cd1fd0a4f28419497f9722a3daafe3b4186f6b6457e08380a380f35b908460249251917f1e4fbdf7000000000000000000000000000000000000000000000000000000008352820152fd5b83823461025f578160031936011261025f57602090516001600160a01b037f0000000000000000000000000000000000000000000000000000000000000000168152f35b5091346104d957826003193601126104d957610394611071565b9160243591506001600160a01b03809316837f000000000000000000000000000000000000000000000000000000000000000016811490819482156104ad575b50501561046a576103e36110f0565b50926103f0841515611211565b1561040b57506020929161040391611c8d565b905b51908152f35b6001831061042757506020929161042191611b78565b90610405565b606490602085519162461bcd60e51b8352820152601c60248201527f4f7261636c653a2050726963652063616e6e6f74206265207a65726f000000006044820152fd5b606490602085519162461bcd60e51b8352820152601b60248201527f4f7261636c653a20496e76616c696420696e70757420746f6b656e00000000006044820152fd5b7f00000000000000000000000000000000000000000000000000000000000000001614905038806103d4565b80fd5b83823461025f578160031936011261025f5760018054926104fc846111c8565b9261050981519485611190565b848452610515856111c8565b601f19956020868101939092880136853761052f826111c8565b9161053c82519384611190565b808352610548816111c8565b8385019901368a37855b8181106105c057505080519681880191885251809152606087019390855b8181106105ab57505050858303868301525180835291810195925b8281106105985785870386f35b835187529581019592810192840161058b565b82511515865294840194918401918701610570565b806105e963ffffffff6105dc610604949d9b9d9a98999a61101b565b90549060031b1c1661125c565b906105f4838d6111fd565b8115159052610610575b506110cb565b98969895949395610552565b61061a82876111fd565b528b6105fe565b5090346102175760203660031901126102175735916001548310156104d9575063ffffffff61065160209361101b565b92905490519260031b1c168152f35b5082346104d95760203660031901126104d957506104036020926106826110f0565b509061068f821515611211565b35611b78565b925050346102175782600319360112610217578051809260018054918284526020809401928288527fb10e2d527612073b26eecdfd717e6a320cf44b4afac2b0732d9fcbe2b7fa0cf65b8160078a0110610809579161074595939161074f998996945493868383106107f3575b8383106107db575b8383106107c3575b8383106107aa575b838310610791575b838310610778575b83831061075f575b505010610753575b505090500383611190565b5191829182610fda565b0390f35b1c81520180388061073a565b90919563ffffffff8660c01c1681520194013886610732565b81929663ffffffff8760a01c168152019501908661072a565b81929663ffffffff8760801c1681520195019086610722565b81929663ffffffff8760601c168152019501908661071a565b81929663ffffffff878d1c1681520195019086610712565b81929663ffffffff87831c168152019501908661070a565b81929663ffffffff871681520195019086610702565b9383610100600892875463ffffffff808216835280828c1c168b84015280828d1c168c84015260608183821c169084015260808183821c169084015260a08183821c169084015260c09082821c1690830152861c868201520195019801976106df565b610f6d565b84833461025f578160031936011261025f576001600160a01b0360209254169051908152f35b505090346102175782600319360112610217576108b2611087565b82549060ff8260a01c1661090e57507f62e78cea01bee320cd4e420270b5ea74000d11b0c9f74754ebdbfc544b05a258917401000000000000000000000000000000000000000060ff60a01b196020931617845551338152a180f35b82517fd93c0665000000000000000000000000000000000000000000000000000000008152fd5b84346104d957806003193601126104d95761094e611087565b806001600160a01b03815473ffffffffffffffffffffffffffffffffffffffff1981168355167f8be0079c531659141344cd1fd0a4f28419497f9722a3daafe3b4186f6b6457e08280a380f35b84833461025f578160031936011261025f5760ff6020925460a01c1690519015158152f35b505090346102175760209081600319360112610de15780359167ffffffffffffffff91828411610ddd5736602385011215610ddd5783810135928311610ddd57602490818501948236918660051b010111610dd957610a1d611087565b83151580610dce575b15610d8e5760015b848110610c715750680100000000000000008411610c6057505060015482600155808310610bcc575b5082600186528260031c865b818110610b5d57506007198416840380610aea575b50505090835193818386018487525284019291855b828110610abe57867f9570aa99661074e4df176c999779948a700021e9ac911810d0729f7cb7198ccc87870388a180f35b9091929384359063ffffffff8216809203610ae6579081528201938201929190600101610a8d565b8780fd5b918792885b85828210610b2657505050507fb10e2d527612073b26eecdfd717e6a320cf44b4afac2b0732d9fcbe2b7fa0cf60155388080610a78565b610b538496610b386001949596611d7b565b908560021b60031b9163ffffffff809116831b921b19161790565b9501929101610aef565b87885b8560088210610b975750507fb10e2d527612073b26eecdfd717e6a320cf44b4afac2b0732d9fcbe2b7fa0cf6820155600101610a63565b610bc38693610ba860019498611d7b565b908860021b60031b9163ffffffff809116831b921b19161790565b92019401610b60565b6007830160031c60077fb10e2d527612073b26eecdfd717e6a320cf44b4afac2b0732d9fcbe2b7fa0cf6920160031c820191601c8560021b1680610c26575b50015b818110610c1b5750610a57565b868155600101610c0e565b7fb10e2d527612073b26eecdfd717e6a320cf44b4afac2b0732d9fcbe2b7fa0cf583019081549060001990870360031b1c16905538610c0b565b60418791634e487b7160e01b835252fd5b610c84610c7f828789611d6b565b611d7b565b6000198201828111610d7c5790610c7f610ca99263ffffffff93849283928b8d611d6b565b1691161015610d1557610cc0610c7f83888a611d6b565b1615610cd457610ccf906110cb565b610a2e565b5060166064928488519362461bcd60e51b85528401528201527f4f7261636c653a20496e76616c696420706572696f64000000000000000000006044820152fd5b608483602286888c519362461bcd60e51b85528401528201527f4f7261636c653a20506572696f6473206d7573742062652064657363656e646960448201527f6e670000000000000000000000000000000000000000000000000000000000006064820152fd5b848a601186634e487b7160e01b835252fd5b601e6064928488519362461bcd60e51b85528401528201527f4f7261636c653a20496e76616c696420706572696f6473206c656e67746800006044820152fd5b50600a841115610a26565b8680fd5b8580fd5b8380fd5b610f96565b50509034610217578260031936011261021757610e05611087565b82549060ff8260a01c1615610e4b57507f5db9ee0a495bf2e6ff9c91a7834c1ba4fdd244a5e8aa4e537bd38aeae4b073aa9160ff60a01b1960209216845551338152a180f35b82517f8dfc202b000000000000000000000000000000000000000000000000000000008152fd5b84833461025f578160031936011261025f57602090516001600160a01b037f0000000000000000000000000000000000000000000000000000000000000000168152f35b84833461025f578160031936011261025f57602090516001600160a01b037f0000000000000000000000000000000000000000000000000000000000000000168152f35b84833461025f578160031936011261025f57602090516001600160a01b037f0000000000000000000000000000000000000000000000000000000000000000168152f35b8285346104d957806003193601126104d9575063ffffffff610f5e6110f0565b83519182529091166020820152f35b34610f91576000366003190112610f91576020610f886110f0565b50604051908152f35b600080fd5b34610f91576000366003190112610f915760206040516001600160a01b037f0000000000000000000000000000000000000000000000000000000000000000168152f35b6020908160408183019282815285518094520193019160005b828110611001575050505090565b835163ffffffff1685529381019392810192600101610ff3565b9060015482101561105b576001600052601c8260031c7fb10e2d527612073b26eecdfd717e6a320cf44b4afac2b0732d9fcbe2b7fa0cf6019260021b1690565b634e487b7160e01b600052603260045260246000fd5b600435906001600160a01b0382168203610f9157565b6001600160a01b0360005416330361109b57565b60246040517f118cdaa7000000000000000000000000000000000000000000000000000000008152336004820152fd5b60001981146110da5760010190565b634e487b7160e01b600052601160045260246000fd5b60015460005b81811061114157606460405162461bcd60e51b815260206004820152602060248201527f4f7261636c653a204e6f2076616c696420707269636520617661696c61626c656044820152fd5b61114a8161101b565b9061116263ffffffff809254600394851b1c1661125c565b929061117957505050611174906110cb565b6110f6565b91949350916111879061101b565b9054911b1c1690565b90601f8019910116810190811067ffffffffffffffff8211176111b257604052565b634e487b7160e01b600052604160045260246000fd5b67ffffffffffffffff81116111b25760051b60200190565b80511561105b5760200190565b80516001101561105b5760400190565b805182101561105b5760209160051b010190565b1561121857565b606460405162461bcd60e51b815260206004820152601260248201527f4f7261636c653a205a45524f5f505249434500000000000000000000000000006044820152fd5b604080519067ffffffffffffffff9060608301828111848210176111b257815260028352602091813684860137611292846111e0565b9463ffffffff809116809652600095866112ab876111ed565b5283517f883bdbfd000000000000000000000000000000000000000000000000000000008152806112e0600498898301610fda565b039388826001600160a01b039681887f0000000000000000000000000000000000000000000000000000000000000000165afa9182918a93611a67575b505061132f5750505050505050908190565b61134261133b826111ed565b51916111e0565b5160060b9060060b03667fffffffffffff1991667fffffffffffff821383831217611a3b5760060b9060060b8115611a545760001992811482841416611a3b570560020b9087821215611a4e57818803828105821483151715611a3b57915b620d89e883116119d357889060018416156119aa5770ffffffffffffffffffffffffffffffffff6ffffcb933bd6fad37aa2d162d1a5940015b169360028116611978575b898116611946575b60088116611914575b601081166118e2575b8881166118b0575b87811661187e575b60809081811661184b575b6101008116611818575b61020081166117e5575b61040081166117b2575b610800811661177f575b611000811661174c575b6120008116611719575b61400081166116e6575b61800081166116b3575b620100008116611680575b62020000811661164e575b62040000811661160a575b62080000166115cd575b50136115ad575b5080851c91166115a45760ff865b1681018091116115915716938480029480860481149015171561157e57507f000000000000000000000000000000000000000000000000000000000000000015611502575050506114fa90611d05565b905b60019190565b831561150e8115611211565b61153d575050507f0de0b6b3a764000000000000000000000000000000000000000000000000000004906114fc565b60649350519162461bcd60e51b8352820152601060248201527f5a45524f5f44454e4f4d494e41544f52000000000000000000000000000000006044820152fd5b80601185634e487b7160e01b6024945252fd5b602486601187634e487b7160e01b835252fd5b60ff60016114aa565b81156115ba57043861149c565b602488601289634e487b7160e01b835252fd5b90936b048a170391f7dc42444e8fa2808202935081159184041417156115f7571c91889038611495565b60248a60118b634e487b7160e01b835252fd5b94909192506d2216e584f5fa1ea926041bedfe989081810291818304149015171561163b57811c938a92919061148b565b60248b60118c634e487b7160e01b835252fd5b94909192506e5d6af8dedb81196699c329225ee6049081810291818304149015171561163b57908a9291811c94611480565b94909192506f09aa508b5b7a84e1c677de54f3e99bc99081810291818304149015171561163b57908a9291811c94611475565b94909192506f31be135f97d08fd981231505542fcfa69081810291818304149015171561163b57908a9291811c9461146a565b94909192506f70d869a156d2a1b890bb3df62baf32f79081810291818304149015171561163b57908a9291811c94611460565b94909192506fa9f746462d870fdf8a65dc1f90e061e59081810291818304149015171561163b57908a9291811c94611456565b94909192506fd097f3bdfd2022b8845ad8f792aa58259081810291818304149015171561163b57908a9291811c9461144c565b94909192506fe7159475a2c29b7443b29c7fa6e889d99081810291818304149015171561163b57908a9291811c94611442565b94909192506ff3392b0822b70005940c7a398e4b70f39081810291818304149015171561163b57908a9291811c94611438565b94909192506ff987a7253ac413176f2b074cf7815e549081810291818304149015171561163b57908a9291811c9461142e565b94909192506ffcbe86c7900a88aedcffc83b479aa3a49081810291818304149015171561163b57908a9291811c94611424565b94909192506ffe5dee046a99a2a811c461f1969c30539081810291818304149015171561163b57908a9291811c9461141a565b939091506fff2ea16466c96a3843ec78b326b52861908181029181830414901517156115f75790899160801c9361140f565b939091506fff973b41fa98c081472e6896dfb254c0908181029181830414901517156115f75790899160801c93611407565b939091506fffcb9843d60f6159c9db58835c926644908181029181830414901517156115f75790899160801c936113ff565b939091506fffe5caca7e10e4e61c3624eaa0941cd0908181029181830414901517156115f75790899160801c936113f6565b939091506ffff2e50f5f656932ef12357cf3c7fdcc908181029181830414901517156115f75790899160801c936113ed565b939091506ffff97272373d413259a46990580e213a908181029181830414901517156115f75790899160801c936113e5565b70ffffffffffffffffffffffffffffffffff7001000000000000000000000000000000006113da565b6084888888519162461bcd60e51b8352820152603060248201527f4f7261636c653a205469636b2076616c75652065786365656473206d6178696d60448201527f756d20616c6c6f7765642072616e6765000000000000000000000000000000006064820152fd5b60248960118a634e487b7160e01b835252fd5b816113a1565b60248960128a634e487b7160e01b835252fd5b909192503d808b843e611a7a8184611190565b8201908783830312611b53578251818111611b4f5783019282601f85011215611b4f57835193611aa9856111c8565b94611ab68b519687611190565b8086528b8087019160051b83010191858311611b74578c01905b828210611b575750505089810151918211611b4f570181601f82011215611b53578051908980611aff846111c8565b611b0b8c519182611190565b848152019260051b820101928311611b4f578901905b828210611b335750505090388061131d565b81518881168103611b4b578152908901908901611b21565b8c80fd5b8b80fd5b8a80fd5b81518060060b8103611b70578152908c01908c01611ad0565b8f80fd5b8e80fd5b90600019670de0b6b3a7640000918183850983850292838083039210611c86575b508015611c3357811115611bef578019600181018091116110da57811692838204600280826003021880830282030280830282030280830282030280830282030280830282030280920290030294099003040290565b606460405162461bcd60e51b815260206004820152600860248201527f4f564552464c4f570000000000000000000000000000000000000000000000006044820152fd5b50925090508115611c42570490565b606460405162461bcd60e51b815260206004820152601060248201527f5a45524f5f44454e4f4d494e41544f52000000000000000000000000000000006044820152fd5b0138611b99565b9060001990818184099080840292838084039310611cfb575b508115611cea57670de0b6b3a764000091821115611bef577faccb18165bd6fe31ae1cf318dc5b51eee0e1ba569b88cd74c1773b91fac106699309900360121c0290565b5050670de0b6b3a764000091500490565b9091019038611ca6565b60001990670de0b6b3a7640000828183099181810293848085039410611d61575b508215611d5857780100000000000000000000000000000000000000000000000092831115611bef5709900360c01c90565b50505060c01c90565b9092019138611d26565b919081101561105b5760051b0190565b3563ffffffff81168103610f91579056fea2646970667358221220034a0bbf7867767e14a854a65810e25beab1ab706987c45d0f568b42df5c30ce64736f6c63430008140033",
  "linkReferences": {},
  "deployedLinkReferences": {}
}