{
  "_format": "hh-sol-artifact-1",
  "contractName": "Party",
  "sourceName": "contracts/current/nft/Party.sol",
  "abi": [
    {
      "inputs": [
        {
          "internalType": "address",
          "name": "initialOwner",
          "type": "address"
        }
      ],
      "stateMutability": "nonpayable",
      "type": "constructor"
    },
    {
      "inputs": [
        {
          "internalType": "address",
          "name": "sender",
          "type": "address"
        },
        {
          "internalType": "uint256",
          "name": "tokenId",
          "type": "uint256"
        },
        {
          "internalType": "address",
          "name": "owner",
          "type": "address"
        }
      ],
      "name": "ERC721IncorrectOwner",
      "type": "error"
    },
    {
      "inputs": [
        {
          "internalType": "address",
          "name": "operator",
          "type": "address"
        },
        {
          "internalType": "uint256",
          "name": "tokenId",
          "type": "uint256"
        }
      ],
      "name": "ERC721InsufficientApproval",
      "type": "error"
    },
    {
      "inputs": [
        {
          "internalType": "address",
          "name": "approver",
          "type": "address"
        }
      ],
      "name": "ERC721InvalidApprover",
      "type": "error"
    },
    {
      "inputs": [
        {
          "internalType": "address",
          "name": "operator",
          "type": "address"
        }
      ],
      "name": "ERC721InvalidOperator",
      "type": "error"
    },
    {
      "inputs": [
        {
          "internalType": "address",
          "name": "owner",
          "type": "address"
        }
      ],
      "name": "ERC721InvalidOwner",
      "type": "error"
    },
    {
      "inputs": [
        {
          "internalType": "address",
          "name": "receiver",
          "type": "address"
        }
      ],
      "name": "ERC721InvalidReceiver",
      "type": "error"
    },
    {
      "inputs": [
        {
          "internalType": "address",
          "name": "sender",
          "type": "address"
        }
      ],
      "name": "ERC721InvalidSender",
      "type": "error"
    },
    {
      "inputs": [
        {
          "internalType": "uint256",
          "name": "tokenId",
          "type": "uint256"
        }
      ],
      "name": "ERC721NonexistentToken",
      "type": "error"
    },
    {
      "inputs": [],
      "name": "EnforcedPause",
      "type": "error"
    },
    {
      "inputs": [],
      "name": "ExpectedPause",
      "type": "error"
    },
    {
      "inputs": [
        {
          "internalType": "address",
          "name": "owner",
          "type": "address"
        }
      ],
      "name": "OwnableInvalidOwner",
      "type": "error"
    },
    {
      "inputs": [
        {
          "internalType": "address",
          "name": "account",
          "type": "address"
        }
      ],
      "name": "OwnableUnauthorizedAccount",
      "type": "error"
    },
    {
      "inputs": [],
      "name": "ReentrancyGuardReentrantCall",
      "type": "error"
    },
    {
      "anonymous": false,
      "inputs": [
        {
          "indexed": true,
          "internalType": "address",
          "name": "owner",
          "type": "address"
        },
        {
          "indexed": true,
          "internalType": "address",
          "name": "approved",
          "type": "address"
        },
        {
          "indexed": true,
          "internalType": "uint256",
          "name": "tokenId",
          "type": "uint256"
        }
      ],
      "name": "Approval",
      "type": "event"
    },
    {
      "anonymous": false,
      "inputs": [
        {
          "indexed": true,
          "internalType": "address",
          "name": "owner",
          "type": "address"
        },
        {
          "indexed": true,
          "internalType": "address",
          "name": "operator",
          "type": "address"
        },
        {
          "indexed": false,
          "internalType": "bool",
          "name": "approved",
          "type": "bool"
        }
      ],
      "name": "ApprovalForAll",
      "type": "event"
    },
    {
      "anonymous": false,
      "inputs": [
        {
          "indexed": false,
          "internalType": "string",
          "name": "newBaseURI",
          "type": "string"
        }
      ],
      "name": "BaseURISet",
      "type": "event"
    },
    {
      "anonymous": false,
      "inputs": [
        {
          "indexed": false,
          "internalType": "string",
          "name": "newContractURI",
          "type": "string"
        }
      ],
      "name": "ContractURIUpdated",
      "type": "event"
    },
    {
      "anonymous": false,
      "inputs": [
        {
          "indexed": true,
          "internalType": "address",
          "name": "newAddress",
          "type": "address"
        }
      ],
      "name": "DungeonCoreSet",
      "type": "event"
    },
    {
      "anonymous": false,
      "inputs": [
        {
          "indexed": true,
          "internalType": "address",
          "name": "newAddress",
          "type": "address"
        }
      ],
      "name": "HeroContractSet",
      "type": "event"
    },
    {
      "anonymous": false,
      "inputs": [
        {
          "indexed": true,
          "internalType": "address",
          "name": "operator",
          "type": "address"
        },
        {
          "indexed": false,
          "internalType": "bool",
          "name": "approved",
          "type": "bool"
        }
      ],
      "name": "OperatorApprovalSet",
      "type": "event"
    },
    {
      "anonymous": false,
      "inputs": [
        {
          "indexed": true,
          "internalType": "address",
          "name": "previousOwner",
          "type": "address"
        },
        {
          "indexed": true,
          "internalType": "address",
          "name": "newOwner",
          "type": "address"
        }
      ],
      "name": "OwnershipTransferred",
      "type": "event"
    },
    {
      "anonymous": false,
      "inputs": [
        {
          "indexed": true,
          "internalType": "uint256",
          "name": "partyId",
          "type": "uint256"
        },
        {
          "indexed": true,
          "internalType": "address",
          "name": "owner",
          "type": "address"
        },
        {
          "indexed": false,
          "internalType": "uint256[]",
          "name": "heroIds",
          "type": "uint256[]"
        },
        {
          "indexed": false,
          "internalType": "uint256[]",
          "name": "relicIds",
          "type": "uint256[]"
        },
        {
          "indexed": false,
          "internalType": "uint256",
          "name": "totalPower",
          "type": "uint256"
        },
        {
          "indexed": false,
          "internalType": "uint256",
          "name": "totalCapacity",
          "type": "uint256"
        },
        {
          "indexed": false,
          "internalType": "uint8",
          "name": "partyRarity",
          "type": "uint8"
        }
      ],
      "name": "PartyCreated",
      "type": "event"
    },
    {
      "anonymous": false,
      "inputs": [
        {
          "indexed": false,
          "internalType": "address",
          "name": "account",
          "type": "address"
        }
      ],
      "name": "Paused",
      "type": "event"
    },
    {
      "anonymous": false,
      "inputs": [
        {
          "indexed": false,
          "internalType": "uint256",
          "name": "newFee",
          "type": "uint256"
        }
      ],
      "name": "PlatformFeeSet",
      "type": "event"
    },
    {
      "anonymous": false,
      "inputs": [
        {
          "indexed": true,
          "internalType": "address",
          "name": "newAddress",
          "type": "address"
        }
      ],
      "name": "RelicContractSet",
      "type": "event"
    },
    {
      "anonymous": false,
      "inputs": [
        {
          "indexed": true,
          "internalType": "address",
          "name": "from",
          "type": "address"
        },
        {
          "indexed": true,
          "internalType": "address",
          "name": "to",
          "type": "address"
        },
        {
          "indexed": true,
          "internalType": "uint256",
          "name": "tokenId",
          "type": "uint256"
        }
      ],
      "name": "Transfer",
      "type": "event"
    },
    {
      "anonymous": false,
      "inputs": [
        {
          "indexed": false,
          "internalType": "address",
          "name": "account",
          "type": "address"
        }
      ],
      "name": "Unpaused",
      "type": "event"
    },
    {
      "inputs": [
        {
          "internalType": "address",
          "name": "to",
          "type": "address"
        },
        {
          "internalType": "uint256",
          "name": "tokenId",
          "type": "uint256"
        }
      ],
      "name": "approve",
      "outputs": [],
      "stateMutability": "nonpayable",
      "type": "function"
    },
    {
      "inputs": [
        {
          "internalType": "address",
          "name": "owner",
          "type": "address"
        }
      ],
      "name": "balanceOf",
      "outputs": [
        {
          "internalType": "uint256",
          "name": "",
          "type": "uint256"
        }
      ],
      "stateMutability": "view",
      "type": "function"
    },
    {
      "inputs": [],
      "name": "baseURI",
      "outputs": [
        {
          "internalType": "string",
          "name": "",
          "type": "string"
        }
      ],
      "stateMutability": "view",
      "type": "function"
    },
    {
      "inputs": [],
      "name": "contractURI",
      "outputs": [
        {
          "internalType": "string",
          "name": "",
          "type": "string"
        }
      ],
      "stateMutability": "view",
      "type": "function"
    },
    {
      "inputs": [
        {
          "internalType": "uint256[]",
          "name": "_heroIds",
          "type": "uint256[]"
        },
        {
          "internalType": "uint256[]",
          "name": "_relicIds",
          "type": "uint256[]"
        }
      ],
      "name": "createParty",
      "outputs": [
        {
          "internalType": "uint256",
          "name": "partyId",
          "type": "uint256"
        }
      ],
      "stateMutability": "payable",
      "type": "function"
    },
    {
      "inputs": [],
      "name": "dungeonCoreContract",
      "outputs": [
        {
          "internalType": "contract IDungeonCore",
          "name": "",
          "type": "address"
        }
      ],
      "stateMutability": "view",
      "type": "function"
    },
    {
      "inputs": [
        {
          "internalType": "uint256",
          "name": "tokenId",
          "type": "uint256"
        }
      ],
      "name": "getApproved",
      "outputs": [
        {
          "internalType": "address",
          "name": "",
          "type": "address"
        }
      ],
      "stateMutability": "view",
      "type": "function"
    },
    {
      "inputs": [
        {
          "internalType": "uint256",
          "name": "_partyId",
          "type": "uint256"
        }
      ],
      "name": "getFullPartyComposition",
      "outputs": [
        {
          "components": [
            {
              "internalType": "uint256[]",
              "name": "heroIds",
              "type": "uint256[]"
            },
            {
              "internalType": "uint256[]",
              "name": "relicIds",
              "type": "uint256[]"
            },
            {
              "internalType": "uint256",
              "name": "totalPower",
              "type": "uint256"
            },
            {
              "internalType": "uint256",
              "name": "totalCapacity",
              "type": "uint256"
            },
            {
              "internalType": "uint8",
              "name": "partyRarity",
              "type": "uint8"
            }
          ],
          "internalType": "struct Party.PartyComposition",
          "name": "",
          "type": "tuple"
        }
      ],
      "stateMutability": "view",
      "type": "function"
    },
    {
      "inputs": [
        {
          "internalType": "uint256",
          "name": "_partyId",
          "type": "uint256"
        }
      ],
      "name": "getPartyCapacityQuick",
      "outputs": [
        {
          "internalType": "uint256",
          "name": "",
          "type": "uint256"
        }
      ],
      "stateMutability": "view",
      "type": "function"
    },
    {
      "inputs": [
        {
          "internalType": "uint256",
          "name": "_partyId",
          "type": "uint256"
        }
      ],
      "name": "getPartyComposition",
      "outputs": [
        {
          "internalType": "uint256",
          "name": "totalPower",
          "type": "uint256"
        },
        {
          "internalType": "uint256",
          "name": "totalCapacity",
          "type": "uint256"
        }
      ],
      "stateMutability": "view",
      "type": "function"
    },
    {
      "inputs": [
        {
          "internalType": "uint256",
          "name": "_partyId",
          "type": "uint256"
        }
      ],
      "name": "getPartyPowerQuick",
      "outputs": [
        {
          "internalType": "uint256",
          "name": "",
          "type": "uint256"
        }
      ],
      "stateMutability": "view",
      "type": "function"
    },
    {
      "inputs": [],
      "name": "heroContract",
      "outputs": [
        {
          "internalType": "contract IHero",
          "name": "",
          "type": "address"
        }
      ],
      "stateMutability": "view",
      "type": "function"
    },
    {
      "inputs": [
        {
          "internalType": "address",
          "name": "owner",
          "type": "address"
        },
        {
          "internalType": "address",
          "name": "operator",
          "type": "address"
        }
      ],
      "name": "isApprovedForAll",
      "outputs": [
        {
          "internalType": "bool",
          "name": "",
          "type": "bool"
        }
      ],
      "stateMutability": "view",
      "type": "function"
    },
    {
      "inputs": [],
      "name": "name",
      "outputs": [
        {
          "internalType": "string",
          "name": "",
          "type": "string"
        }
      ],
      "stateMutability": "view",
      "type": "function"
    },
    {
      "inputs": [
        {
          "internalType": "address",
          "name": "",
          "type": "address"
        },
        {
          "internalType": "address",
          "name": "",
          "type": "address"
        },
        {
          "internalType": "uint256",
          "name": "",
          "type": "uint256"
        },
        {
          "internalType": "bytes",
          "name": "",
          "type": "bytes"
        }
      ],
      "name": "onERC721Received",
      "outputs": [
        {
          "internalType": "bytes4",
          "name": "",
          "type": "bytes4"
        }
      ],
      "stateMutability": "nonpayable",
      "type": "function"
    },
    {
      "inputs": [],
      "name": "owner",
      "outputs": [
        {
          "internalType": "address",
          "name": "",
          "type": "address"
        }
      ],
      "stateMutability": "view",
      "type": "function"
    },
    {
      "inputs": [
        {
          "internalType": "uint256",
          "name": "tokenId",
          "type": "uint256"
        }
      ],
      "name": "ownerOf",
      "outputs": [
        {
          "internalType": "address",
          "name": "",
          "type": "address"
        }
      ],
      "stateMutability": "view",
      "type": "function"
    },
    {
      "inputs": [
        {
          "internalType": "uint256",
          "name": "",
          "type": "uint256"
        }
      ],
      "name": "partyCapacityDirect",
      "outputs": [
        {
          "internalType": "uint256",
          "name": "",
          "type": "uint256"
        }
      ],
      "stateMutability": "view",
      "type": "function"
    },
    {
      "inputs": [
        {
          "internalType": "uint256",
          "name": "",
          "type": "uint256"
        }
      ],
      "name": "partyCompositions",
      "outputs": [
        {
          "internalType": "uint256",
          "name": "totalPower",
          "type": "uint256"
        },
        {
          "internalType": "uint256",
          "name": "totalCapacity",
          "type": "uint256"
        },
        {
          "internalType": "uint8",
          "name": "partyRarity",
          "type": "uint8"
        }
      ],
      "stateMutability": "view",
      "type": "function"
    },
    {
      "inputs": [
        {
          "internalType": "uint256",
          "name": "",
          "type": "uint256"
        }
      ],
      "name": "partyPowerDirect",
      "outputs": [
        {
          "internalType": "uint256",
          "name": "",
          "type": "uint256"
        }
      ],
      "stateMutability": "view",
      "type": "function"
    },
    {
      "inputs": [],
      "name": "pause",
      "outputs": [],
      "stateMutability": "nonpayable",
      "type": "function"
    },
    {
      "inputs": [],
      "name": "paused",
      "outputs": [
        {
          "internalType": "bool",
          "name": "",
          "type": "bool"
        }
      ],
      "stateMutability": "view",
      "type": "function"
    },
    {
      "inputs": [],
      "name": "platformFee",
      "outputs": [
        {
          "internalType": "uint256",
          "name": "",
          "type": "uint256"
        }
      ],
      "stateMutability": "view",
      "type": "function"
    },
    {
      "inputs": [],
      "name": "relicContract",
      "outputs": [
        {
          "internalType": "contract IRelic",
          "name": "",
          "type": "address"
        }
      ],
      "stateMutability": "view",
      "type": "function"
    },
    {
      "inputs": [],
      "name": "renounceOwnership",
      "outputs": [],
      "stateMutability": "nonpayable",
      "type": "function"
    },
    {
      "inputs": [
        {
          "internalType": "address",
          "name": "from",
          "type": "address"
        },
        {
          "internalType": "address",
          "name": "to",
          "type": "address"
        },
        {
          "internalType": "uint256",
          "name": "tokenId",
          "type": "uint256"
        }
      ],
      "name": "safeTransferFrom",
      "outputs": [],
      "stateMutability": "nonpayable",
      "type": "function"
    },
    {
      "inputs": [
        {
          "internalType": "address",
          "name": "from",
          "type": "address"
        },
        {
          "internalType": "address",
          "name": "to",
          "type": "address"
        },
        {
          "internalType": "uint256",
          "name": "tokenId",
          "type": "uint256"
        },
        {
          "internalType": "bytes",
          "name": "data",
          "type": "bytes"
        }
      ],
      "name": "safeTransferFrom",
      "outputs": [],
      "stateMutability": "nonpayable",
      "type": "function"
    },
    {
      "inputs": [
        {
          "internalType": "address",
          "name": "operator",
          "type": "address"
        },
        {
          "internalType": "bool",
          "name": "approved",
          "type": "bool"
        }
      ],
      "name": "setApprovalForAll",
      "outputs": [],
      "stateMutability": "nonpayable",
      "type": "function"
    },
    {
      "inputs": [
        {
          "internalType": "string",
          "name": "_newBaseURI",
          "type": "string"
        }
      ],
      "name": "setBaseURI",
      "outputs": [],
      "stateMutability": "nonpayable",
      "type": "function"
    },
    {
      "inputs": [
        {
          "internalType": "string",
          "name": "newContractURI",
          "type": "string"
        }
      ],
      "name": "setContractURI",
      "outputs": [],
      "stateMutability": "nonpayable",
      "type": "function"
    },
    {
      "inputs": [
        {
          "internalType": "address",
          "name": "_coreAddress",
          "type": "address"
        }
      ],
      "name": "setDungeonCore",
      "outputs": [],
      "stateMutability": "nonpayable",
      "type": "function"
    },
    {
      "inputs": [
        {
          "internalType": "address",
          "name": "_heroAddress",
          "type": "address"
        }
      ],
      "name": "setHeroContract",
      "outputs": [],
      "stateMutability": "nonpayable",
      "type": "function"
    },
    {
      "inputs": [
        {
          "internalType": "address",
          "name": "operator",
          "type": "address"
        },
        {
          "internalType": "bool",
          "name": "approved",
          "type": "bool"
        }
      ],
      "name": "setOperatorApproval",
      "outputs": [],
      "stateMutability": "nonpayable",
      "type": "function"
    },
    {
      "inputs": [
        {
          "internalType": "uint256",
          "name": "_newFee",
          "type": "uint256"
        }
      ],
      "name": "setPlatformFee",
      "outputs": [],
      "stateMutability": "nonpayable",
      "type": "function"
    },
    {
      "inputs": [
        {
          "internalType": "address",
          "name": "_relicAddress",
          "type": "address"
        }
      ],
      "name": "setRelicContract",
      "outputs": [],
      "stateMutability": "nonpayable",
      "type": "function"
    },
    {
      "inputs": [
        {
          "internalType": "bytes4",
          "name": "interfaceId",
          "type": "bytes4"
        }
      ],
      "name": "supportsInterface",
      "outputs": [
        {
          "internalType": "bool",
          "name": "",
          "type": "bool"
        }
      ],
      "stateMutability": "view",
      "type": "function"
    },
    {
      "inputs": [],
      "name": "symbol",
      "outputs": [
        {
          "internalType": "string",
          "name": "",
          "type": "string"
        }
      ],
      "stateMutability": "view",
      "type": "function"
    },
    {
      "inputs": [
        {
          "internalType": "uint256",
          "name": "tokenId",
          "type": "uint256"
        }
      ],
      "name": "tokenURI",
      "outputs": [
        {
          "internalType": "string",
          "name": "",
          "type": "string"
        }
      ],
      "stateMutability": "view",
      "type": "function"
    },
    {
      "inputs": [
        {
          "internalType": "address",
          "name": "from",
          "type": "address"
        },
        {
          "internalType": "address",
          "name": "to",
          "type": "address"
        },
        {
          "internalType": "uint256",
          "name": "tokenId",
          "type": "uint256"
        }
      ],
      "name": "transferFrom",
      "outputs": [],
      "stateMutability": "nonpayable",
      "type": "function"
    },
    {
      "inputs": [
        {
          "internalType": "address",
          "name": "newOwner",
          "type": "address"
        }
      ],
      "name": "transferOwnership",
      "outputs": [],
      "stateMutability": "nonpayable",
      "type": "function"
    },
    {
      "inputs": [],
      "name": "unpause",
      "outputs": [],
      "stateMutability": "nonpayable",
      "type": "function"
    },
    {
      "inputs": [],
      "name": "withdrawNative",
      "outputs": [],
      "stateMutability": "nonpayable",
      "type": "function"
    },
    {
      "stateMutability": "payable",
      "type": "receive"
    }
  ],
  "bytecode": "0x608034620003d857601f906001600160401b03601f1962002eb6388190038581018316850184811186821017620003c257859282916040528339602094859181010312620003d857516001600160a01b03948582169391849003620003d85762000068620003dd565b94601586527f44756e67656f6e2044656c766572732050617274790000000000000000000000818701526200009c620003dd565b90600382526204444560ec1b81830152865194848611620003c2576000958654986001998a81811c91168015620003b7575b85821014620003a35790818784931162000350575b508490878311600114620002ef578992620002e3575b5050600019600383901b1c191690891b1786555b8251948511620002cf5787548881811c91168015620002c4575b83821014620002b05790818587969594931162000257575b5081938511600114620001f25750508492620001e6575b5050600019600383901b1c191690841b1783555b8115620001ce57600680546001600160a01b0319811684179091556040519416907f8be0079c531659141344cd1fd0a4f28419497f9722a3daafe3b4186f6b6457e09080a38060075566038d7ea4c68000600e55601055612ab89081620003fe8239f35b60249060405190631e4fbdf760e01b82526004820152fd5b01519050388062000156565b889593929193168587528387209387905b8282106200023d575050841162000223575b505050811b0183556200016a565b015160001960f88460031b161c1916905538808062000215565b8484015186558a9790950194938401939081019062000203565b9091929394508887528287208580880160051c820192858910620002a6575b9188978c9297969594930160051c01915b828110620002975750506200013f565b8981558897508b910162000287565b9250819262000276565b634e487b7160e01b87526022600452602487fd5b90607f169062000127565b634e487b7160e01b86526041600452602486fd5b015190503880620000f9565b90848c9416918a8052868b20928b5b888282106200033957505084116200031f575b505050811b0186556200010d565b015160001960f88460031b161c1916905538808062000311565b8385015186558f97909501949384019301620002fe565b9091508880528489208780850160051c82019287861062000399575b918d91869594930160051c01915b8281106200038a575050620000e3565b8b81558594508d91016200037a565b925081926200036c565b634e487b7160e01b89526022600452602489fd5b90607f1690620000ce565b634e487b7160e01b600052604160045260246000fd5b600080fd5b60408051919082016001600160401b03811183821017620003c25760405256fe608080604052600436101561001d575b50361561001b57600080fd5b005b60003560e01c90816301ffc9a7146121815750806306fdde03146120de578063081812fc1461209f578063095ea7b314611f9e57806309e6938c14611f775780630daf999a14611f5057806312e8e2c314611f04578063150b7a0214611ee1578063216688e914611e5e57806323b872dd14611e4757806326232a2e14611e295780632af88b3914611dfd5780633e54a10c1461134a5780633f4ba83a146112c857806342842e0e1461129a57806350431ce414611218578063551a2e401461112457806355f804b314610f815780635c975abb14610f5e5780635dfd691014610f325780636352211e14610f035780636ab1b29b14610ea05780636c0360eb14610dfa57806370a0823114610d89578063715018a614610d2e5780638456cb5914610cd45780638da5cb5b14610cad578063938e3d7b14610ae457806395d89b4114610a41578063992a08ec14610a0b578063a22cb46514610962578063a63a10981461083a578063b2a47500146107d7578063b40431b3146107a1578063b88d4fde1461077b578063c2dd62e014610732578063c87b56dd14610466578063d2ac0f5914610403578063d5654ae7146103dc578063e8a3d485146102f6578063e985e9c51461029c5763f2fde38b146101f8573861000f565b3461029757602036600319011261029757610211612280565b6102196124fd565b6001600160a01b0380911690811561026657600654826001600160a01b0319821617600655167f8be0079c531659141344cd1fd0a4f28419497f9722a3daafe3b4186f6b6457e0600080a3005b60246040517f1e4fbdf700000000000000000000000000000000000000000000000000000000815260006004820152fd5b600080fd5b34610297576040366003190112610297576102b5612280565b602435906001600160a01b039081831680930361029757166000526005602052604060002090600052602052602060ff604060002054166040519015158152f35b34610297576000366003190112610297576040516000600a5461031881612494565b808452906001908181169081156103b5575060011461035a575b61035684610342818603826122e2565b60405191829160208352602083019061225b565b0390f35b600a600090815292507fc65a7bb8d6351c1cf70c95a316cc6a92839c986682d98bc35f958f4883f9d2a85b82841061039d57505050810160200161034282610332565b80546020858701810191909152909301928101610385565b60ff191660208087019190915292151560051b850190920192506103429150839050610332565b346102975760003660031901126102975760206001600160a01b03600c5416604051908152f35b34610297576020366003190112610297576001600160a01b03610424612280565b61042c6124fd565b16806001600160a01b0319600b541617600b557f66bc4bfd56f2104006bad233fc730445bafcda57858bcb241c43fe70a19ac73c600080a2005b34610297576020806003193601126102975760043590610485826126fe565b5060095461049281612494565b156106ee578283916000947a184f03e93ff9f4daa797ed6e38ed64bf6a1f01000000000000000090818110156106e0575b50506d04ee2d6d415b85acef8100000000808410156106d2575b50662386f26fc10000808410156106c3575b506305f5e100808410156106b4575b50612710808410156106a5575b506064831015610695575b600a8093101561068b575b60018086019361054961053386612304565b9561054160405197886122e2565b808752612304565b9382602188880199601f19809801368c37880101905b61064f575b50505060405195869260009261057982612494565b9188828216918260001461062b5750506001146105c6575b50506105a582916105b29651938491612238565b01039081018452836122e2565b61035660405192828493845283019061225b565b879692935060096000527f6e1540171b6c0c960b71a7020d9f60077f6af931a8bbf590da0223dacf75c7af906000915b838310610613575050506105b2956105a591850101929195610591565b8054838c018a015289988b97509092019181016105f6565b60ff191687820152831515909302860190920193506105a591506105b29050610591565b600019019082907f30313233343536373839616263646566000000000000000000000000000000008282061a83530490838261055f5750610564565b9360010193610521565b9391606460029104920193610516565b6004919593049201938561050b565b600891959304920193856104fe565b601091959304920193856104ef565b8491959304920193856104dd565b6040965004925085806104c3565b6064826040519062461bcd60e51b82526004820152601660248201527f50617274793a2062617365555249206e6f7420736574000000000000000000006044820152fd5b3461029757602036600319011261029757600435600052600f6020526060604060002060028101549060ff60046003830154920154169060405192835260208301526040820152f35b346102975761001b61078c36612357565b9261079b828483959495612541565b33612769565b34610297576020366003190112610297576004356107be816126fe565b5060005260116020526020604060002054604051908152f35b34610297576020366003190112610297576001600160a01b036107f8612280565b6108006124fd565b16806001600160a01b0319600c541617600c557f8920e7fbf160226a5498b7a18e7982c9136f38ff4bd292188b6b680b82734a11600080a2005b3461029757610848366124ce565b906108516124fd565b6001600160a01b039081600b541691823b15610297576040517fa22cb465000000000000000000000000000000000000000000000000000000008082526001600160a01b03841660048301528515156024830152936000908290604490829084905af1801561094757610953575b5080600c541692833b15610297576040519081526001600160a01b03831660048201528415156024820152926000908490604490829084905af1918215610947577ff1cb32224287ba3650aebfd91bf2fe94119ae0f407439a55af908bc783e16d8393602093610938575b5060405194151585521692a2005b610941906122b2565b8561092a565b6040513d6000823e3d90fd5b61095c906122b2565b846108bf565b34610297576001600160a01b03610978366124ce565b91169081156109da5733600052600560205260406000208260005260205260406000209015159060ff1981541660ff83161790556040519081527f17307eab39ab6107e8899845ad3d59bd9653f200f220920489ca2b5937696c3160203392a3005b602482604051907f5b08ba180000000000000000000000000000000000000000000000000000000082526004820152fd5b3461029757602036600319011261029757600435610a28816126fe565b5060005260126020526020604060002054604051908152f35b346102975760003660031901126102975760405160006001805490610a6582612494565b808552918181169081156103b55750600114610a8b5761035684610342818603826122e2565b600081815292507fb10e2d527612073b26eecdfd717e6a320cf44b4afac2b0732d9fcbe2b7fa0cf65b828410610acc57505050810160200161034282610332565b80546020858701810191909152909301928101610ab4565b3461029757610af236612458565b610afa6124fd565b805167ffffffffffffffff8111610c9757610b16600a54612494565b601f8111610c3d575b506020601f8211600114610b95579181610b85927f905d981207a7d0b6c62cc46ab0be2a076d0298e4a86d0ab79882dbd01ac3737894600091610b8a575b508160011b916000199060031b1c191617600a5560405191829160208352602083019061225b565b0390a1005b905082015185610b5d565b601f19821690600a6000527fc65a7bb8d6351c1cf70c95a316cc6a92839c986682d98bc35f958f4883f9d2a89160005b818110610c255750927f905d981207a7d0b6c62cc46ab0be2a076d0298e4a86d0ab79882dbd01ac37378949260019282610b859610610c0c575b5050811b01600a55610342565b84015160001960f88460031b161c191690558580610bff565b91926020600181928689015181550194019201610bc5565b610c8790600a6000527fc65a7bb8d6351c1cf70c95a316cc6a92839c986682d98bc35f958f4883f9d2a8601f840160051c81019160208510610c8d575b601f0160051c0190612968565b82610b1f565b9091508190610c7a565b634e487b7160e01b600052604160045260246000fd5b346102975760003660031901126102975760206001600160a01b0360065416604051908152f35b3461029757600036600319011261029757610ced6124fd565b610cf56129bc565b600160ff1960085416176008557f62e78cea01bee320cd4e420270b5ea74000d11b0c9f74754ebdbfc544b05a2586020604051338152a1005b3461029757600036600319011261029757610d476124fd565b60006001600160a01b036006546001600160a01b03198116600655167f8be0079c531659141344cd1fd0a4f28419497f9722a3daafe3b4186f6b6457e08280a3005b34610297576020366003190112610297576001600160a01b03610daa612280565b168015610dc95760005260036020526020604060002054604051908152f35b60246040517f89c62b6400000000000000000000000000000000000000000000000000000000815260006004820152fd5b34610297576000366003190112610297576040516000600954610e1c81612494565b808452906001908181169081156103b55750600114610e455761035684610342818603826122e2565b6009600090815292507f6e1540171b6c0c960b71a7020d9f60077f6af931a8bbf590da0223dacf75c7af5b828410610e8857505050810160200161034282610332565b80546020858701810191909152909301928101610e70565b34610297576020366003190112610297576001600160a01b03610ec1612280565b610ec96124fd565b16806001600160a01b0319600d541617600d557f45e919947eac4ba070dccb2545cf1e7e330fd110330232d74a6996e9e2308f24600080a2005b34610297576020366003190112610297576020610f216004356126fe565b6001600160a01b0360405191168152f35b346102975760203660031901126102975760043560005260126020526020604060002054604051908152f35b3461029757600036600319011261029757602060ff600854166040519015158152f35b3461029757610f8f36612458565b610f976124fd565b805167ffffffffffffffff8111610c9757610fb3600954612494565b601f81116110d5575b506020601f821160011461102d579181610b85927ff9c7803e94e0d3c02900d8a90893a6d5e90dd04d32a4cfe825520f82bf9f32f694600091611022575b508160011b916000199060031b1c19161760095560405191829160208352602083019061225b565b905082015185610ffa565b601f1982169060096000527f6e1540171b6c0c960b71a7020d9f60077f6af931a8bbf590da0223dacf75c7af9160005b8181106110bd5750927ff9c7803e94e0d3c02900d8a90893a6d5e90dd04d32a4cfe825520f82bf9f32f6949260019282610b8596106110a4575b5050811b01600955610342565b84015160001960f88460031b161c191690558580611097565b9192602060018192868901518155019401920161105d565b61111e9060096000527f6e1540171b6c0c960b71a7020d9f60077f6af931a8bbf590da0223dacf75c7af601f840160051c81019160208510610c8d57601f0160051c0190612968565b82610fbc565b34610297576020806003193601126102975760a0906004356000608060405161114c81612296565b60608152606085820152826040820152826060820152015261116d816126fe565b50600052600f8152604060002060ff6040519261118984612296565b611192836129f2565b84526111a0600184016129f2565b92818501938452611200600282015494604087019586526111ed85600460038601549560608b019687520154169460808901958652604051998a99828b5251918a015260c0890190612424565b9051878203601f19016040890152612424565b93516060860152516080850152511660a08301520390f35b34610297576000366003190112610297576112316124fd565b60008080806001600160a01b036006541647905af161124e612739565b501561125657005b606460405162461bcd60e51b815260206004820152601d60248201527f50617274793a204e6174697665207769746864726177206661696c65640000006044820152fd5b346102975761001b6112ab366123be565b90604051926112b9846122c6565b6000845261079b838383612541565b34610297576000366003190112610297576112e16124fd565b60085460ff8116156113205760ff19166008557f5db9ee0a495bf2e6ff9c91a7834c1ba4fdd244a5e8aa4e537bd38aeae4b073aa6020604051338152a1005b60046040517f8dfc202b000000000000000000000000000000000000000000000000000000008152fd5b60403660031901126102975760043567ffffffffffffffff8111610297576113769036906004016123f3565b60243567ffffffffffffffff8111610297576113969036906004016123f3565b91600260075414611dd35760026007556113ae6129bc565b600e543410611d8f5782151580611d84575b15611d405760198111611cfc576001600160a01b03600b54169384151580611ce8575b15611ca45760009260009560006001600160a01b03600c54165b878210611b36575050868411611acc576000905b84821061195c57505060005b8581106118f2575060005b83811061187857506010549461143d87612a43565b9260405161144a81612296565b611455368784612911565b8152611462368486612911565b602082015286604082015288606082015260ff8516608082015287600052600f6020526040600020815180519067ffffffffffffffff8211610c9757680100000000000000008211610c9757602090835483855580841061185b575b500182600052602060002060005b8381106118475750505050602082015180519067ffffffffffffffff8211610c9757680100000000000000008211610c97576020906001840154836001860155808410611827575b500160018301600052602060002060005b83811061181357505050506080600460ff926040850151600282015560608501516003820155019201511660ff1982541617905586600052601160205285604060002055601260205287604060002055604051611581816122c6565b6000815233156117fb578760005260026020526001600160a01b03604060002054168881151591826117bf575b3360005260036020526040600020600181540190558160005260026020526040600020336001600160a01b031982541617905533907fddf252ad1be2c89b69c2b068fc378daa952ba7f163c4a11628f55a4df523b3ef600080a461178e57333b611697575b509260209761167388969460ff946116667f413f0fef11af2aeba882c1ea18fd9839a41aa41359e93be50ffcbbedf26104619861165160105461288c565b6010556040519860a08a5260a08a019161297f565b918783038d89015261297f565b96604085015260608401521660808201528033940390a36001600755604051908152f35b6040959394919551602081806116d6630a85bd0160e11b95868352336004840152600060248401528d604484015260806064840152608483019061225b565b03816000335af160009181611749575b50611717576116f3612739565b80519081611712576024604051633250574960e11b8152336004820152fd5b602001fd5b6001600160e01b031916036117325791939192916020611613565b6024604051633250574960e11b8152336004820152fd5b9091506020813d602011611786575b81611765602093836122e2565b8101031261029757516001600160e01b03198116810361029757908b6116e6565b3d9150611758565b60246040517f73c6ac6e00000000000000000000000000000000000000000000000000000000815260006004820152fd5b6117e082600052600460205260406000206001600160a01b03198154169055565b806000526003602052604060002060001981540190556115ae565b6024604051633250574960e11b815260006004820152fd5b600190602084519401938184015501611525565b611841906001860160005284846000209182019101612968565b8d611514565b6001906020845194019381840155016114cc565b611872908560005284846000209182019101612968565b8d6114be565b6001600160a01b03600b5416906118908186866128b1565b3591803b1561029757604051632142170760e11b815233600482015230602482015260448101939093526000908390606490829084905af1918215610947576118de926118e3575b5061288c565b611428565b6118ec906122b2565b886118d8565b6001600160a01b03600c54169061190a8188856128b1565b3591803b1561029757604051632142170760e11b815233600482015230602482015260448101939093526000908390606490829084905af191821561094757611957926118e3575061288c565b61141d565b90946119698686866128b1565b35604051906331a9108f60e11b82526004820152602081602481865afa90811561094757600091611a9d575b506001600160a01b0333911603611a59576119b18686866128b1565b35604051907f6a6cdc6c0000000000000000000000000000000000000000000000000000000082526004820152604081602481865afa90811561094757600091611a10575b50611a0490611a0a92612904565b9561288c565b90611411565b90506040813d604011611a51575b81611a2b604093836122e2565b8101031261029757611a0a91602082611a46611a04946128f6565b5001519150916119f6565b3d9150611a1e565b606460405162461bcd60e51b815260206004820152602060248201527f50617274793a20596f7520646f206e6f74206f776e20616c6c206865726f65736044820152fd5b611abf915060203d602011611ac5575b611ab781836122e2565b8101906128d7565b89611995565b503d611aad565b608460405162461bcd60e51b815260206004820152602360248201527f50617274793a20546f6f206d616e79206865726f657320666f7220636170616360448201527f69747900000000000000000000000000000000000000000000000000000000006064820152fd5b9097611b438989866128b1565b35604051906331a9108f60e11b82526004820152602081602481865afa90811561094757600091611c85575b506001600160a01b0333911603611c4157611b8b8989866128b1565b35604051907fbfbfccb20000000000000000000000000000000000000000000000000000000082526004820152604081602481865afa90811561094757600091611bee575b50611be89160ff611be2921690612904565b9861288c565b906113fd565b90506040813d604011611c39575b81611c09604093836122e2565b8101031261029757611be89160ff611c30602084611c29611be2966128f6565b50016128f6565b92505091611bd0565b3d9150611bfc565b606460405162461bcd60e51b815260206004820152602060248201527f50617274793a20596f7520646f206e6f74206f776e20616c6c2072656c6963736044820152fd5b611c9e915060203d602011611ac557611ab781836122e2565b8a611b6f565b606460405162461bcd60e51b815260206004820152601860248201527f50617274793a20436f6e747261637473206e6f742073657400000000000000006044820152fd5b506001600160a01b03600c541615156113e3565b606460405162461bcd60e51b815260206004820152601660248201527f50617274793a20546f6f206d616e79206865726f6573000000000000000000006044820152fd5b606460405162461bcd60e51b815260206004820152601a60248201527f50617274793a20496e76616c69642072656c696320636f756e740000000000006044820152fd5b5060058311156113c0565b606460405162461bcd60e51b815260206004820152601b60248201527f50617274793a20506c6174666f726d20666565206e6f74206d657400000000006044820152fd5b60046040517f3ee5aeb5000000000000000000000000000000000000000000000000000000008152fd5b346102975760203660031901126102975760043560005260116020526020604060002054604051908152f35b34610297576000366003190112610297576020600e54604051908152f35b346102975761001b611e58366123be565b91612541565b3461029757602036600319011261029757600435611e7b816126fe565b50600052600f602052604080600020815190611e9682612296565b611e9f816129f2565b8252611ead600182016129f2565b60208301526002810154918284820152608060ff600460038501549485606086015201541691015282519182526020820152f35b3461029757611eef36612357565b505050506020604051630a85bd0160e11b8152f35b34610297576020366003190112610297577fdc4e4be378c228e1b7b13787e1d0620609304c2f71ed3a6ee69e4aae99d58cd96020600435611f436124fd565b80600e55604051908152a1005b346102975760003660031901126102975760206001600160a01b03600b5416604051908152f35b346102975760003660031901126102975760206001600160a01b03600d5416604051908152f35b3461029757604036600319011261029757611fb7612280565b602435611fc3816126fe565b3315158061208c575b8061205e575b61202e5781906001600160a01b03809416938491167f8c5be1e5ebec7d5bd14f71427d1e84f3dd0314c0f7b2291e5b200ac8c7c3b925600080a460005260046020526040600020906001600160a01b0319825416179055600080f35b60246040517fa9fbf51f000000000000000000000000000000000000000000000000000000008152336004820152fd5b506001600160a01b038116600052600560205260406000203360005260205260ff6040600020541615611fd2565b50336001600160a01b0382161415611fcc565b34610297576020366003190112610297576004356120bc816126fe565b50600052600460205260206001600160a01b0360406000205416604051908152f35b3461029757600036600319011261029757604051600080546120ff81612494565b808452906001908181169081156103b557506001146121285761035684610342818603826122e2565b600080805292507f290decd9548b62a8d60345a988386fc84ba6bc95484008f6362f93160ef3e5635b82841061216957505050810160200161034282610332565b80546020858701810191909152909301928101612151565b3461029757602036600319011261029757600435906001600160e01b0319821680920361029757817f80ac58cd000000000000000000000000000000000000000000000000000000006020931490811561220e575b81156121e4575b5015158152f35b7f01ffc9a700000000000000000000000000000000000000000000000000000000915014836121dd565b7f5b5e139f00000000000000000000000000000000000000000000000000000000811491506121d6565b60005b83811061224b5750506000910152565b818101518382015260200161223b565b9060209161227481518092818552858086019101612238565b601f01601f1916010190565b600435906001600160a01b038216820361029757565b60a0810190811067ffffffffffffffff821117610c9757604052565b67ffffffffffffffff8111610c9757604052565b6020810190811067ffffffffffffffff821117610c9757604052565b90601f8019910116810190811067ffffffffffffffff821117610c9757604052565b67ffffffffffffffff8111610c9757601f01601f191660200190565b92919261232c82612304565b9161233a60405193846122e2565b829481845281830111610297578281602093846000960137010152565b906080600319830112610297576001600160a01b03916004358381168103610297579260243590811681036102975791604435916064359067ffffffffffffffff82116102975780602383011215610297578160246123bb93600401359101612320565b90565b6060906003190112610297576001600160a01b0390600435828116810361029757916024359081168103610297579060443590565b9181601f840112156102975782359167ffffffffffffffff8311610297576020808501948460051b01011161029757565b90815180825260208080930193019160005b828110612444575050505090565b835185529381019392810192600101612436565b6020600319820112610297576004359067ffffffffffffffff82116102975780602383011215610297578160246123bb93600401359101612320565b90600182811c921680156124c4575b60208310146124ae57565b634e487b7160e01b600052602260045260246000fd5b91607f16916124a3565b6040906003190112610297576004356001600160a01b0381168103610297579060243580151581036102975790565b6001600160a01b0360065416330361251157565b60246040517f118cdaa7000000000000000000000000000000000000000000000000000000008152336004820152fd5b90916001600160a01b038093169283156117fb5760009282845282602095600287526040968488882054169687913315158061264f575b509060027fddf252ad1be2c89b69c2b068fc378daa952ba7f163c4a11628f55a4df523b3ef9284612617575b858352600381528b83206001815401905586835252898120846001600160a01b031982541617905580a416928383036125dd5750505050565b6064945051927f64283d7b000000000000000000000000000000000000000000000000000000008452600484015260248301526044820152fd5b61263887600052600460205260406000206001600160a01b03198154169055565b848352600381528b832080546000190190556125a4565b919394509150806126bd575b1561266b57859291879138612578565b878688612688576024915190637e27328960e01b82526004820152fd5b60449151907f177e802f0000000000000000000000000000000000000000000000000000000082523360048301526024820152fd5b5033871480156126e2575b8061265b575085825260048152338589842054161461265b565b5086825260058152878220338352815260ff88832054166126c8565b8060005260026020526001600160a01b0360406000205416908115612721575090565b60249060405190637e27328960e01b82526004820152fd5b3d15612764573d9061274a82612304565b9161275860405193846122e2565b82523d6000602084013e565b606090565b9293823b612779575b5050505050565b6127be906001600160a01b038094169560405194859481630a85bd0160e11b98898852166004870152166024850152604484015260806064840152608483019061225b565b03906020816000938185885af19082908261283d575b505061280b57826127e3612739565b80519190826128045760248260405190633250574960e11b82526004820152fd5b6020915001fd5b6001600160e01b0319160361282557503880808080612772565b60249060405190633250574960e11b82526004820152fd5b909192506020813d8211612884575b81612859602093836122e2565b810103126128805751906001600160e01b03198216820361287d57509038806127d4565b80fd5b5080fd5b3d915061284c565b600019811461289b5760010190565b634e487b7160e01b600052601160045260246000fd5b91908110156128c15760051b0190565b634e487b7160e01b600052603260045260246000fd5b9081602091031261029757516001600160a01b03811681036102975790565b519060ff8216820361029757565b9190820180921161289b57565b90929167ffffffffffffffff8411610c97578360051b604051926020809461293b828501826122e2565b809781520191810192831161029757905b8282106129595750505050565b8135815290830190830161294c565b818110612973575050565b60008155600101612968565b90918281527f07ffffffffffffffffffffffffffffffffffffffffffffffffffffffffffffff83116102975760209260051b809284830137010190565b60ff600854166129c857565b60046040517fd93c0665000000000000000000000000000000000000000000000000000000008152fd5b9060405191828154918282526020928383019160005283600020936000905b828210612a2957505050612a27925003836122e2565b565b855484526001958601958895509381019390910190612a11565b6014811015612a7c57600f811015612a7657600a811015612a705760051115612a6b57600190565b600290565b50600390565b50600490565b5060059056fea264697066735822122048cdc39f025e88b6e8bc1b56c053121be08f740635da420fa299157039beec0164736f6c63430008140033",
  "linkReferences": {},
  "deployedLinkReferences": {}
}