{
  "_format": "hh-sol-artifact-1",
  "contractName": "PlayerProfile",
  "sourceName": "contracts/current/nft/PlayerProfile.sol",
  "abi": [
    {
      "inputs": [
        {
          "internalType": "address",
          "name": "initialOwner",
          "type": "address"
        }
      ],
      "stateMutability": "nonpayable",
      "type": "constructor"
    },
    {
      "inputs": [
        {
          "internalType": "address",
          "name": "sender",
          "type": "address"
        },
        {
          "internalType": "uint256",
          "name": "tokenId",
          "type": "uint256"
        },
        {
          "internalType": "address",
          "name": "owner",
          "type": "address"
        }
      ],
      "name": "ERC721IncorrectOwner",
      "type": "error"
    },
    {
      "inputs": [
        {
          "internalType": "address",
          "name": "operator",
          "type": "address"
        },
        {
          "internalType": "uint256",
          "name": "tokenId",
          "type": "uint256"
        }
      ],
      "name": "ERC721InsufficientApproval",
      "type": "error"
    },
    {
      "inputs": [
        {
          "internalType": "address",
          "name": "approver",
          "type": "address"
        }
      ],
      "name": "ERC721InvalidApprover",
      "type": "error"
    },
    {
      "inputs": [
        {
          "internalType": "address",
          "name": "operator",
          "type": "address"
        }
      ],
      "name": "ERC721InvalidOperator",
      "type": "error"
    },
    {
      "inputs": [
        {
          "internalType": "address",
          "name": "owner",
          "type": "address"
        }
      ],
      "name": "ERC721InvalidOwner",
      "type": "error"
    },
    {
      "inputs": [
        {
          "internalType": "address",
          "name": "receiver",
          "type": "address"
        }
      ],
      "name": "ERC721InvalidReceiver",
      "type": "error"
    },
    {
      "inputs": [
        {
          "internalType": "address",
          "name": "sender",
          "type": "address"
        }
      ],
      "name": "ERC721InvalidSender",
      "type": "error"
    },
    {
      "inputs": [
        {
          "internalType": "uint256",
          "name": "tokenId",
          "type": "uint256"
        }
      ],
      "name": "ERC721NonexistentToken",
      "type": "error"
    },
    {
      "inputs": [],
      "name": "EnforcedPause",
      "type": "error"
    },
    {
      "inputs": [],
      "name": "ExpectedPause",
      "type": "error"
    },
    {
      "inputs": [
        {
          "internalType": "address",
          "name": "owner",
          "type": "address"
        }
      ],
      "name": "OwnableInvalidOwner",
      "type": "error"
    },
    {
      "inputs": [
        {
          "internalType": "address",
          "name": "account",
          "type": "address"
        }
      ],
      "name": "OwnableUnauthorizedAccount",
      "type": "error"
    },
    {
      "anonymous": false,
      "inputs": [
        {
          "indexed": true,
          "internalType": "address",
          "name": "owner",
          "type": "address"
        },
        {
          "indexed": true,
          "internalType": "address",
          "name": "approved",
          "type": "address"
        },
        {
          "indexed": true,
          "internalType": "uint256",
          "name": "tokenId",
          "type": "uint256"
        }
      ],
      "name": "Approval",
      "type": "event"
    },
    {
      "anonymous": false,
      "inputs": [
        {
          "indexed": true,
          "internalType": "address",
          "name": "owner",
          "type": "address"
        },
        {
          "indexed": true,
          "internalType": "address",
          "name": "operator",
          "type": "address"
        },
        {
          "indexed": false,
          "internalType": "bool",
          "name": "approved",
          "type": "bool"
        }
      ],
      "name": "ApprovalForAll",
      "type": "event"
    },
    {
      "anonymous": false,
      "inputs": [
        {
          "indexed": false,
          "internalType": "string",
          "name": "newBaseURI",
          "type": "string"
        }
      ],
      "name": "BaseURISet",
      "type": "event"
    },
    {
      "anonymous": false,
      "inputs": [
        {
          "indexed": false,
          "internalType": "string",
          "name": "newContractURI",
          "type": "string"
        }
      ],
      "name": "ContractURIUpdated",
      "type": "event"
    },
    {
      "anonymous": false,
      "inputs": [
        {
          "indexed": true,
          "internalType": "address",
          "name": "player",
          "type": "address"
        },
        {
          "indexed": true,
          "internalType": "uint256",
          "name": "tokenId",
          "type": "uint256"
        },
        {
          "indexed": false,
          "internalType": "uint256",
          "name": "amount",
          "type": "uint256"
        },
        {
          "indexed": false,
          "internalType": "uint256",
          "name": "newTotalExperience",
          "type": "uint256"
        }
      ],
      "name": "ExperienceAdded",
      "type": "event"
    },
    {
      "anonymous": false,
      "inputs": [
        {
          "indexed": true,
          "internalType": "address",
          "name": "previousOwner",
          "type": "address"
        },
        {
          "indexed": true,
          "internalType": "address",
          "name": "newOwner",
          "type": "address"
        }
      ],
      "name": "OwnershipTransferred",
      "type": "event"
    },
    {
      "anonymous": false,
      "inputs": [
        {
          "indexed": false,
          "internalType": "address",
          "name": "account",
          "type": "address"
        }
      ],
      "name": "Paused",
      "type": "event"
    },
    {
      "anonymous": false,
      "inputs": [
        {
          "indexed": true,
          "internalType": "address",
          "name": "player",
          "type": "address"
        },
        {
          "indexed": true,
          "internalType": "uint256",
          "name": "tokenId",
          "type": "uint256"
        }
      ],
      "name": "ProfileCreated",
      "type": "event"
    },
    {
      "anonymous": false,
      "inputs": [
        {
          "indexed": true,
          "internalType": "address",
          "name": "from",
          "type": "address"
        },
        {
          "indexed": true,
          "internalType": "address",
          "name": "to",
          "type": "address"
        },
        {
          "indexed": true,
          "internalType": "uint256",
          "name": "tokenId",
          "type": "uint256"
        }
      ],
      "name": "Transfer",
      "type": "event"
    },
    {
      "anonymous": false,
      "inputs": [
        {
          "indexed": false,
          "internalType": "address",
          "name": "account",
          "type": "address"
        }
      ],
      "name": "Unpaused",
      "type": "event"
    },
    {
      "inputs": [
        {
          "internalType": "address",
          "name": "_player",
          "type": "address"
        },
        {
          "internalType": "uint256",
          "name": "_amount",
          "type": "uint256"
        }
      ],
      "name": "addExperience",
      "outputs": [],
      "stateMutability": "nonpayable",
      "type": "function"
    },
    {
      "inputs": [
        {
          "internalType": "address",
          "name": "",
          "type": "address"
        },
        {
          "internalType": "uint256",
          "name": "",
          "type": "uint256"
        }
      ],
      "name": "approve",
      "outputs": [],
      "stateMutability": "pure",
      "type": "function"
    },
    {
      "inputs": [
        {
          "internalType": "address",
          "name": "owner",
          "type": "address"
        }
      ],
      "name": "balanceOf",
      "outputs": [
        {
          "internalType": "uint256",
          "name": "",
          "type": "uint256"
        }
      ],
      "stateMutability": "view",
      "type": "function"
    },
    {
      "inputs": [],
      "name": "baseURI",
      "outputs": [
        {
          "internalType": "string",
          "name": "",
          "type": "string"
        }
      ],
      "stateMutability": "view",
      "type": "function"
    },
    {
      "inputs": [],
      "name": "contractURI",
      "outputs": [
        {
          "internalType": "string",
          "name": "",
          "type": "string"
        }
      ],
      "stateMutability": "view",
      "type": "function"
    },
    {
      "inputs": [],
      "name": "dungeonCore",
      "outputs": [
        {
          "internalType": "contract IDungeonCore",
          "name": "",
          "type": "address"
        }
      ],
      "stateMutability": "view",
      "type": "function"
    },
    {
      "inputs": [
        {
          "internalType": "uint256",
          "name": "tokenId",
          "type": "uint256"
        }
      ],
      "name": "getApproved",
      "outputs": [
        {
          "internalType": "address",
          "name": "",
          "type": "address"
        }
      ],
      "stateMutability": "view",
      "type": "function"
    },
    {
      "inputs": [
        {
          "internalType": "address",
          "name": "_player",
          "type": "address"
        }
      ],
      "name": "getExperience",
      "outputs": [
        {
          "internalType": "uint256",
          "name": "",
          "type": "uint256"
        }
      ],
      "stateMutability": "view",
      "type": "function"
    },
    {
      "inputs": [
        {
          "internalType": "address",
          "name": "_player",
          "type": "address"
        }
      ],
      "name": "getLevel",
      "outputs": [
        {
          "internalType": "uint256",
          "name": "",
          "type": "uint256"
        }
      ],
      "stateMutability": "view",
      "type": "function"
    },
    {
      "inputs": [
        {
          "internalType": "address",
          "name": "owner",
          "type": "address"
        },
        {
          "internalType": "address",
          "name": "operator",
          "type": "address"
        }
      ],
      "name": "isApprovedForAll",
      "outputs": [
        {
          "internalType": "bool",
          "name": "",
          "type": "bool"
        }
      ],
      "stateMutability": "view",
      "type": "function"
    },
    {
      "inputs": [
        {
          "internalType": "address",
          "name": "_player",
          "type": "address"
        }
      ],
      "name": "mintProfile",
      "outputs": [
        {
          "internalType": "uint256",
          "name": "",
          "type": "uint256"
        }
      ],
      "stateMutability": "nonpayable",
      "type": "function"
    },
    {
      "inputs": [],
      "name": "name",
      "outputs": [
        {
          "internalType": "string",
          "name": "",
          "type": "string"
        }
      ],
      "stateMutability": "view",
      "type": "function"
    },
    {
      "inputs": [],
      "name": "owner",
      "outputs": [
        {
          "internalType": "address",
          "name": "",
          "type": "address"
        }
      ],
      "stateMutability": "view",
      "type": "function"
    },
    {
      "inputs": [
        {
          "internalType": "uint256",
          "name": "tokenId",
          "type": "uint256"
        }
      ],
      "name": "ownerOf",
      "outputs": [
        {
          "internalType": "address",
          "name": "",
          "type": "address"
        }
      ],
      "stateMutability": "view",
      "type": "function"
    },
    {
      "inputs": [],
      "name": "pause",
      "outputs": [],
      "stateMutability": "nonpayable",
      "type": "function"
    },
    {
      "inputs": [],
      "name": "paused",
      "outputs": [
        {
          "internalType": "bool",
          "name": "",
          "type": "bool"
        }
      ],
      "stateMutability": "view",
      "type": "function"
    },
    {
      "inputs": [
        {
          "internalType": "uint256",
          "name": "",
          "type": "uint256"
        }
      ],
      "name": "profileData",
      "outputs": [
        {
          "internalType": "uint256",
          "name": "experience",
          "type": "uint256"
        }
      ],
      "stateMutability": "view",
      "type": "function"
    },
    {
      "inputs": [
        {
          "internalType": "address",
          "name": "",
          "type": "address"
        }
      ],
      "name": "profileTokenOf",
      "outputs": [
        {
          "internalType": "uint256",
          "name": "",
          "type": "uint256"
        }
      ],
      "stateMutability": "view",
      "type": "function"
    },
    {
      "inputs": [],
      "name": "renounceOwnership",
      "outputs": [],
      "stateMutability": "nonpayable",
      "type": "function"
    },
    {
      "inputs": [
        {
          "internalType": "address",
          "name": "from",
          "type": "address"
        },
        {
          "internalType": "address",
          "name": "to",
          "type": "address"
        },
        {
          "internalType": "uint256",
          "name": "tokenId",
          "type": "uint256"
        }
      ],
      "name": "safeTransferFrom",
      "outputs": [],
      "stateMutability": "nonpayable",
      "type": "function"
    },
    {
      "inputs": [
        {
          "internalType": "address",
          "name": "",
          "type": "address"
        },
        {
          "internalType": "address",
          "name": "",
          "type": "address"
        },
        {
          "internalType": "uint256",
          "name": "",
          "type": "uint256"
        },
        {
          "internalType": "bytes",
          "name": "",
          "type": "bytes"
        }
      ],
      "name": "safeTransferFrom",
      "outputs": [],
      "stateMutability": "pure",
      "type": "function"
    },
    {
      "inputs": [
        {
          "internalType": "address",
          "name": "",
          "type": "address"
        },
        {
          "internalType": "bool",
          "name": "",
          "type": "bool"
        }
      ],
      "name": "setApprovalForAll",
      "outputs": [],
      "stateMutability": "pure",
      "type": "function"
    },
    {
      "inputs": [
        {
          "internalType": "string",
          "name": "_newBaseURI",
          "type": "string"
        }
      ],
      "name": "setBaseURI",
      "outputs": [],
      "stateMutability": "nonpayable",
      "type": "function"
    },
    {
      "inputs": [
        {
          "internalType": "string",
          "name": "newContractURI",
          "type": "string"
        }
      ],
      "name": "setContractURI",
      "outputs": [],
      "stateMutability": "nonpayable",
      "type": "function"
    },
    {
      "inputs": [
        {
          "internalType": "address",
          "name": "_address",
          "type": "address"
        }
      ],
      "name": "setDungeonCore",
      "outputs": [],
      "stateMutability": "nonpayable",
      "type": "function"
    },
    {
      "inputs": [
        {
          "internalType": "bytes4",
          "name": "interfaceId",
          "type": "bytes4"
        }
      ],
      "name": "supportsInterface",
      "outputs": [
        {
          "internalType": "bool",
          "name": "",
          "type": "bool"
        }
      ],
      "stateMutability": "view",
      "type": "function"
    },
    {
      "inputs": [],
      "name": "symbol",
      "outputs": [
        {
          "internalType": "string",
          "name": "",
          "type": "string"
        }
      ],
      "stateMutability": "view",
      "type": "function"
    },
    {
      "inputs": [
        {
          "internalType": "uint256",
          "name": "_tokenId",
          "type": "uint256"
        }
      ],
      "name": "tokenURI",
      "outputs": [
        {
          "internalType": "string",
          "name": "",
          "type": "string"
        }
      ],
      "stateMutability": "view",
      "type": "function"
    },
    {
      "inputs": [
        {
          "internalType": "address",
          "name": "",
          "type": "address"
        },
        {
          "internalType": "address",
          "name": "",
          "type": "address"
        },
        {
          "internalType": "uint256",
          "name": "",
          "type": "uint256"
        }
      ],
      "name": "transferFrom",
      "outputs": [],
      "stateMutability": "pure",
      "type": "function"
    },
    {
      "inputs": [
        {
          "internalType": "address",
          "name": "newOwner",
          "type": "address"
        }
      ],
      "name": "transferOwnership",
      "outputs": [],
      "stateMutability": "nonpayable",
      "type": "function"
    },
    {
      "inputs": [],
      "name": "unpause",
      "outputs": [],
      "stateMutability": "nonpayable",
      "type": "function"
    }
  ],
  "bytecode": "0x608034620003d0576001600160401b0390601f90601f196200214c388190038481018316840186811185821017620003d557849282916040528339602093849181010312620003d057516001600160a01b03948582169391849003620003d05762000069620003eb565b94601786527f44756e67656f6e2044656c766572732050726f66696c65000000000000000000838701526200009d620003eb565b600493848252632222282360e11b81830152875195848711620003bb5760009687549960019a8b81811c91168015620003b0575b858210146200039d579081878493116200034a575b508490878311600114620002e0578a92620002d4575b5050600019600383901b1c1916908a1b1787555b8251948511620002c15788548981811c91168015620002b6575b83821014620002a3579081858796959493116200024a575b5081938511600114620001e55750508592620001d9575b5050600019600383901b1c191690851b1784555b8215620001c35750600680546001600160a01b0319811684179091556040519416907f8be0079c531659141344cd1fd0a4f28419497f9722a3daafe3b4186f6b6457e09080a3600c55611d4090816200040c8239f35b60249160405191631e4fbdf760e01b8352820152fd5b01519050388062000159565b899593929193168588528388209388905b82821062000230575050841162000216575b505050811b0184556200016d565b015160001960f88460031b161c1916905538808062000208565b8484015186558b97909501949384019390810190620001f6565b9091929394508988528288208580880160051c82019285891062000299575b9188978d9297969594930160051c01915b8281106200028a57505062000142565b8a81558897508c91016200027a565b9250819262000269565b634e487b7160e01b885260228752602488fd5b90607f16906200012a565b634e487b7160e01b875260418652602487fd5b015190503880620000fc565b90848d9416918b8052868c20928c5b888282106200032a575050841162000310575b505050811b01875562000110565b015160001960f88460031b161c1916905538808062000302565b91929395968291958786015181550195019301908e9594939291620002ef565b909150898052848a208780850160051c82019287861062000393575b918e91869594930160051c01915b82811062000384575050620000e6565b8c81558594508e910162000374565b9250819262000366565b634e487b7160e01b8a526022895260248afd5b90607f1690620000d1565b604186634e487b7160e01b6000525260246000fd5b600080fd5b634e487b7160e01b600052604160045260246000fd5b60408051919082016001600160401b03811183821017620003d55760405256fe60806040908082526004918236101561001757600080fd5b600091823560e01c90816301ffc9a7146112865750806306fdde03146111df578063081812fc146111a5578063095ea7b3146111385780631e11b41f1461110257806323b872dd146110eb5780632b39b0851461104c5780633f4ba83a14610fc357806342842e0e14610fa157806355f804b314610de85780635c975abb14610dc25780636352211e14610d9257806367cfab5814610d6b5780636ab1b29b14610d2c5780636b743a2c14610d075780636c0360eb14610c5e57806370a0823114610bf0578063715018a614610b95578063817c896614610b695780638456cb5914610af85780638da5cb5b14610ad1578063938e3d7b146108ff57806395d89b4114610858578063a22cb465146107e0578063b88d4fde14610785578063bd1f1d0f1461075d578063c87b56dd14610495578063e8a3d485146103ad578063e985e9c514610360578063f2fde38b146102ba5763f3007bc41461017a57600080fd5b346102b657806003193601126102b65761019261139e565b90602435906001600160a01b03918260075416926101b18415156115bc565b82518094630c0d0d1760e41b8252818960209788935afa9081156102ac576101e5918391899161027f575b50163314611626565b6101ed611697565b841692838652600b81528286205494851561026d575b50848652600a815282862080549083820180921161025a577fa7a100dc7b9fa49f88b6c89096ad7a0688569ba48df44cdd8f0af94ca6dfc4d3959697985055858752600a815282872054908351928352820152a380f35b60248860118b634e487b7160e01b835252fd5b6102789195506116d0565b9338610203565b61029f9150873d89116102a5575b6102978183611436565b810190611607565b386101dc565b503d61028d565b84513d89823e3d90fd5b5080fd5b50823461035c57602036600319011261035c576102d561139e565b906102de611524565b6001600160a01b0380921692831561032d575050600654826001600160a01b0319821617600655167f8be0079c531659141344cd1fd0a4f28419497f9722a3daafe3b4186f6b6457e08380a380f35b908460249251917f1e4fbdf7000000000000000000000000000000000000000000000000000000008352820152fd5b8280fd5b50346102b657806003193601126102b65760ff8160209361037f61139e565b6103876113b9565b6001600160a01b0391821683526005875283832091168252855220549151911615158152f35b50346102b657816003193601126102b657805190826009546103ce816114ea565b8085529160019180831690811561046d5750600114610410575b5050506103fa8261040c940383611436565b51918291602083526020830190611379565b0390f35b9450600985527f6e1540171b6c0c960b71a7020d9f60077f6af931a8bbf590da0223dacf75c7af5b828610610455575050506103fa82602061040c95820101946103e8565b80546020878701810191909152909501948101610438565b61040c9750869350602092506103fa94915060ff191682840152151560051b820101946103e8565b50346102b6576020918260031936011261075a578335906104b582611568565b50600854946104c3866114ea565b1561071857829082907a184f03e93ff9f4daa797ed6e38ed64bf6a1f010000000000000000838181101561070b575b5050866d04ee2d6d415b85acef8100000000808510156106fc575b5050662386f26fc10000808410156106ed575b506305f5e100808410156106de575b50612710808410156106d2575b505060648210156106c4575b600a809210156106bc575b6001918282019061057b61056683611458565b9261057389519485611436565b808452611458565b958460218a850195601f19809a01368837850101905b610680575b505050855197848995946105a9836114ea565b928a82821691826000146106595750506001146105f9575b50505091806105dd6105ea959361040c98979551938491611356565b0103908101865285611436565b51928284938452830190611379565b8993949550600882527ff3f7a9fe364faab93b216da50a3214154f22a0a2b415b23a84c8169e8b636ee35b83831061063f575050508401019190806105dd61040c6105c1565b80549783018501979097528a968a94909201918101610624565b60ff191689820152841515909402880190930195508392506105dd915061040c90506105c1565b600019019082907f30313233343536373839616263646566000000000000000000000000000000008282061a8353049085826105915750610596565b600101610553565b906064600291049101610548565b9092049101388061053c565b6008919293049201903861052f565b60109192930492019038610520565b9091929304920190863861050d565b04925085915038806104f2565b6064908585519162461bcd60e51b8352820152601860248201527f50726f66696c653a2062617365555249206e6f742073657400000000000000006044820152fd5b80fd5b50823461035c57602036600319011261035c576020928291358152600a845220549051908152f35b8284346102b65760803660031901126102b6576107a061139e565b506107a96113b9565b5060643567ffffffffffffffff811161035c573660238201121561035c576107da9250602481369301359101611474565b50611acc565b5091903461075a578260031936011261075a576107fb61139e565b506024358015150361075a57506020608492519162461bcd60e51b8352820152602560248201527f506c6179657250726f66696c653a205342542063616e6e6f74206265206170706044820152641c9bdd995960da1b6064820152fd5b50346102b657816003193601126102b65780519082600180549161087b836114ea565b8086529282811690811561046d57506001146108a3575050506103fa8261040c940383611436565b94508085527fb10e2d527612073b26eecdfd717e6a320cf44b4afac2b0732d9fcbe2b7fa0cf65b8286106108e7575050506103fa82602061040c95820101946103e8565b805460208787018101919091529095019481016108ca565b50346102b65761090e366114ab565b90610917611524565b81519367ffffffffffffffff8511610abe57506109356009546114ea565b601f8111610a5b575b50602093601f81116001146109b55790816109a4939285967f905d981207a7d0b6c62cc46ab0be2a076d0298e4a86d0ab79882dbd01ac3737896916109aa575b508160011b916000199060031b1c19161760095551918291602083526020830190611379565b0390a180f35b90508301513861097e565b600984527f6e1540171b6c0c960b71a7020d9f60077f6af931a8bbf590da0223dacf75c7af601f198216855b818110610a435750916001917f905d981207a7d0b6c62cc46ab0be2a076d0298e4a86d0ab79882dbd01ac373789697826109a497969510610a2a575b5050811b016009556103fa565b85015160001960f88460031b161c191690553880610a1d565b858801518355602097880197600190930192016109e1565b600984527f6e1540171b6c0c960b71a7020d9f60077f6af931a8bbf590da0223dacf75c7af601f860160051c81019160208710610ab4575b601f0160051c01905b818110610aa9575061093e565b848155600101610a9c565b9091508190610a93565b836041602492634e487b7160e01b835252fd5b50346102b657816003193601126102b6576020906001600160a01b03600654169051908152f35b50346102b657816003193601126102b65760207f62e78cea01bee320cd4e420270b5ea74000d11b0c9f74754ebdbfc544b05a25891610b35611524565b610b3d611697565b7401000000000000000000000000000000000000000060ff60a01b19600654161760065551338152a180f35b50346102b65760203660031901126102b657602090610b8e610b8961139e565b611b36565b9051908152f35b823461075a578060031936011261075a57610bae611524565b806001600160a01b036006546001600160a01b03198116600655167f8be0079c531659141344cd1fd0a4f28419497f9722a3daafe3b4186f6b6457e08280a380f35b50903461075a57602036600319011261075a576001600160a01b03610c1361139e565b16928315610c305750806020938392526003845220549051908152f35b9060249251917f89c62b64000000000000000000000000000000000000000000000000000000008352820152fd5b50346102b657816003193601126102b65780519082600854610c7f816114ea565b8085529160019180831690811561046d5750600114610caa575050506103fa8261040c940383611436565b9450600885527ff3f7a9fe364faab93b216da50a3214154f22a0a2b415b23a84c8169e8b636ee35b828610610cef575050506103fa82602061040c95820101946103e8565b80546020878701810191909152909501948101610cd2565b50346102b65760203660031901126102b657602090610b8e610d2761139e565b611cd6565b823461075a57602036600319011261075a576001600160a01b03610d4e61139e565b610d56611524565b166001600160a01b0319600754161760075580f35b50346102b657816003193601126102b6576020906001600160a01b03600754169051908152f35b50903461075a57602036600319011261075a57506001600160a01b03610dba60209335611568565b915191168152f35b50346102b657816003193601126102b65760209060ff60065460a01c1690519015158152f35b50346102b657610df7366114ab565b90610e00611524565b81519367ffffffffffffffff8511610abe5750610e1e6008546114ea565b601f8111610f3e575b50602093601f8111600114610e985790816109a4939285967ff9c7803e94e0d3c02900d8a90893a6d5e90dd04d32a4cfe825520f82bf9f32f69691610e8d575b508160011b916000199060031b1c19161760085551918291602083526020830190611379565b905083015138610e67565b600884527ff3f7a9fe364faab93b216da50a3214154f22a0a2b415b23a84c8169e8b636ee3601f198216855b818110610f265750916001917ff9c7803e94e0d3c02900d8a90893a6d5e90dd04d32a4cfe825520f82bf9f32f69697826109a497969510610f0d575b5050811b016008556103fa565b85015160001960f88460031b161c191690553880610f00565b85880151835560209788019760019093019201610ec4565b600884527ff3f7a9fe364faab93b216da50a3214154f22a0a2b415b23a84c8169e8b636ee3601f860160051c81019160208710610f97575b601f0160051c01905b818110610f8c5750610e27565b848155600101610f7f565b9091508190610f76565b50346102b657610fb0366113cf565b50505051610fbd81611404565b52611acc565b50823461035c578260031936011261035c57610fdd611524565b6006549060ff8260a01c161561102557507f5db9ee0a495bf2e6ff9c91a7834c1ba4fdd244a5e8aa4e537bd38aeae4b073aa9160ff60a01b196020921660065551338152a180f35b82517f8dfc202b000000000000000000000000000000000000000000000000000000008152fd5b50823461035c57602036600319011261035c5761106761139e565b906001600160a01b0390602082600754166110838115156115bc565b855192838092630c0d0d1760e41b82525afa9081156110e157916110b791610b8e9493602097916110c45750163314611626565b6110bf611697565b6116d0565b6110db9150873d81116102a5576102978183611436565b876101dc565b84513d87823e3d90fd5b823461075a576110fa366113cf565b505050611acc565b50346102b65760203660031901126102b657806020926001600160a01b0361112861139e565b168152600b845220549051908152f35b5091903461075a578260031936011261075a5750602060849261115961139e565b50519162461bcd60e51b8352820152602560248201527f506c6179657250726f66696c653a205342542063616e6e6f74206265206170706044820152641c9bdd995960da1b6064820152fd5b50823461035c57602036600319011261035c5781602093826001600160a01b0393356111d081611568565b50825285522054169051908152f35b50346102b657816003193601126102b6578051908280546111ff816114ea565b8085529160019180831690811561046d575060011461122a575050506103fa8261040c940383611436565b80809650527f290decd9548b62a8d60345a988386fc84ba6bc95484008f6362f93160ef3e5635b82861061126e575050506103fa82602061040c95820101946103e8565b80546020878701810191909152909501948101611251565b8390853461035c57602036600319011261035c57357fffffffff00000000000000000000000000000000000000000000000000000000811680910361035c57602092507f80ac58cd00000000000000000000000000000000000000000000000000000000811490811561132c575b8115611302575b5015158152f35b7f01ffc9a700000000000000000000000000000000000000000000000000000000915014836112fb565b7f5b5e139f00000000000000000000000000000000000000000000000000000000811491506112f4565b60005b8381106113695750506000910152565b8181015183820152602001611359565b9060209161139281518092818552858086019101611356565b601f01601f1916010190565b600435906001600160a01b03821682036113b457565b600080fd5b602435906001600160a01b03821682036113b457565b60609060031901126113b4576001600160a01b039060043582811681036113b4579160243590811681036113b4579060443590565b6020810190811067ffffffffffffffff82111761142057604052565b634e487b7160e01b600052604160045260246000fd5b90601f8019910116810190811067ffffffffffffffff82111761142057604052565b67ffffffffffffffff811161142057601f01601f191660200190565b92919261148082611458565b9161148e6040519384611436565b8294818452818301116113b4578281602093846000960137010152565b60206003198201126113b4576004359067ffffffffffffffff82116113b457806023830112156113b4578160246114e793600401359101611474565b90565b90600182811c9216801561151a575b602083101461150457565b634e487b7160e01b600052602260045260246000fd5b91607f16916114f9565b6001600160a01b0360065416330361153857565b60246040517f118cdaa7000000000000000000000000000000000000000000000000000000008152336004820152fd5b8060005260026020526001600160a01b036040600020541690811561158b575090565b602490604051907f7e2732890000000000000000000000000000000000000000000000000000000082526004820152fd5b156115c357565b606460405162461bcd60e51b815260206004820152601c60248201527f50726f66696c653a2044756e67656f6e436f7265206e6f7420736574000000006044820152fd5b908160209103126113b457516001600160a01b03811681036113b45790565b1561162d57565b608460405162461bcd60e51b815260206004820152602860248201527f50726f66696c653a2043616c6c6572206973206e6f74207468652044756e676560448201527f6f6e4d61737465720000000000000000000000000000000000000000000000006064820152fd5b60ff60065460a01c166116a657565b60046040517fd93c0665000000000000000000000000000000000000000000000000000000008152fd5b906001600160a01b03918281166000938185526020600b815260409182872054611a4357600c5494600019808714611a2f5760018701600c5584519261171584611404565b8984528615611a1857878a526002855280868b2054166119af57878a5260028552858a205416908115159081611984575b50868a5260038552858a2060018154019055878a5260028552858a20876001600160a01b031982541617905587878751937fddf252ad1be2c89b69c2b068fc378daa952ba7f163c4a11628f55a4df523b3ef8d80a461195657503b6117e8575b5094807fcb939889322fed25104a5d8945bde5162563412a1fd718946cdcacb03088ea0892600a869798868452600b815287838520558784525281205580a390565b8294919395925184818061183d7f150b7a0200000000000000000000000000000000000000000000000000000000958683523360048401528c6024840152876044840152608060648401526084830190611379565b03818b8b5af18891816118fa575b506118ab57505050503d6000146118a2573d61186681611458565b9061187384519283611436565b81528094823d92013e5b8351938461189c57602484845190633250574960e11b82526004820152fd5b84925001fd5b6060935061187d565b7fffffffff00000000000000000000000000000000000000000000000000000000909793969492959716036118e357909490856117a6565b602483875190633250574960e11b82526004820152fd5b9091508581813d831161194f575b6119128183611436565b8101031261194b57517fffffffff000000000000000000000000000000000000000000000000000000008116810361194b57903861184b565b8880fd5b503d611908565b80897f73c6ac6e00000000000000000000000000000000000000000000000000000000602493526004820152fd5b60048652868b206001600160a01b03198154169055828b5260038652868b2090815401905538611746565b60848587519062461bcd60e51b82526004820152602b60248201527f506c6179657250726f66696c653a205468697320534254206973206e6f6e2d7460448201527f72616e7366657261626c650000000000000000000000000000000000000000006064820152fd5b60248a875190633250574960e11b82526004820152fd5b602489634e487b7160e01b81526011600452fd5b50608491519062461bcd60e51b82526004820152602560248201527f506c6179657250726f66696c653a2050726f66696c6520616c7265616479206560448201527f78697374730000000000000000000000000000000000000000000000000000006064820152fd5b8115611ab6570490565b634e487b7160e01b600052601260045260246000fd5b608460405162461bcd60e51b815260206004820152602860248201527f506c6179657250726f66696c653a205342542063616e6e6f742062652074726160448201527f6e736665727265640000000000000000000000000000000000000000000000006064820152fd5b6001600160a01b03600091168152600b60205260408120548015611b9f578152600a602052604081205460648110611b98576064611b749104611ba3565b9060018201809211611b84575090565b80634e487b7160e01b602492526011600452fd5b5050600190565b5090565b600180821115611b9f57611c72908083700100000000000000000000000000000000811015611cbf575b80680100000000000000006004921015611cb2575b640100000000811015611ca5575b62010000811015611c98575b610100811015611c8c575b6010811015611c80575b1015611c79575b600302811c611c278185611aac565b01811c611c348185611aac565b01811c611c418185611aac565b01811c611c4e8185611aac565b01811c611c5b8185611aac565b01811c611c688185611aac565b01901c8092611aac565b8111900390565b811b611c18565b811c9160021b91611c11565b60081c91811b91611c07565b60101c9160081b91611bfc565b60201c9160101b91611bf0565b60401c9160201b91611be2565b50680100000000000000009050608084901c611bcd565b6001600160a01b0316600052600b6020526040600020548015611d0457600052600a60205260406000205490565b5060009056fea26469706673582212202c593894bbdab3e1e8203befabc842d29313c473cfad4e785c4b8e49a939aa5164736f6c63430008140033",
  "linkReferences": {},
  "deployedLinkReferences": {}
}