{
  "_format": "hh-sol-artifact-1",
  "contractName": "Relic",
  "sourceName": "contracts/current/nft/Relic.sol",
  "abi": [
    {
      "inputs": [
        {
          "internalType": "address",
          "name": "initialOwner",
          "type": "address"
        }
      ],
      "stateMutability": "nonpayable",
      "type": "constructor"
    },
    {
      "inputs": [
        {
          "internalType": "address",
          "name": "sender",
          "type": "address"
        },
        {
          "internalType": "uint256",
          "name": "tokenId",
          "type": "uint256"
        },
        {
          "internalType": "address",
          "name": "owner",
          "type": "address"
        }
      ],
      "name": "ERC721IncorrectOwner",
      "type": "error"
    },
    {
      "inputs": [
        {
          "internalType": "address",
          "name": "operator",
          "type": "address"
        },
        {
          "internalType": "uint256",
          "name": "tokenId",
          "type": "uint256"
        }
      ],
      "name": "ERC721InsufficientApproval",
      "type": "error"
    },
    {
      "inputs": [
        {
          "internalType": "address",
          "name": "approver",
          "type": "address"
        }
      ],
      "name": "ERC721InvalidApprover",
      "type": "error"
    },
    {
      "inputs": [
        {
          "internalType": "address",
          "name": "operator",
          "type": "address"
        }
      ],
      "name": "ERC721InvalidOperator",
      "type": "error"
    },
    {
      "inputs": [
        {
          "internalType": "address",
          "name": "owner",
          "type": "address"
        }
      ],
      "name": "ERC721InvalidOwner",
      "type": "error"
    },
    {
      "inputs": [
        {
          "internalType": "address",
          "name": "receiver",
          "type": "address"
        }
      ],
      "name": "ERC721InvalidReceiver",
      "type": "error"
    },
    {
      "inputs": [
        {
          "internalType": "address",
          "name": "sender",
          "type": "address"
        }
      ],
      "name": "ERC721InvalidSender",
      "type": "error"
    },
    {
      "inputs": [
        {
          "internalType": "uint256",
          "name": "tokenId",
          "type": "uint256"
        }
      ],
      "name": "ERC721NonexistentToken",
      "type": "error"
    },
    {
      "inputs": [],
      "name": "EnforcedPause",
      "type": "error"
    },
    {
      "inputs": [],
      "name": "ExpectedPause",
      "type": "error"
    },
    {
      "inputs": [
        {
          "internalType": "address",
          "name": "owner",
          "type": "address"
        }
      ],
      "name": "OwnableInvalidOwner",
      "type": "error"
    },
    {
      "inputs": [
        {
          "internalType": "address",
          "name": "account",
          "type": "address"
        }
      ],
      "name": "OwnableUnauthorizedAccount",
      "type": "error"
    },
    {
      "inputs": [],
      "name": "ReentrancyGuardReentrantCall",
      "type": "error"
    },
    {
      "inputs": [
        {
          "internalType": "address",
          "name": "token",
          "type": "address"
        }
      ],
      "name": "SafeERC20FailedOperation",
      "type": "error"
    },
    {
      "anonymous": false,
      "inputs": [
        {
          "indexed": true,
          "internalType": "address",
          "name": "owner",
          "type": "address"
        },
        {
          "indexed": true,
          "internalType": "address",
          "name": "approved",
          "type": "address"
        },
        {
          "indexed": true,
          "internalType": "uint256",
          "name": "tokenId",
          "type": "uint256"
        }
      ],
      "name": "Approval",
      "type": "event"
    },
    {
      "anonymous": false,
      "inputs": [
        {
          "indexed": true,
          "internalType": "address",
          "name": "owner",
          "type": "address"
        },
        {
          "indexed": true,
          "internalType": "address",
          "name": "operator",
          "type": "address"
        },
        {
          "indexed": false,
          "internalType": "bool",
          "name": "approved",
          "type": "bool"
        }
      ],
      "name": "ApprovalForAll",
      "type": "event"
    },
    {
      "anonymous": false,
      "inputs": [
        {
          "indexed": true,
          "internalType": "address",
          "name": "newAddress",
          "type": "address"
        }
      ],
      "name": "AscensionAltarSet",
      "type": "event"
    },
    {
      "anonymous": false,
      "inputs": [
        {
          "indexed": false,
          "internalType": "string",
          "name": "newBaseURI",
          "type": "string"
        }
      ],
      "name": "BaseURISet",
      "type": "event"
    },
    {
      "anonymous": false,
      "inputs": [
        {
          "indexed": true,
          "internalType": "address",
          "name": "player",
          "type": "address"
        },
        {
          "indexed": false,
          "internalType": "uint256",
          "name": "quantity",
          "type": "uint256"
        },
        {
          "indexed": false,
          "internalType": "uint8",
          "name": "maxRarity",
          "type": "uint8"
        },
        {
          "indexed": false,
          "internalType": "uint256[]",
          "name": "tokenIds",
          "type": "uint256[]"
        }
      ],
      "name": "BatchMintCompleted",
      "type": "event"
    },
    {
      "anonymous": false,
      "inputs": [
        {
          "indexed": false,
          "internalType": "string",
          "name": "newContractURI",
          "type": "string"
        }
      ],
      "name": "ContractURIUpdated",
      "type": "event"
    },
    {
      "anonymous": false,
      "inputs": [
        {
          "indexed": true,
          "internalType": "address",
          "name": "core",
          "type": "address"
        },
        {
          "indexed": true,
          "internalType": "address",
          "name": "token",
          "type": "address"
        }
      ],
      "name": "ContractsSet",
      "type": "event"
    },
    {
      "anonymous": false,
      "inputs": [
        {
          "indexed": true,
          "internalType": "address",
          "name": "player",
          "type": "address"
        },
        {
          "indexed": false,
          "internalType": "uint256",
          "name": "quantity",
          "type": "uint256"
        },
        {
          "indexed": false,
          "internalType": "bool",
          "name": "fromVault",
          "type": "bool"
        }
      ],
      "name": "MintRequested",
      "type": "event"
    },
    {
      "anonymous": false,
      "inputs": [
        {
          "indexed": true,
          "internalType": "address",
          "name": "previousOwner",
          "type": "address"
        },
        {
          "indexed": true,
          "internalType": "address",
          "name": "newOwner",
          "type": "address"
        }
      ],
      "name": "OwnershipTransferred",
      "type": "event"
    },
    {
      "anonymous": false,
      "inputs": [
        {
          "indexed": false,
          "internalType": "address",
          "name": "account",
          "type": "address"
        }
      ],
      "name": "Paused",
      "type": "event"
    },
    {
      "anonymous": false,
      "inputs": [
        {
          "indexed": true,
          "internalType": "uint256",
          "name": "tokenId",
          "type": "uint256"
        },
        {
          "indexed": true,
          "internalType": "address",
          "name": "owner",
          "type": "address"
        },
        {
          "indexed": false,
          "internalType": "uint8",
          "name": "rarity",
          "type": "uint8"
        },
        {
          "indexed": false,
          "internalType": "uint8",
          "name": "capacity",
          "type": "uint8"
        }
      ],
      "name": "RelicBurned",
      "type": "event"
    },
    {
      "anonymous": false,
      "inputs": [
        {
          "indexed": true,
          "internalType": "uint256",
          "name": "tokenId",
          "type": "uint256"
        },
        {
          "indexed": true,
          "internalType": "address",
          "name": "owner",
          "type": "address"
        },
        {
          "indexed": false,
          "internalType": "uint8",
          "name": "rarity",
          "type": "uint8"
        },
        {
          "indexed": false,
          "internalType": "uint8",
          "name": "capacity",
          "type": "uint8"
        }
      ],
      "name": "RelicMinted",
      "type": "event"
    },
    {
      "anonymous": false,
      "inputs": [
        {
          "indexed": true,
          "internalType": "address",
          "name": "from",
          "type": "address"
        },
        {
          "indexed": true,
          "internalType": "address",
          "name": "to",
          "type": "address"
        },
        {
          "indexed": true,
          "internalType": "uint256",
          "name": "tokenId",
          "type": "uint256"
        }
      ],
      "name": "Transfer",
      "type": "event"
    },
    {
      "anonymous": false,
      "inputs": [
        {
          "indexed": false,
          "internalType": "address",
          "name": "account",
          "type": "address"
        }
      ],
      "name": "Unpaused",
      "type": "event"
    },
    {
      "anonymous": false,
      "inputs": [
        {
          "indexed": true,
          "internalType": "address",
          "name": "vrfManager",
          "type": "address"
        }
      ],
      "name": "VRFManagerSet",
      "type": "event"
    },
    {
      "inputs": [
        {
          "internalType": "address",
          "name": "to",
          "type": "address"
        },
        {
          "internalType": "uint256",
          "name": "tokenId",
          "type": "uint256"
        }
      ],
      "name": "approve",
      "outputs": [],
      "stateMutability": "nonpayable",
      "type": "function"
    },
    {
      "inputs": [],
      "name": "ascensionAltarAddress",
      "outputs": [
        {
          "internalType": "address",
          "name": "",
          "type": "address"
        }
      ],
      "stateMutability": "view",
      "type": "function"
    },
    {
      "inputs": [
        {
          "internalType": "address",
          "name": "owner",
          "type": "address"
        }
      ],
      "name": "balanceOf",
      "outputs": [
        {
          "internalType": "uint256",
          "name": "",
          "type": "uint256"
        }
      ],
      "stateMutability": "view",
      "type": "function"
    },
    {
      "inputs": [],
      "name": "baseURI",
      "outputs": [
        {
          "internalType": "string",
          "name": "",
          "type": "string"
        }
      ],
      "stateMutability": "view",
      "type": "function"
    },
    {
      "inputs": [
        {
          "internalType": "uint256",
          "name": "_tokenId",
          "type": "uint256"
        }
      ],
      "name": "burnFromAltar",
      "outputs": [],
      "stateMutability": "nonpayable",
      "type": "function"
    },
    {
      "inputs": [],
      "name": "contractURI",
      "outputs": [
        {
          "internalType": "string",
          "name": "",
          "type": "string"
        }
      ],
      "stateMutability": "view",
      "type": "function"
    },
    {
      "inputs": [],
      "name": "dungeonCore",
      "outputs": [
        {
          "internalType": "contract IDungeonCore",
          "name": "",
          "type": "address"
        }
      ],
      "stateMutability": "view",
      "type": "function"
    },
    {
      "inputs": [
        {
          "internalType": "uint256",
          "name": "tokenId",
          "type": "uint256"
        }
      ],
      "name": "getApproved",
      "outputs": [
        {
          "internalType": "address",
          "name": "",
          "type": "address"
        }
      ],
      "stateMutability": "view",
      "type": "function"
    },
    {
      "inputs": [
        {
          "internalType": "uint256",
          "name": "tokenId",
          "type": "uint256"
        }
      ],
      "name": "getRelicProperties",
      "outputs": [
        {
          "internalType": "uint8",
          "name": "rarity",
          "type": "uint8"
        },
        {
          "internalType": "uint8",
          "name": "capacity",
          "type": "uint8"
        }
      ],
      "stateMutability": "view",
      "type": "function"
    },
    {
      "inputs": [
        {
          "internalType": "uint256",
          "name": "_quantity",
          "type": "uint256"
        }
      ],
      "name": "getRequiredSoulShardAmount",
      "outputs": [
        {
          "internalType": "uint256",
          "name": "",
          "type": "uint256"
        }
      ],
      "stateMutability": "view",
      "type": "function"
    },
    {
      "inputs": [
        {
          "internalType": "address",
          "name": "_user",
          "type": "address"
        }
      ],
      "name": "getUserRequest",
      "outputs": [
        {
          "components": [
            {
              "internalType": "uint256",
              "name": "quantity",
              "type": "uint256"
            },
            {
              "internalType": "uint256",
              "name": "payment",
              "type": "uint256"
            },
            {
              "internalType": "bool",
              "name": "fulfilled",
              "type": "bool"
            },
            {
              "internalType": "uint8",
              "name": "maxRarity",
              "type": "uint8"
            },
            {
              "internalType": "bool",
              "name": "fromVault",
              "type": "bool"
            },
            {
              "internalType": "uint256[]",
              "name": "pendingTokenIds",
              "type": "uint256[]"
            }
          ],
          "internalType": "struct Relic.MintRequest",
          "name": "",
          "type": "tuple"
        }
      ],
      "stateMutability": "view",
      "type": "function"
    },
    {
      "inputs": [
        {
          "internalType": "address",
          "name": "owner",
          "type": "address"
        },
        {
          "internalType": "address",
          "name": "operator",
          "type": "address"
        }
      ],
      "name": "isApprovedForAll",
      "outputs": [
        {
          "internalType": "bool",
          "name": "",
          "type": "bool"
        }
      ],
      "stateMutability": "view",
      "type": "function"
    },
    {
      "inputs": [
        {
          "internalType": "address",
          "name": "_to",
          "type": "address"
        },
        {
          "internalType": "uint8",
          "name": "_rarity",
          "type": "uint8"
        },
        {
          "internalType": "uint8",
          "name": "_capacity",
          "type": "uint8"
        }
      ],
      "name": "mintFromAltar",
      "outputs": [
        {
          "internalType": "uint256",
          "name": "",
          "type": "uint256"
        }
      ],
      "stateMutability": "nonpayable",
      "type": "function"
    },
    {
      "inputs": [
        {
          "internalType": "uint256",
          "name": "_quantity",
          "type": "uint256"
        }
      ],
      "name": "mintFromVault",
      "outputs": [],
      "stateMutability": "payable",
      "type": "function"
    },
    {
      "inputs": [
        {
          "internalType": "uint256",
          "name": "_quantity",
          "type": "uint256"
        }
      ],
      "name": "mintFromWallet",
      "outputs": [],
      "stateMutability": "payable",
      "type": "function"
    },
    {
      "inputs": [],
      "name": "mintPriceUSD",
      "outputs": [
        {
          "internalType": "uint256",
          "name": "",
          "type": "uint256"
        }
      ],
      "stateMutability": "view",
      "type": "function"
    },
    {
      "inputs": [],
      "name": "name",
      "outputs": [
        {
          "internalType": "string",
          "name": "",
          "type": "string"
        }
      ],
      "stateMutability": "view",
      "type": "function"
    },
    {
      "inputs": [
        {
          "internalType": "uint256",
          "name": "requestId",
          "type": "uint256"
        },
        {
          "internalType": "uint256[]",
          "name": "randomWords",
          "type": "uint256[]"
        }
      ],
      "name": "onVRFFulfilled",
      "outputs": [],
      "stateMutability": "nonpayable",
      "type": "function"
    },
    {
      "inputs": [],
      "name": "owner",
      "outputs": [
        {
          "internalType": "address",
          "name": "",
          "type": "address"
        }
      ],
      "stateMutability": "view",
      "type": "function"
    },
    {
      "inputs": [
        {
          "internalType": "uint256",
          "name": "tokenId",
          "type": "uint256"
        }
      ],
      "name": "ownerOf",
      "outputs": [
        {
          "internalType": "address",
          "name": "",
          "type": "address"
        }
      ],
      "stateMutability": "view",
      "type": "function"
    },
    {
      "inputs": [],
      "name": "pause",
      "outputs": [],
      "stateMutability": "nonpayable",
      "type": "function"
    },
    {
      "inputs": [],
      "name": "paused",
      "outputs": [
        {
          "internalType": "bool",
          "name": "",
          "type": "bool"
        }
      ],
      "stateMutability": "view",
      "type": "function"
    },
    {
      "inputs": [],
      "name": "platformFee",
      "outputs": [
        {
          "internalType": "uint256",
          "name": "",
          "type": "uint256"
        }
      ],
      "stateMutability": "view",
      "type": "function"
    },
    {
      "inputs": [
        {
          "internalType": "uint256",
          "name": "",
          "type": "uint256"
        }
      ],
      "name": "relicData",
      "outputs": [
        {
          "internalType": "uint8",
          "name": "rarity",
          "type": "uint8"
        },
        {
          "internalType": "uint8",
          "name": "capacity",
          "type": "uint8"
        },
        {
          "internalType": "bool",
          "name": "isRevealed",
          "type": "bool"
        }
      ],
      "stateMutability": "view",
      "type": "function"
    },
    {
      "inputs": [],
      "name": "renounceOwnership",
      "outputs": [],
      "stateMutability": "nonpayable",
      "type": "function"
    },
    {
      "inputs": [
        {
          "internalType": "uint256",
          "name": "",
          "type": "uint256"
        }
      ],
      "name": "requestIdToUser",
      "outputs": [
        {
          "internalType": "address",
          "name": "",
          "type": "address"
        }
      ],
      "stateMutability": "view",
      "type": "function"
    },
    {
      "inputs": [
        {
          "internalType": "address",
          "name": "from",
          "type": "address"
        },
        {
          "internalType": "address",
          "name": "to",
          "type": "address"
        },
        {
          "internalType": "uint256",
          "name": "tokenId",
          "type": "uint256"
        }
      ],
      "name": "safeTransferFrom",
      "outputs": [],
      "stateMutability": "nonpayable",
      "type": "function"
    },
    {
      "inputs": [
        {
          "internalType": "address",
          "name": "from",
          "type": "address"
        },
        {
          "internalType": "address",
          "name": "to",
          "type": "address"
        },
        {
          "internalType": "uint256",
          "name": "tokenId",
          "type": "uint256"
        },
        {
          "internalType": "bytes",
          "name": "data",
          "type": "bytes"
        }
      ],
      "name": "safeTransferFrom",
      "outputs": [],
      "stateMutability": "nonpayable",
      "type": "function"
    },
    {
      "inputs": [
        {
          "internalType": "address",
          "name": "operator",
          "type": "address"
        },
        {
          "internalType": "bool",
          "name": "approved",
          "type": "bool"
        }
      ],
      "name": "setApprovalForAll",
      "outputs": [],
      "stateMutability": "nonpayable",
      "type": "function"
    },
    {
      "inputs": [
        {
          "internalType": "address",
          "name": "_address",
          "type": "address"
        }
      ],
      "name": "setAscensionAltarAddress",
      "outputs": [],
      "stateMutability": "nonpayable",
      "type": "function"
    },
    {
      "inputs": [
        {
          "internalType": "string",
          "name": "_newBaseURI",
          "type": "string"
        }
      ],
      "name": "setBaseURI",
      "outputs": [],
      "stateMutability": "nonpayable",
      "type": "function"
    },
    {
      "inputs": [
        {
          "internalType": "string",
          "name": "newContractURI",
          "type": "string"
        }
      ],
      "name": "setContractURI",
      "outputs": [],
      "stateMutability": "nonpayable",
      "type": "function"
    },
    {
      "inputs": [
        {
          "internalType": "address",
          "name": "_address",
          "type": "address"
        }
      ],
      "name": "setDungeonCore",
      "outputs": [],
      "stateMutability": "nonpayable",
      "type": "function"
    },
    {
      "inputs": [
        {
          "internalType": "uint256",
          "name": "_newPrice",
          "type": "uint256"
        }
      ],
      "name": "setMintPriceUSD",
      "outputs": [],
      "stateMutability": "nonpayable",
      "type": "function"
    },
    {
      "inputs": [
        {
          "internalType": "uint256",
          "name": "_newFee",
          "type": "uint256"
        }
      ],
      "name": "setPlatformFee",
      "outputs": [],
      "stateMutability": "nonpayable",
      "type": "function"
    },
    {
      "inputs": [
        {
          "internalType": "address",
          "name": "_address",
          "type": "address"
        }
      ],
      "name": "setSoulShardToken",
      "outputs": [],
      "stateMutability": "nonpayable",
      "type": "function"
    },
    {
      "inputs": [
        {
          "internalType": "address",
          "name": "_vrfManager",
          "type": "address"
        }
      ],
      "name": "setVRFManager",
      "outputs": [],
      "stateMutability": "nonpayable",
      "type": "function"
    },
    {
      "inputs": [],
      "name": "soulShardToken",
      "outputs": [
        {
          "internalType": "contract IERC20",
          "name": "",
          "type": "address"
        }
      ],
      "stateMutability": "view",
      "type": "function"
    },
    {
      "inputs": [
        {
          "internalType": "bytes4",
          "name": "interfaceId",
          "type": "bytes4"
        }
      ],
      "name": "supportsInterface",
      "outputs": [
        {
          "internalType": "bool",
          "name": "",
          "type": "bool"
        }
      ],
      "stateMutability": "view",
      "type": "function"
    },
    {
      "inputs": [],
      "name": "symbol",
      "outputs": [
        {
          "internalType": "string",
          "name": "",
          "type": "string"
        }
      ],
      "stateMutability": "view",
      "type": "function"
    },
    {
      "inputs": [
        {
          "internalType": "uint256",
          "name": "tokenId",
          "type": "uint256"
        }
      ],
      "name": "tokenURI",
      "outputs": [
        {
          "internalType": "string",
          "name": "",
          "type": "string"
        }
      ],
      "stateMutability": "view",
      "type": "function"
    },
    {
      "inputs": [
        {
          "internalType": "address",
          "name": "from",
          "type": "address"
        },
        {
          "internalType": "address",
          "name": "to",
          "type": "address"
        },
        {
          "internalType": "uint256",
          "name": "tokenId",
          "type": "uint256"
        }
      ],
      "name": "transferFrom",
      "outputs": [],
      "stateMutability": "nonpayable",
      "type": "function"
    },
    {
      "inputs": [
        {
          "internalType": "address",
          "name": "newOwner",
          "type": "address"
        }
      ],
      "name": "transferOwnership",
      "outputs": [],
      "stateMutability": "nonpayable",
      "type": "function"
    },
    {
      "inputs": [],
      "name": "unpause",
      "outputs": [],
      "stateMutability": "nonpayable",
      "type": "function"
    },
    {
      "inputs": [
        {
          "internalType": "address",
          "name": "",
          "type": "address"
        }
      ],
      "name": "userRequests",
      "outputs": [
        {
          "internalType": "uint256",
          "name": "quantity",
          "type": "uint256"
        },
        {
          "internalType": "uint256",
          "name": "payment",
          "type": "uint256"
        },
        {
          "internalType": "bool",
          "name": "fulfilled",
          "type": "bool"
        },
        {
          "internalType": "uint8",
          "name": "maxRarity",
          "type": "uint8"
        },
        {
          "internalType": "bool",
          "name": "fromVault",
          "type": "bool"
        }
      ],
      "stateMutability": "view",
      "type": "function"
    },
    {
      "inputs": [],
      "name": "vrfManager",
      "outputs": [
        {
          "internalType": "address",
          "name": "",
          "type": "address"
        }
      ],
      "stateMutability": "view",
      "type": "function"
    },
    {
      "inputs": [],
      "name": "withdrawNativeFunding",
      "outputs": [],
      "stateMutability": "nonpayable",
      "type": "function"
    },
    {
      "inputs": [],
      "name": "withdrawSoulShard",
      "outputs": [],
      "stateMutability": "nonpayable",
      "type": "function"
    },
    {
      "stateMutability": "payable",
      "type": "receive"
    }
  ],
  "bytecode": "0x608034620003e457601f906001600160401b03601f1962003980388190038581018316850184811186821017620003ce57859282916040528339602094859181010312620003e457516001600160a01b03948582169391849003620003e45762000068620003e9565b94601586527f44756e67656f6e2044656c766572732052656c69630000000000000000000000818701526200009c620003e9565b90600382526222222960e91b81830152865194848611620003ce576000958654986001998a81811c91168015620003c3575b85821014620003af579081878493116200035c575b508490878311600114620002fb578992620002ef575b5050600019600383901b1c191690891b1786555b8251948511620002db5787548881811c91168015620002d0575b83821014620002bc5790818587969594931162000263575b5081938511600114620001fe5750508492620001f2575b5050600019600383901b1c191690841b1783555b8115620001da57600680546001600160a01b0319811684179091556040519416907f8be0079c531659141344cd1fd0a4f28419497f9722a3daafe3b4186f6b6457e09080a380600755671bc16d674ec80000601255660110d9316ec00060135560115561357690816200040a8239f35b60249060405190631e4fbdf760e01b82526004820152fd5b01519050388062000156565b889593929193168587528387209387905b8282106200024957505084116200022f575b505050811b0183556200016a565b015160001960f88460031b161c1916905538808062000221565b8484015186558a979095019493840193908101906200020f565b9091929394508887528287208580880160051c820192858910620002b2575b9188978c9297969594930160051c01915b828110620002a35750506200013f565b8981558897508b910162000293565b9250819262000282565b634e487b7160e01b87526022600452602487fd5b90607f169062000127565b634e487b7160e01b86526041600452602486fd5b015190503880620000f9565b90848c9416918a8052868b20928b5b888282106200034557505084116200032b575b505050811b0186556200010d565b015160001960f88460031b161c191690553880806200031d565b8385015186558f979095019493840193016200030a565b9091508880528489208780850160051c820192878610620003a5575b918d91869594930160051c01915b82811062000396575050620000e3565b8b81558594508d910162000386565b9250819262000378565b634e487b7160e01b89526022600452602489fd5b90607f1690620000ce565b634e487b7160e01b600052604160045260246000fd5b600080fd5b60408051919082016001600160401b03811183821017620003ce5760405256fe60406080815260049081361015610020575b5050361561001e57600080fd5b005b600091823560e01c806268f22e1461248757806301ffc9a7146123ce57806306fdde0314612326578063081812fc146122ed578063095ea7b3146121fa57806312e8e2c3146121d85780631cbb4131146121865780631dafec001461206257806323b872dd1461204a57806326232a2e1461202b5780632a32e8d414611f9f5780633f4ba83a14611f1d57806342842e0e14611eee5780634350772c14611ec65780634403940214611e9e57806355f804b314611cf85780635c975abb14611cd45780636352211e14611ca457806367cfab5814611c7c5780636ab1b29b14611c105780636aef506914611ab25780636c0360eb14611a0857806370a082311461199a578063715018a61461193f5780637a33eabc146118db5780638456cb59146118805780638da5cb5b14611858578063938e3d7b1461168e57806395d89b41146115bd5780639b41886c1461159e578063a22cb465146114df578063b1d78c9a146114b8578063b88d4fde14611445578063bfbfccb2146113cf578063c1b39a3e146113a7578063c47d435714611324578063c820c7f114611207578063c87b56dd14610f40578063c886015d14610b41578063d0fdcc091461065e578063d6042eb81461056c578063db4b826814610501578063dc7d73bb146104d1578063e8601c6614610466578063e8a3d48514610379578063e985e9c514610324578063f2fde38b146102825763f30cf6b61461023c5750610011565b3461027e57602036600319011261027e576060928291358152600b60205220549060ff8151928181168452818160081c16602085015260101c16151590820152f35b8280fd5b503461027e57602036600319011261027e5761029c6124eb565b906102a5612738565b6001600160a01b038092169283156102f5575050600654826001600160a01b0319821617600655167f8be0079c531659141344cd1fd0a4f28419497f9722a3daafe3b4186f6b6457e0600080a380f35b908460249251917f1e4fbdf7000000000000000000000000000000000000000000000000000000008352820152fd5b5050346103755780600319360112610375576020916103416124eb565b8261034a612501565b926001600160a01b03809316815260058652209116600052825260ff81600020541690519015158152f35b5080fd5b828434610463578060031936011261046357508051600091600a5461039d816126ca565b8084529060019081811690811561043b57506001146103de575b50506103c8826103da9403836125fe565b5191829160208352602083019061253a565b0390f35b600a600090815294507fc65a7bb8d6351c1cf70c95a316cc6a92839c986682d98bc35f958f4883f9d2a85b82861061042357505050918101602001916103c8826103b7565b80546020878701810191909152909501948101610409565b6103da965085925060209150926103c89360ff191682840152151560051b82010194506103b7565b80fd5b5050346103755760203660031901126103755760ff8160a0936001600160a01b0361048f6124eb565b168152601460205220805492600260018301549201549181519485526020850152828216151590840152818160081c16606084015260101c1615156080820152f35b503461027e57602036600319011261027e57816020936001600160a01b0392358152601085522054169051908152f35b83346104635760203660031901126104635761051b6124eb565b610523612738565b6001600160a01b0380911690816001600160a01b0319600d541617600d55600c54167f14662a0fccd762a05d5e1fa6afdd204554c4cf90fe58b5c5947f664fb71925f58380a380f35b505034610375576020918260031936011261046357816103da916001600160a01b036105966124eb565b606060a085516105a5816125c6565b858152858a82015285878201528583820152856080820152015216815260148552208251926105d3846125c6565b8154845260ff600183015492868601938452600281015492808701908385161515825261061c600360608a0194868860081c1686528660808c019860101c161515885201613370565b9560a089019687528151998a99818b5251908a0152519088015251151560608701525116608085015251151560a08401525160c08084015260e0830190612704565b509060209081600319360112610b3d57823591610679612fc3565b610681612f8d565b82151580610b32575b61069390612adb565b338552601481526106b1828620805415908115610b23575b50612b4c565b6106ba83613430565b936106c784601354612bbd565b3410610abc57856001600160a01b0395828488600c54168751928380927f29bdca370000000000000000000000000000000000000000000000000000000082525afa908115610ab2579088918491610a85575b501690813b1561027e5785517fd064ff190000000000000000000000000000000000000000000000000000000081523385820190815260208101929092529291839182908490829060400103925af180156109a757610a57575b50858261078086612be6565b96825b8781106109b1575085513360601b6bffffffffffffffffffffffff19168382019081526014810189905261081c92916107c981603484015b03601f1981018352826125fe565b51902090600f5416906107dd821515612c51565b875194858094819363435639fb60e11b8352338a8401606090939291936001600160a01b03608082019516815260016020820152600560408201520152565b03925af19081156109a7578791610975575b508652601082528286203381546001600160a01b031916179055825194610854866125c6565b84865282860195348752848101888152606082016005815260808301906001998a835260a08501958652338c5260148852888c2094518555518a85015560028401925115156108af90849060ff801983541691151516179055565b51825461ff00191660089190911b61ff001617825551815462ff0000191690151560101b62ff000016179055600301905180519267ffffffffffffffff84116109625750918387936109048385989795612cb3565b019488528188209488955b82871061094d575050507f61e364e3eabc785119e074fc551f39d64063d113dd457cccf0f14a6fcb3ede4f935082519485528401523392a260075580f35b8151878201559590930194879383019061090f565b886041602492634e487b7160e01b835252fd5b90508281813d83116109a0575b61098c81836125fe565b8101031261099b57513861082e565b600080fd5b503d610982565b84513d89823e3d90fd5b9092610a4e9250610a499060118054906109ca82612c18565b9055806109d7858d612c27565b526109e28133612d6e565b610a3089516109f081612594565b8381528981018481528b8201858152938552600b8b52938b902090518154945161ffff1990951660ff919091161760089490941b61ff0016939093178355565b51815462ff0000191690151560101b62ff000016179055565b612c18565b87918491610783565b67ffffffffffffffff8197929711610a725783529438610774565b602482604189634e487b7160e01b835252fd5b610aa59150863d8811610aab575b610a9d81836125fe565b810190612ffe565b3861071a565b503d610a93565b86513d85823e3d90fd5b90608492519162461bcd60e51b8352820152602860248201527f52656c69633a20496e73756666696369656e742076616c756520666f7220766160448201527f756c74206d696e740000000000000000000000000000000000000000000000006064820152fd5b60ff91506002015416386106ab565b50603283111561068a565b8380fd5b509060209081600319360112610b3d57823591610b5c612fc3565b610b64612f8d565b82151580610f35575b610b7690612adb565b33855260148152610b93828620805415908115610b235750612b4c565b610b9c83613430565b610ba884601354612bbd565b3410610ece576001600160a01b0380600d5416918451907f23b872dd000000000000000000000000000000000000000000000000000000008583015233602483015230604483015260648201526064815260a081019267ffffffffffffffff9382811085821117610ebb578652610c1f9190612cee565b610c2885612be6565b9083885b878110610e37575085513360601b6bffffffffffffffffffffffff191682820190815260148101899052610cbc9391610c6881603484016107bb565b51902090600f5416610c7b811515612c51565b898b895180968195829463435639fb60e11b845233908401606090939291936001600160a01b03608082019516815260016020820152600560408201520152565b03925af1908115610e2d578891610dfc575b508752601083528387203381546001600160a01b031916179055835195610cf4876125c6565b85875283870196348852858101898152606082019860058a5260808301908b825260a08401958652338c5260148852888c2093518455519960019a8b8501556002840192511515610d5190849060ff801983541691151516179055565b51825461ff00191660089190911b61ff001617825551815462ff0000191690151560101b62ff00001617905560030191519081519384116109625750908383959492610d9e8a9584612cb3565b0190835281832087845b878110610de757505050507f61e364e3eabc785119e074fc551f39d64063d113dd457cccf0f14a6fcb3ede4f935082519485528401523392a260075580f35b8351838201558a955092840192899101610da8565b90508381813d8311610e26575b610e1381836125fe565b81010312610e22575138610cce565b8780fd5b503d610e09565b85513d8a823e3d90fd5b610eb49150610a498a6011805490610e4e82612c18565b905580610e5b8589612c27565b52610e668133612d6e565b610a308a51610e7481612594565b8381528a81018481528c8201858152938552600b8c52938c902090518154945161ffff1990951660ff919091161760089490941b61ff0016939093178355565b8490610c2c565b60248a60418b634e487b7160e01b835252fd5b6084858385519162461bcd60e51b83528201526024808201527f52656c69633a20496e73756666696369656e74207061796d656e742070726f7660448201527f69646564000000000000000000000000000000000000000000000000000000006064820152fd5b506032831115610b6d565b50919034610375576020918260031936011261046357833590610f6282612954565b5060095494610f70866126ca565b156111c557829082907a184f03e93ff9f4daa797ed6e38ed64bf6a1f01000000000000000083818110156111b8575b5050866d04ee2d6d415b85acef8100000000808510156111a9575b5050662386f26fc100008084101561119a575b506305f5e1008084101561118b575b506127108084101561117f575b50506064821015611171575b600a80921015611169575b6001918282019061102861101383612638565b92611020895194856125fe565b808452612638565b958460218a850195601f19809a01368837850101905b61112d575b50505085519784899594611056836126ca565b928a82821691826000146111065750506001146110a6575b505050918061108a61109795936103da98979551938491612517565b01039081018652856125fe565b5192828493845283019061253a565b8993949550600982527f6e1540171b6c0c960b71a7020d9f60077f6af931a8bbf590da0223dacf75c7af5b8383106110ec5750505084010191908061108a6103da61106e565b80549783018501979097528a968a949092019181016110d1565b60ff1916898201528415159094028801909301955083925061108a91506103da905061106e565b600019019082907f30313233343536373839616263646566000000000000000000000000000000008282061a83530490858261103e5750611043565b600101611000565b906064600291049101610ff5565b90920491013880610fe9565b60089192930492019038610fdc565b60109192930492019038610fcd565b90919293049201908638610fba565b0492508591503880610f9f565b6064908585519162461bcd60e51b8352820152601e60248201527f52656c69633a204261736520555249206e6f7420636f6e6669677572656400006044820152fd5b505034610375576060366003190112610375576112226124eb565b6024359060ff8216808303611320576044359060ff821695868303610463579585949361131760ff97946112e27fc8a443c1907d413e7a1dca411f6c6e7a16f3aa80eed13699a22eab2af2c4c1e49560209b610a308c6001600160a01b03986112908a600e541633146133bf565b6011549e8f9c8d958151976112a489612594565b885260208801938452818801966001885281526020600b90522095511682198654161785555116839061ff0082549160081b169061ff001916179055565b6112ec8684612d6e565b6112f7601154612c18565b601155875160ff9788168152961660208701529116939081906040820190565b0390a351908152f35b8480fd5b50903461027e578260031936011261027e5761133e612738565b828080806001600160a01b036006541647905af161135a61298f565b5015611364578280f35b906020606492519162461bcd60e51b8352820152601a60248201527f52656c69633a20455448207472616e73666572206661696c65640000000000006044820152fd5b5050346103755781600319360112610375576020906001600160a01b03600f54169051908152f35b503461027e57602036600319011261027e57918192356113ee81612954565b508152600b602052206103da82519161140683612594565b549260ff8416928381528160ff808760081c169687602085015260101c161515910152519283928390929160ff60209181604085019616845216910152565b838234610375576080366003190112610375576114606124eb565b611468612501565b6044359060643567ffffffffffffffff81116114b457366023820112156114b4576114b19481602461149f93369301359101612654565b926114ab83838361277c565b336129bf565b80f35b8580fd5b50913461046357602036600319011261046357506114d860209235613430565b9051908152f35b50903461027e578060031936011261027e576114f96124eb565b90602435801515928382036114b4576001600160a01b031693841561156f57506115429033865260056020528286208587526020528286209060ff801983541691151516179055565b519081527f17307eab39ab6107e8899845ad3d59bd9653f200f220920489ca2b5937696c3160203392a380f35b602490858451917f5b08ba18000000000000000000000000000000000000000000000000000000008352820152fd5b5050346103755781600319360112610375576020906012549051908152f35b5050346103755781600319360112610375578051908260018054916115e1836126ca565b80865292828116908115611666575060011461160a575b5050506103c8826103da9403836125fe565b94508085527fb10e2d527612073b26eecdfd717e6a320cf44b4afac2b0732d9fcbe2b7fa0cf65b82861061164e575050506103c88260206103da95820101946115f8565b80546020878701810191909152909501948101611631565b6103da9750869350602092506103c894915060ff191682840152151560051b820101946115f8565b509190346103755761169f3661268b565b906116a8612738565b81519367ffffffffffffffff851161184557506116c6600a546126ca565b601f81116117ec575b50602093601f8111600114611746579081611735939285967f905d981207a7d0b6c62cc46ab0be2a076d0298e4a86d0ab79882dbd01ac37378969161173b575b508160011b916000199060031b1c191617600a555191829160208352602083019061253a565b0390a180f35b90508301513861170f565b600a84527fc65a7bb8d6351c1cf70c95a316cc6a92839c986682d98bc35f958f4883f9d2a8601f198216855b8181106117d45750916001917f905d981207a7d0b6c62cc46ab0be2a076d0298e4a86d0ab79882dbd01ac37378969782611735979695106117bb575b5050811b01600a556103c8565b85015160001960f88460031b161c1916905538806117ae565b85880151835560209788019760019093019201611772565b61183590600a85527fc65a7bb8d6351c1cf70c95a316cc6a92839c986682d98bc35f958f4883f9d2a8601f870160051c8101916020881061183b575b601f0160051c0190612c9c565b386116cf565b9091508190611828565b836041602492634e487b7160e01b835252fd5b5050346103755781600319360112610375576020906001600160a01b03600654169051908152f35b50503461037557816003193601126103755760207f62e78cea01bee320cd4e420270b5ea74000d11b0c9f74754ebdbfc544b05a258916118be612738565b6118c6612f8d565b600160ff19600854161760085551338152a180f35b8334610463576020366003190112610463576001600160a01b036118fd6124eb565b611905612738565b16806001600160a01b0319600f541617600f557feda44c694e75c8161562f6179238b37a8daa291b6b2229613ed903ed92ab2d3d8280a280f35b8334610463578060031936011261046357611958612738565b806001600160a01b036006546001600160a01b03198116600655167f8be0079c531659141344cd1fd0a4f28419497f9722a3daafe3b4186f6b6457e08280a380f35b509134610463576020366003190112610463576001600160a01b036119bd6124eb565b169283156119da5750806020938392526003845220549051908152f35b9060249251917f89c62b64000000000000000000000000000000000000000000000000000000008352820152fd5b50503461037557816003193601126103755780519082600954611a2a816126ca565b808552916001918083169081156116665750600114611a55575050506103c8826103da9403836125fe565b9450600985527f6e1540171b6c0c960b71a7020d9f60077f6af931a8bbf590da0223dacf75c7af5b828610611a9a575050506103c88260206103da95820101946115f8565b80546020878701810191909152909501948101611a7d565b50903461027e5760209081600319360112610b3d5782359182856001600160a01b03611ae381600e541633146133bf565b611aec83612954565b838352600b8552837f7f33b20c4df962ca720387409232fd87c13e869902a3e55f0f5fefe0a87768258388862093611b67898b5196611b2a88612594565b5460ff808216808a52600883901c8216938a0184905260109290921c161515978d01979097528b5196875260208701529116939081906040820190565b0390a382825260028452848220541660028115948515611bd8575b848452528482206001600160a01b031981541690557fddf252ad1be2c89b69c2b068fc378daa952ba7f163c4a11628f55a4df523b3ef8280a4611bc3578380f35b602493505191637e27328960e01b8352820152fd5b611bf985600052600460205260406000206001600160a01b03198154169055565b828452600381528684208054600019019055611b82565b833461046357602036600319011261046357611c2a6124eb565b611c32612738565b6001600160a01b0380911690816001600160a01b0319600c541617600c55600d5416907f14662a0fccd762a05d5e1fa6afdd204554c4cf90fe58b5c5947f664fb71925f58380a380f35b5050346103755781600319360112610375576020906001600160a01b03600c54169051908152f35b50913461046357602036600319011261046357506001600160a01b03611ccc60209335612954565b915191168152f35b50503461037557816003193601126103755760209060ff6008541690519015158152f35b5091903461037557611d093661268b565b90611d12612738565b81519367ffffffffffffffff85116118455750611d306009546126ca565b601f8111611e50575b50602093601f8111600114611daa579081611735939285967ff9c7803e94e0d3c02900d8a90893a6d5e90dd04d32a4cfe825520f82bf9f32f69691611d9f575b508160011b916000199060031b1c1916176009555191829160208352602083019061253a565b905083015138611d79565b600984527f6e1540171b6c0c960b71a7020d9f60077f6af931a8bbf590da0223dacf75c7af601f198216855b818110611e385750916001917ff9c7803e94e0d3c02900d8a90893a6d5e90dd04d32a4cfe825520f82bf9f32f696978261173597969510611e1f575b5050811b016009556103c8565b85015160001960f88460031b161c191690553880611e12565b85880151835560209788019760019093019201611dd6565b611e9890600985527f6e1540171b6c0c960b71a7020d9f60077f6af931a8bbf590da0223dacf75c7af601f870160051c8101916020881061183b57601f0160051c0190612c9c565b38611d39565b5050346103755781600319360112610375576020906001600160a01b03600d54169051908152f35b5050346103755781600319360112610375576020906001600160a01b03600e54169051908152f35b505034610375576114b190611f023661255f565b91925192611f0f846125e2565b8584526114ab83838361277c565b503461027e578260031936011261027e57611f36612738565b6008549060ff821615611f78575060ff1916600855513381527f5db9ee0a495bf2e6ff9c91a7834c1ba4fdd244a5e8aa4e537bd38aeae4b073aa90602090a180f35b82517f8dfc202b000000000000000000000000000000000000000000000000000000008152fd5b509190346103755780600319360112610375576024359267ffffffffffffffff841161027e573660238501121561027e578381013593611fea611fe186612620565b935193846125fe565b84835260209460248685019160051b830101913683116114b457602401905b82821061201c57856114b186863561301d565b81358152908601908601612009565b5050346103755781600319360112610375576020906013549051908152f35b8334610463576114b161205c3661255f565b9161277c565b503461027e578260031936011261027e5761207b612738565b6001600160a01b0380600d5416908351927f70a082310000000000000000000000000000000000000000000000000000000084523090840152602083602481855afa92831561217c578593612149575b50826120d5578480f35b6121419361212e61213c926006541691519485927fa9059cbb00000000000000000000000000000000000000000000000000000000602085015260248401602090939291936001600160a01b0360408201951681520152565b03601f1981018452836125fe565b612cee565b388080808480f35b9092506020813d8211612174575b81612164602093836125fe565b81010312611320575191386120cb565b3d9150612157565b84513d87823e3d90fd5b838234610375576020366003190112610375578035906121a4612738565b670de0b6b3a7640000918281029281840414901517156121c5575060125580f35b826011602492634e487b7160e01b835252fd5b838234610375576020366003190112610375576121f3612738565b3560135580f35b50903461027e578060031936011261027e576122146124eb565b9160243561222181612954565b331515806122da575b806122b2575b6122835781906001600160a01b03809616958691167f8c5be1e5ebec7d5bd14f71427d1e84f3dd0314c0f7b2291e5b200ac8c7c3b9258880a484526020528220906001600160a01b031982541617905580f35b83517fa9fbf51f0000000000000000000000000000000000000000000000000000000081523381850152602490fd5b506001600160a01b0381168652600560205283862033875260205260ff848720541615612230565b50336001600160a01b038216141561222a565b503461027e57602036600319011261027e5781602093826001600160a01b03933561231781612954565b50825285522054169051908152f35b505034610375578160031936011261037557805190828054612347816126ca565b808552916001918083169081156116665750600114612372575050506103c8826103da9403836125fe565b80809650527f290decd9548b62a8d60345a988386fc84ba6bc95484008f6362f93160ef3e5635b8286106123b6575050506103c88260206103da95820101946115f8565b80546020878701810191909152909501948101612399565b503461027e57602036600319011261027e5735906001600160e01b0319821680920361027e57602092507f80ac58cd00000000000000000000000000000000000000000000000000000000821491821561245d575b8215612433575b50519015158152f35b7f01ffc9a7000000000000000000000000000000000000000000000000000000001491503861242a565b7f5b5e139f0000000000000000000000000000000000000000000000000000000081149250612423565b8334610463576020366003190112610463576001600160a01b036124a96124eb565b6124b1612738565b16806001600160a01b0319600e541617600e557f088c5ec3908e3424c43d8102e8e1cc8eb8820a25e326b9c31cc58963046b92e98280a280f35b600435906001600160a01b038216820361099b57565b602435906001600160a01b038216820361099b57565b60005b83811061252a5750506000910152565b818101518382015260200161251a565b9060209161255381518092818552858086019101612517565b601f01601f1916010190565b606090600319011261099b576001600160a01b0390600435828116810361099b5791602435908116810361099b579060443590565b6060810190811067ffffffffffffffff8211176125b057604052565b634e487b7160e01b600052604160045260246000fd5b60c0810190811067ffffffffffffffff8211176125b057604052565b6020810190811067ffffffffffffffff8211176125b057604052565b90601f8019910116810190811067ffffffffffffffff8211176125b057604052565b67ffffffffffffffff81116125b05760051b60200190565b67ffffffffffffffff81116125b057601f01601f191660200190565b92919261266082612638565b9161266e60405193846125fe565b82948184528183011161099b578281602093846000960137010152565b602060031982011261099b576004359067ffffffffffffffff821161099b578060238301121561099b578160246126c793600401359101612654565b90565b90600182811c921680156126fa575b60208310146126e457565b634e487b7160e01b600052602260045260246000fd5b91607f16916126d9565b90815180825260208080930193019160005b828110612724575050505090565b835185529381019392810192600101612716565b6001600160a01b0360065416330361274c57565b60246040517f118cdaa7000000000000000000000000000000000000000000000000000000008152336004820152fd5b90916001600160a01b0380931692831561293c5760009282845282602095600287526040968488882054169687913315158061288a575b509060027fddf252ad1be2c89b69c2b068fc378daa952ba7f163c4a11628f55a4df523b3ef9284612852575b858352600381528b83206001815401905586835252898120846001600160a01b031982541617905580a416928383036128185750505050565b6064945051927f64283d7b000000000000000000000000000000000000000000000000000000008452600484015260248301526044820152fd5b61287387600052600460205260406000206001600160a01b03198154169055565b848352600381528b832080546000190190556127df565b919394509150806128fb575b156128a6578592918791386127b3565b8786886128c3576024915190637e27328960e01b82526004820152fd5b90517f177e802f0000000000000000000000000000000000000000000000000000000081523360048201526024810191909152604490fd5b503387148015612920575b806128965750858252600481523385898420541614612896565b5086825260058152878220338352815260ff8883205416612906565b6024604051633250574960e11b815260006004820152fd5b8060005260026020526001600160a01b0360406000205416908115612977575090565b60249060405190637e27328960e01b82526004820152fd5b3d156129ba573d906129a082612638565b916129ae60405193846125fe565b82523d6000602084013e565b606090565b9293823b6129cf575b5050505050565b612a14906001600160a01b038094169560405194859481630a85bd0160e11b98898852166004870152166024850152604484015260806064840152608483019061253a565b03906020816000938185885af190829082612a93575b5050612a615782612a3961298f565b8051919082612a5a5760248260405190633250574960e11b82526004820152fd5b6020915001fd5b6001600160e01b03191603612a7b575038808080806129c8565b60249060405190633250574960e11b82526004820152fd5b909192506020813d8211612ad3575b81612aaf602093836125fe565b810103126103755751906001600160e01b0319821682036104635750903880612a2a565b3d9150612aa2565b15612ae257565b608460405162461bcd60e51b815260206004820152603260248201527f52656c69633a20496e76616c6964207175616e74697479202d206d757374206260448201527f65206265747765656e203120616e6420353000000000000000000000000000006064820152fd5b15612b5357565b608460405162461bcd60e51b815260206004820152602a60248201527f52656c69633a2050726576696f7573206d696e7420726571756573742073746960448201527f6c6c2070656e64696e67000000000000000000000000000000000000000000006064820152fd5b81810292918115918404141715612bd057565b634e487b7160e01b600052601160045260246000fd5b90612bf082612620565b612bfd60405191826125fe565b8281528092612c0e601f1991612620565b0190602036910137565b6000198114612bd05760010190565b8051821015612c3b5760209160051b010190565b634e487b7160e01b600052603260045260246000fd5b15612c5857565b606460405162461bcd60e51b815260206004820152601260248201527f565246206e6f7420636f6e6669677572656400000000000000000000000000006044820152fd5b818110612ca7575050565b60008155600101612c9c565b906801000000000000000081116125b057815490808355818110612cd657505050565b612cec9260005260206000209182019101612c9c565b565b906000602091828151910182855af115612d62576000513d612d5957506001600160a01b0381163b155b612d1f5750565b6024906001600160a01b03604051917f5274afe7000000000000000000000000000000000000000000000000000000008352166004820152fd5b60011415612d18565b6040513d6000823e3d90fd5b6040805192612d7c846125e2565b60008085526001600160a01b0394858516948515612f765783835260209660028852858420541684878215159283612f3e575b81875260038b528887206001815401905582875260028b52888720826001600160a01b03198254161790557fddf252ad1be2c89b69c2b068fc378daa952ba7f163c4a11628f55a4df523b3ef8780a4612f0e573b612e10575b505050505050565b85612e4d9185969798955180938192630a85bd0160e11b97888452336004850152876024850152604484015260806064840152608483019061253a565b0381858a5af190829082612eca575b5050612e9357505050612e6d61298f565b8051939084612e8d57602484845190633250574960e11b82526004820152fd5b84925001fd5b6001600160e01b0319919295501603612eb3575050388080808080612e08565b602492505190633250574960e11b82526004820152fd5b909192508781813d8311612f07575b612ee381836125fe565b810103126103755751906001600160e01b0319821682036104635750903880612e5c565b503d612ed9565b6024838651907f73c6ac6e0000000000000000000000000000000000000000000000000000000082526004820152fd5b612f5f83600052600460205260406000206001600160a01b03198154169055565b80875260038b528887208054600019019055612daf565b602483865190633250574960e11b82526004820152fd5b60ff60085416612f9957565b60046040517fd93c0665000000000000000000000000000000000000000000000000000000008152fd5b600260075414612fd4576002600755565b60046040517f3ee5aeb5000000000000000000000000000000000000000000000000000000008152fd5b9081602091031261099b57516001600160a01b038116810361099b5790565b6001600160a01b03600f5416330361336c5781511561336c578060005260106020526001600160a01b03604060002054169081156133675781600052601460205260406000209260ff60028501541661336157805115612c3b57602001519361308860038501613370565b916001946000955b8154871015613284576130a38786612c27565b516040517f6352211e000000000000000000000000000000000000000000000000000000008152816004820152602081602481305afa60009181613263575b506130fb575050506130f5600096612c18565b95613090565b6001600160a01b0388919992939916036132555760405189602082015282604082015260608281830152815280608081011067ffffffffffffffff6080830111176125b0576130f5927fc8a443c1907d413e7a1dca411f6c6e7a16f3aa80eed13699a22eab2af2c4c1e46132058360808c950160405260648151602083012006602c811060001461320d57506131eb6001915b61319a60808201612594565b60ff8381166080830181815260a08401918252600160c09094019384526000898152600b6020526040902090518154925161ffff1990931693169290921760089190911b61ff001617815590610a30565b6040805160ff909216808352602083015290918291820190565b0390a3612c18565b604f81101561322257506131eb60029161318e565b605e81101561323757506131eb60039161318e565b6063111561324a576131eb60049161318e565b6131eb60059161318e565b9650506130f5600096612c18565b61327d91925060203d602011610aab57610a9d81836125fe565b90386130e2565b919495509195508492600160ff19600285015416179182600285015561330a575b50505050600052601060205260406000206001600160a01b0319815416905560005260146020526003604060002060008155600060018201556000600282015501805460008255806132f5575050565b612cec91600052602060002090810190612c9c565b6133557f0908417bb2d0393a45bf6efe35cecf8dbedbab1767b8d95f650094c6ccd1d0ac93549160ff604051948594855260081c166020840152606060408401526060830190612704565b0390a2813880806132a5565b50505050565b505050565b5050565b9060405191828154918282526020928383019160005283600020936000905b8282106133a557505050612cec925003836125fe565b85548452600195860195889550938101939091019061338f565b156133c657565b608460405162461bcd60e51b815260206004820152603860248201527f52656c69633a204e6f7420617574686f72697a6564202d206f6e6c7920416c7460448201527f6172206f6620417363656e73696f6e2063616e2063616c6c00000000000000006064820152fd5b906001600160a01b03600c54169182156134d65780156134cf5760206012546024604051809681937f7b2e0fcf00000000000000000000000000000000000000000000000000000000835260048301525afa928315612d625760009361349c575b506126c79192612bbd565b6020813d82116134c7575b816134b4602093836125fe565b81010312610b3d575192506126c7613491565b3d91506134a7565b5060009150565b608460405162461bcd60e51b815260206004820152602360248201527f52656c69633a2044756e67656f6e436f726520636f6e7472616374206e6f742060448201527f73657400000000000000000000000000000000000000000000000000000000006064820152fdfea264697066735822122050ae5d2e3d4efa5ff44b63a29c960083ecdaa26cfc13c058625a4844dd7d801f64736f6c63430008140033",
  "linkReferences": {},
  "deployedLinkReferences": {}
}