{
  "_format": "hh-sol-artifact-1",
  "contractName": "VIPStaking",
  "sourceName": "contracts/current/nft/VIPStaking.sol",
  "abi": [
    {
      "inputs": [
        {
          "internalType": "address",
          "name": "initialOwner",
          "type": "address"
        }
      ],
      "stateMutability": "nonpayable",
      "type": "constructor"
    },
    {
      "inputs": [
        {
          "internalType": "address",
          "name": "sender",
          "type": "address"
        },
        {
          "internalType": "uint256",
          "name": "tokenId",
          "type": "uint256"
        },
        {
          "internalType": "address",
          "name": "owner",
          "type": "address"
        }
      ],
      "name": "ERC721IncorrectOwner",
      "type": "error"
    },
    {
      "inputs": [
        {
          "internalType": "address",
          "name": "operator",
          "type": "address"
        },
        {
          "internalType": "uint256",
          "name": "tokenId",
          "type": "uint256"
        }
      ],
      "name": "ERC721InsufficientApproval",
      "type": "error"
    },
    {
      "inputs": [
        {
          "internalType": "address",
          "name": "approver",
          "type": "address"
        }
      ],
      "name": "ERC721InvalidApprover",
      "type": "error"
    },
    {
      "inputs": [
        {
          "internalType": "address",
          "name": "operator",
          "type": "address"
        }
      ],
      "name": "ERC721InvalidOperator",
      "type": "error"
    },
    {
      "inputs": [
        {
          "internalType": "address",
          "name": "owner",
          "type": "address"
        }
      ],
      "name": "ERC721InvalidOwner",
      "type": "error"
    },
    {
      "inputs": [
        {
          "internalType": "address",
          "name": "receiver",
          "type": "address"
        }
      ],
      "name": "ERC721InvalidReceiver",
      "type": "error"
    },
    {
      "inputs": [
        {
          "internalType": "address",
          "name": "sender",
          "type": "address"
        }
      ],
      "name": "ERC721InvalidSender",
      "type": "error"
    },
    {
      "inputs": [
        {
          "internalType": "uint256",
          "name": "tokenId",
          "type": "uint256"
        }
      ],
      "name": "ERC721NonexistentToken",
      "type": "error"
    },
    {
      "inputs": [],
      "name": "EnforcedPause",
      "type": "error"
    },
    {
      "inputs": [],
      "name": "ExpectedPause",
      "type": "error"
    },
    {
      "inputs": [
        {
          "internalType": "address",
          "name": "owner",
          "type": "address"
        }
      ],
      "name": "OwnableInvalidOwner",
      "type": "error"
    },
    {
      "inputs": [
        {
          "internalType": "address",
          "name": "account",
          "type": "address"
        }
      ],
      "name": "OwnableUnauthorizedAccount",
      "type": "error"
    },
    {
      "inputs": [],
      "name": "ReentrancyGuardReentrantCall",
      "type": "error"
    },
    {
      "inputs": [
        {
          "internalType": "address",
          "name": "token",
          "type": "address"
        }
      ],
      "name": "SafeERC20FailedOperation",
      "type": "error"
    },
    {
      "anonymous": false,
      "inputs": [
        {
          "indexed": true,
          "internalType": "address",
          "name": "owner",
          "type": "address"
        },
        {
          "indexed": true,
          "internalType": "address",
          "name": "approved",
          "type": "address"
        },
        {
          "indexed": true,
          "internalType": "uint256",
          "name": "tokenId",
          "type": "uint256"
        }
      ],
      "name": "Approval",
      "type": "event"
    },
    {
      "anonymous": false,
      "inputs": [
        {
          "indexed": true,
          "internalType": "address",
          "name": "owner",
          "type": "address"
        },
        {
          "indexed": true,
          "internalType": "address",
          "name": "operator",
          "type": "address"
        },
        {
          "indexed": false,
          "internalType": "bool",
          "name": "approved",
          "type": "bool"
        }
      ],
      "name": "ApprovalForAll",
      "type": "event"
    },
    {
      "anonymous": false,
      "inputs": [
        {
          "indexed": false,
          "internalType": "string",
          "name": "newBaseURI",
          "type": "string"
        }
      ],
      "name": "BaseURISet",
      "type": "event"
    },
    {
      "anonymous": false,
      "inputs": [
        {
          "indexed": false,
          "internalType": "string",
          "name": "newContractURI",
          "type": "string"
        }
      ],
      "name": "ContractURIUpdated",
      "type": "event"
    },
    {
      "anonymous": false,
      "inputs": [
        {
          "indexed": true,
          "internalType": "address",
          "name": "newAddress",
          "type": "address"
        }
      ],
      "name": "DungeonCoreSet",
      "type": "event"
    },
    {
      "anonymous": false,
      "inputs": [
        {
          "indexed": true,
          "internalType": "address",
          "name": "previousOwner",
          "type": "address"
        },
        {
          "indexed": true,
          "internalType": "address",
          "name": "newOwner",
          "type": "address"
        }
      ],
      "name": "OwnershipTransferred",
      "type": "event"
    },
    {
      "anonymous": false,
      "inputs": [
        {
          "indexed": false,
          "internalType": "address",
          "name": "account",
          "type": "address"
        }
      ],
      "name": "Paused",
      "type": "event"
    },
    {
      "anonymous": false,
      "inputs": [
        {
          "indexed": true,
          "internalType": "address",
          "name": "newAddress",
          "type": "address"
        }
      ],
      "name": "SoulShardTokenSet",
      "type": "event"
    },
    {
      "anonymous": false,
      "inputs": [
        {
          "indexed": true,
          "internalType": "address",
          "name": "user",
          "type": "address"
        },
        {
          "indexed": false,
          "internalType": "uint256",
          "name": "amount",
          "type": "uint256"
        },
        {
          "indexed": false,
          "internalType": "uint256",
          "name": "tokenId",
          "type": "uint256"
        }
      ],
      "name": "Staked",
      "type": "event"
    },
    {
      "anonymous": false,
      "inputs": [
        {
          "indexed": true,
          "internalType": "address",
          "name": "from",
          "type": "address"
        },
        {
          "indexed": true,
          "internalType": "address",
          "name": "to",
          "type": "address"
        },
        {
          "indexed": true,
          "internalType": "uint256",
          "name": "tokenId",
          "type": "uint256"
        }
      ],
      "name": "Transfer",
      "type": "event"
    },
    {
      "anonymous": false,
      "inputs": [
        {
          "indexed": false,
          "internalType": "address",
          "name": "account",
          "type": "address"
        }
      ],
      "name": "Unpaused",
      "type": "event"
    },
    {
      "anonymous": false,
      "inputs": [
        {
          "indexed": true,
          "internalType": "address",
          "name": "user",
          "type": "address"
        },
        {
          "indexed": false,
          "internalType": "uint256",
          "name": "amount",
          "type": "uint256"
        }
      ],
      "name": "UnstakeClaimed",
      "type": "event"
    },
    {
      "anonymous": false,
      "inputs": [
        {
          "indexed": true,
          "internalType": "address",
          "name": "user",
          "type": "address"
        },
        {
          "indexed": false,
          "internalType": "uint256",
          "name": "amount",
          "type": "uint256"
        },
        {
          "indexed": false,
          "internalType": "uint256",
          "name": "availableAt",
          "type": "uint256"
        }
      ],
      "name": "UnstakeRequested",
      "type": "event"
    },
    {
      "inputs": [
        {
          "internalType": "address",
          "name": "",
          "type": "address"
        },
        {
          "internalType": "uint256",
          "name": "",
          "type": "uint256"
        }
      ],
      "name": "approve",
      "outputs": [],
      "stateMutability": "pure",
      "type": "function"
    },
    {
      "inputs": [
        {
          "internalType": "address",
          "name": "owner",
          "type": "address"
        }
      ],
      "name": "balanceOf",
      "outputs": [
        {
          "internalType": "uint256",
          "name": "",
          "type": "uint256"
        }
      ],
      "stateMutability": "view",
      "type": "function"
    },
    {
      "inputs": [],
      "name": "baseURI",
      "outputs": [
        {
          "internalType": "string",
          "name": "",
          "type": "string"
        }
      ],
      "stateMutability": "view",
      "type": "function"
    },
    {
      "inputs": [],
      "name": "claimUnstaked",
      "outputs": [],
      "stateMutability": "nonpayable",
      "type": "function"
    },
    {
      "inputs": [],
      "name": "contractURI",
      "outputs": [
        {
          "internalType": "string",
          "name": "",
          "type": "string"
        }
      ],
      "stateMutability": "view",
      "type": "function"
    },
    {
      "inputs": [],
      "name": "dungeonCore",
      "outputs": [
        {
          "internalType": "contract IDungeonCore",
          "name": "",
          "type": "address"
        }
      ],
      "stateMutability": "view",
      "type": "function"
    },
    {
      "inputs": [
        {
          "internalType": "uint256",
          "name": "tokenId",
          "type": "uint256"
        }
      ],
      "name": "getApproved",
      "outputs": [
        {
          "internalType": "address",
          "name": "",
          "type": "address"
        }
      ],
      "stateMutability": "view",
      "type": "function"
    },
    {
      "inputs": [
        {
          "internalType": "address",
          "name": "_user",
          "type": "address"
        }
      ],
      "name": "getVipLevel",
      "outputs": [
        {
          "internalType": "uint8",
          "name": "",
          "type": "uint8"
        }
      ],
      "stateMutability": "view",
      "type": "function"
    },
    {
      "inputs": [
        {
          "internalType": "address",
          "name": "_user",
          "type": "address"
        }
      ],
      "name": "getVipTaxReduction",
      "outputs": [
        {
          "internalType": "uint256",
          "name": "",
          "type": "uint256"
        }
      ],
      "stateMutability": "view",
      "type": "function"
    },
    {
      "inputs": [
        {
          "internalType": "address",
          "name": "owner",
          "type": "address"
        },
        {
          "internalType": "address",
          "name": "operator",
          "type": "address"
        }
      ],
      "name": "isApprovedForAll",
      "outputs": [
        {
          "internalType": "bool",
          "name": "",
          "type": "bool"
        }
      ],
      "stateMutability": "view",
      "type": "function"
    },
    {
      "inputs": [],
      "name": "name",
      "outputs": [
        {
          "internalType": "string",
          "name": "",
          "type": "string"
        }
      ],
      "stateMutability": "view",
      "type": "function"
    },
    {
      "inputs": [],
      "name": "owner",
      "outputs": [
        {
          "internalType": "address",
          "name": "",
          "type": "address"
        }
      ],
      "stateMutability": "view",
      "type": "function"
    },
    {
      "inputs": [
        {
          "internalType": "uint256",
          "name": "tokenId",
          "type": "uint256"
        }
      ],
      "name": "ownerOf",
      "outputs": [
        {
          "internalType": "address",
          "name": "",
          "type": "address"
        }
      ],
      "stateMutability": "view",
      "type": "function"
    },
    {
      "inputs": [],
      "name": "pause",
      "outputs": [],
      "stateMutability": "nonpayable",
      "type": "function"
    },
    {
      "inputs": [],
      "name": "paused",
      "outputs": [
        {
          "internalType": "bool",
          "name": "",
          "type": "bool"
        }
      ],
      "stateMutability": "view",
      "type": "function"
    },
    {
      "inputs": [],
      "name": "renounceOwnership",
      "outputs": [],
      "stateMutability": "nonpayable",
      "type": "function"
    },
    {
      "inputs": [
        {
          "internalType": "uint256",
          "name": "_amount",
          "type": "uint256"
        }
      ],
      "name": "requestUnstake",
      "outputs": [],
      "stateMutability": "nonpayable",
      "type": "function"
    },
    {
      "inputs": [
        {
          "internalType": "address",
          "name": "from",
          "type": "address"
        },
        {
          "internalType": "address",
          "name": "to",
          "type": "address"
        },
        {
          "internalType": "uint256",
          "name": "tokenId",
          "type": "uint256"
        }
      ],
      "name": "safeTransferFrom",
      "outputs": [],
      "stateMutability": "nonpayable",
      "type": "function"
    },
    {
      "inputs": [
        {
          "internalType": "address",
          "name": "",
          "type": "address"
        },
        {
          "internalType": "address",
          "name": "",
          "type": "address"
        },
        {
          "internalType": "uint256",
          "name": "",
          "type": "uint256"
        },
        {
          "internalType": "bytes",
          "name": "",
          "type": "bytes"
        }
      ],
      "name": "safeTransferFrom",
      "outputs": [],
      "stateMutability": "pure",
      "type": "function"
    },
    {
      "inputs": [
        {
          "internalType": "address",
          "name": "",
          "type": "address"
        },
        {
          "internalType": "bool",
          "name": "",
          "type": "bool"
        }
      ],
      "name": "setApprovalForAll",
      "outputs": [],
      "stateMutability": "pure",
      "type": "function"
    },
    {
      "inputs": [
        {
          "internalType": "string",
          "name": "_newBaseURI",
          "type": "string"
        }
      ],
      "name": "setBaseURI",
      "outputs": [],
      "stateMutability": "nonpayable",
      "type": "function"
    },
    {
      "inputs": [
        {
          "internalType": "string",
          "name": "newContractURI",
          "type": "string"
        }
      ],
      "name": "setContractURI",
      "outputs": [],
      "stateMutability": "nonpayable",
      "type": "function"
    },
    {
      "inputs": [
        {
          "internalType": "address",
          "name": "_newAddress",
          "type": "address"
        }
      ],
      "name": "setDungeonCore",
      "outputs": [],
      "stateMutability": "nonpayable",
      "type": "function"
    },
    {
      "inputs": [
        {
          "internalType": "address",
          "name": "_newAddress",
          "type": "address"
        }
      ],
      "name": "setSoulShardToken",
      "outputs": [],
      "stateMutability": "nonpayable",
      "type": "function"
    },
    {
      "inputs": [
        {
          "internalType": "uint256",
          "name": "_newCooldown",
          "type": "uint256"
        }
      ],
      "name": "setUnstakeCooldown",
      "outputs": [],
      "stateMutability": "nonpayable",
      "type": "function"
    },
    {
      "inputs": [],
      "name": "soulShardToken",
      "outputs": [
        {
          "internalType": "contract IERC20",
          "name": "",
          "type": "address"
        }
      ],
      "stateMutability": "view",
      "type": "function"
    },
    {
      "inputs": [
        {
          "internalType": "uint256",
          "name": "_amount",
          "type": "uint256"
        }
      ],
      "name": "stake",
      "outputs": [],
      "stateMutability": "nonpayable",
      "type": "function"
    },
    {
      "inputs": [
        {
          "internalType": "bytes4",
          "name": "interfaceId",
          "type": "bytes4"
        }
      ],
      "name": "supportsInterface",
      "outputs": [
        {
          "internalType": "bool",
          "name": "",
          "type": "bool"
        }
      ],
      "stateMutability": "view",
      "type": "function"
    },
    {
      "inputs": [],
      "name": "symbol",
      "outputs": [
        {
          "internalType": "string",
          "name": "",
          "type": "string"
        }
      ],
      "stateMutability": "view",
      "type": "function"
    },
    {
      "inputs": [
        {
          "internalType": "uint256",
          "name": "_tokenId",
          "type": "uint256"
        }
      ],
      "name": "tokenURI",
      "outputs": [
        {
          "internalType": "string",
          "name": "",
          "type": "string"
        }
      ],
      "stateMutability": "view",
      "type": "function"
    },
    {
      "inputs": [],
      "name": "totalPendingUnstakes",
      "outputs": [
        {
          "internalType": "uint256",
          "name": "",
          "type": "uint256"
        }
      ],
      "stateMutability": "view",
      "type": "function"
    },
    {
      "inputs": [
        {
          "internalType": "address",
          "name": "",
          "type": "address"
        },
        {
          "internalType": "address",
          "name": "",
          "type": "address"
        },
        {
          "internalType": "uint256",
          "name": "",
          "type": "uint256"
        }
      ],
      "name": "transferFrom",
      "outputs": [],
      "stateMutability": "pure",
      "type": "function"
    },
    {
      "inputs": [
        {
          "internalType": "address",
          "name": "newOwner",
          "type": "address"
        }
      ],
      "name": "transferOwnership",
      "outputs": [],
      "stateMutability": "nonpayable",
      "type": "function"
    },
    {
      "inputs": [],
      "name": "unpause",
      "outputs": [],
      "stateMutability": "nonpayable",
      "type": "function"
    },
    {
      "inputs": [],
      "name": "unstakeCooldown",
      "outputs": [
        {
          "internalType": "uint256",
          "name": "",
          "type": "uint256"
        }
      ],
      "stateMutability": "view",
      "type": "function"
    },
    {
      "inputs": [
        {
          "internalType": "address",
          "name": "",
          "type": "address"
        }
      ],
      "name": "unstakeQueue",
      "outputs": [
        {
          "internalType": "uint256",
          "name": "amount",
          "type": "uint256"
        },
        {
          "internalType": "uint256",
          "name": "availableAt",
          "type": "uint256"
        }
      ],
      "stateMutability": "view",
      "type": "function"
    },
    {
      "inputs": [
        {
          "internalType": "address",
          "name": "",
          "type": "address"
        }
      ],
      "name": "userStakes",
      "outputs": [
        {
          "internalType": "uint256",
          "name": "amount",
          "type": "uint256"
        },
        {
          "internalType": "uint256",
          "name": "tokenId",
          "type": "uint256"
        }
      ],
      "stateMutability": "view",
      "type": "function"
    },
    {
      "inputs": [
        {
          "internalType": "uint256",
          "name": "amount",
          "type": "uint256"
        }
      ],
      "name": "withdrawStakedTokens",
      "outputs": [],
      "stateMutability": "nonpayable",
      "type": "function"
    }
  ],
  "bytecode": "0x608034620003d457601f906001600160401b03601f1962002636388190038581018316850184811186821017620003be57859282916040528339602094859181010312620003d457516001600160a01b03948582169391849003620003d45762000068620003d9565b94601386527f44756e67656f6e2044656c766572732056495000000000000000000000000000818701526200009c620003d9565b90600382526222222b60e91b81830152865194848611620003be576000958654986001998a81811c91168015620003b3575b858210146200039f579081878493116200034c575b508490878311600114620002eb578992620002df575b5050600019600383901b1c191690891b1786555b8251948511620002cb5787548881811c91168015620002c0575b83821014620002ac5790818587969594931162000253575b5081938511600114620001ee5750508492620001e2575b5050600019600383901b1c191690841b1783555b8115620001ca57600680546001600160a01b0319811684179091556040519416907f8be0079c531659141344cd1fd0a4f28419497f9722a3daafe3b4186f6b6457e09080a380600755600c5562015180600d5561223c9081620003fa8239f35b60249060405190631e4fbdf760e01b82526004820152fd5b01519050388062000156565b889593929193168587528387209387905b8282106200023957505084116200021f575b505050811b0183556200016a565b015160001960f88460031b161c1916905538808062000211565b8484015186558a97909501949384019390810190620001ff565b9091929394508887528287208580880160051c820192858910620002a2575b9188978c9297969594930160051c01915b828110620002935750506200013f565b8981558897508b910162000283565b9250819262000272565b634e487b7160e01b87526022600452602487fd5b90607f169062000127565b634e487b7160e01b86526041600452602486fd5b015190503880620000f9565b90848c9416918a8052868b20928b5b888282106200033557505084116200031b575b505050811b0186556200010d565b015160001960f88460031b161c191690553880806200030d565b8385015186558f97909501949384019301620002fa565b9091508880528489208780850160051c82019287861062000395575b918d91869594930160051c01915b82811062000386575050620000e3565b8b81558594508d910162000376565b9250819262000368565b634e487b7160e01b89526022600452602489fd5b90607f1690620000ce565b634e487b7160e01b600052604160045260246000fd5b600080fd5b60408051919082016001600160401b03811183821017620003be5760405256fe6080604081815260048036101561001557600080fd5b600092833560e01c90816301ffc9a714611a2d5750806306fdde0314611985578063081812fc1461194c578063095ea7b3146119335780630a57336a1461190e578063230957211461175e57806323b872dd1461174957806332854c13146117265780633f4ba83a146116a457806342842e0e14611684578063440394021461165c57806355f804b3146114a15780635c975abb1461147d5780636352211e1461144d57806367cfab581461142257806368bbf757146114035780636ab1b29b1461136c5780636c0360eb146112c257806370a0823114611254578063715018a6146111f95780637eefd5ae146111da5780638456cb591461117f5780638da5cb5b146111575780638da7ad2314611116578063938e3d7b14610f4257806395d89b4114610e9a578063a22cb46514610e72578063a3158b5314610e50578063a694fc3a14610919578063b799e74e146108d8578063b88d4fde1461087f578063c87b56dd146105b1578063d276290d14610463578063d32a40b61461040b578063db4b8268146103a4578063e8a3d485146102bb578063e985e9c5146102695763f2fde38b146101c557600080fd5b34610265576020366003190112610265576101de611b45565b906101e7611ccb565b6001600160a01b03809216928315610236575050600654826001600160a01b0319821617600655167f8be0079c531659141344cd1fd0a4f28419497f9722a3daafe3b4186f6b6457e08380a380f35b908460249251917f1e4fbdf7000000000000000000000000000000000000000000000000000000008352820152fd5b8280fd5b5050346102b757806003193601126102b75760ff81602093610289611b45565b610291611b60565b6001600160a01b0391821683526005875283832091168252855220549151911615158152f35b5080fd5b5050346102b757816003193601126102b75780519082600b546102dd81611c91565b8085529160019180831690811561037c575060011461031f575b5050506103098261031b940383611bdd565b51918291602083526020830190611b20565b0390f35b9450600b85527f0175b7a638427703f0dbe7bb9bbf987a2551717b34e79f33b5b1008d1fa01db95b8286106103645750505061030982602061031b95820101946102f7565b80546020878701810191909152909501948101610347565b61031b97508693506020925061030994915060ff191682840152151560051b820101946102f7565b8334610408576020366003190112610408576001600160a01b036103c6611b45565b6103ce611ccb565b16806001600160a01b031960095416176009557f5b041fdbb07c066df55211c4936ce14e84504e79020b987168fa2022f1b13e798280a280f35b80fd5b509190346102b75760203660031901126102b75760ff61043161042c611b45565b611f0c565b1691603283029280840460321490151715610450576020838351908152f35b80601185634e487b7160e01b6024945252fd5b50903461026557826003193601126102655761047d611e3c565b338352601060205280832091825492831561056e576001015442106105075750338352601060205282600182822082815501556104bc82600e54611e77565b600e556104d582336001600160a01b0360095416611e84565b519081527fcb15bbbdc28223e1198be8308a502cd2706d6c42b33d19f96c1589dd5e241ae460203392a2600160075580f35b6020608492519162461bcd60e51b83528201526024808201527f5649503a20436f6f6c646f776e20706572696f64206973206e6f74206f76657260448201527f20796574000000000000000000000000000000000000000000000000000000006064820152fd5b506020606492519162461bcd60e51b8352820152601f60248201527f5649503a204e6f2070656e64696e6720756e7374616b652072657175657374006044820152fd5b509034610265576020918260031936011261087b5780356105d181611d0f565b50600a8054916105e083611c91565b1561083957818194829089937a184f03e93ff9f4daa797ed6e38ed64bf6a1f010000000000000000908181101561082c575b5050886d04ee2d6d415b85acef81000000008084101561081e575b5050662386f26fc100008083101561080f575b506305f5e10080831015610800575b50612710808310156107f4575b505060648110156107e6575b10156107de575b600192838201908361069861068384611bff565b936106908a519586611bdd565b808552611bff565b968660218b860196601f19809b01368937860101905b6107a2575b505050865198899581956106c684611c91565b938b8382169182600014610776575050600114610715575b878b61031b8c6107068d858d806106f98f8f51938491611afd565b0103908101865285611bdd565b51928284938452830190611b20565b8a9495965082527fc65a7bb8d6351c1cf70c95a316cc6a92839c986682d98bc35f958f4883f9d2a85b83831061075c575050508401019190806106f961031b6107066106de565b80549783018501979097528a968a9490920191810161073e565b60ff19168a820152851515909502890190940196508493506106f9925061031b915061070690506106de565b600019019082907f30313233343536373839616263646566000000000000000000000000000000008282061a8353049087826106ae57506106b3565b60010161066f565b606460029104920191610668565b9301929004388061065c565b6008919492049101923861064f565b60109194920491019238610640565b94019390910490883861062d565b8995500491503880610612565b6064848787519162461bcd60e51b8352820152601460248201527f5649503a2062617365555249206e6f74207365740000000000000000000000006044820152fd5b8380fd5b8382346102b75760803660031901126102b75761089a611b45565b506108a3611b60565b506064359067ffffffffffffffff82116102655736602383011215610265578160246108d493369301359101611c1b565b5080f35b5050346102b75760203660031901126102b75780916001600160a01b036108fd611b45565b1681526010602052206001815491015482519182526020820152f35b509034610265576020918260031936011261087b57803592610939611e3c565b610941611e06565b8315610e10573385526010815282852054610daa576001600160a01b039182600954168015610d685784517f23b872dd000000000000000000000000000000000000000000000000000000008482015260249133838301523060448301528760648301526064825260a0820182811067ffffffffffffffff821117610d565787526109cc9190611d86565b338752600f835260018588206109e3888254611d63565b815501918254948515610a2a575b88887f1449c6dd7851abc30abf37f57715f492010519147cc2652fbc38202c18a6ee9089898982519485528401523392a2600160075580f35b9091929450600c5490600019808314610d445760018301600c5582809755875191610a5483611bab565b8a83523315610d2f57838b526002875280898c205416610cc857838b5260028752888b205416908115159081610c9e575b50338b5260038752888b2060018154019055838b5260028752888b20336001600160a01b0319825416179055838b8a51937fddf252ad1be2c89b69c2b068fc378daa952ba7f163c4a11628f55a4df523b3ef339280a4610c725750333b156109f15790848985610b3f869b979c9996958b5195869485947f150b7a0200000000000000000000000000000000000000000000000000000000998a875233908701528501526044840152608060648401526084830190611b20565b038189335af1869181610c16575b50610ba957505050503d600014610ba0573d610b6881611bff565b90610b7585519283611bdd565b81528092823d92013e5b81519182610b9d575050505190633250574960e11b82523390820152fd5b01fd5b60609150610b7f565b9497929691947fffffffff000000000000000000000000000000000000000000000000000000001603610c0257507f1449c6dd7851abc30abf37f57715f492010519147cc2652fbc38202c18a6ee9090503880806109f1565b845190633250574960e11b82523390820152fd5b9091508581813d8311610c6b575b610c2e8183611bdd565b81010312610c6757517fffffffff0000000000000000000000000000000000000000000000000000000081168103610c67579038610b4d565b8680fd5b503d610c24565b808a857f73c6ac6e00000000000000000000000000000000000000000000000000000000889452820152fd5b858852898c206001600160a01b03198154169055828c5260038852898c2090815401905538610a85565b608485602b888a8d519362461bcd60e51b85528401528201527f506c6179657250726f66696c653a205468697320534254206973206e6f6e2d7460448201527f72616e7366657261626c650000000000000000000000000000000000000000006064820152fd5b85858c8b5191633250574960e11b8352820152fd5b848a601186634e487b7160e01b835252fd5b838a604187634e487b7160e01b835252fd5b5060649184519162461bcd60e51b8352820152601a60248201527f5649503a20546f6b656e2061646472657373206e6f74207365740000000000006044820152fd5b608492519162461bcd60e51b8352820152602860248201527f5649503a20596f75206861766520612070656e64696e6720756e7374616b652060448201527f746f20636c61696d0000000000000000000000000000000000000000000000006064820152fd5b606492519162461bcd60e51b8352820152601360248201527f5649503a2043616e6e6f74207374616b652030000000000000000000000000006044820152fd5b8382346102b75760203660031901126102b757610e6b611ccb565b35600d5580f35b5050346102b75736600319011261040857610e8b611b45565b50602435801515036104085780f35b5050346102b757816003193601126102b757805190826001805491610ebe83611c91565b8086529282811690811561037c5750600114610ee6575050506103098261031b940383611bdd565b94508085527fb10e2d527612073b26eecdfd717e6a320cf44b4afac2b0732d9fcbe2b7fa0cf65b828610610f2a5750505061030982602061031b95820101946102f7565b80546020878701810191909152909501948101610f0d565b509190346102b757610f5336611c52565b90610f5c611ccb565b81519367ffffffffffffffff85116111035750610f7a600b54611c91565b601f81116110a0575b50602093601f8111600114610ffa579081610fe9939285967f905d981207a7d0b6c62cc46ab0be2a076d0298e4a86d0ab79882dbd01ac373789691610fef575b508160011b916000199060031b1c191617600b5551918291602083526020830190611b20565b0390a180f35b905083015138610fc3565b600b84527f0175b7a638427703f0dbe7bb9bbf987a2551717b34e79f33b5b1008d1fa01db9601f198216855b8181106110885750916001917f905d981207a7d0b6c62cc46ab0be2a076d0298e4a86d0ab79882dbd01ac37378969782610fe99796951061106f575b5050811b01600b55610309565b85015160001960f88460031b161c191690553880611062565b85880151835560209788019760019093019201611026565b600b84527f0175b7a638427703f0dbe7bb9bbf987a2551717b34e79f33b5b1008d1fa01db9601f860160051c810191602087106110f9575b601f0160051c01905b8181106110ee5750610f83565b8481556001016110e1565b90915081906110d8565b836041602492634e487b7160e01b835252fd5b5050346102b75760203660031901126102b75780916001600160a01b0361113b611b45565b168152600f602052206001815491015482519182526020820152f35b5050346102b757816003193601126102b7576020906001600160a01b03600654169051908152f35b5050346102b757816003193601126102b75760207f62e78cea01bee320cd4e420270b5ea74000d11b0c9f74754ebdbfc544b05a258916111bd611ccb565b6111c5611e06565b600160ff19600854161760085551338152a180f35b5050346102b757816003193601126102b757602090600d549051908152f35b8334610408578060031936011261040857611212611ccb565b806001600160a01b036006546001600160a01b03198116600655167f8be0079c531659141344cd1fd0a4f28419497f9722a3daafe3b4186f6b6457e08280a380f35b509134610408576020366003190112610408576001600160a01b03611277611b45565b169283156112945750806020938392526003845220549051908152f35b9060249251917f89c62b64000000000000000000000000000000000000000000000000000000008352820152fd5b5050346102b757816003193601126102b75780519082600a546112e481611c91565b8085529160019180831690811561037c575060011461130f575050506103098261031b940383611bdd565b9450600a85527fc65a7bb8d6351c1cf70c95a316cc6a92839c986682d98bc35f958f4883f9d2a85b8286106113545750505061030982602061031b95820101946102f7565b80546020878701810191909152909501948101611337565b8334610408576020366003190112610408576001600160a01b0361138e611b45565b611396611ccb565b6008547fffffffffffffffffffffff0000000000000000000000000000000000000000ff74ffffffffffffffffffffffffffffffffffffffff008360081b16911617600855167f45e919947eac4ba070dccb2545cf1e7e330fd110330232d74a6996e9e2308f248280a280f35b5050346102b757816003193601126102b757602090600e549051908152f35b5050346102b757816003193601126102b7576020906001600160a01b0360085460081c169051908152f35b50913461040857602036600319011261040857506001600160a01b0361147560209335611d0f565b915191168152f35b5050346102b757816003193601126102b75760209060ff6008541690519015158152f35b509190346102b7576114b236611c52565b906114bb611ccb565b81519367ffffffffffffffff851161110357506114d9600a54611c91565b601f81116115f9575b50602093601f8111600114611553579081610fe9939285967ff9c7803e94e0d3c02900d8a90893a6d5e90dd04d32a4cfe825520f82bf9f32f69691611548575b508160011b916000199060031b1c191617600a5551918291602083526020830190611b20565b905083015138611522565b600a84527fc65a7bb8d6351c1cf70c95a316cc6a92839c986682d98bc35f958f4883f9d2a8601f198216855b8181106115e15750916001917ff9c7803e94e0d3c02900d8a90893a6d5e90dd04d32a4cfe825520f82bf9f32f6969782610fe9979695106115c8575b5050811b01600a55610309565b85015160001960f88460031b161c1916905538806115bb565b8588015183556020978801976001909301920161157f565b600a84527fc65a7bb8d6351c1cf70c95a316cc6a92839c986682d98bc35f958f4883f9d2a8601f860160051c81019160208710611652575b601f0160051c01905b81811061164757506114e2565b84815560010161163a565b9091508190611631565b5050346102b757816003193601126102b7576020906001600160a01b03600954169051908152f35b5050346102b7576116a19061169836611b76565b50505051611bab565b80f35b50346102655782600319360112610265576116bd611ccb565b6008549060ff8216156116ff575060ff1916600855513381527f5db9ee0a495bf2e6ff9c91a7834c1ba4fdd244a5e8aa4e537bd38aeae4b073aa90602090a180f35b82517f8dfc202b000000000000000000000000000000000000000000000000000000008152fd5b5050346102b75760203660031901126102b75760209060ff61147561042c611b45565b83346104085761175836611b76565b50505080f35b509190346102b757602090816003193601126102655783359161177f611e3c565b611787611e06565b338452600f815281842083151580611903575b156118c1573385526010825282852054611859576117b9848254611e77565b90556117c783600e54611d63565b600e556117d6600d5442611d63565b90825183810181811067ffffffffffffffff821117611846577f57e41df54512c76148b5ba9b643d149752b0d35e493b969bd017d0a3fe5228cf959697508452858152600182820184815233895260108452858920925183555191015582519485528401523392a2600160075580f35b60248760418a634e487b7160e01b835252fd5b6084868385519162461bcd60e51b8352820152602b60248201527f5649503a2050726576696f757320756e7374616b65207265717565737420737460448201527f696c6c2070656e64696e670000000000000000000000000000000000000000006064820152fd5b6064868385519162461bcd60e51b8352820152601b60248201527f5649503a20496e76616c696420756e7374616b6520616d6f756e7400000000006044820152fd5b50805484111561179a565b8382346102b75760203660031901126102b7576116a19061192d611ccb565b3561213b565b5050346102b757366003190112610408576108d4611b45565b50346102655760203660031901126102655781602093826001600160a01b03933561197681611d0f565b50825285522054169051908152f35b5050346102b757816003193601126102b7578051908280546119a681611c91565b8085529160019180831690811561037c57506001146119d1575050506103098261031b940383611bdd565b80809650527f290decd9548b62a8d60345a988386fc84ba6bc95484008f6362f93160ef3e5635b828610611a155750505061030982602061031b95820101946102f7565b805460208787018101919091529095019481016119f8565b9250503461026557602036600319011261026557357fffffffff00000000000000000000000000000000000000000000000000000000811680910361026557602092507f80ac58cd000000000000000000000000000000000000000000000000000000008114908115611ad3575b8115611aa9575b5015158152f35b7f01ffc9a70000000000000000000000000000000000000000000000000000000091501438611aa2565b7f5b5e139f0000000000000000000000000000000000000000000000000000000081149150611a9b565b60005b838110611b105750506000910152565b8181015183820152602001611b00565b90602091611b3981518092818552858086019101611afd565b601f01601f1916010190565b600435906001600160a01b0382168203611b5b57565b600080fd5b602435906001600160a01b0382168203611b5b57565b6060906003190112611b5b576001600160a01b03906004358281168103611b5b57916024359081168103611b5b579060443590565b6020810190811067ffffffffffffffff821117611bc757604052565b634e487b7160e01b600052604160045260246000fd5b90601f8019910116810190811067ffffffffffffffff821117611bc757604052565b67ffffffffffffffff8111611bc757601f01601f191660200190565b929192611c2782611bff565b91611c356040519384611bdd565b829481845281830111611b5b578281602093846000960137010152565b6020600319820112611b5b576004359067ffffffffffffffff8211611b5b5780602383011215611b5b57816024611c8e93600401359101611c1b565b90565b90600182811c92168015611cc1575b6020831014611cab57565b634e487b7160e01b600052602260045260246000fd5b91607f1691611ca0565b6001600160a01b03600654163303611cdf57565b60246040517f118cdaa7000000000000000000000000000000000000000000000000000000008152336004820152fd5b8060005260026020526001600160a01b0360406000205416908115611d32575090565b602490604051907f7e2732890000000000000000000000000000000000000000000000000000000082526004820152fd5b91908201809211611d7057565b634e487b7160e01b600052601160045260246000fd5b906000602091828151910182855af115611dfa576000513d611df157506001600160a01b0381163b155b611db75750565b6024906001600160a01b03604051917f5274afe7000000000000000000000000000000000000000000000000000000008352166004820152fd5b60011415611db0565b6040513d6000823e3d90fd5b60ff60085416611e1257565b60046040517fd93c0665000000000000000000000000000000000000000000000000000000008152fd5b600260075414611e4d576002600755565b60046040517f3ee5aeb5000000000000000000000000000000000000000000000000000000008152fd5b91908203918211611d7057565b916001600160a01b03604051927fa9059cbb000000000000000000000000000000000000000000000000000000006020850152166024830152604482015260448152608081019181831067ffffffffffffffff841117611bc757611eea92604052611d86565b565b8115611ef6570490565b634e487b7160e01b600052601260045260246000fd5b6001600160a01b0380600092168252600f60205260408220549081158015611ff5575b611fb45760209060085460081c16916024604051809481937fb6395e3100000000000000000000000000000000000000000000000000000000835260048301525afa908115611fea578291611fb9575b5068056bc75e2d6310000090818110611fb457611f9d925004612004565b60ff8111611fac575b60ff1690565b5060ff611fa6565b505090565b90506020813d8211611fe2575b81611fd360209383611bdd565b810103126102b7575138611f7f565b3d9150611fc6565b6040513d84823e3d90fd5b508060085460081c1615611f2f565b600180821115612137576120d3908083700100000000000000000000000000000000811015612120575b80680100000000000000006004921015612113575b640100000000811015612106575b620100008110156120f9575b6101008110156120ed575b60108110156120e1575b10156120da575b600302811c6120888185611eec565b01811c6120958185611eec565b01811c6120a28185611eec565b01811c6120af8185611eec565b01811c6120bc8185611eec565b01811c6120c98185611eec565b01901c8092611eec565b8111900390565b811b612079565b811c9160021b91612072565b60081c91811b91612068565b60101c9160081b9161205d565b60201c9160101b91612051565b60401c9160201b91612043565b50680100000000000000009050608084901c61202e565b5090565b6001600160a01b039081600954166040517f70a08231000000000000000000000000000000000000000000000000000000008152306004820152602081602481855afa8015611dfa576000906121d3575b61219a9150600e5490611e77565b821580156121ca575b6121c2575b5081156121bd57611eea926006541690611e84565b505050565b9150386121a8565b508083116121a3565b6020823d82116121fe575b816121eb60209383611bdd565b81010312610408575061219a905161218c565b3d91506121de56fea2646970667358221220097871de4a713f0e94e512043417da480b3f9ae3c9a394e27fbbac9b0b3c1a3c64736f6c63430008140033",
  "linkReferences": {},
  "deployedLinkReferences": {}
}