{
  "_format": "hh-sol-artifact-1",
  "contractName": "VRFConsumerV2Plus",
  "sourceName": "contracts/current/core/VRFConsumerV2Plus.sol",
  "abi": [
    {
      "inputs": [
        {
          "internalType": "uint256",
          "name": "subscriptionId",
          "type": "uint256"
        },
        {
          "internalType": "address",
          "name": "vrfCoordinator",
          "type": "address"
        }
      ],
      "stateMutability": "nonpayable",
      "type": "constructor"
    },
    {
      "inputs": [
        {
          "internalType": "address",
          "name": "have",
          "type": "address"
        },
        {
          "internalType": "address",
          "name": "want",
          "type": "address"
        }
      ],
      "name": "OnlyCoordinatorCanFulfill",
      "type": "error"
    },
    {
      "inputs": [
        {
          "internalType": "address",
          "name": "have",
          "type": "address"
        },
        {
          "internalType": "address",
          "name": "owner",
          "type": "address"
        },
        {
          "internalType": "address",
          "name": "coordinator",
          "type": "address"
        }
      ],
      "name": "OnlyOwnerOrCoordinator",
      "type": "error"
    },
    {
      "inputs": [],
      "name": "ReentrancyGuardReentrantCall",
      "type": "error"
    },
    {
      "inputs": [],
      "name": "ZeroAddress",
      "type": "error"
    },
    {
      "anonymous": false,
      "inputs": [
        {
          "indexed": true,
          "internalType": "address",
          "name": "contractAddress",
          "type": "address"
        },
        {
          "indexed": false,
          "internalType": "bool",
          "name": "authorized",
          "type": "bool"
        }
      ],
      "name": "AuthorizationChanged",
      "type": "event"
    },
    {
      "anonymous": false,
      "inputs": [
        {
          "indexed": true,
          "internalType": "uint256",
          "name": "requestId",
          "type": "uint256"
        },
        {
          "indexed": true,
          "internalType": "address",
          "name": "callbackContract",
          "type": "address"
        },
        {
          "indexed": false,
          "internalType": "bytes",
          "name": "reason",
          "type": "bytes"
        }
      ],
      "name": "CallbackFailed",
      "type": "event"
    },
    {
      "anonymous": false,
      "inputs": [
        {
          "indexed": false,
          "internalType": "uint32",
          "name": "oldLimit",
          "type": "uint32"
        },
        {
          "indexed": false,
          "internalType": "uint32",
          "name": "newLimit",
          "type": "uint32"
        }
      ],
      "name": "CallbackGasLimitUpdated",
      "type": "event"
    },
    {
      "anonymous": false,
      "inputs": [
        {
          "indexed": true,
          "internalType": "uint256",
          "name": "requestId",
          "type": "uint256"
        },
        {
          "indexed": true,
          "internalType": "address",
          "name": "callbackContract",
          "type": "address"
        }
      ],
      "name": "CallbackSuccess",
      "type": "event"
    },
    {
      "anonymous": false,
      "inputs": [
        {
          "indexed": false,
          "internalType": "address",
          "name": "vrfCoordinator",
          "type": "address"
        }
      ],
      "name": "CoordinatorSet",
      "type": "event"
    },
    {
      "anonymous": false,
      "inputs": [
        {
          "indexed": true,
          "internalType": "address",
          "name": "token",
          "type": "address"
        },
        {
          "indexed": false,
          "internalType": "uint256",
          "name": "amount",
          "type": "uint256"
        }
      ],
      "name": "EmergencyWithdraw",
      "type": "event"
    },
    {
      "anonymous": false,
      "inputs": [
        {
          "indexed": true,
          "internalType": "address",
          "name": "from",
          "type": "address"
        },
        {
          "indexed": true,
          "internalType": "address",
          "name": "to",
          "type": "address"
        }
      ],
      "name": "OwnershipTransferRequested",
      "type": "event"
    },
    {
      "anonymous": false,
      "inputs": [
        {
          "indexed": true,
          "internalType": "address",
          "name": "from",
          "type": "address"
        },
        {
          "indexed": true,
          "internalType": "address",
          "name": "to",
          "type": "address"
        }
      ],
      "name": "OwnershipTransferred",
      "type": "event"
    },
    {
      "anonymous": false,
      "inputs": [
        {
          "indexed": true,
          "internalType": "uint256",
          "name": "requestId",
          "type": "uint256"
        },
        {
          "indexed": false,
          "internalType": "uint256[]",
          "name": "randomWords",
          "type": "uint256[]"
        }
      ],
      "name": "RequestFulfilled",
      "type": "event"
    },
    {
      "anonymous": false,
      "inputs": [
        {
          "indexed": true,
          "internalType": "uint256",
          "name": "requestId",
          "type": "uint256"
        },
        {
          "indexed": false,
          "internalType": "uint32",
          "name": "numWords",
          "type": "uint32"
        }
      ],
      "name": "RequestSent",
      "type": "event"
    },
    {
      "anonymous": false,
      "inputs": [
        {
          "indexed": true,
          "internalType": "uint256",
          "name": "requestId",
          "type": "uint256"
        },
        {
          "indexed": true,
          "internalType": "address",
          "name": "requester",
          "type": "address"
        }
      ],
      "name": "RequestTimedOut",
      "type": "event"
    },
    {
      "anonymous": false,
      "inputs": [
        {
          "indexed": false,
          "internalType": "bytes32",
          "name": "keyHash",
          "type": "bytes32"
        },
        {
          "indexed": false,
          "internalType": "uint32",
          "name": "callbackGasLimit",
          "type": "uint32"
        },
        {
          "indexed": false,
          "internalType": "uint16",
          "name": "requestConfirmations",
          "type": "uint16"
        }
      ],
      "name": "VRFParamsUpdated",
      "type": "event"
    },
    {
      "inputs": [],
      "name": "COOLDOWN_PERIOD",
      "outputs": [
        {
          "internalType": "uint256",
          "name": "",
          "type": "uint256"
        }
      ],
      "stateMutability": "view",
      "type": "function"
    },
    {
      "inputs": [],
      "name": "MAX_CALLBACK_GAS_LIMIT",
      "outputs": [
        {
          "internalType": "uint32",
          "name": "",
          "type": "uint32"
        }
      ],
      "stateMutability": "view",
      "type": "function"
    },
    {
      "inputs": [],
      "name": "MIN_CALLBACK_GAS_LIMIT",
      "outputs": [
        {
          "internalType": "uint32",
          "name": "",
          "type": "uint32"
        }
      ],
      "stateMutability": "view",
      "type": "function"
    },
    {
      "inputs": [],
      "name": "REQUEST_TIMEOUT",
      "outputs": [
        {
          "internalType": "uint256",
          "name": "",
          "type": "uint256"
        }
      ],
      "stateMutability": "view",
      "type": "function"
    },
    {
      "inputs": [],
      "name": "acceptOwnership",
      "outputs": [],
      "stateMutability": "nonpayable",
      "type": "function"
    },
    {
      "inputs": [
        {
          "internalType": "address",
          "name": "contract_",
          "type": "address"
        }
      ],
      "name": "authorizeContract",
      "outputs": [],
      "stateMutability": "nonpayable",
      "type": "function"
    },
    {
      "inputs": [
        {
          "internalType": "address",
          "name": "",
          "type": "address"
        }
      ],
      "name": "authorized",
      "outputs": [
        {
          "internalType": "bool",
          "name": "",
          "type": "bool"
        }
      ],
      "stateMutability": "view",
      "type": "function"
    },
    {
      "inputs": [],
      "name": "callbackGasLimit",
      "outputs": [
        {
          "internalType": "uint32",
          "name": "",
          "type": "uint32"
        }
      ],
      "stateMutability": "view",
      "type": "function"
    },
    {
      "inputs": [
        {
          "internalType": "uint256",
          "name": "requestId",
          "type": "uint256"
        }
      ],
      "name": "cleanupExpiredRequest",
      "outputs": [],
      "stateMutability": "nonpayable",
      "type": "function"
    },
    {
      "inputs": [],
      "name": "emergencyWithdraw",
      "outputs": [],
      "stateMutability": "nonpayable",
      "type": "function"
    },
    {
      "inputs": [
        {
          "internalType": "address",
          "name": "token",
          "type": "address"
        }
      ],
      "name": "emergencyWithdrawToken",
      "outputs": [],
      "stateMutability": "nonpayable",
      "type": "function"
    },
    {
      "inputs": [
        {
          "internalType": "uint32",
          "name": "_numWords",
          "type": "uint32"
        }
      ],
      "name": "estimateRequestCost",
      "outputs": [
        {
          "internalType": "uint256",
          "name": "estimatedCost",
          "type": "uint256"
        }
      ],
      "stateMutability": "view",
      "type": "function"
    },
    {
      "inputs": [
        {
          "internalType": "address",
          "name": "user",
          "type": "address"
        }
      ],
      "name": "getRandomForUser",
      "outputs": [
        {
          "internalType": "bool",
          "name": "fulfilled",
          "type": "bool"
        },
        {
          "internalType": "uint256[]",
          "name": "randomWords",
          "type": "uint256[]"
        }
      ],
      "stateMutability": "view",
      "type": "function"
    },
    {
      "inputs": [
        {
          "internalType": "uint256",
          "name": "_requestId",
          "type": "uint256"
        }
      ],
      "name": "getRequestStatus",
      "outputs": [
        {
          "internalType": "bool",
          "name": "fulfilled",
          "type": "bool"
        },
        {
          "internalType": "uint256[]",
          "name": "randomWords",
          "type": "uint256[]"
        }
      ],
      "stateMutability": "view",
      "type": "function"
    },
    {
      "inputs": [],
      "name": "getTotalFee",
      "outputs": [
        {
          "internalType": "uint256",
          "name": "",
          "type": "uint256"
        }
      ],
      "stateMutability": "pure",
      "type": "function"
    },
    {
      "inputs": [],
      "name": "getVrfRequestPrice",
      "outputs": [
        {
          "internalType": "uint256",
          "name": "",
          "type": "uint256"
        }
      ],
      "stateMutability": "pure",
      "type": "function"
    },
    {
      "inputs": [
        {
          "internalType": "uint256",
          "name": "_requestId",
          "type": "uint256"
        }
      ],
      "name": "isRequestExpired",
      "outputs": [
        {
          "internalType": "bool",
          "name": "",
          "type": "bool"
        }
      ],
      "stateMutability": "view",
      "type": "function"
    },
    {
      "inputs": [],
      "name": "keyHash",
      "outputs": [
        {
          "internalType": "bytes32",
          "name": "",
          "type": "bytes32"
        }
      ],
      "stateMutability": "view",
      "type": "function"
    },
    {
      "inputs": [
        {
          "internalType": "address",
          "name": "",
          "type": "address"
        }
      ],
      "name": "lastRequestIdByAddress",
      "outputs": [
        {
          "internalType": "uint256",
          "name": "",
          "type": "uint256"
        }
      ],
      "stateMutability": "view",
      "type": "function"
    },
    {
      "inputs": [
        {
          "internalType": "address",
          "name": "",
          "type": "address"
        }
      ],
      "name": "lastRequestTime",
      "outputs": [
        {
          "internalType": "uint256",
          "name": "",
          "type": "uint256"
        }
      ],
      "stateMutability": "view",
      "type": "function"
    },
    {
      "inputs": [],
      "name": "numWords",
      "outputs": [
        {
          "internalType": "uint32",
          "name": "",
          "type": "uint32"
        }
      ],
      "stateMutability": "view",
      "type": "function"
    },
    {
      "inputs": [],
      "name": "owner",
      "outputs": [
        {
          "internalType": "address",
          "name": "",
          "type": "address"
        }
      ],
      "stateMutability": "view",
      "type": "function"
    },
    {
      "inputs": [
        {
          "internalType": "uint256",
          "name": "requestId",
          "type": "uint256"
        },
        {
          "internalType": "uint256[]",
          "name": "randomWords",
          "type": "uint256[]"
        }
      ],
      "name": "rawFulfillRandomWords",
      "outputs": [],
      "stateMutability": "nonpayable",
      "type": "function"
    },
    {
      "inputs": [],
      "name": "requestConfirmations",
      "outputs": [
        {
          "internalType": "uint16",
          "name": "",
          "type": "uint16"
        }
      ],
      "stateMutability": "view",
      "type": "function"
    },
    {
      "inputs": [
        {
          "internalType": "uint256",
          "name": "",
          "type": "uint256"
        }
      ],
      "name": "requestIdToContract",
      "outputs": [
        {
          "internalType": "address",
          "name": "",
          "type": "address"
        }
      ],
      "stateMutability": "view",
      "type": "function"
    },
    {
      "inputs": [
        {
          "internalType": "uint256",
          "name": "",
          "type": "uint256"
        }
      ],
      "name": "requestIdToUser",
      "outputs": [
        {
          "internalType": "address",
          "name": "",
          "type": "address"
        }
      ],
      "stateMutability": "view",
      "type": "function"
    },
    {
      "inputs": [
        {
          "internalType": "address",
          "name": "user",
          "type": "address"
        },
        {
          "internalType": "uint256",
          "name": "quantity",
          "type": "uint256"
        },
        {
          "internalType": "uint8",
          "name": "",
          "type": "uint8"
        },
        {
          "internalType": "bytes32",
          "name": "",
          "type": "bytes32"
        }
      ],
      "name": "requestRandomForUser",
      "outputs": [
        {
          "internalType": "uint256",
          "name": "requestId",
          "type": "uint256"
        }
      ],
      "stateMutability": "payable",
      "type": "function"
    },
    {
      "inputs": [
        {
          "internalType": "uint32",
          "name": "_numWords",
          "type": "uint32"
        }
      ],
      "name": "requestRandomWords",
      "outputs": [
        {
          "internalType": "uint256",
          "name": "requestId",
          "type": "uint256"
        }
      ],
      "stateMutability": "nonpayable",
      "type": "function"
    },
    {
      "inputs": [
        {
          "internalType": "uint8",
          "name": "",
          "type": "uint8"
        },
        {
          "internalType": "uint32",
          "name": "_numWords",
          "type": "uint32"
        },
        {
          "internalType": "bytes",
          "name": "data",
          "type": "bytes"
        }
      ],
      "name": "requestRandomness",
      "outputs": [
        {
          "internalType": "uint256",
          "name": "requestId",
          "type": "uint256"
        }
      ],
      "stateMutability": "payable",
      "type": "function"
    },
    {
      "inputs": [
        {
          "internalType": "uint256",
          "name": "",
          "type": "uint256"
        }
      ],
      "name": "s_requests",
      "outputs": [
        {
          "internalType": "bool",
          "name": "fulfilled",
          "type": "bool"
        },
        {
          "internalType": "bool",
          "name": "exists",
          "type": "bool"
        },
        {
          "internalType": "address",
          "name": "requester",
          "type": "address"
        },
        {
          "internalType": "uint256",
          "name": "timestamp",
          "type": "uint256"
        }
      ],
      "stateMutability": "view",
      "type": "function"
    },
    {
      "inputs": [],
      "name": "s_subscriptionId",
      "outputs": [
        {
          "internalType": "uint256",
          "name": "",
          "type": "uint256"
        }
      ],
      "stateMutability": "view",
      "type": "function"
    },
    {
      "inputs": [],
      "name": "s_vrfCoordinator",
      "outputs": [
        {
          "internalType": "contract IVRFCoordinatorV2Plus",
          "name": "",
          "type": "address"
        }
      ],
      "stateMutability": "view",
      "type": "function"
    },
    {
      "inputs": [
        {
          "internalType": "address",
          "name": "addr",
          "type": "address"
        },
        {
          "internalType": "bool",
          "name": "auth",
          "type": "bool"
        }
      ],
      "name": "setAuthorizedContract",
      "outputs": [],
      "stateMutability": "nonpayable",
      "type": "function"
    },
    {
      "inputs": [
        {
          "internalType": "uint32",
          "name": "_callbackGasLimit",
          "type": "uint32"
        }
      ],
      "name": "setCallbackGasLimit",
      "outputs": [],
      "stateMutability": "nonpayable",
      "type": "function"
    },
    {
      "inputs": [
        {
          "internalType": "address",
          "name": "_vrfCoordinator",
          "type": "address"
        }
      ],
      "name": "setCoordinator",
      "outputs": [],
      "stateMutability": "nonpayable",
      "type": "function"
    },
    {
      "inputs": [
        {
          "internalType": "bytes32",
          "name": "_keyHash",
          "type": "bytes32"
        }
      ],
      "name": "setKeyHash",
      "outputs": [],
      "stateMutability": "nonpayable",
      "type": "function"
    },
    {
      "inputs": [
        {
          "internalType": "uint16",
          "name": "_confirmations",
          "type": "uint16"
        }
      ],
      "name": "setRequestConfirmations",
      "outputs": [],
      "stateMutability": "nonpayable",
      "type": "function"
    },
    {
      "inputs": [
        {
          "internalType": "uint256",
          "name": "_subscriptionId",
          "type": "uint256"
        }
      ],
      "name": "setSubscriptionId",
      "outputs": [],
      "stateMutability": "nonpayable",
      "type": "function"
    },
    {
      "inputs": [
        {
          "internalType": "bytes32",
          "name": "_keyHash",
          "type": "bytes32"
        },
        {
          "internalType": "uint32",
          "name": "_callbackGasLimit",
          "type": "uint32"
        },
        {
          "internalType": "uint16",
          "name": "_requestConfirmations",
          "type": "uint16"
        },
        {
          "internalType": "uint32",
          "name": "_numWords",
          "type": "uint32"
        }
      ],
      "name": "setVRFParams",
      "outputs": [],
      "stateMutability": "nonpayable",
      "type": "function"
    },
    {
      "inputs": [
        {
          "internalType": "address",
          "name": "to",
          "type": "address"
        }
      ],
      "name": "transferOwnership",
      "outputs": [],
      "stateMutability": "nonpayable",
      "type": "function"
    },
    {
      "inputs": [],
      "name": "vrfRequestPrice",
      "outputs": [
        {
          "internalType": "uint256",
          "name": "",
          "type": "uint256"
        }
      ],
      "stateMutability": "pure",
      "type": "function"
    },
    {
      "stateMutability": "payable",
      "type": "receive"
    }
  ],
  "bytecode": "0x60803461012c57601f620025c038819003918201601f19168301916001600160401b0383118484101761013157808492604094855283398101031261012c5780516020909101516001600160a01b0381169081900361012c5733156100e757600080546001600160a01b0319908116331790915581156100d557600254161760025560016003557f130dba50ad435d4ecc214aad0d5820474137bd68e7e77724144f27c3c377d3d460095566010006002625a060018060501b0319600a541617600a556008556040516124789081620001488239f35b60405163d92e233d60e01b8152600490fd5b60405162461bcd60e51b815260206004820152601860248201527f43616e6e6f7420736574206f776e657220746f207a65726f00000000000000006044820152606490fd5b600080fd5b634e487b7160e01b600052604160045260246000fdfe6080604081815260049081361015610022575b505050361561002057600080fd5b005b600091823560e01c938463052a029d14611b44575083631af032031461194e5783631fe543e3146118a557836324f7469714611881578363350c693c14611852578363394f61811461181c57836339c33215146117ff5783634c52b16c146115065783635681dbe9146114d357836361728f39146114b557836367561d93146114485783636e99d52f1461142d57836379ba5097146113805783637ae316d0146101f95783637ccfd7fc146113595783637df7f3be1461133157836384d0af8f146111b357836386ac73f614610e4c57836387fe97e4146101f95783638824f5a714610d925783638ac0002114610d745783638da5cb5b14610d4f5783638ea9811714610c5b5783639854471014610bdf5783639eccacf614610bb8578363a168fa8914610b61578363a4eb718c14610ad2578363b0fb162f14610aaf578363b3d0358214610a92578363b918161114610a57578363bc2c81e914610a3b578363c1e0d23614610a19578363d8a4676f146108fd578363db2e21bc14610842578363dc7d73bb14610813578363e1e0afdd14610753578363e726f2e114610476578363f2fa7392146103e9578363f2fde38b14610333578363fac72279146101fe5750505063fcfa2217146101f957388080610012565b611c09565b3461032f57608036600319011261032f5735610218611b93565b9160443561ffff9283821680830361032b5760643563ffffffff938482168203610327576102a2610308957f57859b8e7923a911de2253a06917677e4afad09ac34111db13c58d8e1f59128c9961026d611c25565b6102788715156123ac565b1693620186a08510158061031a575b61029090612361565b6003811015908161030e575b506123f7565b8360095565ffff000000008369ffffffff000000000000600a549460301b169369ffffffffffffffffffff1916179160201b1617179384600a555194859460201c16918491604091949363ffffffff61ffff926060860197865216602085015216910152565b0390a180f35b60c8915011158b61029c565b50622625a0851115610287565b8880fd5b8680fd5b8280fd5b3461032f57602036600319011261032f5761034c611b78565b90610355611c25565b6001600160a01b03809216923384146103a6575050816001600160a01b031960015416176001558254167fed8889f560326eb138920d842192f0eb3dd22b4f139c87a2c57538e05bae12788380a380f35b906020606492519162461bcd60e51b8352820152601760248201527f43616e6e6f74207472616e7366657220746f2073656c660000000000000000006044820152fd5b5034610472578060031936011261047257610402611b78565b906024359182151580840361046e577f5fe3a0cb9aeae856eac34445ace9544f3e15c21fa6f9bffeca60d662a690ca1b926104666001600160a01b03602094610449611c25565b1695868852600b85528288209060ff801983541691151516179055565b51908152a280f35b8480fd5b5080fd5b925034610472576020928360031936011261032f57610493611ba6565b338452600b855260ff8385205416801561073b575b6104b190611c7d565b6104b9611ed0565b338452600c855282842054601e8101809111610728576104db90421015611cc8565b338452600c855242838520556001600160a01b03848661056c836002541660095460085496600a549061051a8b5161051281611d13565b888152611e7d565b988b519361052785611d45565b84528684015261ffff82871c168b84015263ffffffff8092166060840152169687608083015260a08201528851998a80948193634d8e1c2f60e11b83528b8301611ddf565b03925af195861561071c5781966106e9575b5084519161058b83611d13565b81835285519061059a82611d61565b82825288820190600196878352888401958652606084019533875260808501934285528b8752828d526105df8b882096511515879060ff801983541691151516179055565b51855461ff00191690151560081b61ff001617855551805191898601919067ffffffffffffffff84116106d657509282828e8d968f9b989c9995829b9761062591611e35565b019085528885208c865b8481106106aa5750505050507fcc58b13ad3eab50626c6a6300b1d139cd6ebb1688a7cced9461c2f7e762665ee979860039160028401965116956001600160a01b031996878254161790555191015533815260058552868282205586815260078552209033908254161790558551908152a260035551908152f35b9295999c989b509295999093965084519401938184015501928c98959996928c95928f99958d9061062f565b876041602492634e487b7160e01b835252fd5b9095508681813d8311610715575b6107018183611d7d565b810103126107115751943861057e565b8580fd5b503d6106f7565b508451903d90823e3d90fd5b602485601185634e487b7160e01b835252fd5b506104b16001600160a01b03855416331490506104a8565b9250346104725760203660031901126104725761076e611ba6565b9163ffffffff633b9aca0081600a541602938185169485036108005716926601c6bf5263400093808502948504036107ed5766038d7ea4c6800090848201948583116107da5701018093116107c7576020838351908152f35b80601185634e487b7160e01b6024945252fd5b602484601189634e487b7160e01b835252fd5b602482601187634e487b7160e01b835252fd5b602483601188634e487b7160e01b835252fd5b3461032f57602036600319011261032f57816020936001600160a01b0392358152600685522054169051908152f35b82903461047257816003193601126104725761085c611c25565b479081610867578280f35b82808080856001600160a01b038254165af16108816120e6565b50156108ba575060207f5fafa99d0643513820be26656b45130b01e1c03062e1266bf36f88cbd3bd969591839451908152a28082808280f35b606490602085519162461bcd60e51b8352820152601360248201527f424e42207472616e73666572206661696c6564000000000000000000000000006044820152fd5b9134610a16576020928360031936011261047257803580835281855260ff8484205460081c16156109d457825283528181208251919361093c83611d61565b60ff82548181161515855260081c1615158184015260019485830190855196878489958554928381520194845280842093905b8282106109bc57868a6109b88b60038c61098b868d0387611d7d565b85858401526001600160a01b03600282015416606084015201546080820152511515915192839283611bed565b0390f35b845486528a965094850194938301939083019061096f565b6064828686519162461bcd60e51b8352820152601160248201527f72657175657374206e6f7420666f756e640000000000000000000000000000006044820152fd5b80fd5b90503461047257602036600319011261047257610a34611c25565b3560085580f35b5034610472578160031936011261047257602090516107088152f35b50346104725760203660031901126104725760ff816020936001600160a01b03610a7f611b78565b168152600b855220541690519015158152f35b503461047257816003193601126104725760209051620186a08152f35b5034610472578160031936011261047257600a549051602091821c61ffff168152f35b5034610472576020366003190112610472577f7c762fcc4f45afe3829913a024ea45c617722aec34739245c1e52a7ce483e37a90610b0e611ba6565b610b16611c25565b63ffffffff809116620186a081101580610b54575b610b3490612361565b600a54918163ffffffff19841617600a558351921682526020820152a180f35b50622625a0811115610b2b565b3461032f57602036600319011261032f57608092818392358252602052209081549160036001600160a01b036002830154169101549160ff8151948181161515865260081c16151560208501528301526060820152f35b50346104725781600319360112610472576020906001600160a01b03600254169051908152f35b903461032f57602036600319011261032f577f57859b8e7923a911de2253a06917677e4afad09ac34111db13c58d8e1f59128c9135610c1c611c25565b610c278115156123ac565b6009819055600a54915190815263ffffffff82166020808301919091529190911c61ffff1660408201528060608101610308565b903461032f57602036600319011261032f57610c75611b78565b6001600160a01b0390818554168033141580610d41575b610d00575016918215610cd95750816020917fd1a6a14209a385a964d036e404cb5cfb71f4000cdb03c9366292430787261be6936001600160a01b0319600254161760025551908152a180f35b90517fd92e233d000000000000000000000000000000000000000000000000000000008152fd5b848460649285600254169151927f061db9c1000000000000000000000000000000000000000000000000000000008452339084015260248301526044820152fd5b508260025416331415610c8c565b50346104725781600319360112610472576001600160a01b0360209254169051908152f35b50346104725781600319360112610472576020906008549051908152f35b3461032f57602036600319011261032f57359061ffff9081831680840361046e577f57859b8e7923a911de2253a06917677e4afad09ac34111db13c58d8e1f59128c93610df561030892610de4611c25565b60038110159081610e4057506123f7565b600a805465ffff00000000602093841b1665ffff000000001982161791829055600954945194855263ffffffff1684830152901c9290921661ffff1660408201529081906060820190565b60c8915011158861029c565b9250608036600319011261047257610e62611b78565b60243560443560ff81160361112657338452602094600b865260ff8486205416801561119b575b610e9290611c7d565b610e9a611ed0565b81151580611190575b1561114e57338552600c865283852054601e810180911161113b57610eca90421015611cc8565b338552600c86524284862055846001600160a01b038060025416946009549389610f5e60085498600a5497610f0b8c51610f0381611d13565b898152611e7d565b9a8c5191610f1883611d45565b82528482015261ffff89851c168c82015263ffffffff809916606082015260019a8b608083015260a08201528b519c8d80948193634d8e1c2f60e11b8352888301611ddf565b03925af19889156111315790849392918b959a6110f6575b5089895191610f8483611d13565b8583528a5192610f9384611d61565b8684528784018b81528c8501918252826060860199338b5260808701954287528a5252610fd28d892095511515869060ff801983541691151516179055565b51845461ff00191690151560081b61ff0016178455518051918b8501919067ffffffffffffffff84116110e35750938b9a97938f999692938f9b98948f978c9061101c8484611e35565b019087528b87209d875b8381106110b357505050507fcc58b13ad3eab50626c6a6300b1d139cd6ebb1688a7cced9461c2f7e762665ee9a9b506003908460028401985116976001600160a01b0319988982541617905551910155168082526005875288838320558882526006875282822090848254161790556007865220903390825416179055865191168152a260035551908152f35b92969a9d5092969a9d93975093979a84519401938184015501938f999692938f9b98948f97939d9a968f90611026565b886041602492634e487b7160e01b835252fd5b858193949596929b503d831161112a575b6111118183611d7d565b81010312611126579089939291519838610f76565b8380fd5b503d611107565b88513d86823e3d90fd5b602486601184634e487b7160e01b835252fd5b6064908685519162461bcd60e51b8352820152601060248201527f496e76616c6964207175616e74697479000000000000000000000000000000006044820152fd5b506032821115610ea3565b50610e926001600160a01b0386541633149050610e89565b903461032f5760209182600319360112611126578035926111d2611c25565b83855281815260ff8386205460081c16156112f15783855281815260ff83862054166112b15783855281815260038386200154610708810180911161129e5742111561125e57838552528220805460ff19166001178155600201546001600160a01b0316907fb5ead3d88f01302a230f81a3014a3703926bcf32ccc114dcde8777f743d278448380a380f35b606492519162461bcd60e51b8352820152600b60248201527f4e6f7420657870697265640000000000000000000000000000000000000000006044820152fd5b602486601185634e487b7160e01b835252fd5b606492519162461bcd60e51b8352820152601160248201527f416c72656164792066756c66696c6c65640000000000000000000000000000006044820152fd5b606492519162461bcd60e51b8352820152601160248201527f52657175657374206e6f7420666f756e640000000000000000000000000000006044820152fd5b9134610a16576020366003190112610a16575061135060209235612213565b90519015158152f35b503461047257816003193601126104725760209063ffffffff600a5460301c169051908152f35b903461032f578260031936011261032f57600154916001600160a01b039182841633036113ea57505082546001600160a01b03198082163390811786559316600155167f8be0079c531659141344cd1fd0a4f28419497f9722a3daafe3b4186f6b6457e08380a380f35b906020606492519162461bcd60e51b8352820152601660248201527f4d7573742062652070726f706f736564206f776e6572000000000000000000006044820152fd5b503461047257816003193601126104725760209051601e8152f35b5034610472576020366003190112610472577f5fe3a0cb9aeae856eac34445ace9544f3e15c21fa6f9bffeca60d662a690ca1b60206001600160a01b0361148d611b78565b611495611c25565b1692838552600b8252808520600160ff198254161790555160018152a280f35b50346104725781600319360112610472576020906009549051908152f35b5034610472576020366003190112610472576109b8906114f96114f4611b78565b61226a565b9290915192839283611bed565b9250606036600319011261047257823560ff81160361047257611527611b93565b67ffffffffffffffff939060443585811161046e573660238201121561046e5780830135868111610711573691016024011161112657338452602094600b865260ff848620541680156117e7575b61157e90611c7d565b611586611ed0565b338552600c865283852054601e81018091116117d457906115aa8692421015611cc8565b338252600c875242858320556001600160a01b038761163a826002541660095460085497600a54906115e88c516115e081611d13565b8a8152611e7d565b998c51936115f585611d45565b84528684015261ffff82871c168c84015263ffffffff8092166060840152169788608083015260a082015289519a8b80948193634d8e1c2f60e11b83528c8301611ddf565b03925af19687156117ca5790839291899498611795575b50879087519261166084611d13565b84845288519361166f85611d61565b858552868501986001998a81528b8701928352816060880199338b5260808901974289528a52526116b28c892097511515889060ff801983541691151516179055565b51865461ff00191690151560081b61ff001617865590518051928a8701929084116106d657509282828e8d968f9b989c9995829b976116f091611e35565b019085528885208c865b8481106117695750505050507fcc58b13ad3eab50626c6a6300b1d139cd6ebb1688a7cced9461c2f7e762665ee979860039160028401965116956001600160a01b031996878254161790555191015586815260078552209033908254161790558551908152a260035551908152f35b9295999c989b509295999093965084519401938184015501928c98959996928c95928f99958d906116fa565b84819394959299503d83116117c3575b6117af8183611d7d565b8101031261032f5790879291519638611651565b503d6117a5565b86513d85823e3d90fd5b602486601186634e487b7160e01b835252fd5b5061157e6001600160a01b0386541633149050611575565b503461047257816003193601126104725760209051622625a08152f35b503461047257602036600319011261047257806020926001600160a01b03611842611b78565b168152600c845220549051908152f35b3461032f57602036600319011261032f57816020936001600160a01b0392358152600785522054169051908152f35b503461047257816003193601126104725760209063ffffffff600a54169051908152f35b9250346104725780600319360112610472576024359267ffffffffffffffff9182851161112657366023860112156111265784820135928311611126573660248460051b87010111611126576001600160a01b03600254169081330361191957505060246119169394019035611f0b565b80f35b6044935051917f1cf993f400000000000000000000000000000000000000000000000000000000835233908301526024820152fd5b903461032f57602090816003193601126111265761196a611b78565b90611973611c25565b6001600160a01b03809216938415611b03578151927f70a0823100000000000000000000000000000000000000000000000000000000845230828501528484602481895afa938415611aca578794611ad4575b50836119d0578680f35b8654168251907fa9059cbb0000000000000000000000000000000000000000000000000000000082528282015283602482015284816044818a8a5af1908115611aca578791611a94575b5015611a535750519081527f5fafa99d0643513820be26656b45130b01e1c03062e1266bf36f88cbd3bd96959190a28180808080808680f35b83606492519162461bcd60e51b8352820152601560248201527f546f6b656e207472616e73666572206661696c656400000000000000000000006044820152fd5b90508481813d8311611ac3575b611aab8183611d7d565b8101031261032b5751801515810361032b5787611a1a565b503d611aa1565b83513d89823e3d90fd5b9093508481813d8311611afc575b611aec8183611d7d565b8101031261032b575192876119c6565b503d611ae2565b83606492519162461bcd60e51b8352820152600d60248201527f496e76616c696420746f6b656e000000000000000000000000000000000000006044820152fd5b9190503461032f57602036600319011261032f576020926001600160a01b03611b6b611b78565b1681526005845220548152f35b600435906001600160a01b0382168203611b8e57565b600080fd5b6024359063ffffffff82168203611b8e57565b6004359063ffffffff82168203611b8e57565b90815180825260208080930193019160005b828110611bd9575050505090565b835185529381019392810192600101611bcb565b604090611c069392151581528160208201520190611bb9565b90565b34611b8e576000366003190112611b8e57602060405160008152f35b6001600160a01b03600054163303611c3957565b606460405162461bcd60e51b815260206004820152601660248201527f4f6e6c792063616c6c61626c65206279206f776e6572000000000000000000006044820152fd5b15611c8457565b606460405162461bcd60e51b815260206004820152600e60248201527f4e6f7420617574686f72697a65640000000000000000000000000000000000006044820152fd5b15611ccf57565b606460405162461bcd60e51b815260206004820152600f60248201527f436f6f6c646f776e2061637469766500000000000000000000000000000000006044820152fd5b6020810190811067ffffffffffffffff821117611d2f57604052565b634e487b7160e01b600052604160045260246000fd5b60c0810190811067ffffffffffffffff821117611d2f57604052565b60a0810190811067ffffffffffffffff821117611d2f57604052565b90601f8019910116810190811067ffffffffffffffff821117611d2f57604052565b919082519283825260005b848110611dcb575050826000602080949584010152601f8019910116010190565b602081830181015184830182015201611daa565b60e060a0611c069360208452805160208501526020810151604085015261ffff604082015116606085015263ffffffff8060608301511660808601526080820151168285015201519160c0808201520190611d9f565b680100000000000000008211611d2f57805491808255828110611e5757505050565b60009182526020822092830192015b828110611e7257505050565b818155600101611e66565b604051907f92fd13380000000000000000000000000000000000000000000000000000000060208301525115156024820152602481526060810181811067ffffffffffffffff821117611d2f5760405290565b600260035414611ee1576002600355565b60046040517f3ee5aeb5000000000000000000000000000000000000000000000000000000008152fd5b92919060009380855260209460048652604092838220805460ff8160081c16156120db5760ff166120d1576003015461070881018091116120bd57421161207a5782825260048752838220600180918160ff198254161781550167ffffffffffffffff871161206657611f7e8782611e35565b835287832082845b888110612055575050505083519087825285888301527f07ffffffffffffffffffffffffffffffffffffffffffffffffffffffffffffff861161032f57837ffe2e2d779dba245964d4e3ef9b994be63856fd568bf7d3ca9e224755cb1bd54d8760051b938484898301378781868101030190a2838352600788526001600160a01b03858420541694519561201c89840188611d7d565b865287860191810192368411610a165750905b82821061204657505050612044939450612126565b565b8135815290870190870161202f565b813583820155908a01908301611f86565b602484634e487b7160e01b81526041600452fd5b5093948193507fb5ead3d88f01302a230f81a3014a3703926bcf32ccc114dcde8777f743d278449260046002926001600160a01b039488525285200154169280a3565b602483634e487b7160e01b81526011600452fd5b5050505050509050565b505050505050509050565b3d15612121573d9067ffffffffffffffff8211611d2f5760405191612115601f8201601f191660200184611d7d565b82523d6000602084013e565b606090565b906001600160a01b03811692831561220d576000918291826040516121958161218760208201957f2a32e8d40000000000000000000000000000000000000000000000000000000087528a6024840152604060448401526064830190611bb9565b03601f198101835282611d7d565b51925af16121a16120e6565b90156121cf57507f97a73a3f0df71dbb81244cdb12749a3ea4fb0a5b4628a2461ab8a92180e94a30600080a3565b6122087f5c5960582bfc7a494183b4e9a66bfe8ecffc07a83a48d136e732400f7b98bf5091604051918291602083526020830190611d9f565b0390a3565b50505050565b6000908152600460205260408120805460ff8160081c16156122655760ff16612261576003015490610708820180921161224d5750421190565b80634e487b7160e01b602492526011600452fd5b5090565b505090565b906001600160a01b039182600091168152602092600584526040908183205480158015612349575b61233057839295935260048352848220908551936122af85611d61565b60ff83548181161515875260081c161515818601526001968784019481519889848b958954928381520198845280842093905b8282106123185750505050506122fc826003960383611d7d565b8501526002820154166060840152015460808201525115159190565b84548a52988901988c965093830193908301906122e2565b505051925061233e83611d13565b808352803681379190565b508084526004865260ff8385205460081c1615612292565b1561236857565b606460405162461bcd60e51b815260206004820152601660248201527f476173206c696d6974206f7574206f662072616e6765000000000000000000006044820152fd5b156123b357565b606460405162461bcd60e51b815260206004820152600f60248201527f496e76616c6964206b65794861736800000000000000000000000000000000006044820152fd5b156123fe57565b606460405162461bcd60e51b815260206004820152601560248201527f496e76616c696420636f6e6669726d6174696f6e7300000000000000000000006044820152fdfea264697066735822122027fbe17b299d8de2e5f9818a1c5a6fb30d8ee305b333e930110cdac1f545feb264736f6c63430008140033",
  "linkReferences": {},
  "deployedLinkReferences": {}
}