{"abi":[{"type":"constructor","inputs":[{"name":"_wrapperAddress","type":"address","internalType":"address"}],"stateMutability":"nonpayable"},{"type":"receive","stateMutability":"payable"},{"type":"function","name":"authorizeContract","inputs":[{"name":"contract_","type":"address","internalType":"address"}],"outputs":[],"stateMutability":"nonpayable"},{"type":"function","name":"authorizedContracts","inputs":[{"name":"","type":"address","internalType":"address"}],"outputs":[{"name":"","type":"bool","internalType":"bool"}],"stateMutability":"view"},{"type":"function","name":"callbackGasLimit","inputs":[],"outputs":[{"name":"","type":"uint32","internalType":"uint32"}],"stateMutability":"view"},{"type":"function","name":"getBalance","inputs":[],"outputs":[{"name":"","type":"uint256","internalType":"uint256"}],"stateMutability":"view"},{"type":"function","name":"getLinkToken","inputs":[],"outputs":[{"name":"","type":"address","internalType":"contract LinkTokenInterface"}],"stateMutability":"view"},{"type":"function","name":"getRandomForUser","inputs":[{"name":"user","type":"address","internalType":"address"}],"outputs":[{"name":"fulfilled","type":"bool","internalType":"bool"},{"name":"randomWords","type":"uint256[]","internalType":"uint256[]"}],"stateMutability":"view"},{"type":"function","name":"getRequestStatus","inputs":[{"name":"requestId","type":"uint256","internalType":"uint256"}],"outputs":[{"name":"fulfilled","type":"bool","internalType":"bool"},{"name":"randomWords","type":"uint256[]","internalType":"uint256[]"}],"stateMutability":"view"},{"type":"function","name":"getTotalFee","inputs":[],"outputs":[{"name":"","type":"uint256","internalType":"uint256"}],"stateMutability":"view"},{"type":"function","name":"getVrfRequestPrice","inputs":[],"outputs":[{"name":"","type":"uint256","internalType":"uint256"}],"stateMutability":"view"},{"type":"function","name":"i_vrfV2PlusWrapper","inputs":[],"outputs":[{"name":"","type":"address","internalType":"contract IVRFV2PlusWrapper"}],"stateMutability":"view"},{"type":"function","name":"isAuthorized","inputs":[{"name":"_contract","type":"address","internalType":"address"}],"outputs":[{"name":"","type":"bool","internalType":"bool"}],"stateMutability":"view"},{"type":"function","name":"owner","inputs":[],"outputs":[{"name":"","type":"address","internalType":"address"}],"stateMutability":"view"},{"type":"function","name":"platformFee","inputs":[],"outputs":[{"name":"","type":"uint256","internalType":"uint256"}],"stateMutability":"view"},{"type":"function","name":"rawFulfillRandomWords","inputs":[{"name":"_requestId","type":"uint256","internalType":"uint256"},{"name":"_randomWords","type":"uint256[]","internalType":"uint256[]"}],"outputs":[],"stateMutability":"nonpayable"},{"type":"function","name":"renounceOwnership","inputs":[],"outputs":[],"stateMutability":"nonpayable"},{"type":"function","name":"requestConfirmations","inputs":[],"outputs":[{"name":"","type":"uint16","internalType":"uint16"}],"stateMutability":"view"},{"type":"function","name":"requestRandomForUser","inputs":[{"name":"user","type":"address","internalType":"address"},{"name":"quantity","type":"uint256","internalType":"uint256"},{"name":"maxRarity","type":"uint8","internalType":"uint8"},{"name":"commitment","type":"bytes32","internalType":"bytes32"}],"outputs":[{"name":"requestId","type":"uint256","internalType":"uint256"}],"stateMutability":"payable"},{"type":"function","name":"requestRandomness","inputs":[{"name":"requestType","type":"uint8","internalType":"enum IVRFManager.RequestType"},{"name":"numWords","type":"uint32","internalType":"uint32"},{"name":"data","type":"bytes","internalType":"bytes"}],"outputs":[{"name":"requestId","type":"uint256","internalType":"uint256"}],"stateMutability":"payable"},{"type":"function","name":"requests","inputs":[{"name":"requestId","type":"uint256","internalType":"uint256"}],"outputs":[{"name":"","type":"tuple","internalType":"struct IVRFManager.RandomRequest","components":[{"name":"requester","type":"address","internalType":"address"},{"name":"requestType","type":"uint8","internalType":"enum IVRFManager.RequestType"},{"name":"data","type":"bytes","internalType":"bytes"},{"name":"fulfilled","type":"bool","internalType":"bool"},{"name":"randomWords","type":"uint256[]","internalType":"uint256[]"}]}],"stateMutability":"view"},{"type":"function","name":"setAuthorizedContract","inputs":[{"name":"_contract","type":"address","internalType":"address"},{"name":"_authorized","type":"bool","internalType":"bool"}],"outputs":[],"stateMutability":"nonpayable"},{"type":"function","name":"setCallbackGasLimit","inputs":[{"name":"_limit","type":"uint32","internalType":"uint32"}],"outputs":[],"stateMutability":"nonpayable"},{"type":"function","name":"setPlatformFee","inputs":[{"name":"_fee","type":"uint256","internalType":"uint256"}],"outputs":[],"stateMutability":"nonpayable"},{"type":"function","name":"setRequestConfirmations","inputs":[{"name":"_confirmations","type":"uint16","internalType":"uint16"}],"outputs":[],"stateMutability":"nonpayable"},{"type":"function","name":"setVrfRequestPrice","inputs":[{"name":"_price","type":"uint256","internalType":"uint256"}],"outputs":[],"stateMutability":"nonpayable"},{"type":"function","name":"transferOwnership","inputs":[{"name":"newOwner","type":"address","internalType":"address"}],"outputs":[],"stateMutability":"nonpayable"},{"type":"function","name":"userRandomWords","inputs":[{"name":"","type":"address","internalType":"address"},{"name":"","type":"uint256","internalType":"uint256"}],"outputs":[{"name":"","type":"uint256","internalType":"uint256"}],"stateMutability":"view"},{"type":"function","name":"userToRequestId","inputs":[{"name":"","type":"address","internalType":"address"}],"outputs":[{"name":"","type":"uint256","internalType":"uint256"}],"stateMutability":"view"},{"type":"function","name":"vrfRequestPrice","inputs":[],"outputs":[{"name":"","type":"uint256","internalType":"uint256"}],"stateMutability":"view"},{"type":"function","name":"withdrawBNB","inputs":[],"outputs":[],"stateMutability":"nonpayable"},{"type":"event","name":"AuthorizationUpdated","inputs":[{"name":"contract_","type":"address","indexed":true,"internalType":"address"},{"name":"authorized","type":"bool","indexed":false,"internalType":"bool"}],"anonymous":false},{"type":"event","name":"OwnershipTransferred","inputs":[{"name":"previousOwner","type":"address","indexed":true,"internalType":"address"},{"name":"newOwner","type":"address","indexed":true,"internalType":"address"}],"anonymous":false},{"type":"event","name":"PlatformFeeUpdated","inputs":[{"name":"newFee","type":"uint256","indexed":false,"internalType":"uint256"}],"anonymous":false},{"type":"event","name":"RandomFulfilled","inputs":[{"name":"requestId","type":"uint256","indexed":true,"internalType":"uint256"},{"name":"randomWords","type":"uint256[]","indexed":false,"internalType":"uint256[]"}],"anonymous":false},{"type":"event","name":"RandomRequested","inputs":[{"name":"requestId","type":"uint256","indexed":true,"internalType":"uint256"},{"name":"requester","type":"address","indexed":true,"internalType":"address"},{"name":"requestType","type":"uint8","indexed":false,"internalType":"enum IVRFManager.RequestType"}],"anonymous":false},{"type":"event","name":"VRFPriceUpdated","inputs":[{"name":"newPrice","type":"uint256","indexed":false,"internalType":"uint256"}],"anonymous":false},{"type":"error","name":"OnlyVRFWrapperCanFulfill","inputs":[{"name":"have","type":"address","internalType":"address"},{"name":"want","type":"address","internalType":"address"}]},{"type":"error","name":"OwnableInvalidOwner","inputs":[{"name":"owner","type":"address","internalType":"address"}]},{"type":"error","name":"OwnableUnauthorizedAccount","inputs":[{"name":"account","type":"address","internalType":"address"}]},{"type":"error","name":"ReentrancyGuardReentrantCall","inputs":[]}],"bytecode":{"object":"0x60c06040526002805465ffffffffffff191664030007a120179055660110d9316ec0006003556611c37937e080006004553480156200003d57600080fd5b50604051620022b0380380620022b0833981016040819052620000609162000170565b33816000819050806001600160a01b0316631c4695f46040518163ffffffff1660e01b8152600401602060405180830381865afa158015620000a6573d6000803e3d6000fd5b505050506040513d601f19601f82011682018060405250810190620000cc919062000170565b6001600160a01b0390811660805290811660a052821690506200010957604051631e4fbdf760e01b81526000600482015260240160405180910390fd5b620001148162000120565b505060018055620001a2565b600080546001600160a01b038381166001600160a01b0319831681178455604051919092169283917f8be0079c531659141344cd1fd0a4f28419497f9722a3daafe3b4186f6b6457e09190a35050565b6000602082840312156200018357600080fd5b81516001600160a01b03811681146200019b57600080fd5b9392505050565b60805160a0516120be620001f2600039600081816103f7015281816106b10152818161079b01528181610d1701528181610fae0152818161181601526118850152600061052b01526120be6000f3fe6080604052600436106101c65760003560e01c80638824f5a7116100f7578063d35db10d11610095578063f2fa739211610064578063f2fa73921461054f578063f2fde38b1461056f578063fcfa22171461058f578063fe9fbb80146105a557600080fd5b8063d35db10d1461048f578063d5b9221b146104bc578063d8a4676f146104fc578063e76d51681461051c57600080fd5b80639ed0868d116100d15780639ed0868d146103e5578063a4eb718c14610419578063ab63e48314610439578063b0fb162f1461045957600080fd5b80638824f5a7146103735780638c46877e146103935780638da5cb5b146103b357600080fd5b80635681dbe9116101645780637ae316d01161013e5780637ae316d01461030957806381d12c581461031e57806386ac73f61461034b57806387fe97e41461035e57600080fd5b80635681dbe9146102a657806367561d93146102d4578063715018a6146102f457600080fd5b80631fe543e3116101a05780631fe543e31461022b57806324f746971461024b57806326232a2e1461027d5780634c52b16c1461029357600080fd5b806312065fe0146101d257806312e8e2c3146101f45780631d111d131461021657600080fd5b366101cd57005b600080fd5b3480156101de57600080fd5b50475b6040519081526020015b60405180910390f35b34801561020057600080fd5b5061021461020f3660046119d4565b6105de565b005b34801561022257600080fd5b50610214610622565b34801561023757600080fd5b50610214610246366004611a03565b6106af565b34801561025757600080fd5b506002546102689063ffffffff1681565b60405163ffffffff90911681526020016101eb565b34801561028957600080fd5b506101e160035481565b6101e16102a1366004611ae6565b610719565b3480156102b257600080fd5b506102c66102c1366004611b8f565b610ac9565b6040516101eb929190611bee565b3480156102e057600080fd5b506102146102ef366004611b8f565b610c73565b34801561030057600080fd5b50610214610cd8565b34801561031557600080fd5b506101e1610cec565b34801561032a57600080fd5b5061033e6103393660046119d4565b610da0565b6040516101eb9190611c87565b6101e1610359366004611d34565b610f2c565b34801561036a57600080fd5b506004546101e1565b34801561037f57600080fd5b5061021461038e366004611d7c565b611285565b34801561039f57600080fd5b506101e16103ae366004611da0565b6112b1565b3480156103bf57600080fd5b506000546001600160a01b03165b6040516001600160a01b0390911681526020016101eb565b3480156103f157600080fd5b506103cd7f000000000000000000000000000000000000000000000000000000000000000081565b34801561042557600080fd5b50610214610434366004611dcc565b6112e2565b34801561044557600080fd5b506102146104543660046119d4565b611306565b34801561046557600080fd5b5060025461047c90640100000000900461ffff1681565b60405161ffff90911681526020016101eb565b34801561049b57600080fd5b506101e16104aa366004611b8f565b60076020526000908152604090205481565b3480156104c857600080fd5b506104ec6104d7366004611b8f565b60066020526000908152604090205460ff1681565b60405190151581526020016101eb565b34801561050857600080fd5b506102c66105173660046119d4565b611343565b34801561052857600080fd5b507f00000000000000000000000000000000000000000000000000000000000000006103cd565b34801561055b57600080fd5b5061021461056a366004611de7565b6114b2565b34801561057b57600080fd5b5061021461058a366004611b8f565b611519565b34801561059b57600080fd5b506101e160045481565b3480156105b157600080fd5b506104ec6105c0366004611b8f565b6001600160a01b031660009081526006602052604090205460ff1690565b6105e6611557565b60038190556040518181527f45610d581145924dd7090a5017e5f2b1d6f42213bb2e95707ff86846bbfcb1ca906020015b60405180910390a150565b61062a611557565b47806106725760405162461bcd60e51b81526020600482015260126024820152714e6f20424e4220746f20776974686472617760701b60448201526064015b60405180910390fd5b600080546040516001600160a01b039091169183156108fc02918491818181858888f193505050501580156106ab573d6000803e3d6000fd5b5050565b7f0000000000000000000000000000000000000000000000000000000000000000336001600160a01b0382161461070a576040516345d498b760e11b81523360048201526001600160a01b0382166024820152604401610669565b6107148383611584565b505050565b3360009081526006602052604081205460ff166107695760405162461bcd60e51b815260206004820152600e60248201526d139bdd08185d5d1a1bdc9a5e995960921b6044820152606401610669565b6107716117bc565b6002546040516313c34b7f60e01b815263ffffffff918216600482015290851660248201526000907f00000000000000000000000000000000000000000000000000000000000000006001600160a01b0316906313c34b7f90604401602060405180830381865afa1580156107ea573d6000803e3d6000fd5b505050506040513d601f19601f8201168201806040525081019061080e9190611e25565b90506000600354826108209190611e54565b9050803410156108655760405162461bcd60e51b815260206004820152601060248201526f496e73756666696369656e742066656560801b6044820152606401610669565b60408051600160f81b60208201528151808203600101815260219091019091526002546108a79063ffffffff811690640100000000900461ffff1689846117e6565b506040805160a08101909152338152909450602081018960038111156108cf576108cf611c09565b815260200187878080601f016020809104026020016040519081016040528093929190818152602001838380828437600092018290525093855250505060208083018290526040805183815280830182529381019390935287825260058152919020825181546001600160a01b039091166001600160a01b031982168117835592840151919283916001600160a81b03191617600160a01b83600381111561097957610979611c09565b0217905550604082015160018201906109929082611ef5565b50606082015160028201805460ff1916911515919091179055608082015180516109c6916003840191602090910190611974565b50600091506109d29050565b8860038111156109e4576109e4611c09565b1480610a01575060018860038111156109ff576109ff611c09565b145b15610a33576000610a1486880188611d34565b5050506001600160a01b03166000908152600760205260409020859055505b81341115610a7357336108fc610a498434611fb5565b6040518115909202916000818181858888f19350505050158015610a71573d6000803e3d6000fd5b505b336001600160a01b0316847fca93f1e54f3c66e2912d6bd1a268c4ce86b4ed8f63e77c73a8ea55d4a3a3f6748a604051610aad9190611fc8565b60405180910390a3505050610ac160018055565b949350505050565b6001600160a01b038116600090815260076020526040812054606090808303610b0657604080516000808252602082019092529250925050915091565b6000818152600560209081526040808320815160a0810190925280546001600160a01b03811683529192909190830190600160a01b900460ff166003811115610b5157610b51611c09565b6003811115610b6257610b62611c09565b8152602001600182018054610b7690611e6d565b80601f0160208091040260200160405190810160405280929190818152602001828054610ba290611e6d565b8015610bef5780601f10610bc457610100808354040283529160200191610bef565b820191906000526020600020905b815481529060010190602001808311610bd257829003601f168201915b5050509183525050600282015460ff1615156020808301919091526003830180546040805182850281018501825282815294019392830182828015610c5357602002820191906000526020600020905b815481526020019060010190808311610c3f575b505050505081525050905080606001518160800151935093505050915091565b610c7b611557565b6001600160a01b038116600081815260066020908152604091829020805460ff1916600190811790915591519182527f2c59b8f31260880424e870332281eba93ddfef67e37d699cebe5a7ba89f7a8a6910160405180910390a250565b610ce0611557565b610cea6000611924565b565b6002546040516313c34b7f60e01b815263ffffffff90911660048201526001602482015260009081907f00000000000000000000000000000000000000000000000000000000000000006001600160a01b0316906313c34b7f90604401602060405180830381865afa158015610d66573d6000803e3d6000fd5b505050506040513d601f19601f82011682018060405250810190610d8a9190611e25565b905060035481610d9a9190611e54565b91505090565b610dd16040805160a08101909152600080825260208201908152606060208201819052600060408301529081015290565b600082815260056020908152604091829020825160a0810190935280546001600160a01b03811684529091830190600160a01b900460ff166003811115610e1a57610e1a611c09565b6003811115610e2b57610e2b611c09565b8152602001600182018054610e3f90611e6d565b80601f0160208091040260200160405190810160405280929190818152602001828054610e6b90611e6d565b8015610eb85780601f10610e8d57610100808354040283529160200191610eb8565b820191906000526020600020905b815481529060010190602001808311610e9b57829003601f168201915b5050509183525050600282015460ff1615156020808301919091526003830180546040805182850281018501825282815294019392830182828015610f1c57602002820191906000526020600020905b815481526020019060010190808311610f08575b5050505050815250509050919050565b3360009081526006602052604081205460ff16610f7c5760405162461bcd60e51b815260206004820152600e60248201526d139bdd08185d5d1a1bdc9a5e995960921b6044820152606401610669565b610f846117bc565b6002546040516313c34b7f60e01b815263ffffffff918216600482015290851660248201526000907f00000000000000000000000000000000000000000000000000000000000000006001600160a01b0316906313c34b7f90604401602060405180830381865afa158015610ffd573d6000803e3d6000fd5b505050506040513d601f19601f820116820180604052508101906110219190611e25565b90506000600354826110339190611e54565b9050803410156110785760405162461bcd60e51b815260206004820152601060248201526f496e73756666696369656e742066656560801b6044820152606401610669565b60408051600160f81b60208201528151808203600101815260219091019091526002546110ba9063ffffffff811690640100000000900461ffff1689846117e6565b50604080516001600160a01b038b16602082015290810189905260ff881660608201526080810187905290945060009060a00160408051808303601f1901815260a083018252338352600060208085018290528484018390526060850182905283518281529081019093529093506080830191905090526000868152600560209081526040909120825181546001600160a01b039091166001600160a01b031982168117835592840151919283916001600160a81b03191617600160a01b83600381111561118a5761118a611c09565b0217905550604082015160018201906111a39082611ef5565b50606082015160028201805460ff1916911515919091179055608082015180516111d7916003840191602090910190611974565b5050506001600160a01b03891660009081526007602052604090208590553483101561123557336108fc61120b8534611fb5565b6040518115909202916000818181858888f19350505050158015611233573d6000803e3d6000fd5b505b336001600160a01b0316857fca93f1e54f3c66e2912d6bd1a268c4ce86b4ed8f63e77c73a8ea55d4a3a3f67460006040516112709190611fc8565b60405180910390a350505050610ac160018055565b61128d611557565b6002805461ffff9092166401000000000265ffff0000000019909216919091179055565b600860205281600052604060002081815481106112cd57600080fd5b90600052602060002001600091509150505481565b6112ea611557565b6002805463ffffffff191663ffffffff92909216919091179055565b61130e611557565b60048190556040518181527fdef0b3e1ef5e27c284a9888d216f57fb09944d106d73a9a6962a84704ca1807990602001610617565b6000818152600560209081526040808320815160a0810190925280546001600160a01b03811683526060938593929190830190600160a01b900460ff16600381111561139157611391611c09565b60038111156113a2576113a2611c09565b81526020016001820180546113b690611e6d565b80601f01602080910402602001604051908101604052809291908181526020018280546113e290611e6d565b801561142f5780601f106114045761010080835404028352916020019161142f565b820191906000526020600020905b81548152906001019060200180831161141257829003601f168201915b5050509183525050600282015460ff161515602080830191909152600383018054604080518285028101850182528281529401939283018282801561149357602002820191906000526020600020905b81548152602001906001019080831161147f575b5050505050815250509050806060015181608001519250925050915091565b6114ba611557565b6001600160a01b038216600081815260066020908152604091829020805460ff191685151590811790915591519182527f2c59b8f31260880424e870332281eba93ddfef67e37d699cebe5a7ba89f7a8a6910160405180910390a25050565b611521611557565b6001600160a01b03811661154b57604051631e4fbdf760e01b815260006004820152602401610669565b61155481611924565b50565b6000546001600160a01b03163314610cea5760405163118cdaa760e01b8152336004820152602401610669565b6000828152600560205260409020600281015460ff16156115db5760405162461bcd60e51b8152602060048201526011602482015270105b1c9958591e48199d5b199a5b1b1959607a1b6044820152606401610669565b60028101805460ff1916600117905581516115ff9060038301906020850190611974565b5060008154600160a01b900460ff16600381111561161f5761161f611c09565b1480611647575060018154600160a01b900460ff16600381111561164557611645611c09565b145b1561172257600081600101805461165d90611e6d565b80601f016020809104026020016040519081016040528092919081815260200182805461168990611e6d565b80156116d65780601f106116ab576101008083540402835291602001916116d6565b820191906000526020600020905b8154815290600101906020018083116116b957829003601f168201915b50505050508060200190518101906116ee9190611fd6565b5050506001600160a01b0381166000908152600860209081526040909120855192935061171f929091860190611974565b50505b8054604051630a8cba3560e21b81526001600160a01b0390911690632a32e8d490611753908690869060040161201f565b600060405180830381600087803b15801561176d57600080fd5b505af192505050801561177e575060015b50827f9f1a143e0ae48a733432a8f7f1c23bf13298022ac471e7a2557a400893298591836040516117af9190612038565b60405180910390a2505050565b6002600154036117df57604051633ee5aeb560e01b815260040160405180910390fd5b6002600155565b6040516313c34b7f60e01b815263ffffffff80861660048301528316602482015260009081906001600160a01b037f000000000000000000000000000000000000000000000000000000000000000016906313c34b7f90604401602060405180830381865afa15801561185d573d6000803e3d6000fd5b505050506040513d601f19601f820116820180604052508101906118819190611e25565b90507f00000000000000000000000000000000000000000000000000000000000000006001600160a01b0316639cfc058e82888888886040518663ffffffff1660e01b81526004016118d6949392919061204b565b60206040518083038185885af11580156118f4573d6000803e3d6000fd5b50505050506040513d601f19601f820116820180604052508101906119199190611e25565b915094509492505050565b600080546001600160a01b038381166001600160a01b0319831681178455604051919092169283917f8be0079c531659141344cd1fd0a4f28419497f9722a3daafe3b4186f6b6457e09190a35050565b8280548282559060005260206000209081019282156119af579160200282015b828111156119af578251825591602001919060010190611994565b506119bb9291506119bf565b5090565b5b808211156119bb57600081556001016119c0565b6000602082840312156119e657600080fd5b5035919050565b634e487b7160e01b600052604160045260246000fd5b60008060408385031215611a1657600080fd5b8235915060208084013567ffffffffffffffff80821115611a3657600080fd5b818601915086601f830112611a4a57600080fd5b813581811115611a5c57611a5c6119ed565b8060051b604051601f19603f83011681018181108582111715611a8157611a816119ed565b604052918252848201925083810185019189831115611a9f57600080fd5b938501935b82851015611abd57843584529385019392850192611aa4565b8096505050505050509250929050565b803563ffffffff81168114611ae157600080fd5b919050565b60008060008060608587031215611afc57600080fd5b843560048110611b0b57600080fd5b9350611b1960208601611acd565b9250604085013567ffffffffffffffff80821115611b3657600080fd5b818701915087601f830112611b4a57600080fd5b813581811115611b5957600080fd5b886020828501011115611b6b57600080fd5b95989497505060200194505050565b6001600160a01b038116811461155457600080fd5b600060208284031215611ba157600080fd5b8135611bac81611b7a565b9392505050565b600081518084526020808501945080840160005b83811015611be357815187529582019590820190600101611bc7565b509495945050505050565b8215158152604060208201526000610ac16040830184611bb3565b634e487b7160e01b600052602160045260246000fd5b60048110611c3d57634e487b7160e01b600052602160045260246000fd5b9052565b6000815180845260005b81811015611c6757602081850181015186830182015201611c4b565b506000602082860101526020601f19601f83011685010191505092915050565b602080825282516001600160a01b0316828201528281015160009190611cb06040850182611c1f565b50604084015160a06060850152611cca60c0850182611c41565b60608601511515608086810191909152860151858203601f190160a0870152805180835290840192506000918401905b80831015611d1a5783518252928401926001929092019190840190611cfa565b509695505050505050565b60ff8116811461155457600080fd5b60008060008060808587031215611d4a57600080fd5b8435611d5581611b7a565b9350602085013592506040850135611d6c81611d25565b9396929550929360600135925050565b600060208284031215611d8e57600080fd5b813561ffff81168114611bac57600080fd5b60008060408385031215611db357600080fd5b8235611dbe81611b7a565b946020939093013593505050565b600060208284031215611dde57600080fd5b611bac82611acd565b60008060408385031215611dfa57600080fd5b8235611e0581611b7a565b915060208301358015158114611e1a57600080fd5b809150509250929050565b600060208284031215611e3757600080fd5b5051919050565b634e487b7160e01b600052601160045260246000fd5b80820180821115611e6757611e67611e3e565b92915050565b600181811c90821680611e8157607f821691505b602082108103611ea157634e487b7160e01b600052602260045260246000fd5b50919050565b601f82111561071457600081815260208120601f850160051c81016020861015611ece5750805b601f850160051c820191505b81811015611eed57828155600101611eda565b505050505050565b815167ffffffffffffffff811115611f0f57611f0f6119ed565b611f2381611f1d8454611e6d565b84611ea7565b602080601f831160018114611f585760008415611f405750858301515b600019600386901b1c1916600185901b178555611eed565b600085815260208120601f198616915b82811015611f8757888601518255948401946001909101908401611f68565b5085821015611fa55787850151600019600388901b60f8161c191681555b5050505050600190811b01905550565b81810381811115611e6757611e67611e3e565b60208101611e678284611c1f565b60008060008060808587031215611fec57600080fd5b8451611ff781611b7a565b60208601516040870151919550935061200f81611d25565b6060959095015193969295505050565b828152604060208201526000610ac16040830184611bb3565b602081526000611bac6020830184611bb3565b600063ffffffff808716835261ffff861660208401528085166040840152506080606083015261207e6080830184611c41565b969550505050505056fea264697066735822122056b41381aa96d2f09175931fbbf99253343a2f866a14f858e16e887f1909592b64736f6c63430008140033","linkReferences":{}},"methodIdentifiers":{"authorizeContract(address)":"67561d93","authorizedContracts(address)":"d5b9221b","callbackGasLimit()":"24f74697","getBalance()":"12065fe0","getLinkToken()":"e76d5168","getRandomForUser(address)":"5681dbe9","getRequestStatus(uint256)":"d8a4676f","getTotalFee()":"7ae316d0","getVrfRequestPrice()":"87fe97e4","i_vrfV2PlusWrapper()":"9ed0868d","isAuthorized(address)":"fe9fbb80","owner()":"8da5cb5b","platformFee()":"26232a2e","rawFulfillRandomWords(uint256,uint256[])":"1fe543e3","renounceOwnership()":"715018a6","requestConfirmations()":"b0fb162f","requestRandomForUser(address,uint256,uint8,bytes32)":"86ac73f6","requestRandomness(uint8,uint32,bytes)":"4c52b16c","requests(uint256)":"81d12c58","setAuthorizedContract(address,bool)":"f2fa7392","setCallbackGasLimit(uint32)":"a4eb718c","setPlatformFee(uint256)":"12e8e2c3","setRequestConfirmations(uint16)":"8824f5a7","setVrfRequestPrice(uint256)":"ab63e483","transferOwnership(address)":"f2fde38b","userRandomWords(address,uint256)":"8c46877e","userToRequestId(address)":"d35db10d","vrfRequestPrice()":"fcfa2217","withdrawBNB()":"1d111d13"},"id":0}